:020000040800F2
:1000000000800020154B0008ED4A0008EF4A000868
:10001000F14A0008F34A0008F54A00080000000011
:10002000000000000000000000000000F74A000887
:10003000F94A000800000000FB4A0008FD4A0008D9
:10004000654B0008654B0008654B0008654B0008D0
:10005000654B0008654B0008654B0008654B0008C0
:10006000654B0008654B0008654B0008654B0008B0
:10007000654B0008654B0008654B0008654B0008A0
:10008000654B000800000000654B0008654B000848
:10009000654B0008654B0008654B0008654B000880
:1000A000654B0008654B0008654B0008654B000870
:1000B000654B0008654B0008654B0008654B000860
:1000C000654B0008654B0008654B0008654B000850
:1000D000654B0008D5220008654B0008654B0008F9
:1000E000654B0008654B0008654B0008654B000830
:1000F000654B0008654B0008654B000800000000D8
:1001000000000000654B000800000000654B00087F
:10011000654B000800000000654B0008654B0008B7
:10012000654B0008654B0008654B0008654B0008EF
:10013000654B00080000000000000000654B00084F
:10014000654B0008654B000800000000000000003F
:10015000000000000000000000000000000000009F
:10016000000000000000000000000000654B0008D7
:10017000654B0008000000000000000000000000C7
:1001800000000000654B00080000000000000000B7
:10019000000000000000000000000000000000005F
:1001A0000000000000000000654B0008654B0008DF
:1001B000654B0008654B0008654B00080000000017
:1001C00000000000654B0008000000000000000077
:0801D000654B0008654B0008B7
:1001D80010B5054C237833B9044B13B10448AFF379
:1001E80000800123237010BD600000200000000083
:1001F8003861000808B5034B1BB103490348AFF346
:10020800008008BD0000000064000020386100087C
:10021800034613F8012B002AFBD1181A013870473E
:10022800006870470B0A017043700B0C090E83704D
:10023800C170704783690239023B8B4283BF43898F
:10024800C06A01FB03000020704700F10B01002287
:10025800D30143EA520310F8012B52FA83F3884280
:10026800DAB2F5D11046704703685A1C0260187854
:10027800A0F16103192B01D8203870477F2882BF6D
:10028800024B1B1813F8800C704700BF6961000807
:10029800F0B585B00546019114461E46E3B223B970
:1002A8002B785BB954B1012004E001A8FFF7DCFF0B
:1002B80010B9002005B0F0BD013CEFE7019B0295A5
:1002C8000393029803783F2B01D02A2B1FD1002ECD
:1002D800EFD0002210F8013B3F2B03780CBF01320E
:1002E80042F480723F2BF5D02A2BF3D0039F029063
:1002F800731E3946FFF7CCFF0028D4D1397801A8FE
:10030800FFF7B2FF002CD4D00029D7D1D1E702A83B
:10031800FFF7AAFF074603A8FFF7A6FF8742014693
:10032800EDD1002FCDD1BEE702684AB1134613F8CC
:10033800011B1F290BD93A29F9D1911C8B4202D0F4
:100348004FF0FF3070471278302AF9D1036000204F
:10035800704738B50D46044618B9092000232B60AC
:1003680038BD0368002BF8D01A78002AF5D08188A8
:10037800DA889142F1D1587802F048FB10F0010078
:10038800EBD12368EBE737B5037904461BB90025A1
:10039800284603B030BD00F13401026B407801916A
:1003A800012302F07FFB054680B9636A2071206B48
:1003B800E269C31A9342EAD2E3780199022BE6D1A3
:1003C80002440123607802F06DFBE1E70125DFE7D5
:1003D80038B5036B8B4205460C4610D0FFF7D3FFA8
:1003E80060B922466878012305F1340102F018FB50
:1003F80000281CBF4FF0FF3401202C6338BD0020BB
:10040800FCE7000038B5002303714FF0FF330363A6
:100418000446FFF7DDFF00283FD194F83430B4F8E4
:100428003252EB2B03D01833DBB2012B2ED84AF60D
:1004380055239D4206D11B49082204F1860005F088
:10044800F1FD48B3B4F83F30B3F5007F1ED194F8FE
:100458004130DBB15A1E1A4218D1B4F84230ABB160
:1004680094F84430013B012B10D8B4F845306BB1F7
:10047800B4F847307F2B06D804F15400FFF7D0FEBC
:10048800B0F5803F02D3B4F84A3043B94AF6552054
:1004980085420CBF0220032038BD0420FCE7002061
:1004A800FAE700BF5061000801292DE9F047064628
:1004B8000C46174673D983698B4270D90378022B8F
:1004C8003FD0032B50D0012B69D101EB5108416A71
:1004D80001EB5821FFF77CFF054638BB06F13409CC
:1004E80008F1010AC8F3080814F001041FBF19F83D
:1004F80008203B0103F0F00302F00F0214BF13437E
:10050800FBB209F80830716A0123337101EB5A21F3
:100518003046FFF75DFF054640B9CAF3080A44B103
:10052800C7F3071709F80A70012333712846BDE895
:10053800F08719F80A30C7F3032723F00F031F4386
:10054800F0E7416A01EB1421FFF742FF0546002856
:10055800ECD1640006F1340304F4FF741A191F5532
:10056800C7F307275770DFE7416A01EBD411FFF79C
:100578002FFF05460028D9D1A40006F1340304F45E
:10058800FE7423441846FFF74BFE27F0704700F02F
:10059800704047EA00011846FFF744FEC4E7022509
:1005A800C4E700002DE9FF4100230B600E46154605
:1005B800FFF7BAFE0028C0F2CF806E4B53F82040F8
:1005C800002C00F0CB8034602378607805F0FE05BD
:1005D80063B102F01BFAC60708D41DB110F0040578
:1005E80000D00A25284604B0BDE8F08100236078D1
:1005F800237002F071F9C10700F1B2800DB1420712
:10060800EFD400212046FFF7FDFE022840F08F803E
:100618006E4604F5FD7304F23A2132461846FFF798
:10062800FFFD10338B4242F8040BF7D1002556F832
:10063800041B002973D02046FFF7E4FE01286FD879
:10064800B4F83F30D4F83080B3F5007F73D1B4F8F4
:100658004A5025B904F15800FFF7E2FD054694F821
:100668004410E5614B1E012BE17064D894F8416099
:100678006681002E5FD0731E33425CD1B4F845709A
:1006880027813B0757D1B4F8473023B904F1540008
:10069800FFF7C6FD0346B4F8420000284BD005FB1F
:1006A80001FE00EB171CF444634544D3A3EB0C0193
:1006B800B142B1FBF6F33ED32F498B423BD84FF6FC
:1006C800F5718B424ED903260233404408EB0C02E5
:1006D800032EA361C4F820806062E2622DD1B4F8D1
:1006E8005E203A4327D104F16000FFF799FD9B0093
:1006F80003F2FF13B5EB532FA0621CD31F4A2670D9
:100708004FF0FF33C4E90433802363711388013346
:100718009BB21380E3801A4BE360002562E7032055
:100728000135042D83D1042805D101255AE7042871
:10073800FBD0012884D90D2554E7002FFBD0022EC9
:100748004FEA43011CBFC91803F0010370440CBFF2
:100758000B4603EB5103CBE70B2543E70C2541E799
:1007680003253FE740F6F576B3428CBF0226012603
:10077800AAE700BF7C000020F5FFFF0F80000020E3
:100788008200002003284B8B04BF8A8A43EA024375
:10079800184670470129F8B506460C464ED98369B4
:1007A80099424BD20378022B29D0032B34D0012B4A
:1007B80044D101EB5105416A01EB5521FFF708FED1
:1007C80010B14FF0FF30F8BD6F1C716AC5F3080512
:1007D800354401EB5721304695F83450FFF7F8FDC2
:1007E8000028EED1C7F30807374497F8343045EAB4
:1007F8000320E3074CBF0009C0F30B00E3E7416A9D
:1008080001EB1421FFF7E4FD0028DAD1640004F4B9
:10081800FF743444A08ED6E7416A01EBD411FFF788
:10082800D7FD0028CDD1A40006F1340004F4FE74ED
:100838002044FFF7F5FC20F07040C4E70120C2E730
:100848002DE9F041056880460F4649B92E69C6B1C1
:10085800AB69B34298BF01266B69A3B9002406E0CF
:100868002846FFF797FF0128044603D801242046AD
:10087800BDE8F081421C51D0AB698342F7D83E46AF
:10088800EAE70126E8E7BE42AB6914D1741CA3422B
:1008980098BF0224D8F800002146FFF77BFF012803
:1008A800E4D0431C3AD0D8B12B69012B03D9AA69EB
:1008B8009A4288BF1E463446AB690134A34202D827
:1008C800012ECBD00224D8F800002146FFF762FFA2
:1008D80040B10128CAD0013020D0B442ECD1BDE7E4
:1008E800002CE8D04FF0FF3221462846FFF7DCFD08
:1008F80090B957B9D5E90532023A93422C6110D91B
:100908006B7943F001036B71B1E7224639462846FB
:10091800FFF7CAFD0028EDD00128A7D14FF0FF341A
:10092800A5E7013B6B61EBE703692DE9F74F03F19D
:100938002008B8F5001F24BF002383618369046879
:100948000546894673B1C8F3080ABAF1000F50D1B9
:1009580041690133836139B92389B3EB581F48D8FA
:100968000023AB6104200BE06789013F17EA582791
:100978003FD12046FFF70EFF0128064603D8022084
:1009880003B0BDE8F08F421C01D10120F8E7A3694C
:10099800834228D8B9F1000FE2D069692846FFF7E9
:1009A8004FFF0646002836D00128E8D0431CECD07B
:1009B8002046FFF7E8FC01900028E6D131462046A2
:1009C800FFF738FC019B206304F1340B81464FF498
:1009D80000721946584605F035FB63899F420FD3CC
:1009E80063899F42D1D16E6131462046FFF722FCD0
:1009F800A86134345444C5F81080EC610020BFE786
:100A08006078012309EB0702594602F04BF80028E9
:100A1800E6D10137E1E70720B2E7B1F5001FF8B5E5
:100A2800056806460C4601D30220F8BDCA06FBD16C
:100A380082680161BAB92B78022B01D9AB6A9BB9DC
:100A48002B89B3EB541FEFD9A86AC6E90520002803
:100A5800EAD000EB54203435C4F308042544B061CF
:100A6800F5610020E1E713466F891A467F02BC4210
:100A7800114603D22846FFF7DDFBE6E73068FFF7AB
:100A880089FE431C024606D00128CDD9AB698342B2
:100A9800CAD9E41BEBE70120C7E700002DE9F04FB6
:100AA800002185B0D0F800B00446FFF7B6FF054630
:100AB800002840F08D804FF0FF3A4FF0FF08C4F84F
:100AC8002CA0C146A1695846FFF782FC05460028BC
:100AD8007ED1E6693778002F7ED0F27AE52F02F0D2
:100AE8003F03A37103D0100704D50F2B04D0C4F81B
:100AF8002CA050E00F2B56D194F82B30590640D437
:100B08007A0646D5236996F80D80E36207F0BF0799
:100B1800737B43453FD1738B002B3CD13578DBF891
:100B28000C30009305F03F05013D0D23DFF8B09030
:100B38005D43012219F8013BF35A7AB3282D2AD8CC
:100B48001846039300F04EFF009B0290691C33F88F
:100B58001500019100F046FF029A82421BD1039BC7
:100B680001991A460D461D4B9945E3D133785B062A
:100B780004D51AB1009B33F8153063B9013F5FFA09
:100B880087F900212046FFF7CFFE0546002899D0B7
:100B98001EE0B945BCD04FF0FF09F2E74FF6FF71F0
:100BA8008B42E0D0F7E7B9F1000F04D13046FFF7E8
:100BB8004CFB40450CD094F82B5015F0010596D10C
:100BC8000B2204F12001304605F02CFA00288ED1C2
:100BD800284605B0BDE8F08F0425F9E7F66100085E
:100BE800E96100082DE9F04F85B0036801930646D6
:100BF8008A4611F8013B2F2BFAD05C2BF8D0002144
:100C0800B1609AF800301F2B00F212818023304621
:100C180086F82B3005B0BDE8F04FFFF7FEBE53460F
:100C28001C782F2C9A4603F10103F9D05C2CF7D0DD
:100C38001F2C8CBF00240124A400ABF10202AFBB1F
:100C480000232BF81730002F00F017813BF81320F2
:100C5800202A194603F10103F8D009B92E2A02D136
:100C680044F00304E4B2ABF1020232F817302E2B41
:100C780001D0013FF9D14FF020334FF000097362E2
:100C88003362C6F82730C84608233BF811504A1C7F
:100C98000DB3202D03D02E2D10D1BA4212D044F01E
:100CA8000304E4B21146F0E70424C6E732F817302B
:100CB800202B01D02E2BC3D1013FC0E7994504D288
:100CC800BA424FD10B2B44D101E00B2B3BD144F05E
:100CD8000304E4B20B2396F82020E52A04BF05227A
:100CE80086F82020082B04BF4FEA88085FFA88F8A6
:100CF80008F00C030C2B03D008F00303032B02D1DC
:100D080044F00204E4B2A1070BD418F0010F1CBF91
:100D180044F01004E4B218F0040F1CBF44F00804B7
:100D2800E4B286F82B403046FFF7B8FE96F82B3031
:100D380000286CD0042803D113F0040F08BF052045
:100D480005B0BDE8F08FBA4203D044F00304E4B222
:100D5800C1D84FEA88085FFA88F83A460B234FF063
:100D680008099FE77F2D3ED944F00201CDE902230F
:100D78002846CBB240F2B511009300F0FFFD10F009
:100D8800800FDDE90223054614D03E4900F07F05B7
:100D98004D5D45B13C482946CDE9022305F069F986
:100DA800DDE9022308B3009941F00301C9B20091BB
:100DB8005F2510E0FF28ECD9591E894504D344F07B
:100DC8000304E4B299466DE706EB0901000A81F8CD
:100DD800200009F1010906EB0901009C81F8205067
:100DE80009F101095EE70094D4E7A5F1410189B250
:100DF800192902D848F00208EDE7A5F1610189B286
:100E080019299EBF203D48F00108ADB2E3E75A0713
:100E180096D4B379DB0632D5019B03F134013369EB
:100E2800C3F308031944019B1878FFF7ABFCB060C3
:100E38003368D3F80CB000271AF8010B00283FF4E8
:100E480033AF40F2B51100F0B9FD0446A8B11F2830
:100E58007FF62AAF2F283FF4E2AE5C283FF4DFAEDE
:100E68007F2804D80146094805F003F928B9282F36
:100E780003D02BF817400137DEE7062060E705208E
:100E88005EE700BF696100086261000859610008F7
:100E98001FB5CDE9001003A814460391FFF744FAE3
:100EA800002818DB0D4A52F820301BB1002142F807
:100EB80020101970019B23B100215870197042F855
:100EC80020302CB1002201A96846FFF76BFB0446CD
:100ED800204604B010BD0B24FAE700BF7C000020B8
:100EE8002DE9F04F99B0144603910546002800F00B
:100EF800658102F03F073A4605A903A8FFF752FBB0
:100F08008346D0B9059E03990B960BA8FFF76AFE96
:100F180020B99DF95730002BB8BF062014F01C0FDC
:100F280000F02B81002800F09D80042805D19DF851
:100F380057A01AF0A00404D0062000232B60834693
:100F4800E0E0DDF82C80D8F80C2032F81430002BC3
:100F580066D113AA07CA08AB1AF0010F83E8070085
:100F680000F0348140238DF857304FF0010908AA6A
:100F780007CA13ABD8F80CC003C323F8022BB9F186
:100F8800050F4FEA12421A705DD9ACF102014B46C7
:100F980031F8022F002A45D108A8072203F00F0CC8
:100FA8000CF13001392988BF0CF13701013A9E460E
:100FB80000F8011D4FEA131302D0BEF10F0FEDD850
:100FC80002F160036B447E2103F8481C0DF14B01CC
:100FD80000239A4205D011F8010F202803F1010CD3
:100FE80033D1072A9CBF02F16001694403F1010370
:100FF8000BA8184496BF11F8481C20210132082B71
:10100800C177EED10BA8FFF749FD0346002840F051
:10101800D88009F10109B9F1640FA8D107208CE73C
:10102800013492E7102002F0010C0CEB430313F497
:10103800803F1CBF83F4883383F0210301384FEAD3
:101048005202F0D1A4E74B46A6E76346C1E78246C1
:1010580001210BA8FFF768FC002800F0CD800428C8
:10106800DCD06AE79DF8323013F0110FD6D1600753
:1010780000F1A080210700F14E81336B2B62390704
:1010880012996962307848BF47F04007FFF77AFB4A
:10109800A860044601F11C00FFF7C2F80021F3889C
:1010A800E86005F128094FF4007280462E60AB8095
:1010B8002F746974E9616961484604F0C3FFBA0690
:1010C80020D5B8F1000F1DD07789C5F814807F02AC
:1010D800474560D30020AC6100287FF42EAFC8F3E9
:1010E80008037BB121463046FFF7A4F8002800F03A
:1010F800408100EB5822EA6170780123494601F0EB
:101108008FFCC0B9584619B0BDE8F08FDAF818302E
:10111800984280F02E81804641460B98CDF8008099
:10112800FFF738FB8046F8B1012800F02281B0F1C2
:10113800FF3F009901D10120FFE600225046FFF74A
:10114800B3F900287FF4F9AEDAE90532911E8B4233
:1011580008D20133CAF814309AF8053043F0010375
:101168008AF805309045D7D349463046FFF730F91D
:10117800013C3461002880D0DFE600287FF4DDAE32
:101188009DF83230DA0617D4A4077FF576AFD80772
:101198003FF544AF71E721462868FFF7FBFA0128BD
:1011A8000446A8EB070803D9431C91D1012092E714
:1011B800022090E70820C0E60420BEE64FF0090BA5
:1011C800A0E704287FF4B9AE8DF857A01AF0020FF3
:1011D80018BF0C344FF000010BA816BF0D230124D3
:1011E800B4FBF3F4DDF82C9018BF0134FFF715FCBD
:1011F80000287FF434AF824611994846FFF7E8F893
:1012080000287FF42CAF129B1B78E52B02D0002B13
:101218007FF41DAF0AF1010A54457FF419AF013C70
:1012280059D00F990BA8A1EB4411FFF7F6FB002842
:101238007FF483AE13A8FFF708F84FF6FF79029002
:1012480011994046FFF7C4F8844600287FF475AE2C
:10125800129B029AD8F80CA05A73E1B24FF00F0211
:10126800DA7218739876D8764A1E0D204243009297
:10127800414A0192604648451FBF009A3AF8120059
:1012880001320092019A12F801EB01920CF1010C63
:1012980003EB0E0203F80E004FEA102E002808BFD9
:1012A8004846BCF10D0F82F801E0E4D1484503D06F
:1012B800009A3AF812200AB941F040011970012346
:1012C80088F8043000210BA8FFF72EFB00287FF4D4
:1012D80034AE013CB4D111994046FFF779F80028A3
:1012E8007FF42BAE01462022129804F0ABFE13AB1C
:1012F80003CB129A1060516019889B789372118100
:101308009DF85730129A03F018031373012388F8D5
:10131800043047F0080702F017F9014600901298C8
:101328000E30FEF77FFF129800991630FEF77AFF0D
:1013380012993078FFF726FA2023CB72129A0023ED
:101348009376D3763178032904BF13755375129AAF
:10135800137753779377D3770123044633710028A3
:101368003FF48BAE9842D6F83090DDF82CA07FF48D
:10137800CDAE0220E1E500BFE96100082DE9F04F9C
:101388009A4685B000238846CAF8003003A9044667
:101398001646FEF7DEFF054630BB657C25BB237C81
:1013A8009A0740F1AA806369F34228BFDE4304F13B
:1013B800280BAEB16369C3F30802002A40F08B80A2
:1013C800DDF80C90B9F80A70013F17EA53271ED1CF
:1013D80073B9A06870B901462046FFF731FA48B9D9
:1013E800237C43F040032374284605B0BDE8F08F02
:1013F800A169F1E7012802D102256574F4E7431CCD
:1014080001D10125F9E7A368A06103B9A06094F9A7
:101418001030002B0CDAE26999F8010001235946D3
:1014280001F040FB0028ECD1237C03F07F032374F8
:10143800A1694846FEF7FEFE0028DDD0B6F5007F1C
:1014480007EB000235D3B9F80A1007EB562088429B
:101458004FEA562399F8010088BFCB1B4146CDE9D6
:10146800002301F01FFB0028CBD1E169009A019B02
:10147800891A99420CD24FF4007208EB4121584660
:10148800009304F047FE227C009B02F07F02227446
:101498005F02DAF800303B44CAF800306369F61B93
:1014A800B8441F44E3686761BB422CBFE360E76050
:1014B8007FE7E169636991420CD0E168994209D9F3
:1014C80099F8010000920123594601F0A9FA009AFF
:1014D800002896D1E2616069C0F30800C0F5007782
:1014E800B74228BF37463A464146584404F012FEF0
:1014F800237C63F07F032374CBE7072574E72DE98A
:10150800F34101A90546FEF724FF002840F08E802C
:101518002B7C13F0400000F089801B06019C0CD541
:10152800EA696078012305F1280101F0BBFA002877
:101538007FD12B7C03F07F032B7402F005F8296A16
:1015480006462046FEF744FF00286FD16A6AD37A20
:1015580043F02003D372AB6829689376C3F307205E
:10156800D0760978032901BF1B0C13751B0A537524
:1015780002F11C00E968FEF755FE314602F116003B
:10158800FEF750FE00239374D37401232371204681
:10159800FEF7F9FE0646002844D12378032B39D1FB
:1015A80094F80580B8F1010F34D104F134070146ED
:1015B8004FF40072384604F045FD552384F8323262
:1015C800AA2384F8333252234122722184F834301A
:1015D80084F83530612384F8363084F81B3284F877
:1015E800372084F8181284F8191284F81A226169CD
:1015F80004F50770FEF716FE216904F50870FEF77A
:1016080011FE226A6078013222634346394601F0AE
:1016180049FA667100226078114601F095FA00389F
:1016280018BF01202B7C23F040032B7402B0BDE8C7
:10163800F0810120FAE730B585B00446019140B346
:10164800002203A901A8FEF7ADFF70B9039D019917
:1016580025602046FFF7C6FAE8B994F92B30002B2D
:101668000BDBA379DB0603D40520002323600EE0FF
:101678002878E169FFF786F8A060EB88A38000214D
:101688002046FFF7CAF90428EED00028EDD105B0AE
:1016980030BD0920FBE70428E6D0E6E713B501A929
:1016A8000446FEF756FE00B9206002B010BD0000E7
:1016B8002DE9F74F0C4601A90546FEF74AFE0746F5
:1016C800002870D134B92146284603B0BDE8F04F50
:1016D800FFF7A3B94FF0FF08D5F80090464604205D
:1016E8004FF6FF7AA96911B900286FD056E048462D
:1016F800FEF76EFE002851D1E8690378002B00F050
:10170800B380C27AE52B02F03F02AA7151D02E2B8A
:101718004FD022F0200108294BD00F2A4ED159066C
:1017280045D503F0BF062B6990F80D80EB62437B2B
:1017380043453ED1428B002A3BD10378D9F80C109F
:10174800DFF8E4E123F040034FF00D0C013B0CFB04
:1017580003F34FF0010C1EF801BB30F80BB0BCF1DD
:10176800000F28D0282B24D821F813B0DC460133E9
:1017780001320D2AEFD10278520607D5BCF1000FCD
:1017880004D0282B15D8002221F81320013EF6B2E8
:1017980000212846FFF7C8F80028A3D00023042812
:1017A800AB6113D00746384603B0BDE8F08FB342AB
:1017B800BDD0FF26ECE7D345DAD0FAE71EB9FEF72D
:1017C80044FD404502D04FF0FF33EB624FF0000874
:1017D800D5F800B084F81680AB69002B00F099802A
:1017E800EB6A013378D1E96900234E1E18464FF0A1
:1017F8002E0C16F8012F202A00F1010010D0052A1E
:1018080008BFE522092806D10B2B9EBF04EB030E67
:1018180001338EF809C004EB030E01338EF809205A
:101828000B28E6D1E21800205072A27D002A63D16D
:10183800002B58D06FF0070C04F108000826ACEB19
:10184800040C0CEB000310F8012F002A4ED02E2AAE
:1018580093B266D0A3F14102192A03D80A7B164233
:1018680000D020334373ECE7042097E7B9F1000F69
:1018780005D100F520539BB2B3F5006F13D340F2A6
:10188800B51140EA094000F079F8FF28C6F1FF0ACF
:101898001AD9BAF1010F22D9A319020A9A75D87573
:1018A80002231E44002008F102088146DBF80C30B0
:1018B80033F808000028D9D1B9F1000F18BF002665
:1018C80026440023B3758EE748B1BAF1000F08D05B
:1018D800A31998750123E4E7C1464646E6E70026C2
:1018E800EAE75646E8E73F23A3750123234400228D
:1018F8009A750B7B03B96372CB7A03F03F032372AB
:1019080001F11C00FEF78CFC2060CB8AE3800B8B76
:10191800A38000212846FFF707F8042818BF0746C8
:1019280041E7102613469DE7E9610008F8B5064629
:101938000C4601F1160721463046FFF7B9FE054669
:1019480050B94CB1A37D3BB102460423306B3946F4
:10195800FEF79EFC0028EED02846F8BD38B50D46A7
:10196800036311460446FFF766FE28B92946204658
:10197800BDE83840FFF7DABF38BD00007F2810B552
:1019880001D880B210BDB0F5803F13D240F2B51334
:1019980099420FD10849002231F8024B844293B290
:1019A80003D103F18000C0B2ECE70132802AF3D101
:1019B8001346F6E70020E5E7A46400087F280DD960
:1019C80040F2B513994208D1FF2806D800F100402B
:1019D800034B803833F8100070470020704700BF71
:1019E800A4640008B0F5803FF0B522D21F4A204910
:1019F80083B2B0F5805F28BF0A46141D34F8042C62
:101A08002146AAB1934213D334F8025C2E0AEFB2EE
:101A180052FA85F5A84223DA082E09D8DFE806F03D
:101A2800050A10131517191B1D00801A34F81030F9
:101A38001846F0BD9A1A02F001029A1A93B2F7E713
:101A4800103B9BB2F4E7203BFBE7303BF9E71A3B3E
:101A5800F7E70833F5E7503BF3E7A3F5E353F0E77F
:101A68000434002ECAD101EB4702C6E7F66100082C
:101A7800E8630008054B9A6C02439A649B6C82B039
:101A880003400193019B02B0704700BF0010024061
:101A9800054BDA6C0243DA64DB6C82B003400193D5
:101AA800019B02B0704700BF00100240054B9A6DC1
:101AB80002439A659B6D82B003400193019B02B07B
:101AC800704700BF00100240054B1A6E02431A66A9
:101AD8001B6E82B003400193019B02B0704700BFA8
:101AE8000010024030B58C0904F00C04303001F0CD
:101AF8001F0103591F258D40C2F3846223EA0503A1
:101B08008A401343035130BDF0B5134C85B00646E7
:101B18000D466846611804F0FDFA3046012300229C
:101B280002F110076F4414F8011B17F8107C1F42CC
:101B380018BF41F0800100F8011B811B89B25B00CE
:101B48008D429BB201D805B0F0BD802B02BF013297
:101B580092B20123E4E700BF36070020CA0D10B592
:101B680002F004021430C1F30451845807238B4057
:101B78002343835010BD0000054B1B5C03F18043D9
:101B880003F500331A6822F001021A60704700BF9B
:101B9800BB670008054B1B5C03F1804303F500336A
:101BA8001A6842F001021A60704700BFBB6700085C
:101BB800074B084A5B6A02F5006353E8003F43F0AD
:101BC800200302F5006040E800310029F3D1704796
:101BD8000038014000300140028810B58488531C49
:101BE800234044889C421BBF8468A1540020038082
:101BF80018BF012010BD00002DE9F043154FDFF894
:101C0800589085B00A4606463918684604F082FAA4
:101C1800B8460124002505F110036B4418F8011B90
:101C280013F8103C234218BF41F080014846FFF7E3
:101C3800D3FFA8EB07039BB264009E42A4B202D86C
:101C480005B0BDE8F083802C02BF0135ADB2012498
:101C5800E1E700BF360700203005002070B50646D2
:101C68000C468D18AC4200D170BD14F8011B3046EB
:101C7800FFF7B2FFF6E743880288D21A93B212043C
:101C880041BF828801329B189BB218467047428830
:101C9800038880889B1A9AB21BB2002BBEBF431CD4
:101CA8009B181BB2C01A80B2704738B50446FEF7BD
:101CB800AFFA002283B26BB9EAB983B2013B2020A4
:101CC80091B2994216DA655C302D02F1010211D108
:101CD8006054F5E7013B9BB2E15C2E2908BF1A4628
:101CE800E9E7655C302D03F1010303D1605499B233
:101CF8009142F6DB38BD013A2020F8E710B53024D0
:101D0800632807D80C703021092808D830301170A2
:101D1800187010BD01346438E4B2C0B2F0E7013184
:101D28000A38C9B2C0B2EFE730B5302442F20F75B5
:101D3800A84212D80C703021B0F57A7F14D21170F5
:101D48003022632816D81A703023092817D8039A26
:101D58001370049B3030187030BDA0F51C5001344E
:101D68001038E4B280B2E3E70131A0F57A70C9B265
:101D780080B2E1E701326438D2B280B2E1E70133E0
:101D88000A38DBB280B2E0E710B58B1C0C464A1C5F
:101D9800FFF7B4FF0023E37010BD13B50B1D0193CB
:101DA800CB1C00934A1C8B1C0C46FFF7BDFF00237D
:101DB800637102B010BD03099F2800F00F0094BFA3
:101DC8003033373309280B7094BF30303730002355
:101DD80048708B70704713B502460C46C0B201A913
:101DE800FFF7E9FF2146100AFFF7E5FF9DF80430E9
:101DF800A3709DF80530E3709DF80630237102B09A
:101E080010BD13B50A46044601A9C0B2FFF7D3FFB7
:101E18009DF8043093719DF80530D371C4F3072001
:101E2800FFF7C9FF9DF8043013719DF80530537111
:101E3800C4F30740FFF7BFFF9DF8043093709DF887
:101E48000530D370200EFFF7B6FF9DF804301370ED
:101E58009DF8053053700023137202B010BD2DE9B0
:101E6800F041069C0E4600212170317875295ED11B
:101E78007578632D0BD10178B778682F1BD1632D46
:101E880021460CD1BDE8F0410078FFF794BF692DD9
:101E980001D10188F0E76C2D44D10168ECE7692D88
:101EA80004D1BDE8F0410088FFF795BFBDE8F041D7
:101EB8000068FFF7A6BF2B2F5AD1A9B327700120BE
:101EC80017469DB212FA83FE4FF03008AEEB070CAE
:101ED8001CF4004F4ED1002BC5F10005C8BF0025EA
:101EE80003FA85F5002BD4BFD718171C2DB2BBB247
:101EF8000DB101352DB24FF00A0E98423FD30023A1
:101F0800A3547A21304604F0B4F858B1B3782B2B97
:101F180055D1601CFFF7C9FE2046FEF779F9012369
:101F280083423FD3BDE8F08120202070C7E77329A2
:101F3800F8D1717863290DD190F90010B0782B2869
:101F480014D100290FDA2D20207001200029B8BFF4
:101F58004942B5E7692902D1B0F90010EEE76C29CA
:101F6800E0D10168EAE708BF2020EDE70020EDE7AF
:101F78000020A5E7013FBFB204F80780A6E75F1E6F
:101F8800BBB214FA87FCD71AAF4209D0B1FBFEF8EE
:101F98000EFB18173037FFB241468CF80070ACE7DB
:101FA8002E27FAE7E25C202A06D02344227803F899
:101FB800012C20232370B5E701339BB2B0E72046FC
:101FC800FFF773FE2046FEF723F901238342A9D2C7
:101FD800E25C202AE9D101339BB2F7E700210B46E6
:101FE8008AB20131825C0AB91846704703EB830351
:101FF80002EB4302303A93B2F2E70000B0F1904F9F
:1020080008B5014607D10120FFF742FD114B99425F
:102018000BD1202014E0104B98420BD003F58063BD
:10202800984209D10420FFF733FD0C4B994210D197
:10203800402005E00220E7E7094B984204D1082038
:10204800BDE80840FFF724BD064B9842DED11020BA
:10205800F6E708BD001400480004004800180048CE
:10206800000C00480010004808B501460420FFF79E
:1020780001FD074B994204D10120BDE80840FFF754
:10208800F9BC044B994201D10220F6E708BD00BF14
:1020980000000240000402402DE9F04387B00E46DC
:1020A800054614460021142201A89DF838809DF8A1
:1020B8003C901F4603F0C6FF00960B2C07D8DFE8BC
:1020C80004F007070A121414141616161A1CFEE751
:1020D8000323019301E002230493032F11D8DFE8BF
:1020E80007F0111321110123F6E70123F1E701237A
:1020F80001930393F1E70223EBE702230193012302
:10210800F7E7FEE702230293B8F1100F0CD8DFE8D7
:1021180008F02D2D0C11131517191B1D1F21232530
:1021280027292B000123EEE7FEE70123059302236D
:1021380001931EE00223F9E70323F7E70423F5E7F9
:102148000523F3E70623F1E70723EFE70823EDE785
:102158000923EBE70A23E9E70B23E7E70C23E5E785
:102168000D23E3E70E23E1E70F23DFE7B8F1000FC4
:10217800DDD1032C0FD8144B9D4208D1102E01D06D
:10218800402E04D1114A936843F480439360B9F117
:10219800000F0FD002E0B9F1000F02D02846FFF778
:1021A8002DFF053C042C05D8DFE804F0030B0403DD
:1021B8000B00AE626946284603F0B6FA07B0BDE8E0
:1021C800F083AE61F6E700BF0004004800700040ED
:1021D8000C4BD3F8FC2022F08072C3F8FC20D3F813
:1021E800FC2042F08072C3F8FC20A3F55D431A6816
:1021F80022F001021A601A6842F001021A600022F5
:102208005A60704700ED00E0064A074B51681B68AA
:1022180010B5064CB3FBF4F3584353685B1A83427A
:10222800FBD310BD001000E00400002040420F0066
:1022380008B50120FFF7E8FF4FF0904310229A619C
:102248000120BDE80840FFF7DFBF08B50120FFF710
:10225800DBFF4FF0904310229A620120BDE808404E
:10226800FFF7D2BF72B6064B5B6A9BB262B6054AED
:1022780091889380994282BF11680131116070473B
:10228800000800405405002072B6084B5B6A99B2FA
:1022980062B6074A90889180884210689BB284BFD2
:1022A8000130106003EB0040704700BF0008004099
:1022B80054050020034B5A6A034B002119609A8089
:1022C800704700BF00080040540500200C4BDA6935
:1022D800910611D51A6892060ED50A480A495A6A13
:1022E800038809880133C3F30C0389B299421FBFDD
:1022F8000649D2B2CA540380014B1F221A627047A2
:1023080000380140C2490020C0490020C0290020EF
:10231800034BDA695206FCD598620120704700BF6A
:102328000038014008B5411E11F8010F00B908BD79
:10233800FFF7EEFFF8E70000024AD3695B06FCD519
:10234800704700BF003801400848094A01881388CF
:1023580089B29BB29942F9D013880133C3F30C03B5
:1023680013801388034A9BB2D05C7047C24900208F
:10237800C0490020C029002070B588B00C46064628
:10238800154600212022684603F05CFE231E18BF74
:1023980001231B03CDE9023569460C230348019646
:1023A8000494059303F040FD08B070BD0038014067
:1023B80073B5404C236823F0010323604FF4804039
:1023C80008250126FFF780FB4FF4007103230A223A
:1023D8004FF09040CDE90056FFF75EFE03231A4602
:1023E8004FF480614FF09040CDE90056FFF754FE5E
:1023F800002211463048FFF7BFFF63682F4A23F4D5
:1024080090436360A36823F02A03A360236823F042
:102418000053236002F6080353E8003F23F06043AB
:1024280002F6080040E800310029F3D102F608035B
:1024380053E8003F23F0606302F6080040E80031EB
:102448000029F3D11E4B102283F8252320225A603D
:102458001A4901F5006353E8003F23F0200301F512
:10246800006040E80032002AF3D1164B1A80164B60
:102478001A80104B5A6822F400625A609A6822F057
:1024880008029A605A6822F480425A609A6822F0D8
:1024980022029A609A6842F480529A601A6842F05E
:1024A80001021A60DA699102FCD5DA695202F9D59B
:1024B80002B070BD0038014080841E000030014029
:1024C80000E100E0C0490020C249002008B5FFF73C
:1024D8006FFFBDE80840FFF76BBB0000034B1873A4
:1024E8009A68D207FCD5187B704700BF00300140BE
:1024F800FF20FFF7F3BFFFF7FBBF0000064908B551
:1025080032230B60FFF7F7FFFFF7F2FFFF2802D037
:102518000B68002BF8D108BD5005002010B5084CF9
:102528002378DB0707D4FFF790FEFFF7E7FFFFF7F5
:102538007FFEFFF7E0FF237843F00103237010BD0F
:1025480000000020020638B504460D4607D50021D4
:102558007720FFF7F7FF01282FD804F07F04FFF753
:1025680067FEFFF772FEFFF7C9FFFF2828D1204654
:10257800FFF7B4FF280EFFF7B1FFC5F30740FFF7D9
:10258800ADFFC5F30720FFF7A9FFE8B2FFF7A6FFE5
:10259800402C13D0482C14BF01208720FFF79EFF42
:1025A8004C2C01D1FFF7A7FF0A21FFF7A1FF030673
:1025B80003D5013911F0FF01F7D138BD9520EDE7BA
:1025C800FF20FAE730B58DB04FF6FF730C4605468D
:1025D80000212748ADF8023002F05EFF01212448AF
:1025E80002F05AFF1422002104A803F02BFD214B0E
:1025F80001934FF480530B93102303930DF10203BF
:10260800029301AA0B230121194809940A93002473
:1026180002F0EAFF802301AA069321460A23144800
:102628000A93CDE9025402F0DFFF2046FFF7B2FA21
:102638000120FFF7AFFA104B0D495A6802435A6060
:102648005A6842F002025A600A689207FCD55A6832
:1026580022F001025A605A6822F002025A600020F1
:10266800FFF78AFA0120FFF787FA0DB030BD00BFE7
:10267800000002400C3001400030014038B50D4DDB
:102688000A2304462B60FFF733FFFF2803D128688D
:102698000028F8D138BDFE2809D1204689B2FFF7B5
:1026A80091FFFFF728FFFFF726FF0120F2E7002040
:1026B800F0E700BF4C05002030B58DB04FF6FF7332
:1026C80004460D462748ADF80230002102F0E4FE2A
:1026D8000121244802F0E0FE1422002104A803F09E
:1026E800B1FC214B01934FF480530B931023CDE998
:1026F80002438023069301AA0B23012119480A9358
:102708000024099502F070FF0DF1020301AA02935B
:1027180021460A2313480A930394069402F064FF9F
:102728002046FFF737FA0120FFF734FA0F4B0D491F
:102738005A6802435A605A6842F002025A600A68AC
:102748009207FCD55A6822F001025A605A6822F0B2
:1027580002025A600020FFF70FFA0120FFF70CFA77
:102768000DB030BD000002400C3001400030014087
:1027780070B506460D46FFF7C1FEFF28044617D17F
:102788002846FFF7ABFEFD2D14D030464FF40071FC
:10279800FFF792FF2046FFF7A1FE2046FFF79EFEB7
:1027A800FFF7A6FE00F01F00431F5842584170BDB6
:1027B8000020FCE70120FAE706289ABF014B185CC5
:1027C80038207047C1670008044A08B5FFF7F4FFCE
:1027D800136823F038031843106008BD0030014027
:1027E80070B58CB02822002102A8012503F02AFC2C
:1027F80000264FF48050FFF767F9062403230622CA
:1028080010214FF09040CDE90065FFF745FCFFF738
:102818000FFD009403230A2220214FF090400195D8
:10282800FFF73AFCCDE9004503230A2280214FF047
:102838009040FFF731FC03231A46CDE900454021BB
:102848004FF09040FFF728FC0223CDE905353823E7
:1028580008934FF482731E4C03934FF4007307934D
:102868004FF4E063049302A9072320460B93CDE9B4
:102878000966029603F05CFA636823F0100363604C
:10288800636823F008036360636823F001036360EF
:10289800636823F0020363603046FFF76DF928464A
:1028A800FFF76AF931460B4802F0F6FD2946094858
:1028B80002F0F2FD0748FFF7D7FB236843F0400317
:1028C8002360A3689B07FCD5E3680CB070BD00BF0C
:1028D8000030014000000240F7B5002840F08D802C
:1028E800474F3B789B0703D53878C0B203B0F0BD9B
:1028F800444D19232B602B68002BFCD1FFF770FF88
:102908000720FFF761FF0A26013EFFF7F4FD16F0E6
:10291800FF06F9D131464020FFF714FE012804468E
:1029280066D164234FF4D57148202B60FFF70AFE67
:10293800012843D101AC26460421FFF7D9FD01390E
:1029480011F0FF0106F8010BF7D19DF80630012BB5
:102958004ED19DF80730AA2B4AD12B6833B14FF0DE
:102968008041E920FFF7EEFD0028F6D12B68002B07
:102978003ED000217A20FFF7E5FD002838D1042158
:10298800FFF7B6FD013911F0FF0104F8010BF7D18B
:102998009DF8043013F0400F14BF0C2404241A4B84
:1029A8001C70FFF745FCFFF7A6FD1CB33B78012020
:1029B80003F0FE033B70FFF707FF95E73146E92078
:1029C800FFF7C0FD022836BFE926412602242B68FE
:1029D8002BB100213046FFF7B5FD0028F7D12B6851
:1029E80033B14FF400715020FFF7ACFD0028D6D06A
:1029F8000024D4E7FFF792FD76E7012076E700BFD1
:102A0800000000204C0500204A05002018B9034B9F
:102A18001878C0B270470120704700BF000000203E
:102A280038B50D461C46114698BB93B31B4B1B7813
:102A3800DA0730D41A4B1B781B0758BF4902012C00
:102A480013D15120FFF77EFD38B94FF400712846A5
:102A5800FFF714FEB0FA80F46409FFF7E9FBFFF70B
:102A68004AFD201E18BF012038BD5220FFF76AFD1D
:102A78000028F2D14FF400712846FFF7FFFD18B186
:102A8800013C05F50075F5D100214C20FFF75AFDF2
:102A9800E3E70420E8E70320E6E700BF00000020A2
:102AA8004A05002070B50E4615461C46002841D13F
:102AB800002B3FD0224B1A78D0073DD41B785907FA
:102AC8003CD4204B1B781A0758BF6D02012C13D138
:102AD80029465820FFF736FD50BBFE213046FFF748
:102AE80047FEB0FA80F46409FFF7A2FBFFF703FD85
:102AF800201E18BF012070BD13F0060F03D0214619
:102B0800D720FFF71FFD29465920FFF71BFD002896
:102B1800EAD1FC213046FFF72BFE18B1013C06F53F
:102B28000076F6D1FD210020FFF722FE0028DBD138
:102B38000124D9E70420DEE70320DCE70220DAE7F6
:102B4800000000204A0500207FB5154604460028ED
:102B580040F0F580052918D11378012B09D0022BF4
:102B680010D0002B40F0EB80FFF7D8FC204604B0D3
:102B780070BD754B19221A601A68002AFCD1FFF73C
:102B88002FFEF3E701235370F0E7704B1C7814F025
:102B9800010440F0D6800E2900F2CF80DFE801F072
:102BA80008154F53CDCDCDCDCDCD9CA0AFB2C20031
:102BB800FFF74BFBFFF7A2FCB0F1FF0418BF01249D
:102BC800FFF736FBFFF797FCD0E700214920FFF716
:102BD800B9FC044608B10124F2E710216846FFF762
:102BE8004DFD0028F7D09DF800309DF808109B098E
:102BF800012B9DF8093006D1013303EB01239BB269
:102C08009B022B60DCE79DF807209DF80A009200E4
:102C180002EB91129DF80610890201F4406101321D
:102C28000A449DF805105B0001F00F0101EBD0117B
:102C380003F006030B44073B02FA03F3E1E74FF402
:102C480000731380BCE7424E317811F004011AD0AA
:102C58000021CD20FFF776FC0028BCD1FFF74BFC04
:102C680010216846FFF70AFD0028B4D03024013C43
:102C7800FFF741FC14F0FF04F9D19DF80A20102356
:102C880012099340BDE74920FFF75CFC0446002881
:102C9800A1D110216846FFF7F1FC00289BD03278BB
:102CA8009DF80A309DF80B1092070AD59DF80D2063
:102CB8005B0003F07E0303EBD11392090133013A61
:102CC800DFE7CA0002F01802C3F3840302EB5112D3
:102CD800013302FB033394E71D4B1B7813706FE736
:102CE80000214920FFF72EFC00287FF474AF102143
:102CF8002846FFF7C3FCB0FA80F4640960E70021B6
:102D08004A20EFE700217A20FFF71CFC0446002840
:102D18007FF461AF291DFFF7EBFB05F8010BA94212
:102D2800F9D14DE70021CD20FFF70CFC00287FF4F6
:102D380052AFFFF7E0FB4021DAE7042440E7042420
:102D480014E7032412E700BF4C0500200000002010
:102D58004A0500200E4A136813F0FF031EBF03F153
:102D6800FF33DBB213600B4A136813F0FF031EBF77
:102D780003F1FF33DBB21360074B1A6800211960B7
:102D880022B9064A137803F0F9031370704700BF9D
:102D98004C050020500500203808002000000020C5
:102DA80030B510228FB00024054621460DEB0200F5
:102DB800CDE90144039403F045F91822214608A8F7
:102DC80003F040F901A9284602F02CFB4FF44033E8
:102DD80004A90A480493059402F000FB4FF4005339
:102DE800CDE90B3408A94FF480532846CDE90844AF
:102DF8000A940D9302F02CFB0FB030BD0003005075
:102E080038B505461446FEF76DFE21462846FEF7FE
:102E1800A5FED5F8B030C4F3120423EA0403C5F8BC
:102E2800B03038BDD0F8C0301C4A23F47F5323F0AB
:102E38003F03C0F8C030036923F48033036103699A
:102E480023F4806323F003030361836823F02043A2
:102E580023F03F038360836823F0104323F03F038C
:102E680043F0805383600E4B82B01B68B3FBF2F3D0
:102E7800142253430A22B3FBF2F30193019B4BB98B
:102E8800836823F0004323F03F0343F0010383608A
:102E980002B07047019B013BEFE700BF400D030004
:102EA800040000202DE9FF410024DFF85080019440
:102EB800CDE902448DF80C30BDF828308DF80D307E
:102EC8000F46BDF82C308DF80E301646214602AA62
:102ED8000546404602F081FE303501AA21464046AB
:102EE8008DF804408DF805708DF806608DF8075050
:102EF80002F0C8FE04B0BDE8F08100BF0028004021
:102F0800244B9A6882811A681968C2F3021201F088
:102F18000F0102EB820201EB420202801A68196873
:102F2800C2F30232C1F3032102EB820201EB420237
:102F380042801A681968C2F30152C1F3034102EBD7
:102F4800820201EB420282805A685968C2F3011278
:102F580001F00F0102EB820201EB4202C2805A68C3
:102F68005968C2F30032C1F3032102EB820201EB7C
:102F7800420202815A685B68C2F3035202EB820282
:102F8800C3F3034303EB4203DBB203F5FA63438164
:102F9800704700BF002800401FB500227F23039020
:102FA80001A90448CDE9012302F0AEFD05B05DF8A2
:102FB80004FB00BF002800400E4BCA225A6253226D
:102FC8005A62DA68D203FCD49A6A22F400420028D2
:102FD80018BF42F001029A62064AD368DB03FCD4A8
:102FE800936A23F4FF7323F001031943FF239162CB
:102FF8005362704700280040044A936AC3F3C03301
:103008000380936AC3F308030B80704700280040CD
:1030180070B54FF0805086B0FEF748FD414B1A68F6
:1030280042F480721A601A68D105FCD53E4CD4F877
:10303800903003F44073B3F5807F10D1D4F890300A
:103048009A070CD5D4F890301B0408D5374BD3F821
:103058000425374B9A4202D1012006B070BDD4F83E
:10306800903003F44073B3F5807F13D0D4F89030D8
:1030780043F48033C4F89030D4F8903023F480338C
:10308800C4F89030D4F8903023F4407343F480733C
:10309800C4F89030D4F8903043F00403C4F890306A
:1030A800D4F8903043F00103C4F8903001F0A4FD47
:1030B8000646D4F8905015F0020507D101F09CFDA2
:1030C800831BB3F5FA7FF4D92846C6E7D4F89030C5
:1030D800164D174E43F40043C4F890304FF4806007
:1030E800FEF7E4FCD5F80435B342B5D000247F23BD
:1030F800CDE9034303A9FF230E48059302F004FD1D
:1031080001AA21460B48CDE9014402F066FD0A4BAD
:10311800084800936A46214602F0B4FDC5F80465E4
:103128009AE700BF007000400010024000200040F5
:10313800AA55F232002800400101010070B51024A0
:1031480000254FF0A046336C013C6420A4B215FA68
:1031580083F5FFF759F8002CF5D1C5F30F1070BDB2
:1031680008B5FFF7EBFF40F2DE335843C0F30F30EA
:1031780008BD00001A4A08B5D2F8883023F0405339
:1031880043F00053C2F888304FF40050FEF780FC3B
:103198004FF0A040FFF704FE124A06214FF0A0406E
:1031A800FFF72EFE104A936823F0E07343F0807314
:1031B80093604FF0A040FFF735FE6420FFF724F836
:1031C8004FF0A042C820936823F0004323F03F0348
:1031D80043F004039360BDE80840FFF715B800BF4B
:1031E80000100240000052C700030050044BDA6888
:1031F80042F40072DA60DA6842F48072DA6070478A
:10320800007000400E4A0F49136809680B441360A8
:103218000D4B01221A800D4A1368013313600C4BC1
:103228001A8892B232B909221A801B889BB22BB92C
:10323800FFF790BD1A88013A92B2F5E7704700BFD0
:10324800C4490020080000200C0600206428002043
:1032580048050020024A00231380024A1360704781
:103268000C060020642800201F4B10B51F4C5B681B
:10327800236001F075FC4FF0904002F0F5F91C480E
:1032880002F0F2F91B4802F0EFF91B4802F08AFD40
:103298001A4802F087FD1A4802F084FD02F03EFB4E
:1032A8004FF0E022002317491361536193618A6844
:1032B80022F0030242F001028A6072B64FF0FF3139
:1032C8009A0002F1604202F561420133082BC2F80C
:1032D8008010C2F88011F3D162B6034B1B6883F3E8
:1032E800088823689847FEE70000FF1F4005002074
:1032F800000400480008004800380140004400402D
:10330800004800400010024007B508230022CDE91C
:1033180000324FF4007103230A224FF09040FEF769
:10332800BBFE012003B05DF804EBFEF76DBF07B5E7
:103338000120FFF701F8FEF767FF0023CDE900330E
:1033480003231A464FF400714FF09040FEF7A4FE95
:1033580003B05DF804FBF8B5002406462546E3B241
:103368008B4204D32846BDE8F840FEF7D1BF375D4D
:103378003846FEF7CDFF7D400134F0E7094AFF21CA
:1033880000239180084913609160084A3F21918089
:10339800074913609160074A012191801380538087
:1033A800704700BF6829002068280020B429002041
:1033B800742900207C05002008B5074B00221A61FB
:1033C800C3E90022C3E902229A82FFF77FF8BDE829
:1033D8000840FFF7D3BF00BF5C05002007B51049C0
:1033E800104BCA6822F4E0621204120C1343CB603B
:1033F80001220023CDE90032042211464FF090400B
:10340800FEF74AFEFEF7E4FEFFF7D6FFFFF78FFF51
:10341800FEF750FF03B05DF804EBFFF71BBF00BFDA
:1034280000ED00E00003FA05034B00221A805A80E1
:103438009A80DA80704700BF5C28002070B52F4B57
:103448009B78013B86B0032B55D8DFE803F00211C7
:10345800314AFFF759FF2A4B1C782046FEF758FFE0
:10346800284B19780846FEF753FF84EA010018E054
:10347800FFF74AFF1022002101A802F0E3FD2249CC
:1034880001A802F03FFE102401A9002511F8016BE4
:10349800013C3046A4B2FEF73BFF7540002CF5D145
:1034A8002846FEF735FFFFF742FF012006B070BD42
:1034B800FFF72AFF1022002101A802F0C3FD1349DB
:1034C80001A802F01FFE102401A9002511F8016BC4
:1034D800013C3046A4B2FEF71BFF7540002CF5D125
:1034E800DEE7FFF711FF0A4B1C7819882046FEF724
:1034F8000FFF090AB6E70020D8E700BF2C07002015
:1035080034070020760500204D660008576600083D
:10351800D0050020094A78B1138801339BB20A2BE1
:1035280013800AD9064B48F202021A80054A13880A
:1035380023F0020313807047108070477405002041
:103548007605002034070020014B1868704700BF3B
:103558001006002042EA4111A0F2BC7041EA402066
:10356800BDF80410BDF80020490841EA421141EABB
:10357800C3239BB203EB00407047000013B5BDF8AE
:1035880014400194BDF810400094FFF7E3FF024B8C
:10359800186002B010BD00BF100600202DE9F341ED
:1035A800DFF8C0801D46002303700F4641461646CB
:1035B800044602F04FFD69463846284FFEF7EDFBFA
:1035C8000DF10101204602F045FD3946204602F082
:1035D80041FD6946F0B2FEF7D7FB0DF10101204627
:1035E80002F038FD3946204602F034FD6946E8B25B
:1035F800FEF7CAFB0DF10101204602F02BFD414602
:10360800204602F027FD164D9DF820006946FEF77A
:10361800BBFB0DF10101204602F01CFD29462046A6
:1036280002F018FD9DF824006946FEF7ADFB0DF188
:103638000101204602F00EFD2946204602F00AFD4F
:103648009DF828006946FEF79FFB0DF10101204611
:1036580002F000FD02B0BDE8F08100BF6566000819
:10366800A8650008636600082DE9F843224A234943
:1036780003462348FEF772F900283BD11F4F044642
:1036880007F11608BB7D7BB34046FCF7C1FD032854
:1036980024D97B7E303B092B20D80025DFF86490A5
:1036A8002E46BB1940469B7DA3F13002092A9EBFD6
:1036B8006A1C09F8053095B2FCF7AAFD0136B6B2C6
:1036C8008642EED3042D28BF04250E480023435517
:1036D800FEF784FCA04238BF204684B20848394629
:1036E800FEF724F90028CDD00548FDF7D7FF20467E
:1036F800BDE8F8830024FAE7C36600081406002032
:10370800D80500203C10002010B51148FEF7BFFA7C
:103718000C281BD945210E480E4CFEF75DFA0921ED
:103728000B48FEF759FA04220B490948FEF796FAA6
:1037380021780748FEF750FA61780548FEF74CFAF9
:10374800A1780348BDE81040FEF746BA10BD00BF97
:10375800300500202C0700204405002070B5CB4C14
:103768008AB02046FEF793FA3D283BD952212046DD
:10377800C74E2588FEF730FA00212046FEF72CFABE
:103788000422C4492046FEF769FA31782046FEF73C
:1037980023FA71782046FEF71FFAB1782046FEF723
:1037A8001BFA3378402B40F0CE807378032B35D149
:1037B800B9490B789A0617D50A222046FEF74EFA21
:1037C8002388A1885B1B9AB21BB2002BB8BF4B1C85
:1037D80005F10105B8BF9B1805EA0105A268B8BF45
:1037E8001BB253550AB070BD4B78CA785B004B705A
:1037F8008B7803EBC2134B800B798A795B000B71D2
:103808004B7903EBC213A1F80530CB794A7A5B00F8
:10381800CB710B7A03EBC2130B81CDE7072B37D1A2
:103828009D4E33785B064FF001023146204610D595
:10383800FEF714FA0122B1182046FEF70FFA01220A
:10384800B11C2046FEF70AFA00230193032201A9BE
:10385800B3E7FEF703FA0122B1182046FEF7FEF996
:103868000122B11C2046FEF7F9F90122F11C20467D
:10387800FEF7F4F933792BB9ADF80430022201A927
:1038880082489BE703EB83035B0003F2DE33F3E735
:103898000B2B95D10622242101A8FEF735F9152214
:1038A80001A92046FEF7DAF99DF82530BDF919205F
:1038B80003F00F0303EB021369460422204600932A
:1038C800FEF7CCF99DF82630BDF91B2003F00F0355
:1038D80003EB02136946042220460093FEF7BEF963
:1038E8009DF82730BDF91D2003F00F0303EB0213E9
:1038F8006946042220460093FEF7B0F99DF825306A
:10390800BDF91F201B0903EB021369460422204658
:103918000093FEF7A3F99DF82630BDF921201B0975
:1039280003EB02136946042220460093FEF796F93A
:103938009DF82730BDF923201B0903EB02130093E0
:103948000422694639E7002B7FF43AAF7278B378DE
:103958000B2A40F08D80342B2ED8222B7FF630AFE7
:10396800233B112B3FF62CAF01A252F823F000BFE6
:10397800D1390008DB390008E1390008C9370008E7
:10398800C9370008CB390008CB390008C937000807
:10399800873A0008873A0008E7390008ED39000837
:1039A800C9370008C9370008F3390008F939000891
:1039B800CB390008D1390008732B10D07F2B7FF446
:1039C800FFAE02210E2001E002210C20FEF714F9BF
:1039D800F6E604211620F9E702210A20F6E702217B
:1039E8000720F3E704211220F0E702210820EDE781
:1039F80004220DEB02000F21FEF786F89DF80A302D
:103A0800BDF90420214803F00F0303EB02136946B4
:103A180004220093FEF722F99DF80B30BDF9062029
:103A28001A4803F00F0303EB0213694604220093BC
:103A3800FEF714F99DF80C30BDF90820134803F07F
:103A48000F0303EB0213694604220093FEF706F9FD
:103A58000E4802220DF10D01FEF700F902220DF1C8
:103A68000F010A48FEF7FAF802220DF1110107E7E3
:103A7800742B07D0762BB5D02F2B7FF4A1AE022163
:103A88000D20A3E702210620A0E700BF3005002093
:103A98002C0700204405002036070020F7B5032333
:103AA800002401261A46CDE900461748174D184F3D
:103AB8003146FEF7F1FA174B2C800B221A80164B71
:103AC8003C801C80154B41F6FF729A801C60144A9A
:103AD8009A60FFF79DFAA0B12E80124D2846FFF795
:103AE8000FFAFFF783FBFFF745FB6B893E80B3F5C1
:103AF800FA6F06D12B89B34203D1EB88B34208BFD2
:103B08003C8003B0F0BD00BF000400484C280020F2
:103B18004A280020320700203C05002030050020FC
:103B28003C0800203C28002013B50D4C2046FEF729
:103B3800A2F8B0F5805F10D9A068618801AB4FF496
:103B4800805201440748FDF719FCFFF7E3FC63883E
:103B5800A28803F580531340638002B010BD00BFF4
:103B680030050020D40000202DE9F047554D564E71
:103B780000232B80338886B00BB104232B80534C51
:103B880023881BB12B8843F008032B8050495148E8
:103B98000122FDF77DF918B1022006B0BDE8F087D3
:103BA8002B8843F001032B803388002B6CD02388AB
:103BB800002B69D0484B49485C891E89DF88B3F8D7
:103BC8000290B3F800A0B3F80480CDF800803B461B
:103BD80032462146CDE9019AFFF7E0FC40494148C9
:103BE80002F090FA3D49A1F5007002F033FA3E491F
:103BF8003C4802F02FFACDE9009A43463A4631464E
:103C08002046384E394CFFF7B9FC0A223146204687
:103C1800FDF766F90028BFD1354906F5007002F0B6
:103C280071FA06F50070FCF7F3FA86F8010206F55A
:103C38000070FCF7EDFA05AB024606F50071204668
:103C4800FDF79CFB0028A7D12046FDF758FC00286B
:103C5800A2D16269E368274F60619B1AE360237C05
:103C6800386023F0080306F500702374FCF7D0FAD7
:103C780006F5007182B23846FDF7F0FF2B8843F055
:103C880002032B80012088E71B48FFF7EDFC013079
:103C9800124980B2FEF781F81149124802F032FA4F
:103CA80016496FF40073C81802F0D4F90E490D488C
:103CB80002F0D0F900230122CDE90033114640F289
:103CC800E2709EE7340700204C2800204A28002094
:103CD800C3660008FC0200203C2800203C0A0020A3
:103CE8006E6600083C0800206B660008D4000020BF
:103CF8007266000830050020676600083D0A00204B
:103D0800094A08B513881BB941F64B53138008BDFF
:103D1800013B9BB21380002BF9D10448FDF7EFFB60
:103D2800BDE80840FFF7F6BB3C050020D4000020A2
:103D380010B5324C238888B00BB9FFF77FFB304BA6
:103D48009B78722B09D0732B34D02388002B39D160
:103D580008B0BDE81040FFF701BD00230293CDF87D
:103D68000B30284B1B88D3B104A8FFF7C9F8BDF85E
:103D78001A30ADF80830BDF818308DF80A30BDF8A3
:103D880016308DF80B30BDF814308DF80C30BDF8B6
:103D980012308DF80D30BDF810308DF80E30FFF769
:103DA800B3FA072102A8FFF7D6FA08B0BDE8104019
:103DB800FFF7BDBA134A23881288002AC5D033B149
:103DC800FFF7CCFC08B0BDE81040FFF79DBC04A885
:103DD80002220721FDF798FE9DF8163001939DF801
:103DE800153000939DF813209DF814309DF812109B
:103DF800BDF81000FFF756F8A7E700BF7A050020C6
:103E08002C0700204C280020034B1B880BB1FFF720
:103E18007BBCFFF7A3BC00BF7A05002030B58BB090
:103E280005AD1C46ADF80E0013460DF10E000A460E
:103E380000950549FEF713F82846FEF773FA204661
:103E4800FEF770FA0BB030BD9366000830B58BB042
:103E580005AD03901C4603A8134600950A4605497C
:103E6800FDF7FDFF2846FEF75DFA2046FEF75AFAF1
:103E78000BB030BD98660008024B00225A601A81C8
:103E8800704700BF50280020024B00221A609A8019
:103E9800704700BF8405002008B5FEF755FA054AAB
:103EA8009388D11801339BB2382B28BF38238871E7
:103EB800938008BD840500200A2801D03B2807D13B
:103EC800044B9A881A440021917199800120704707
:103ED8000020704784050020034A0448002393808B
:103EE800034A1360FEF71EBA502800209D6600089A
:103EF8008405002008B5FFF7BFFF044B04480022E3
:103F08001A60BDE80840FEF70DBA00BF840500201E
:103F18009D66000870B50546FCF77AF9094E024619
:103F28002946B01D02F0B2F8044640B92846FEF70B
:103F3800F9F90548FEF7F6F9B471012070BD0020C3
:103F4800FCE700BF84050020C16600082DE9F8439E
:103F580006460F46DFF85480FCF75AF908F10609BF
:103F6800024605463146484602F090F80446B0B984
:103F780009EB050001F0C6FF05B23D803046FEF7AB
:103F8800D1F90848FEF7CEF92846074B2246072103
:103F9800FFF744FF88F806400120BDE8F8830020B9
:103FA800FBE700BF57610008C166000884050020D0
:103FB80010B50748FEF7B6F90648FEF7B3F9064804
:103FC800064BC068BDE8104000220E21FFF73EBF37
:103FD800A0660008B06600085C050020C1660008FD
:103FE80008B5074B1A88074B1B8892B29BB29A42B6
:103FF80005D0FEF7A9F9BDE80840FFF77BBF08BD6B
:10400800C2490020C04900202DE9F04362489BB016
:10401800FEF788F906A8FEF773FF6048FEF782F9F5
:10402800BDF922005E4BBDF8224000220721FFF7B0
:10403800F5FEBDF920005A4BBDF82050002207219B
:10404800FFF7ECFE574BBDF91E00BDF81E600022BD
:104058000721FFF7E3FE5448FEF764F9BDF91C0099
:104068004F4BBDF81C7000220721FFF7D7FEBDF9A2
:104078001A004B4BBDF81A8000220721FFF7CEFE2D
:10408800BDF81890BDF91800464B00220721FFF72C
:10409800C5FE33462A4621460AA8CDE9018900977C
:1040A800FFF77CFA0AA8FEF73DF93E48FEF73AF911
:1040B8003B4632462946CDE900892046FFF74AFAB1
:1040C800384B00220E21FFF7C1FE3848FEF72AF9C7
:1040D800FFF734F8334B0022072100B2FFF79EFEAA
:1040E8003348FEF71FF9FFF73BF8324B022207214E
:1040F80000B2FFF793FE3048FEF714F9BDF924002B
:10410800284B00220721FFF789FE2C4B2C481C69FD
:10411800C4F30E04FEF706F920462A4B00220721B5
:10412800FFF77CFEC4F1FF044FF47A70604348BF88
:10413800FF301C4B0122062140F30F20FFF76EFED3
:104148000DF1160105A8FEF757FF1F48FEF7EAF81C
:10415800BDF91400124BBDF8145000220721FFF7D7
:104168005DFEBDF81640BDF91600184B0022072168
:10417800FFF754FE1648C4EB452303FB000000225A
:10418800C3F58013072190FBF3F0064B00B2FFF74D
:1041980045FE1BB0BDE8F083B6660008C46600089B
:1041A800CD660008C1660008D1660008DA66000816
:1041B800E1660008E9660008ED660008002800408E
:1041C800F8660008036700080C670008196700080C
:1041D80040420F0080B2A0F1C903622B10B51ED86F
:1041E800FEF7DAFE104B11481C69C4F30E04FEF703
:1041F80099F820460E4B00220721FFF70FFEC4F165
:10420800FF044FF47A70604348BFFF30BDE81040A8
:10421800084B0122062140F30F20FFF7FFBDBDE840
:1042280010400548FEF77EB800280040F8660008F0
:1042380003670008C16600083467000837B581B213
:1042480001F5F0739BB2B3F5707F37D80028C9BF6A
:10425800C1F50071494289B20120DCBF89B2002052
:10426800FEF7AAFE0DF1060101A8FEF7C5FE1648E5
:10427800FEF758F8BDF90400144BBDF804500022AD
:104288000721FFF7CBFDBDF80640BDF90600104B2E
:1042980000220721FFF7C2FD0E48C4EB452303FBAC
:1042A8000000C3F5801390FBF3F00B4B00220721AD
:1042B80000B203B0BDE83040FFF7B0BD074803B017
:1042C800BDE83040FEF72EB80C670008CD66000840
:1042D8001967000840420F00C166000834670008EB
:1042E8002DE9F74FDFF8C081DFF8C0915B4E5C4FD6
:1042F800FFF70AF85B48FEF715F84046FEF712F894
:104308005948FEF70FF84046FEF70CF8FFF7BCFDDA
:10431800FFF7E2FD4FF6FF7333804FF0904304221E
:1043280000249A6225463B889BB2002BFBD00023D1
:104338003B804E4BDFF878B101351D604C4ABBF825
:1043480002A0BAF1000F6FD1B9F80010138889B232
:104358009BB2994268D0FFF79FFDFFF7ADFD444A35
:104368000028ECD04348FFF7D5FD50B1424BA3F8E5
:1043780000A0424B01221A8003B0BDE8F08FC72489
:10438800D1E73F48FFF7C6FD0028AFD13D48FFF70A
:10439800C1FD18B1FFF70CFEFFF79EFD3A48FFF785
:1043A800B9FD20B13948FDF7BDFFFFF795FD384845
:1043B800FFF7B0FD20B13548FDF7B4FFFFF78CFDDE
:1043C8003448FFF7A7FD20B13048FDF7ABFFFFF7F2
:1043D80083FD3148FFF79EFD20B12C48FDF7A2FF71
:1043E800FFF77AFD2D48FFF795FD18B1FFF70CFE92
:1043F800FFF772FD2A480DF10601FFF7A7FD28B166
:10440800BDF90600FFF7E6FEFFF766FD25480DF14A
:104418000601FFF79BFD002890D0BDF90600FFF7C5
:104428000DFFFFF759FD89E7FFF7DAFD002CA6D04D
:10443800013CA4B2002C7FF476AFB6F90030002B13
:10444800BFF671AF4FF090414B691A04DB4302F499
:10445800802203F0040313438B6164E70200002009
:104468000C060020436700085A67000850280020FF
:10447800C0490020616700087A05002078050020FF
:10448800646700086C6700087867000824670008FC
:104498008167000887670008906700089967000827
:1044A800A1670008AF670008C1660008C24900207C
:1044B8008405002010F0800F70B5A14C054614D07B
:1044C80000262680FDF7E0FE9E4B9F4A186005F007
:1044D8007003FF2105F00F05302B13705570917094
:1044E80014D1BDE87040FFF739B92388052B09D8E6
:1044F800013B042B09D8DFE813F039005C00EC001D
:1045080007013501642B00F0468170BD03D823B341
:10451800102BE6D0F9E7402B0AD0502BE1D0702BB6
:10452800F3D18A4B1B88AB42EFD10423238009E0E7
:10453800072D0AD00B2D0CD0032DE6D101232380A3
:104548000B23A380E680824B0DE001232380062302
:10455800F7E7012323802B23F3E70B2D0CBF02225F
:1045680064227B4B22805B6A6380CEE7E388794ACA
:10457800D054A08801339BB28342E380E3D313462F
:104588000022114695B2A8420ED8734B00221A8019
:10459800724A0320108029B101221A80704AD36818
:1045A8000133D360002382E013F8015B01326940D4
:1045B800E8E7654B3428987032D8222805D8451E7C
:1045C800032D6ED9002323809FE7A0F12305112D29
:1045D800F8D801A353F825F0A3460008754600084B
:1045E80083460008CD450008CD450008D34600089D
:1045F800D3460008CD4500088B4600088B460008C6
:10460800BB460008CB4600088B460008CD4500088D
:10461800934600089B460008D3460008A3460008B6
:10462800A0F17205EBB20D2BCCD80D2DCAD801A381
:1046380053F825F0AB460008BB460008C3460008FF
:10464800CD450008CB460008CD450008CD450008FB
:10465800CD450008CD450008CD450008CD450008EA
:10466800CD450008CD450008D34600080323238024
:104678001B23A3800023E38065E7032323800D2306
:10468800F7E7032323801023F3E7032323800B2377
:10469800EFE7032323801423EBE7032323800F236F
:1046A800E7E72D4A002313802C4A0221118023803A
:1046B80049E7032323800A23DBE703232380092315
:1046C800D7E7032323801723D3E70323238011236A
:1046D800CFE7E3881F4AD054A08801339BB28342B6
:1046E800E380FFF430AF13460022114695B2A8428A
:1046F80005D8194B00221A800220184A4AE713F8F5
:10470800015B01326940F1E7E388042B08D8DFE850
:1047180003F0030D0F111300512803D10522228045
:104728000133A8E74628FBD00022F8E74C28FAE72F
:104738004128F8E75328F6E74828F5D1FEF794FD15
:104748005C280020440500202C07002032070020A8
:1047580000080040360700207A0500207805002070
:104768005C050020E388042B08D8DFE803F0030980
:104778000B0D0F00512801D000232380E388CFE7D9
:104788004D28F8E74F28F6E74428F4E74528F3D101
:10479800FFF7A6FDF0E7024B9870FEF7DFFF11E781
:1047A8002C0700202DE98848DFF84492884F894E6D
:1047B800894DDFF84082894CDFF83CA2FEF70EFEF7
:1047C800B7F90030002BBEBF4FF0904304229A6225
:1047D800834A00231380834A2B801380A8F8003073
:1047E800238073803380B380FFF758F9FEF71CFEEF
:1047F8004FF400432B804FF6FF733B804FF09043FC
:1048080004229A629A61DFF8F4B1BAF80020BBF882
:10481800003092B29BB29A4203D0FDF795FDFFF7A4
:1048280049FEFFF781F923889BB2013B062B16D876
:10483800DFE803F004070B090E104500002323806E
:10484800B4E7FFF775FA002308E0FFF7DDFAFAE7A7
:10485800FEF75AFD0023A8F8003007232380B9F893
:1048680000309BB2002BD0D00023A9F80030FDF710
:10487800F9FCB7F9000000283ADD5B490B880133E1
:104888009BB2B0F5FA7F0B804AD1584AB2F800C003
:10489800BCF10C0F44D8012202FA0CF212F4825F28
:1048A8002CD112F0240C17D112F0120F38D0B3F516
:1048B800FA7F07D14FF0904304229A6118E0FEF77F
:1048C80036FDC0E7B3F57A7F12D3A1F800C04FF0E8
:1048D800904304229A620BE0B3F5FA7FEAD0B3F56D
:1048E8002F7FF4D0B3F5487FE4D0B3F57A7F14D2A4
:1048F8002B88012B24D1FFF703FA84E7B3F5FA7F5D
:10490800D8D0B3F5167FE2D0B3F52F7FD2D0B3F568
:10491800487FDCD0B3F5617FE6E700230B80D6E75C
:104928008342E5DB00230B804FF090414B691A046A
:10493800DB4302F4802203F0040313438B61D7E7BF
:10494800022B3FF460AF23F4FE4148F2030081429A
:104958008AB23FF658AF11040ED4012ACBD0032AED
:1049680026D0002A7FF44FAFFFF7FEF86FEA4040E9
:104978006FEA5040288046E7A2F50042013A022A31
:1049880003D8DFE802F0080F1500C3F30E032B80ED
:1049980032233B80E8E7C3F30E032B804FF4FA730E
:1049A8003B80A8E7C3F30E032B8064233B802AE7F0
:1049B800B388328801339BB29A42B380BFF423AFE5
:1049C80073886FEA43436FEA53432B801BE700BFAA
:1049D80002000020D205002076050020780500207E
:1049E80034070020D00500203007002032070020BF
:1049F8000C0600207A050020C2490020C04900208A
:104A080010B594B03822002106A801F01BFB14222F
:104A1800002101A801F016FB002000F04BF901224B
:104A28004FF48033CDE9062303240223552206A838
:104A3800CDE90D34CDE91023CDE912330F9300F001
:104A480093F908B172B6FEE70421CDE903000F23FC
:104A580005900DEB0100CDE9013400F0CBFB08B166
:104A680072B6FEE714B010BD07B5104A136823F4F8
:104A78008063136000F0B0F8FFF7C2FF0C4BDA6CEC
:104A880042F02002DA64DA6C02F020020192019A04
:104A9800DA6C42F00102DA64DB6C03F00103009384
:104AA800009B03B05DF804EBFFF77CBE00200240DA
:104AB800001002400A4B1A6E42F001021A661A6E82
:104AC80082B002F001020092009A9A6D42F0805280
:104AD8009A659B6D03F080530193019B02B0704768
:104AE80000100240FEE7FEE7FEE7FEE7FEE770473C
:104AF80070477047FEF786BB034AD2F8883043F404
:104B08007003C2F88830704700ED00E00D48854614
:104B18000D480E490E4A002302E0D458C45004330D
:104B2800C4188C42F9D30B4A0B4C002301E01360E4
:104B38000432A242FBD3FFF7DFFF01F0BFFAFFF711
:104B480093FFFEE7008000200000002060000020A6
:104B58002469000860000020004B0020FEE7704731
:104B680010B5094B4FF0FF3200249A639C631A6416
:104B78001C649A629C62DA62DC621A631C63FFF747
:104B8800EEFF204610BD00BF0010024038B50F4BA5
:104B98001A6805460AB9012038BD4FF47A73B3FB89
:104BA800F2F30B4A1068B0FBF3F000F06FF804461C
:104BB8000028F0D10F2DEED8024629464FF0FF30DD
:104BC80000F032F8034B20461D60E5E7080000209E
:104BD800040000200C00002010B5032000F012F89B
:104BE8000F20FFF7D3FF044618B9FFF763FF2046ED
:104BF80010BD0124FBE70000014B1868704700BF97
:104C0800C44900200749CA6822F4E062030212047A
:104C180003F4E063120C134343F0BF6343F400331F
:104C2800CB60704700ED00E0164B30B5DC68C4F38C
:104C38000224C4F10703251D042B28BF0423062DD5
:104C48004FF0FF358CBF033C002405FA03F321EA3B
:104C58000303A54022EA0502A340002843EA020311
:104C6800ACBF00F16040084A4FEA0313B8BF00F038
:104C78000F00DBB2AABF00F56140135480F800337F
:104C880030BD00BF00ED00E014ED00E00138B0F1E8
:104C9800807F0BD24FF0E023054A5861F02182F85B
:104CA80023100020072298611A617047012070477D
:104CB80000ED00E0294B1A6830BB02F4C062B2F57F
:104CC800806FD3F8802022F48072C3F880201AD134
:104CD8001A6822F4C06242F400721A60204A12680C
:104CE80032214A431F49B2FBF1F2013259694905A1
:104CF80000D522B95B69580503D400207047013AF2
:104D0800F4E7032070477047B0F5007F1FD102F425
:104D1800C062B2F5806FD3F8802042F48072C3F885
:104D28008020EAD11A6822F4C06242F400721A6044
:104D38000B4A126832214A430A49B2FBF1F20132A6
:104D480059694905D6D5002AD4D0013AF8E722F4A2
:104D5800C06242F480621A60CFE700BF0070004072
:104D68000400002040420F002DE9F341044640B3FF
:104D78000368DF0714D423689E075BD423681E07E3
:104D880000F1A48023685D0700F1CB8023689B06AF
:104D980000F13281E069002840F06081002028E0BD
:104DA800A14DAB68EA6803F00C030C2B0BD102F0A1
:104DB8000303032B09D12B689D03DCD56368002B03
:104DC800D9D1012015E0082BF4E76368B3F5803FDB
:104DD80012D12B6843F480332B60FFF70DFF064692
:104DE8002B689803C7D4FFF707FF801B6428F7D9FF
:104DF800032002B0BDE8F081B3F5A02F04D12B68E1
:104E080043F480232B60E4E72A6822F480322A6086
:104E18002A6822F480222A60002BDED1FFF7ECFEFC
:104E280006462B689903A6D5FFF7E6FE801B642883
:104E3800F7D9DDE77C4DAB68EA6803F00C030C2B6F
:104E480017D102F00303022B15D12B685A0502D59E
:104E5800E368002BB5D06B68226923F0FE4343EA70
:104E680002636B60714B1868FFF790FE002885D0CD
:104E7800A7E7042BE8E7E368BBB12B6843F480732A
:104E88002B60FFF7B9FE06462B685B0507D56B68F4
:104E9800226923F0FE4343EA02636B606EE7FFF783
:104EA800ABFE801B0228EFD9A2E72B6823F480739E
:104EB8002B60FFF7A1FE06462B685F057FF55EAF06
:104EC800FFF79AFE801B0228F6D991E76369564DD1
:104ED8009BB1D5F8943043F00103C5F89430FFF73F
:104EE8008BFE0646D5F8943098073FF54BAFFFF791
:104EF80083FE801B0228F5D97AE7D5F8943023F091
:104F08000103C5F89430FFF777FE0646D5F89430CC
:104F180099077FF537AFFFF76FFE801B0228F5D999
:104F280066E7414DAB6DDA0027D4AB6D43F0805393
:104F3800AB65AB6D03F080530193019B01273C4E99
:104F48003368DB051BD5A368012B29D1D5F8903030
:104F580043F00103C5F89030FFF74EFE41F2883860
:104F68000646D5F89030990740D5002F3FF40EAF8C
:104F7800AB6D23F08053AB6508E70027DFE73368A4
:104F880043F480733360FFF737FE80463368D805F3
:104F9800D9D4FFF731FEA0EB08000228F6D927E79D
:104FA800052B06D1D5F8903043F00403C5F89030AE
:104FB800CCE7D5F8902022F00102C5F89020D5F86A
:104FC800902022F00402C5F89020002BC4D1FFF7EE
:104FD80013FE41F288380646D5F890309A07C4D5B2
:104FE800FFF70AFE801B4045F6D901E7FFF704FEEC
:104FF800801B4045B5D9FBE6A3690B4DD3B1D5F865
:10500800983043F00103C5F89830FFF7F5FD0646E0
:10501800D5F898309F073FF5BDAEFFF7EDFD801B33
:105028000228F5D9E4E600BF001002400C00002079
:1050380000700040D5F8983023F00103C5F8983087
:10504800FFF7DAFD0646D5F8983098077FF5A2AE47
:10505800FFF7D2FD801B0228F5D9C9E6484DAB6899
:1050680003F00C030C2B57D02B68022823F0807315
:105078002B603AD1FFF7C0FD06462B6899012ED464
:10508800EA68404B1340226A1343A26A43EA0223A8
:10509800E26A43EAC263626A013A43EA0213226B94
:1050A8005208013A43EA4253626B5208013A43EA12
:1050B8004263EB602B6843F080732B60EB6843F02E
:1050C8008073EB60FFF798FD04462B689A013FF563
:1050D80065AEFFF791FD001B0228F6D988E6FFF7B9
:1050E8008BFD801B0228C8D982E6EB6823F00303F6
:1050F800EB60EB6823F0887323F48033EB60FFF7F1
:105108007BFD04462B689B017FF548AEFFF774FDD5
:10511800001B0228F6D96BE601283FF46AAEEB685B
:10512800226A03F0030191427FF44BAE616A03F0F7
:10513800F0020139B2EB011F7FF443AEA16A03F418
:10514800FE42B2EB012F7FF43CAEE16A03F07842F5
:10515800B2EBC16F7FF435AE226B520803F4C00185
:10516800013AB1EB425F7FF42CAE626B520803F058
:10517800C063013AB3EB426F3FF410AE21E600BFC3
:10518800001002400C809F01174B9A6802F00C0235
:10519800042A23D09A6802F00C02082A20D09A68C0
:1051A80002F00C020C2A1DD1D968DA68D868DB68CD
:1051B80001F00301C3F341630329C2F30312C0F3EF
:1051C800062003F101030CBF084909495B000132BD
:1051D800B1FBF2F25043B0FBF3F07047044870475C
:1051E80002487047002070470010024000127A0001
:1051F8000024F4002DE9F8430E46054610B90120B5
:10520800BDE8F8836D4A136803F00F038B4245D35A
:10521800296811F001084CD12A68910740F1A7804C
:10522800674B12F0040F1EBF996841F4E061996062
:10523800120741BF9A6822F47C5242F4E0629A60F5
:105248009A68A96822F0F0020A439A605B4C2368C6
:1052580003F00F03B34200F293802A68584C12F00F
:10526800040F40F0A380130706D5A3682A6923F426
:10527800605343EAC203A360FFF786FFA368514A5D
:10528800C3F30313D35C03F01F03D8404E4B1860DD
:105298004E4B1868BDE8F843FFF778BC136823F055
:1052A8000F030B431360136803F00F038B42A6D15F
:1052B800AEE76F68424C032F236849D19B019ED506
:1052C800E368E26803F00303032BE3680CBF40487C
:1052D8004048C2F30312C3F306230132B0FBF2F2D3
:1052E8005343E268C2F3416201325200B3FBF2F366
:1052F800394A93421AD84FF00008A36823F00303F1
:105308003B43A360FFF778FC41F288390746A3685E
:105318006A6803F00C03B3EB820F3FF47DAFFFF72D
:105328006BFCC01B4845F2D9032069E7A36813F05A
:10533800F00F04D08807DED5AB68002BDBD1A3685B
:1053480023F0F00343F08003A3604FF08008D4E714
:10535800022F09D113F4003F3FF451AFFFF714FFB8
:105368001D4B9842C7D9EAE713F4806FF4E7B8F108
:10537800800F01BF124A936823F0F003936065E73A
:10538800236823F00F0333432360FFF735FC41F212
:1053980088380746236803F00F03B3423FF45DAF34
:1053A800FFF72AFCC01B4045F4D9BDE7A368E968AC
:1053B80023F4E0630B43A36055E700BF00200240DD
:1053C80000100240C8670008040000200C000020FC
:1053D80000127A000024F40000B4C4044FF0A04383
:1053E80003F5807353F8F82C9B68134370B513F0DA
:1053F800010412D1D1E90053094E8268324043B109
:105408002B4313438A681343CA68134383602046B7
:1054180070BD2A4382601846FAE70120F8E700BF0A
:10542800E030C0FF836813F0010330B50DD1D1E936
:105438000025C46889682A430A4324F4404121F0BE
:1054480018010A43C260184630BD0120FCE700007D
:105458008368DB07F0B51BD4D1E90032D1E90347F3
:105468004E690C4D234372B1C46889683B4333438A
:105478002C4023430B43C360036B23F00F031343F8
:1054880003630020F0BDC1683B4333432940F1E783
:105498000120F7E71CC0F0FF11F5803F444B02469E
:1054A8001DD198420BD103F580539A6A42F001024C
:1054B8009A629A6A22F001029A62002070473D4B74
:1054C800984272D1D3F8282C42F00202C3F8282C53
:1054D800D3F8282C22F00202C3F8282CEDE79842D2
:1054E8001DD111BB344B186820F001001860002052
:1054F800186058609860D860304B83EA922301EBBB
:10550800C3039B0003F1804303F50233186820F0BE
:10551800FF001860002932D101235360CDE7254BE5
:1055280098422AD129B90833DDE7012905D1244B4E
:10553800D9E7012905D1234BD5E7022905D1224B0B
:10554800D1E7022905D1214BCDE7032905D1204B0D
:10555800C9E7032905D11F4BC5E7042907D11E4B0D
:10556800C1E71E4B1E48042918BF0346BBE71D4B65
:105578001B48052918BF0346B5E7194BB3E701399E
:10558800042912D8DFE801F00305080B0E001023E8
:10559800C3E74FF48073C0E74FF48053BDE74FF47F
:1055A8008033BAE74FF48013B7E70120704700BF94
:1055B8000000024000040240080002408000100081
:1055C8001C0002401C04024030000240300402402B
:1055D800440002404404024058000240580402407B
:1055E8006C0402406C000240194BF0B55E5CD2E9D5
:1055F80002373B43176985593B4357693B439769D2
:105608003B43D7693B43976A25F4FF453B4325F065
:10561800700534182B4383515368E3601368A36003
:105628006368156A526A1B0C1B042B436360094BA1
:1056380083EA902301EBC301890001F1804101F560
:10564800023100200B6823F0FF0313430B60F0BD09
:10565800E067000880001000024AD36A1843D0624D
:10566800704700BF00100240B0F1904F08B509D153
:105678000120FFF7F1FF254AD36A23F00103D36223
:10568800002008BD224B984207D10220FFF7E4FF13
:105698001E4AD36A23F00203F1E71E4B984207D152
:1056A8000420FFF7D9FF194AD36A23F00403E6E779
:1056B800194B984207D10820FFF7CEFF134AD36A47
:1056C80023F00803DBE7154B984207D11020FFF7BA
:1056D800C3FF0E4AD36A23F01003D0E7104B984259
:1056E80007D12020FFF7B8FF084AD36A23F0200328
:1056F800C5E70C4B984207D14020FFF7ADFF034A9E
:10570800D36A23F04003BAE70120BAE70010024049
:105718000004004800080048000C00480010004839
:1057280000140048001800482DE9F04F02460D68A3
:1057380095FAA5F44FF0010EB4FA84F403274FF05C
:105748000F0C6FEA050835FA04F001D1BDE8F08FB7
:105758000EFA04F32B4067D04868461E012E1ED867
:10576800966893FAA3F9B9FA89F94FEA490907FA49
:1057780009F926EA090993FAA3FA8E68BAFA8AFAA5
:105788004FEA4A0A06FA0AF646EA09069660566891
:1057980008EA0609CE686E4349EA06065660D668E6
:1057A80093FAA3F9B9FA89F94FEA490907FA09F905
:1057B80026EA090993FAA3FA0E69BAFA8AFA4FEAAD
:1057C8004A0A06FA0AF646EA09060228D66018D1F5
:1057D800FF2BD1F814A029D8D2F8209093FAA3F679
:1057E800B6FA86F6B6000CFA06F629EA060993FA1E
:1057F800A3F6B6FA86F6B6000AFA06F646EA0906E7
:105808001662166893FAA3F9B9FA89F94FEA4909B1
:1058180007FA09F926EA090693FAA3F3B3FA83F318
:105828005B0098403043106001348CE7D2F8249034
:105838001E0A96FAA6FBBBFA8BFB4FEA8B0B0CFAF7
:105848000BFB29EA0B0996FAA6F6B6FA86F6B60015
:105858000AFA06FA4AEA09065662D2E7024B1868BB
:10586800C0F38020704700BF00100240024BD3F8FD
:105878009000C0F34000704700100240024B1868C7
:10588800C0F34060704700BF00100240044B054A57
:105898009B68C3F30313D35C03F01F03D84070471E
:1058A80000100240C8670008044B054A9B68C3F310
:1058B8000223D35C03F01F03D84070470010024056
:1058C800D8670008124B9A6802F00C02082A1BD00D
:1058D8000C2A1BD1DA680F480F4902F00302032A89
:1058E80008BF0146D868DA68DB68C3F34163C0F3D0
:1058F8000620C2F303120133484301325B00B0FBB8
:10590800F2F0B0FBF3F07047024870470248704766
:105918000010024000127A000024F400164A08B56C
:10592800136843F480731360FFF798FF0028FBD0D7
:10593800536823F0FE4343F0804353600123936090
:10594800936803F00C03042BFAD14FF480731360AF
:105958001360FFF793FF0028FBD14FF4805140F20A
:105968003B73D16090611362D2F8943043F4000322
:10597800C2F8943008BD00BF00100240032810B5DB
:105988002DD12D4C2D4AD4F8883003F0030343F46D
:105998004033934209D0B3F1031F0CD0013A93422C
:1059A80010D1BDE81040FFF78DBFFFF757FF002863
:1059B80040D1002010BDFFF759FF003818BF012063
:1059C800C003F7E7FFF77EFFFFF760FFA3681C4AF5
:1059D800C3F3C223D35C03F01F03D840EAE70C28C3
:1059E80017D1154B174AD3F8883003F00C0343F44A
:1059F80040239342D9D0B3F10C1FDCD0043A934230
:105A0800CFD0FFF75FFFFFF741FFBDE81040FFF77A
:105A18004BBF3028CDD1084B0B4AD3F8883003F060
:105A2800300343F440139342BFD0B3F1301FC2D0C8
:105A3800103AE4E70548BDE7001002400200030001
:105A4800D867000808000C00200030000024F4008B
:105A5800C02808B501D0002008BD144B144AD3F85B
:105A6800883003F0C00343F44003934209D0B3F1F4
:105A7800C01F0CD0403A934210D1BDE80840FFF750
:105A880021BFFFF7EBFE0028E5D00A48E4E7FFF75F
:105A9800EDFE003818BF0120C003DDE7FFF712FF55
:105AA800FFF7F4FEBDE80840FFF7FEBE0010024015
:105AB8008000C0000024F40013B54FF47A730193FA
:105AC800C36813F0400301461CD14FF0FF32C26097
