:020000040800F2
:1000000000800020695B0008415B0008435B00083A
:10001000455B0008475B0008495B000800000000E2
:100020000000000000000000000000004B5B000822
:100030004D5B0008000000004F5B0008515B0008AA
:10004000B95B0008B95B0008B95B0008B95B000840
:10005000B95B0008B95B0008B95B0008B95B000830
:10006000B95B0008B95B0008B95B0008B95B000820
:10007000B95B0008B95B0008B95B0008B95B000810
:10008000B95B000800000000B95B0008B95B00081C
:10009000B95B0008B95B0008B95B0008B95B0008F0
:1000A000B95B0008B95B0008B95B0008B95B0008E0
:1000B000B95B0008010F0008B95B0008B95B0008D4
:1000C000B95B0008B95B0008B95B0008B95B0008C0
:1000D000B95B0008F10C0008B95B0008B95B0008C7
:1000E000B95B0008B95B0008B95B0008B95B0008A0
:1000F000B95B0008B95B0008B95B000800000000AC
:1001000000000000B95B000800000000B95B0008B7
:10011000B95B000800000000B95B0008B95B00088B
:10012000B95B0008B95B0008B95B0008B95B00085F
:10013000B95B00080000000000000000B95B000887
:10014000B95B0008B95B0008000000000000000077
:10015000000000000000000000000000000000009F
:10016000000000000000000000000000B95B000873
:10017000B95B000800000000000000000000000063
:1001800000000000B95B0008000000000000000053
:10019000000000000000000000000000000000005F
:1001A0000000000000000000B95B0008B95B000817
:1001B000B95B0008B95B0008B95B000800000000EB
:1001C00000000000B95B0008000000000000000013
:0801D000B95B0008B95B0008EF
:1001D80010B5054C237833B9044B13B10448AFF379
:1001E80000800123237010BDE00000200000000003
:1001F800FC80000808B5034B1BB103490348AFF363
:10020800008008BD00000000E4000020FC80000819
:10021800034613F8012B002AFBD1181A013870473E
:100228007BB972B90029BEBF00204FF0004106E03B
:1002380008BF00281CBF6FF000414FF0FF3000F0EE
:10024800A3B9ADF1080C6DE904CE002909DB002B38
:100258001ADB00F035F8DDF804E0DDE9022304B02C
:100268007047404261EB4101002B1BDB00F028F88E
:10027800DDF804E0DDE9022304B0404261EB41010E
:10028800524263EB43037047524263EB430300F06F
:1002980017F8DDF804E0DDE9022304B0404261EB21
:1002A80041017047524263EB430300F009F8DDF85F
:1002B80004E0DDE9022304B0524263EB43037047D4
:1002C8002DE9F047089E0D4604460F46002B4AD1FB
:1002D8008A42944665D9B2FA82F343B102FA03FC22
:1002E800C3F120029F4020FA02F217439C404FEAD4
:1002F8001C4E1FFA8CF5B7FBFEF1220C0EFB117792
:1003080042EA074201FB05F090420AD91CEB0202BF
:1003180001F1FF3780F01C81904240F219810239C7
:100328006244121AA4B2B2FBFEF00EFB102244EA99
:10033800024400FB05F5A5420AD91CEB040400F1B0
:10034800FF3280F00781A54240F2048164440238FC
:1003580040EA0140641B00211EB1DC400023C6E9CD
:100368000043BDE8F0878B4208D9002E00F0ED80ED
:100378000021C6E900050846BDE8F087B3FA83F115
:10038800002949D1AB4202D3824200F2F880841A94
:1003980065EB030201201746002EE2D0C6E90047AC
:1003A800DFE702B9FFDEB2FA82F3002B40F090805B
:1003B8008A1A4FEA1C471FFA8CFE0121B2FBF7F597
:1003C80007FB1520220C42EA00420EFB05F0904282
:1003D80008D91CEB020205F1FF3802D2904200F264
:1003E800CB804546121AA4B2B2FBF7F007FB1022E5
:1003F80044EA02440EFB00FEA64508D91CEB04049F
:1004080000F1FF3202D2A64500F2BB801046A4EBF1
:100418000E0440EA05409FE7C1F120078B4022FA0D
:1004280007FC4CEA030C05FA01F420FA07F3FD4037
:100438004FEA1C492343B5FBF9F81FFA8CFE09FB68
:1004480018551C0C44EA054408FB0EF5A54202FAAF
:1004580001F200FA01F00BD91CEB040408F1FF3A91
:1004680080F08880A54240F28580A8F102086444A3
:10047800641B9DB2B4FBF9F309FB134445EA044439
:1004880003FB0EFEA64508D91CEB040403F1FF3557
:100498006CD2A6456AD9023B644443EA0843A3FBED
:1004A8000295A4EB0E04AC42C846AE4656D353D0D0
:1004B80056B1B0EB080264EB0E0404FA07F7CA4021
:1004C800CC401743C6E9007418460021BDE8F08700
:1004D800C3F1200102FA03FC20FA01F225FA01F126
:1004E8009D402A434FEA1C471FFA8CFEB1FBF7F0E8
:1004F80007FB1015110C41EA054100FB0EF58D4272
:1005080004FA03F408D91CEB010100F1FF382FD2DB
:100518008D422DD902386144491B92B2B1FBF7F5DF
:1005280007FB151142EA014205FB0EF1914208D979
:100538001CEB020205F1FF3816D2914214D9023D94
:100548006244521A45EA004138E73146304608E726
:100558003946E6E61046FBE64845A9D2B9EB02085B
:1005680065EB0C0E013BA3E74546EAE72B4694E70B
:100578004046D1E7D0467BE7023D624432E7084671
:100588000AE76444023842E7704700BF054BDA6C5B
:100598000243DA64DB6C82B003400193019B02B032
:1005A800704700BF00100240054B9A6D02439A65E0
:1005B8009B6D82B003400193019B02B0704700BF5E
:1005C80000100240054B1A6E02431A661B6E82B079
:1005D80003400193019B02B0704700BF0010024026
:1005E8000A4B0B4A1B680B49A2FB03239B0C00FB1D
:1005F80003F2094B486802F5FA72A3FB023292092A
:100608004B681B1A9342FBD3704700BF640000205D
:1006180083DE1B43001000E0D34D6210044B1888A2
:10062800044B1B8880B29BB2C01A18BF01207047C8
:10063800DA270020D8270020054B064A19881162BE
:10064800A2F5923259889B8811621362704700BFE5
:1006580046110020002C0140074B084A5B6A02F54E
:10066800006353E8003F43F0200302F5006040E8D0
:1006780000310029F3D170470038014000300140B3
:1006880038B50446FFF7C4FD002283B26BB9EAB956
:1006980083B2013B202091B2994216DA655C302D75
:1006A80002F1010211D16054F5E7013B9BB2E15C14
:1006B8002E2908BF1A46E9E7655C302D03F10103CE
:1006C80003D1605499B29142F6DB38BD013A20203B
:1006D800F8E710B53024632807D80C7030210928B2
:1006E80008D830301170187010BD01346438E4B285
:1006F800C0B2F0E701310A38C9B2C0B2EFE710B5AD
:100708008B1C0C464A1CFFF7E4FF0023E37010BD66
:1007180003099F2800F00F0094BF303337330928AE
:100728000B7094BF30303730002348708B7070479F
:1007380013B502460C46C0B201A9FFF7E9FF2146EE
:10074800100AFFF7E5FF9DF80430A3709DF8053007
:10075800E3709DF80630237102B010BD13B50A4648
:10076800044601A9C0B2FFF7D3FF9DF80430937186
:100778009DF80530D371C4F30720FFF7C9FF9DF832
:10078800043013719DF805305371C4F30740FFF727
:10079800BFFF9DF8043093709DF80530D370200E8C
:1007A800FFF7B6FF9DF8043013709DF805305370BD
:1007B8000023137202B010BD2DE9F041069C0E46CD
:1007C80000212170317875295ED17578632D0BD1A0
:1007D8000178B778682F1BD1632D21460CD1BDE86D
:1007E800F0410078FFF794BF692D01D10188F0E747
:1007F8006C2D44D10168ECE7692D04D1BDE8F041C6
:100808000088FFF795BFBDE8F0410068FFF7A6BF75
:100818002B2F5AD1A9B32770012017469DB212FA7F
:1008280083FE4FF03008AEEB070C1CF4004F4ED19E
:10083800002BC5F10005C8BF002503FA85F5002B7C
:10084800D4BFD718171C2DB2BBB20DB101352DB2CC
:100858004FF00A0E98423FD30023A3547A21304622
:1008680006F0BCFE58B1B3782B2B55D1601CFFF7AE
:1008780007FF2046FFF7CCFC012383423FD3BDE8A6
:10088800F08120202070C7E77329F8D17178632997
:100898000DD190F90010B0782B2814D100290FDA67
:1008A8002D20207001200029B8BF4942B5E76929E9
:1008B80002D1B0F90010EEE76C29E0D10168EAE74F
:1008C80008BF2020EDE70020EDE70020A5E7013F65
:1008D800BFB204F80780A6E75F1EBBB214FA87FC14
:1008E800D71AAF4209D0B1FBFEF80EFB1817303704
:1008F800FFB241468CF80070ACE72E27FAE7E25CBD
:10090800202A06D02344227803F8012C20232370C0
:10091800B5E701339BB2B0E72046FFF7B1FE2046AA
:10092800FFF776FC01238342A9D2E25C202AE9D1B1
:1009380001339BB2F7E70000B0F1904F08B50146CC
:1009480007D10120FFF722FE114B99420BD120203D
:1009580014E0104B98420BD003F58063984209D1FC
:100968000420FFF713FE0C4B994210D1402005E0FC
:100978000220E7E7094B984204D10820BDE8084067
:10098800FFF704BE064B9842DED11020F6E708BDFB
:10099800001400480004004800180048000C0048F3
:1009A8000010004808B5224B984201460BD14FF47D
:1009B8000060FFF707FE1F4B99420DD1BDE80840C4
:1009C8002020FFF7F1BDB0F1804F0ED01A4B9842AE
:1009D8000FD10220FFF7E8FD184B99420FD14FF4D1
:1009E8000050BDE80840FFF7EDBD0120FFF7DCFD32
:1009F800E1E7134B984208D10420FFF7D5FD114BCE
:100A080099420CD14FF48030EBE70F4B9842D2D18A
:100A18001020FFF7C9FD0D4B994206D008BD0C4BBD
:100A28009942F8D14FF40030DBE74FF48020D8E743
:100A3800002C014000140040000400400034014034
:100A480000080040004001400010004000480140FC
:100A5800004401402DE9F04387B00E460546144690
:100A68000021142201A89DF838809DF83C901F466B
:100A780006F0ACFD00960B2C07D8DFE804F007075A
:100A88000A121414141616161A1CFEE703230193EF
:100A980001E002230493032F11D8DFE807F01113B4
:100AA80021110123F6E70123F1E7012301930393C1
:100AB800F1E70223EBE7022301930123F7E7FEE7BF
:100AC80002230293B8F1100F0CD8DFE808F02D2D9F
:100AD8000C11131517191B1D1F21232527292B005E
:100AE8000123EEE7FEE701230593022301931EE0AD
:100AF8000223F9E70323F7E70423F5E70523F3E7E0
:100B08000623F1E70723EFE70823EDE70923EBE7DF
:100B18000A23E9E70B23E7E70C23E5E70D23E3E7DF
:100B28000E23E1E70F23DFE7B8F1000FDDD1032C37
:100B38000FD8144B9D4208D1102E01D0402E04D15D
:100B4800114A936843F480439360B9F1000F0FD0C2
:100B580002E0B9F1000F02D02846FFF7EDFE053C90
:100B6800042C05D8DFE804F0030B04030B00AE6285
:100B78006946284605F08AFF07B0BDE8F083AE61F4
:100B8800F6E700BF000400480070004070B586B06A
:100B98000023164604460D46ADF80630FFF702FF5F
:100BA800042E04D8DFE806F0303404384100FEE7AC
:100BB8001F4B204A1B68B3FBF2F39BB20022013B98
:100BC80001A92046ADF80430CDE90225049205922A
:100BD80006F05EF9236823F080032360A36823F4FA
:100BE800A03323F00703A360636823F0007323F0A6
:100BF80070036360636823F470036360A36823F081
:100C08008003A36006B070BD094B0B4A1B68D2E78E
:100C1800074B0A4A1B68CEE7054B074A1B68B3FB1C
:100C2800F2F303EB83035B00C7E70123C6E700BFCA
:100C38006400002080A8120140420F0080969800AE
:100C480000224FF0FF31FFF7A1BF00000C4BD3F893
:100C5800FC2022F08072C3F8FC20D3F8FC2042F07C
:100C68008072C3F8FC20A3F55D431A6822F00102E4
:100C78001A601A6842F001021A6000225A6070472E
:100C880000ED00E0064A074B51681B6810B5064C9A
:100C9800B3FBF4F3584353685B1A8342FBD310BD8C
:100CA800001000E06400002040420F0072B6064BBE
:100CB8005B6A9BB262B6054A91889380994282BF6B
:100CC8001168013111607047000400403C010020A8
:100CD800034B5A6A034B002119609A80704700BF82
:100CE800000400403C0100200C4BDA69910611D544
:100CF8001A6892060ED50A480A495A6A038809886A
:100D08000133C3F3080389B299421FBF0649D2B21F
:100D1800CA540380014B1F221A62704700380140F1
:100D2800DA270020D8270020D8250020034BDA69CD
:100D38005206FCD598620120704700BF0038014078
:100D480008B5411E11F8010F00B908BDFFF7EEFF05
:100D5800F8E70000024AD3695B06FCD5704700BF7C
:100D6800003801400848094A0188138889B29BB2B3
:100D78009942F9D013880133C3F308031380138809
:100D8800034A9BB2D05C7047DA270020D82700209E
:100D9800D825002070B588B00C46064615460021B7
:100DA8002022684606F012FC231E18BF01231B03ED
:100DB800CDE9023569460C2303480196049405934E
:100DC80006F098FA08B070BD0038014073B5404C81
:100DD800236823F0010323604FF48040082501268F
:100DE800FFF7F0FB4FF4007103230A224FF0904005
:100DF800CDE90056FFF72EFE03231A464FF4806113
:100E08004FF09040CDE90056FFF724FE002211462E
:100E18003048FFF7BFFF63682F4A23F490436360AD
:100E2800A36823F02A03A360236823F000532360F8
:100E380002F6080353E8003F23F0604302F6080077
:100E480040E800310029F3D102F6080353E8003FD7
:100E580023F0606302F6080040E800310029F3D16E
:100E68001E4B102283F8252320225A601A4901F5C7
:100E7800006353E8003F23F0200301F5006040E8D9
:100E88000032002AF3D1164B1A80164B1A80104BE9
:100E98005A6822F400625A609A6822F008029A603E
:100EA8005A6822F480425A609A6822F022029A60B4
:100EB8009A6842F480529A601A6842F001021A60F5
:100EC800DA699102FCD5DA695202F9D502B070BD2F
:100ED8000038014080841E000030014000E100E03D
:100EE800D8270020DA27002008B5FFF76FFFBDE8F4
:100EF8000840FFF7B1BB0000094B1A6992070DD5EE
:100F08006FF002021A615A6B02F57A725A63054B46
:100F180001221A80044A136801331360704700BF26
:100F280000040040C82100207C24002030B51B4B61
:100F38001B4C00251D801B4B89B020461D60FFF708
:100F48007FFE29461C2201A806F040FB30230093AF
:100F5800636A6A4603F57A7301212046039305F014
:100F6800F3FF4FF08042D2F8183423F00403C2F89C
:100F780018340D4BF02283F81D234FF000521A60ED
:100F88006FF002032361E36843F00203E360236820
:100F980043F00103236009B030BD00BFC821002021
:100FA800000400407C24002000E100E07FB501231C
:100FB800CDE90413002201A902A8CDE9022304F017
:100FC800A1FF00280CBF0420052007B05DF804FB32
:100FD800014608B5002004F0FFFE00280CBF0420DD
:100FE800052008BD08B5FFF7E1FF031F5842584127
:100FF80008BD08B5FFF7ECFF031F5842584108BD6C
:101008002DE9F3472A4B2B4D012814462A482B4A31
:101018000E4617BFAA463D213C211D46019106BF39
:101028009A468046904604F091FE01992846FFF7BB
:10103800D9FF30B9002404F09BFE204602B0BDE879
:10104800F087002E08BF4FF4FC64073424F007042F
:1010580005F11007B1463444AAEB050AA1450BD1A6
:101068004FF011324FF0FF332846FFF7C2FF003828
:1010780018BF01208400DEE76EB90AEB0703D3E945
:101088000023B3F1FF3F08BFB2F1FF3F06D1083795
:1010980009F10809E2E7D9E90023F2E7B84505D9DB
:1010A8003846FFF7A6FF0028F1D1C3E70324C2E7BB
:1010B80000E0010800E80108FFEF0108FFE7010868
:1010C80010B504F043FE09483C21FFF78BFF58B1E7
:1010D80007483D21FFF786FF003818BF012084002C
:1010E80004F046FE204610BD0446F9E700E001087A
:1010F80000E8010830B5084D002340F2EF749AB2B9
:10110800914201D8042030BDA34203D05A5DC25495
:101118000133F4E70320F6E710E0010813B50A46A7
:10112800044672B6019101460020FFF769FF62B6D6
:101138000428019A05D172B601202146FFF760FF05
:1011480062B602B010BD000038B5124B1C68D3F867
:101158000058B4F1113F09D1B5F1113F17D0002261
:1011680011460120BDE83840FFF74ABFB5F1113FED
:1011780003D1002211461046F4E7FFF7A1FF042827
:1011880004D12C4001340CBF0220012038BD0420BA
:10119800FCE700BF00E00108034BD8609A68D2075B
:1011A800FCD5D86880B270470030014006289ABF45
:1011B800014B185C3820704725870008044A08B599
:1011C800FFF7F4FF136823F038031843106008BDD5
:1011D80000300140164B1A6822F040021A600328BA
:1011E80003D8DFE800F003151D21FEE71A6822F096
:1011F80002021A601A6822F001021A600C4B1A687F
:1012080042F040021A609A689207FCD5DB68704782
:101218001A6822F002021A601A6842F00102ECE72A
:101228001A6842F00202E4E71A6842F00202F2E7A2
:101238000030014070B58CB02C4E2822002102A845
:10124800012406F0C3F900254FF48050FFF7BAF9DE
:1012580021463046CDE9005403230622FFF7FAFB66
:10126800B4610626019403230A2220214FF09040FE
:101278000096FFF7EFFBCDE9006403230A228021E3
:101288004FF09040FFF7E6FB03231A46CDE90064D0
:1012980040214FF09040FFF7DDFB382308934FF4CF
:1012A8008273CDE905540393114C02954FF40073F2
:1012B80007934FF47063049302A9072320460B9306
:1012C800CDE9095505F0AAFD636823F010036360B2
:1012D800636823F008036360236843F040032360D6
:1012E800A3689B07FCD5E3680CB070BD00040048F8
:1012F80000300140174D184C08B56B68236004F0A6
:1013080059FC4FF0904005F061FB144805F05EFB76
:10131800134805F05BFB134805F0AAFF05F0B0FC85
:101328004FF0E02300221A615A619A6102F180426B
:1013380002F50432936823F0030343F0010393603A
:10134800012383F310882B6883F308882368984760
:10135800FEE700BF0000FF1F38010020000400481E
:10136800000800480038014030B589B004461C2206
:10137800002101A806F02AF960236A4601211348D2
:101388000093039405F0E0FD114A124DD2F8183C81
:101398004FF0804423F00403C2F8183C01216A4648
:1013A800284605F0D1FDD4F8183823F00403C4F812
:1013B80018386A461021284605F0C6FDD4F81838B2
:1013C80023F48063C4F8183809B030BD002C0140FC
:1013D80000200140000800402DE9F043364D91B04F
:1013E80006460120FFF7D2F80220FFF7CFF80F4694
:1013F8000FCD07AC0FC40FCD0FC42B68236000249A
:1014080007ADA046CDF804802B7A0093696855F89B
:101418000C0B03230A220334FFF71CFB092CF1D120
:101428001422002102A8254CDFF89890DFF8988054
:10143800234D06F0CBF84FF4807305934FF400600A
:101448002023CDE9033602A9FFF7BCF8204605F0B2
:101458001FFD236823F080032360A36803EA0903C0
:10146800A360636803EA08036360A36823F080034A
:10147800A3600420FFF798F802A9284605F008FDA4
:101488002B6823F080032B60AB6803EA0903AB6089
:101498006B6803EA08036B60AB6823F08003AB60FA
:1014A8003846E662EE62FFF75FFF636C43F4004381
:1014B800636411B0BDE8F08320810008002C01406E
:1014C80000080040F8BFFEFF8FFFFFFD024B00221F
:1014D8009A805A801A8070474611002008B5FFF795
:1014E8007BFF074A136843F001031360054B1A6832
:1014F80042F001021A601A6842F001021A6008BD3F
:10150800002C014000080040104810B5B0F8EC4F1E
:101518000188C28883890E4824B941630D494A630A
:101528008B6310BD01EB4104C1EBC40189B2416377
:1015380002EB4201C2EBC102064992B24A6303EBD5
:101548004302C3EBC2039BB2EAE700BF5401002089
:10155800002C014000080040104A1149136A10B5D8
:101568000B80104B1C6A4C801C6A8C800021116215
:101578001962196268B148F60A21D1620120D9625C
:10158800094BA3F8EC0FFFF7BFFFBDE81040FFF7CA
:1015980053B840F20A61D162D962F1E7002C0140E8
:1015A80046110020000800405401002038B50F4DB6
:1015B8002DED028BDFED0E8A9FED0E8A002407EEDB
:1015C800904AB8EEE70A013420EE280A06F060F8DF
:1015D80020EE080AB4F57C7FBDEEC00A10EE103A82
:1015E80045F8043FEBD1BDEC028B38BD70010020FB
:1015F800DE40CC3B008038481A49B0F57C7F4882F1
:1016080024BFA0F57C7080B200F108020B8B51F862
:1016180022205A43120C02F540720A8000F5A87283
:1016280092B2B2F57C7F24BFA0F5287082B202F195
:10163800080051F820005843000C00F54070C8809D
:1016480002F5A87080B2B0F57C7F24BFA2F528729D
:1016580090B2083051F8202053431B0C03F5407317
:101668008B8170475401002008B5FFF72FFF0F4A00
:10167800B2F8EE1F21F007039BB2C906A2F8EE3FAD
:1016880010D5B2F8E41F02290CD80949088840F09F
:1016980001000880888843F0010340F01100888029
:1016A800A2F8EE3FBDE80840FEF7C6BF540100208F
:1016B80046110020064AB2F8EE3F20B143F010036D
:1016C800A2F8EE3F704723F010039BB2F8E700BF83
:1016D8005401002008B5084BB3F8EE3F003818BF96
:1016E8000120C3F30013984204D0FFF7E3FF034B34
:1016F80001221A8008BD00BF5401002044110020B7
:10170800054BB3F8E42F82421FBFA3F8E40F034B45
:1017180001221A80704700BF5401002044110020A4
:10172800064BD3F8E42FB2F1011F03D1B3F8E83F19
:10173800012B01D0FFF710BF704700BF54010020F4
:10174800054B0038B3F8EC3F18BF0120834201D0A5
:10175800FFF7E6BF704700BF5401002008B5FFF748
:10176800B5FE104B4FF003224FF00310C3E90022DF
:10177800C3E90222C3F8E40F00220320C3F81220B1
:10178800DA829A619A83C3F8E80F4FF44071C3F87C
:10179800EC2F19820122BDE8084040F20A60FFF7E9
:1017A8009DBE00BF54010020F7B504468D0904F121
:1017B800300705F00C05184601F01F017B591F265C
:1017C8008E4023EA0603C2F3846606FA01F10B434E
:1017D800D10D7B5101F0040104F11405C2F3045743
:1017E8006E580723BB4033436B50D4F8B030089988
:1017F800C2F3120223EA0203C4F8B0300122002324
:10180800CDE900320323FFF725F903B0F0BD00004E
:10181800024B18804FF47A70FFF734BA4401002065
:101828000B4A10B55389148891899BB2022C89B24E
:10183800938098BFD389D18084BF5B18C3F5805348
:101848009BB21381002353800380012010BD00BF89
:101858004401002030B5002491B02146102206A88A
:10186800CDE90344059405F0B1FE214618220AA8E3
:1018780005F0ACFE4FF0A04004F066FF334A344D4B
:10188800D2F8883023F0405343F00053C2F8883030
:101898004FF40050FEF77AFE03A94FF0A040CDE9BF
:1018A8000344059405F050F84FF4403306A929483D
:1018B8000794069304F024FF4FF40053CDE90D3448
:1018C8000AA94FF480534FF0A040CDE90A440C9484
:1018D8000F934FF0A04405F04DF820231E4A0093C3
:1018E80006214FF090434FF0A040FFF75DFFD4F87A
:1018F800C03023F47F5323F03F03C4F8C03023697A
:1019080023F480332361236923F4806323F00303E2
:101918002361A36823F0204323F03F03A360A36857
:1019280023F0104323F03F0343F08053A360A368E0
:101938002B4043F00103A3606420FFF7A3F9A368D9
:101948002B4043F00403A36011B030BD00100240E7
:10195800C0FFFF7F000300502000F01408B5FFF718
:1019680069FC0320FFF736FCBDE808400220FFF7BA
:1019780025BC0000174A184B012130B491621A683F
:10198800164B1749A3FB02329624920C04FB02F271
:10199800144B4C6802F5FA72A3FB02328446920992
:1019A8004B681B1B9A42FBD80F4C0023E360A368CB
:1019B800DB07FCD50A49E5684C684B681B1B93425A
:1019C800FBD3044B0120C5F38D059861ACF800509A
:1019D80030BC7047000400486400002083DE1B43CD
:1019E800001000E0D34D621000300140F8B5134EEE
:1019F80001250446B56296200F46FEF7F1FD200248
:101A080000F5804000F47F40FFF7C6FB9620FEF704
:101A1800E7FDB56140F2EE20FEF7E2FDB5629620E3
:101A2800FEF7DEFD0020FFF7B7FB0446240A9620E8
:101A3800FEF7D6FDB56128463C80F8BD0004004895
:101A4800F8B5144E01270D460446B7629620FEF7F6
:101A5800C7FDA5F5004303EB042080B2FFF79CFB0C
:101A68009620FEF7BDFDB76144F62060FFF70AF93E
:101A7800B7629620FEF7B4FD0020FFF78DFB044601
:101A88009620FEF7ADFDC4F30F20431B5842B76103
:101A98005841F8BD0004004837B504460D461B20E0
:101AA8000DF10601FFF7A2FFBDF8063013F00C0F89
:101AB800C3F3C0120CBF012300232A80238003B084
:101AC80030BD66210E20FFF7BBBF08B5FFF7B2FB9C
:101AD800BDE808400220FFF771BB0000274A284BE9
:101AE800012110B49162A2F19C621B682549A2F5FC
:101AF8008422A2F27D52A2FB032396249B0C04FBB2
:101B080003F3214A4C6803F5FA73A2FB03238446C6
:101B18009B094A68121B9342FBD81C4847F6FD7282
:101B2800C2608268D207FCD5144A1649C0680124ED
:101B3800946148684A68121A9342FBD80F4A0120F8
:101B4800906249680F484268521A9342FBD80F4A7C
:101B58004FF44043D3609368DB07FCD5D36807494B
:101B68005DF8044B0120C3F30D0283F480438861C0
:101B7800C3F38030ACF80020704700BF0004004871
:101B880064000020001000E0D34D621000300140D6
:101B980010F400630EBF642240F24C424FF47A7393
:101BA80010F4806F08BF1A46830544BF0A3292B208
:101BB800C30548BF0132C3B248BF92B20B8010467A
:101BC800704700BF274A284B012110B49162A2F147
:101BD8009C621B682549A2F58422A2F27D52A2FBD1
:101BE800032396249B0C04FB03F3214A4C6803F55A
:101BF800FA73A2FB032384469B094A68121B93428B
:101C0800FBD81C484FF6FF72C2608268D207FCD529
:101C1800144A1649C0680124946148684A68121A2F
:101C28009342FBD80F4A0120906249680F484268E6
:101C3800521A9342FBD80F4A4FF44043D36093683B
:101C4800DB07FCD5D36807495DF8044B0120C3F3D3
:101C58000D0283F480438861C3F38030ACF8002020
:101C6800704700BF0004004864000020001000E036
:101C7800D34D621000300140344A354B70B4012412
:101C88009462A2F19C621B68324CA2F58422A2F2F3
:101C98007D52A2FB03239B0C962202FB03F32E4AE0
:101CA800656803F5FA73A2FB03239B096268521B5C
:101CB8009342FBD8294D47F6FD72EA60AA68D4071B
:101CC800FCD5224A234CED68012696616568626856
:101CD800521B9342FBD81D4A0125956264681D4D2D
:101CE8006A68121B9342FBD81C4C47F6FE72E260EE
:101CF800A268D207FCD5E268144D164CC2F30D0257
:101D080001260280AE6160686268121A9342FBD8AD
:101D18000E4A0120906260680E4C6268121A934263
:101D2800FBD80E4A4FF44043D3609368DB07FCD5D9
:101D3800D068064A0124C0F30D0380F48040946102
:101D4800C0F3803070BC0B80704700BF00040048AF
:101D580064000020001000E0D34D62100030014004
:101D6800264A274B30B401249462A2F19C621B6876
:101D7800244CA2F58422A2F27D52A2FB03239B0CE1
:101D880003EB8313204A656800015B00A0F5FF4060
:101D980003F5FA737F38A2FB032380B29B096268BC
:101DA800521B9342FBD8194CE060A268D507FCD5BA
:101DB8001448E26844684268121B9342FBD8134AED
:101DC8004FF6FF70D0609068C007FCD5D5680F4803
:101DD8000D804FF6FF74D4608268D207FCD509499C
:101DE800C0684C684A68121B9342FBD8034B012217
:101DF800C0F3803030BC9A61704700BF00040048CF
:101E080064000020001000E0D34D62100030014053
:101E18002A4A2B4B30B401249462A2F19C621B68BD
:101E2800284CA2F58422A2F27D52A2FB03239B0C2C
:101E3800C3EB031C244A4FEACC0C45F201050CF510
:101E4800FA7C05EB0015A2FB0C2C6068ADB24FEADA
:101E58009C1C6268121A9445FBD81C4AD56090688D
:101E6800C007FCD51948D468D1608268D207FCD570
:101E780096241449144AC068486804FB03F303F520
:101E8800FA73A2FB03239B094A68121A9342FBD8F0
:101E98000E494FF6FF73CB608B68DB07FCD5094A08
:101EA800C868516853685B1A9C45FBD8034B0122EC
:101EB800C0F3803030BC9A61704700BF000400480E
:101EC80064000020001000E0D34D62100030014093
:101ED80010F480520EBF4FF47A7342F6F82342F2A0
:101EE800107210F4006F08BF1346020644BF643333
:101EF8009BB2410644BF0A339BB2820644BF0133FA
:101F08009BB21846704700BF03B2002BB8BF00222F
:101F180040F24C43ACBF4FF47A72642310F4804F04
:101F280018BF1346810458BF0A33C2045CBF01338B
:101F38009BB21846704700BF254A264B70B401244F
:101F48009462A2F19C621B68234CA2F58422A2F23F
:101F58007D52A2FB03239B0C03EB83131F4A656886
:101F68005B0003F5FA73A2FB03239B096268521B0B
:101F78009342FBD81A4D48F20102EA60AA68D607D4
:101F8800FCD5154CEA6865686268521B9342FBD819
:101F9800134A4FF6FF74D4609468E407FCD5D668FA
:101FA8000F4D06804FF6FF74D460AA68D207FCD59F
:101FB800094CE868656808806268521B9342FBD840
:101FC800034B0122C0F3803070BC9A61704700BF98
:101FD8000004004864000020001000E0D34D6210A7
:101FE8000030014038B50546FFF7A6FF2A880C46A1
:101FF80012F4805116BF42F6F8234FF47A7342F276
:10200800107112F4006F08BF0B4612F0800F1CBF4E
:1020180064339BB212F0400F1CBF0A339BB2920686
:1020280044BF01339BB22B80B4F900302288002BC7
:10203800B8BF002140F24C43ACBF4FF47A7164231F
:1020480012F4804F18BF0B46910458BF0A33D204CC
:102058005CBF01339BB2238038BD00BF244A254BA7
:1020680070B401249462A2F19C621B68224CA2F510
:102078008422A2F27D52A2FB03239B0C642202FB62
:1020880003F31E4A656803F5FA73A2FB03239B0951
:102098006268521B9342FBD8194D48F20212EA605B
:1020A800AA68D607FCD5144CEA6865686268521BB2
:1020B8009342FBD8124A4FF6FF74D4609468E40741
:1020C800FCD5D6680E4C06804FF6FF75D560A26821
:1020D800D207FCD50848E26844680A804268121BA7
:1020E8009342FBD8024B012070BC9861704700BF37
:1020F8000004004864000020001000E0D34D621086
:1021080000300140224A234B012110B49162A2F110
:102118009C621B682049A2F58422A2F27D52A2FB90
:10212800032364249B0C04FB03F31C4A4C6803F54B
:10213800FA73A2FB032384469B094A68121B934245
:10214800FBD8174848F22002C2608268D107FCD544
:102158001149C26848684A68121A9342FBD8104C61
:102168004FF6FF72E260A268D207FCD50A49E4681C
:1021780048684A68121A9342FBD8054B012044F379
:102188000E049861ACF800405DF8044B704700BF3E
:102198000004004864000020001000E0D34D6210E5
:1021A8000030014030B5FF230024A14202DCD843AF
:1021B800C0B230BD025D534008225DB2013A5B00F7
:1021C800DBB2002D92B2B8BF83F01D03002AF4D110
:1021D8000134EAE738B50546082420460134294683
:1021E800A4B2FFF7BDFD102C05F10205F5D138BDED
:1021F80030B585B06A46811E00F10E03104631F8ED
:10220800024F5470250A9942157002F10202F6D164
:102218000F21FFF7C7FF9DF80E3040EA032080B278
:1022280005B030BD08B5084B1A782AB901224FF419
:1022380096601A70FEF726FDBDE808404FF48061ED
:102248000720FFF7E5BD00BFDC270020F0B53220EE
:1022580087B0FEF717FDFFF7E5FF3220FEF712FD06
:1022680001A8FFF7B7FF44F201010620FFF7D0FDF0
:10227800214ABDF80E50BDF81040BDF80470BDF8F5
:102288000660BDF81230144025F00F05134027F002
:102298000F0726F00F0645F00B0544F0200443F421
:1022A8008073BFB2B6B2ADB2A4B201A8ADF8123015
:1022B800ADF80470ADF80660ADF80E50ADF81040FA
:1022C800FFF796FF01460F20FFF7A2FD39460820C9
:1022D800FFF79EFD31460920FFF79AFD29460D209C
:1022E800FFF796FD21460E20FFF792FD3220FEF7FC
:1022F800C9FC07B0F0BD00BF00FEFFFF08B5FEF740
:1023080099FFBDE808400320FEF758BF028803463E
:102318009AB9D0E9010210B492FBF0F4091BDC6809
:102328000A44111B91FBF0F12144C3E9022191FBFE
:10233800F0F05DF8044B00B270474268002001FBE2
:1023480002F21880C3E9022208467047012A204B8E
:10235800B8BF012273B55A60012200249142064693
:102368000D461A80448312D1FFF7C8FFFFF76EFFAE
:102378000DF1060101A8FFF735FEBDF80430BDF8E0
:10238800062003F00803134316D000200EE08B1E2E
:10239800042BFAD8DFE803F003130C161A00FFF732
:1023A80094FB0DF10600FFF799FB28B902B070BD48
:1023B800FFF7D4FAFFF785FB75830120F6E7FFF7EF
:1023C80049FAF9E70220FFF723FAF5E70320FAE7CD
:1023D800D0210020002310B5838283800360438BC3
:1023E800012B044606D11430FFF78CFEB4F91430E3
:1023F8005B0015E0023B042B2CD8DFE803F0031741
:10240800133232001430FFF7DDFBB4F91430B3F5A2
:10241800005FA4BFA3F58043A382B4F914309B00E6
:10242800A38017E01430FFF7A5FAEEE74FF0A043BA
:10243800196CA1F5006109B281824FF4A5730901F5
:1024480059430A484FF4B47391FBF3F109B2FFF70B
:102458005DFFA080B4F90420228213022360A360E8
:1024680010BD1430FFF7DCF9C0E700BFD021002011
:1024780000238382838003600382836070470000A7
:10248800438B70B5012BB0F90460056806820446D9
:10249800856006D11430FFF735FEB4F914305B00BF
:1024A80015E0023B042B2CD8DFE803F003171334A4
:1024B80034001430FFF786FBB4F91430B3F5005F2D
:1024C800A4BFA3F58043A382B4F914309B00A38072
:1024D80017E01430FFF74EFAEEE74FF0A043196CFF
:1024E800A1F5006109B281824FF4A573090159432E
:1024F8000A484FF4B47391FBF3F109B2FFF706FFF2
:10250800A080B4F9042013022360921B5B1B628233
:10251800E36070BD1430FFF783F9BEE7D0210020D7
:10252800B0F90030002B0BD0BCBF5B421BB24FF0A0
:10253800807292FBF3F38B4203DD002903DB4160D9
:102548007047C91AF7E71944F7E7000010B50B46BA
:1025580082B0044601AA6946184604F07DFF019B33
:102568001848009983FB00304A109B0F43EA800308
:102578005242D21AA3EB610383FB043C84FB011093
:1025880082FB0424890F9B0F920F41EA800143EAE2
:102598008C0340F2E22042EA840200FB01F100FBD6
:1025A80003F300FB02F2091407481B14121401F587
:1025B800407103F5407302F540720180C380828147
:1025C80002B010BDC0F56C3754010020144B8B428B
:1025D80010B5B8BF0B464468B0F90000B3F5803FAA
:1025E800A8BF4FF480332244002800FB02F20EDD1E
:1025F800002908DB02F580011846FFF7A7FFBDE8B0
:102608001040FEF781BFA2F580015B42F4E7002984
:1026180002DBA2F58001EFE702F58001F5E700BFD4
:102628000000FFFF07B508230022CDE900324FF470
:10263800007103230A224FF09040FEF70BFA0120A5
:1026480003B05DF804EBFEF71DBB07B50120FEF7EC
:1026580081FBFEF717FB0023CDE9003303231A465D
:102668004FF400714FF09040FEF7F4F903B05DF8B5
:1026780004FBF8B5002406462546E3B28B4204D392
:102688002846BDE8F840FEF751BB375D3846FEF7EF
:102698004DFB7D400134F0E738B504780546204607
:1026A800FEF744FB6D782846FEF740FB6C40084671
:1026B800FEF73CFB81EA0400BDE83840FEF736BB74
:1026C800094AFF2100239180084913609160084A54
:1026D8003F219180074913609160074A0121918049
:1026E80013805380704700BF80250020802400207D
:1026F800CC2500208C2500206A11002008B5074B46
:1027080000221A61C3E90022C3E902229A82FEF775
:10271800EBFBBDE80840FFF7D3BF00BF4C1100201A
:1027280007B50F490F4BCA680F4822F4E06212043C
:10273800120C1343CB6001220023CDE90032202183
:102748000422FEF787F9FEF781FAFFF7D7FFFFF7B4
:102758007CFFFEF7BDFA03B05DF804EBFEF7E6BBBD
:1027680000ED00E00003FA0500040048064A13885B
:1027780043B1064B51885B6A5B1A9BB2642B84BFDA
:1027880000231380704700BF542400200004004039
:10279800034B00221A805A809A80DA80704700BF63
:1027A8005424002070B52F4B9B78013B86B0032B37
:1027B80055D8DFE803F00211314AFFF733FF2A4BFF
:1027C8001C782046FEF7B2FA284B19780846FEF71F
:1027D800ADFA84EA010018E0FFF724FF1022002177
:1027E80001A804F0F3FE224901A804F041FF1024D7
:1027F80001A9002511F8016B013C3046A4B2FEF78F
:1028080095FA7540002CF5D12846FEF78FFAFFF7A8
:102818001CFF012006B070BDFFF704FF1022002145
:1028280001A804F0D3FE134901A804F021FF1024E5
:1028380001A9002511F8016B013C3046A4B2FEF74E
:1028480075FA7540002CF5D1DEE7FFF7EBFE0A4B71
:102858001C7819882046FEF769FA090AB6E70020AD
:10286800D8E700BFCA210020E2210020641100201F
:10287800ED810008F7810008C021002002481622D7
:10288800FF2104F0A3BE00BF2001002008B51621D7
:102898000248FEF743FC80B208BD00BF20010020BB
:1028A80008B516210248FEF725FC80B208BD00BF16
:1028B80020010020044B002207215A809980DA80E9
:1028C8001A815A819A81704720010020094B5A8841
:1028D800043A92B2022A84BF00225A805A89062AF0
:1028E80084BF00225A819A893F2A84BF00229A8194
:1028F800704700BF2001002010B5FFF7BFFFFEF7AB
:1029080023FC04280CD0FFF7B9FFFEF71DFC0428B0
:1029180003D1FFF7C5FF042806D0FFF7AFFF03E098
:10292800FFF7BEFF0428EED1124C2388272B0ED0C8
:10293800FFF7C0FF2388202B0DD8FFF7BBFF272305
:102948000D490E48238004F093FEFFF79FFFBDE872
:102958001040FFF7BBBF212B05D1FFF7A1FF0023D4
:102968006381A381EBE7262BE9D8FFF799FF0023C2
:10297800F7E700BF20010020048200082E01002094
:1029880073B5012500243B482B4603224021CDE99D
:102998000045FEF75FF82B468021CDE90045354814
:1029A8000322FEF757F8344B34495B88042B02D1D5
:1029B8000B8002B070BD052B01D10523F8E7062B6B
:1029C80001D10623F4E704232A480B80224640233A
:1029D8000469013B660648BF01329BB248BF92B208
:1029E800002BF5D1302A16D80F2A3AD9244E214C7B
:1029F80048F6B800FEF746F9B6F90050002DBCBFFE
:102A08002023A36148F6B800FEF73CF9002DEFDA61
:102A18002023A362ECE70120164C40222569013AE5
:102A28002D0648BF013392B248BF9BB2002AF5D1A8
:102A3800302B1BD80F2B16D9114E0E4C48F6B80068
:102A4800FEF720F9B6F90050002DBCBF2023A36182
:102A580048F6B800FEF716F9002DEFDA2023A36236
:102A6800ECE71846D8E70028A3D0AAE70028A0D1A9
:102A7800A3E700BF0004004820010020E021002057
:102A88006000002038B5FFF737FFFFF779FF234BC9
:102A9800234C5A6A234B61891A80234B4FF4805286
:102AA8001A804A1E052A07D8DFE802F0032C2F32C5
:102AB800353541F201021A80A2891C48FFF746FC0D
:102AC80020B11B4A138843F0800313801748FFF78F
:102AD80081FC1848A388038000254560D4F80610B7
:102AE800FFF71EFDFEF73AFEFEF760FD124B284683
:102AF8001D83FEF7DFFD0320FEF702FEBDE8384028
:102B0800FEF7B2BD41F20202D5E741F20302D2E775
:102B180041F20402CFE741F20702CCE7000400408B
:102B28002001002068220020C0210020FC00002095
:102B3800E2210020180100205401002008B50C4AA9
:102B48000C4B12885B6A9B1A9BB242F2107293423A
:102B58000CD90020FEF7BEFD074B1A88012A05D1C3
:102B680000221A80BDE80840FEF77EBD08BD00BF00
:102B780068220020000400404411002008B5044BDE
:102B88001B881B0602D50348FFF77AFC142008BDF2
:102B9800E2210020FC000020054BB3F8EE3F13F0C3
:102BA800100F044B0CBF96224FF4FA721A8070472C
:102BB800540100206000002008B50A4B1B8883B927
:102BC800FFF7F0FD68B9084B9B78752B09D1FFF723
:102BD80029FD06480621FFF74CFDBDE80840FFF730
:102BE80034BD08BD68110020CA210020240100203E
:102BF800F8B5504B1F88002F4ED14F4E4F4D3078AF
:102C08002F8000F04000FEF79BFD307800F01000A8
:102C1800FEF760FD4A4B1A883378042A3DD113F039
:102C2800010F14BF38460320FEF76AFD7278B478A6
:102C3800F378570004F07F00E401D90104F47E54CE
:102C480002F07F029B0303F4FE1301F46071144346
:102C58001C4408431B0D03D06FEA04346FEA143494
:102C680033789B0657D5374B374E1B8813F0800FA8
:102C780044D03046FFF704FC326834482146FFF759
:102C8800A5FC2B88012B03D100232B80FEF7ECFC3D
:102C98002F4B5A6A2F4B1A80F8BD052A0BD113F017
:102CA800020F14BF38460320FEF72AFD32797479E3
:102CB800B3795700BEE7062A1CD113F0040F14BFDE
:102CC80038460320FEF71CFD347AF379727A04F053
:102CD8007F00E401D1015F0004F47E5403F07F0318
:102CE800920302F4FE1201F460711C431444084379
:102CF800120DB0E73C464FF4FC70B1E7134A336855
:102D080051680B44B2F9001020465943FFF71EFCE6
:102D1800FEF7FAFBB5E7FA2F3B4628BFFA23B0F5D2
:102D28007C7F0D4A28BFA0F57C7080B21383FEF724
:102D380063FCEDE768110020E42100204411002025
:102D4800E0210020E2210020FC00002018010020E2
:102D5800000400406822002054010020034B1B8817
:102D68001B0602D50248FFF78BBB7047E221002003
:102D7800FC00002008B5094B1B881B0608D5084B2A
:102D88009A88084B1A800523074A1370072008BD44
:102D98000348FFF76DFB0123F6E700BFE22100209F
:102DA800FC0000205024002052240020024B03483D
:102DB8001978FFF771BC00BF52240020502400206E
:102DC80030B58BB005AD1C46ADF80E0013460DF1BD
:102DD8000E000A4600950549FDF7EEFC2846FDF76A
:102DE800AFFF2046FDF7ACFF0BB030BD09820008ED
:102DF80030B58BB005AD03901C4603A8134600956B
:102E08000A460549FDF7D8FC2846FDF799FF2046F4
:102E1800FDF796FF0BB030BD0E820008074AD08838
:102E280038B1138933B9013880B21081B0FA80F013
:102E380040097047013B98B2F7E700BF80230020A4
:102E4800024A938801339380704700BF8023002093
:102E5800024B00225A601A81704700BF802300206D
:102E6800024B00221A609A80704700BF7011002040
:102E780008B5FDF777FF054A9388D11801339BB24F
:102E8800382B28BF38238871938008BD7011002023
:102E98000A2801D03B2807D1044B9A881A440021FC
:102EA80091719980012070470020704770110020AF
:102EB800034A044800239380034A1360FDF740BF88
:102EC80080230020138200087011002008B5FFF746
:102ED800BFFF044B044800221A60BDE80840FDF714
:102EE8002FBF00BF701100201382000870B505467F
:102EF800FDF78EF9094E02462946B01D04F07BFB0A
:102F0800044640B92846FDF71BFF0548FDF718FFA2
:102F1800B471012070BD0020FCE700BF70110020D3
:102F2800A88200082DE9F84306460F46DFF85480CA
:102F3800FDF76EF908F1060902460546314648468E
:102F480004F059FB0446B0B909EB050004F0AAFAED
:102F580005B23D803046FDF7F3FE0848FDF7F0FE68
:102F68002846074B22460721FFF72AFF88F8064024
:102F78000120BDE8F8830020FBE700BFF0820008CD
:102F8800A8820008701100202DE9F84306460F4674
:102F9800DFF85480FDF73CF908F1060902460546BA
:102FA8003146484604F027FB0446B0B909EB050052
:102FB80004F07CFA054638603046FDF7C1FE084843
:102FC800FDF7BEFE2846074B22460A21FFF710FFF1
:102FD80088F806400120BDE8F8830020FBE700BF21
:102FE800F0820008A88200087011002010B5074878
:102FF800FDF7A6FE0648FDF7A3FE0648064BC06887
:10300800BDE8104000220E21FFF7F2BE168200082C
:10301800268200084C110020A882000810B52E480E
:103028002E4CFDF78DFE2E48FDF78AFE2D4BB4F988
:10303800000000220521FFF7C3FE2B48FDF780FEA4
:10304800284BB4F9020000220521FFF7B9FE2748F2
:10305800FDF776FE264BB4F90A0000220521FFF79A
:10306800AFFE6389062B34D8DFE803F00427292D47
:103078002B2F31001F48FDF763FE1F48FDF760FE48
:10308800184BB4F9040000220A21FFF799FE1B48E7
:10309800FDF756FE134BD4F8060000220A21FFF76D
:1030A800A7FE1748FDF74CFEB4F90C000D4BBDE820
:1030B800104000220521FFF783BE1248DBE71248C3
:1030C800D9E71248D7E71248D5E71248D3E712489C
:1030D800D1E71248CFE700BF2C820008200100206A
:1030E80049820008A8820008528200085D82000810
:1030F8006C82000870820008D0820008E182000813
:10310800F28200087782000886820008948200080C
:10311800A0820008AB820008B8820008C6820008B6
:103128000023C0E90133C0E90333C0E90533036074
:10313800C161704710B5891AB1F5004F38DAC1F589
:10314800FF437F331B0C1B0419440368016181FB97
:1031580003341B0C43EA04438468C36084B181FBD5
:103168000414090C41EA0441B1F5803F134CA8BF8F
:103178004FF48031A142B8BF214641611944C16072
:10318800416899B1C369D31AB3F5004F13DAC3F58F
:10319800FF447F34240C24042344836181FB0313FC
:1031A800090C41EA0341C3685B1AC360C26110BDE0
:1031B800A1F58031C0E7A3F58033E5E70000FFFF04
:1031C800044B054A1A604FF480410022C3E90112FA
:1031D800704700BFB82200206022002008B5044BC9
:1031E80099685860FFF7B2F9BDE80840FEF78CB956
:1031F800B822002008B5054B014698605868FFF7CB
:10320800A5F9BDE80840FEF77FB900BFB822002045
:1032180008B5054B9A68811858689960FFF796F9C0
:10322800BDE80840FEF770B9B822002008B5084884
:10323800FDF786FD074B1868074BB0F90000002220
:103248000A21FFF7D5FDBDE808400448FDF778BD21
:10325800FA820008B8220020C0830008A88200086B
:1032680008B50848FDF76CFD074B1868074B406820
:1032780000220A21FFF7BCFDBDE808400448FDF71D
:103288005FBD00BF08830008B8220020C083000883
:10329800A882000870B54FF48040FFF79FFF114ED9
:1032A800114B124C9B68236000253046C4E9015538
:1032B800FFF7E6F833686563C4E903354FF48043E4
:1032C800C4E90935C4E90B35094BA364C4E90555BC
:1032D800C4E90755C4E90E35C4E91035A4F84C50C3
:1032E800256570BD44220020B8220020C422002099
:1032F8003075D08A08B54FF48040FFF76FFF034B55
:103308001868BDE80840FFF775BF00BFC422002059
:103318002DE9F041204C804620480F4615461E46B0
:103328000068234600220A21FFF762FD1C4B9868BB
:103338000821234608410022FFF75AFD1948234671
:10334800B0F9040000220821FFF752FD2346404649
:1033580000220821FFF734FD2346002208213846C1
:10336800FFF72EFD3046FEF7CFFD2346002205214C
:1033780000B2FFF725FD2846FEF7AAFD23460022E6
:10338800062100B2FFF71CFD0748FDF7D9FCBDE890
:10339800F041C820FDF776BCC083000880230020D8
:1033A800B822002044220020A882000837B505462C
:1033B8001E481F4B00680C4600220A21FFF718FD23
:1033C8001C4A1B4B9068082108410022FFF710FD9A
:1033D8001948174BB0F9040000220821FFF708FD2F
:1033E80028B2134B00220821FFF7EAFC00221046FE
:1033F8000F4B0821FFF7E4FC0DF106012046FEF70C
:10340800C7FB0B4B0022052100B2FFF7D9FC084B84
:10341800BDF9060000220521FFF7D2FC0748FDF799
:103428008FFCC820FDF72EFC03B030BD80230020A0
:10343800C0830008B822002044220020A882000887
:1034480038B505461E481F4B00680C4600220A2165
:10345800FFF7CEFC1C4A1B4B90680821084100224C
:10346800FFF7C6FC1948174BB0F9040000220821E1
:10347800FFF7BEFC0022A81A124B4FF0080118BF34
:103488000120FFF79DFC0022A01A18BF01200D4B58
:103498000821FFF795FC002210460A4B0821FFF788
:1034A8008FFC0022074B10460821FFF789FC0848CB
:1034B800FDF746FCBDE83840C820FDF7E3BB00BF78
:1034C80080230020C0830008B82200204422002066
:1034D800A88200082DE9F0411D4C80461D480F4682
:1034E80016461D460068234600220A21FFF780FC85
:1034F800194B98680821234608410022FFF778FCF9
:1035080016482346B0F9040000220821FFF770FC92
:103518002346404600220821FFF752FC234638463E
:1035280000220821FFF74CFC2346304600220821E0
:10353800FFF746FC2346284600220821FFF740FCF7
:103548000748FDF7FDFBBDE8F041C820FDF79ABB31
:10355800C083000880230020B822002044220020D5
:10356800A8820008F7B5874C874D44F28910FFF709
:103578004FFE636803F58343093328466360FEF70B
:103588007FFF2A68E368D31AB3F5000F65DB03F100
:103598007F43E260A2681A446B8BA260012B62D160
:1035A8006420FDF76FFB0DF102016846FEF7C4FCCD
:1035B800BDF800603046FEF78BFCBDF8027005468A
:1035C8003846FEF7A1FC284380B210B1236D0133C1
:1035D80023656420FDF756FB0DF1060101A8FEF7EF
:1035E8003DFDBDF904502369BDF90610B4F84C003F
:1035F8002B442361B4F91430AB42B4F91630C8BF78
:10360800A582AB42A369B8BFE5820B44A361B4F9B4
:103618001C308B42B4F91E30C8BFA18301308B42E5
:10362800B8BFE183A4F84C00FFF7F8FB20B13B4694
:1036380032462846FFF76CFE236DB3F5806F09D834
:10364800636803F12053B3F1A04F40F28C8043F23A
:1036580039032365012003B0F0BD13F5000FB8BF8F
:1036680003F1807395E7022B3FD16420FDF70AFB35
:1036780001A90DF10200FEF7FFFABDF80260054648
:103688000DF106013046FEF783FA15B9236D0133B3
:103698002365BDF80450236AA26A2B442362B4F957
:1036A80024309D42B4F92630B8BFA5849D42BDF8A8
:1036B8000630C8BFE5841A44A262B4F92C209342AC
:1036C800B4F92E20B8BFA3859342C8BFE385B4F8E8
:1036D8004C300133A4F84C30FFF7A0FB0028ABD0E6
:1036E80031462846FFF762FEA6E7042B20D1642066
:1036F800FDF7C8FA0DF1060101A8FEF7CDF9238EF2
:10370800BDF80450BDF80610AB42638E38BF25865D
:103718008B42B4F84C3038BF61860133A4F84C3082
:10372800FFF77CFB002887D02846FFF789FE83E750
:10373800053B012B13D8154B9D88D988B4F84C301C
:103748000133A4F84C30FFF769FB00283FF474AF4D
:103758000AB20023114628B2FFF7BCFE6CE7236DBE
:103768000133236568E7A36803F1FF1303F57F437B
:103778006FF07E42934202D3FFF7BCFD6AE7002058
:1037880069E700BFC4220020442200204401002031
:1037980038B5854B854C5B8B012B3DD18448FDF7B3
:1037A800CFFA844BB4F9140000220821FFF720FB5C
:1037B800804BB4F9160000220821FFF719FB7D4B56
:1037C8002569B4F94C0095FBF0F000220821FFF7B9
:1037D8000FFB7948FDF7B4FA46F2A810FDF752FA44
:1037E8007648FDF7ADFA734BB4F91C0000220821A6
:1037F800FFF7FEFAB4F91E006E4B00220821FFF70E
:10380800F7FAB4F94C00A5696A4B95FBF0F0002271
:103818000821FFF7EDFA55E0022B36D16848FDF78D
:103828008FFA644BB4F9240000220821FFF7E0FA6C
:10383800604BB4F9260000220821FFF7D9FA5D4B46
:10384800256AB4F94C0095FBF0F000220821FFF737
:10385800CFFA5948FDF774FA46F2A810FDF712FAA4
:103868005848FDF76DFA534BB4F92C000022082193
:10387800FFF7BEFAB4F92E004E4B00220821FFF7DD
:10388800B7FAB4F94C00A56ABEE7042B2FD14E480D
:10389800FDF756FA474BB4F9300000220821FFF72C
:1038A8008FFA4548FDF74CFA46F2A810FDF7EAF9F9
:1038B8004648FDF745FA3F4BB4F93000002208218D
:1038C800FFF77EFA3C48FDF73BFA46F2A810FDF7F1
:1038D800D9F93F48FDF734FA206D364B002208210C
:1038E800FFF786FABDE838403348FDF729BA053BAB
:1038F800012BEED83748FDF723FA2E4BB4F93800E0
:1039080000220821FFF774FA2A4BB4F93A00002282
:103918000821FFF76DFA274B656BB4F94C0095FB4E
:10392800F0F000220821FFF763FA2348FDF708FAB0
:1039380046F2A810FDF7A6F92748FDF701FA1D4B36
:10394800B4F9400000220821FFF752FA194BB4F9E4
:10395800420000220821FFF74BFA164BE56BB4F939
:103968004C0095FBF0F000220821FFF741FA1248BD
:10397800FDF7E6F946F2A810FDF784F91748FDF7B8
:10398800DFF90C4BB4F9480000220821FFF730FAA0
:10399800B4F94A00074B00220821FFF729FAB4F9C5
:1039A8004C00656C30E700BF44220020C422002090
:1039B8000F830008C0830008A88200081783000846
:1039C8001F830008268300082D830008348300081D
:1039D800538300083B830008438300084B83000897
:1039E80038B5094B094C0A4D9B6823604FF4804059
:1039F800FFF7F4FB00232846C4E90133FEF740FD36
:103A08002B68E36038BD00BFB82200207023002077
:103A18004422002010B5094C4FF48040FFF7DEFB2C
:103A28002068FFF7E7FB064BA1681A68636803F58F
:103A3800000393FBF1F3138010BD00BF7023002037
:103A4800B822002038B5174C174D44F28910FFF7FB
:103A5800DFFB636803F58343093328466360FEF799
:103A68000FFD2A68E368D31AB3F5000F11DB03F1E1
:103A78007F43E260A2681344A36003F1FF1303F5D8
:103A88007F436FF07E42934209D3FFF7C3FF0120C3
:103A980038BD13F5000FB8BF03F18073E9E70020C4
:103AA800F6E700BF702300204422002070B5134CB5
:103AB800134E0D46FFF792FB0323E380114B25605D
:103AC8009B68A36000253046E560FEF7D9FC3368A3
:103AD80023614FF6FF730022A3800023C4E9062365
:103AE800C4E90823C4E90A23C4E90C23C4E90F552F
:103AF800C4E91255A563656470BD00BF202300208A
:103B080044220020B822002008B54FF48040FFF777
:103B180065FB054B996B5B6C1944044B491018689D
:103B2800BDE80840FEF7FCBC20230020B822002096
:103B38002148224B006810B5214C00220A21FFF7CA
:103B480057F9E0681D4B082108410022FFF750F99A
:103B580020691A4B082108410022FFF749F9D4E9E6
:103B68000303C01AB0F5000F1FDB00F17F400821E6
:103B78000841124B0022FFF73BF9B4F904000F4B40
:103B880000220821FFF71CF9002210460B4B0821E0
:103B9800FFF716F900221046084B0821FFF710F925
:103BA800BDE810400748FDF7CBB810F5000FB8BFC7
:103BB80000F18070DBE700BF80230020C08300088D
:103BC80020230020A882000838B5114DA868E8B164
:103BD800104B1B68B3F900402B685C43002CB8BF3E
:103BE8006442002806DDA042ACBF001B0020A8608C
:103BF800FFF700FBA868002807DA63429842D4BFA1
:103C080000190020A860FFF7F5FA012038BD00BFB1
:103C180020230020B82200202DE9F041FFF7D4FF2F
:103C2800064618B100263046BDE8F081544C22689B
:103C3800E368002A1344E3602ADDB3F1807F0CDBDC
:103C4800A388E060591CB4F9060009B28842A18033
:103C580003DC524222600233A3804A4BE0681B68AF
:103C6800494DB3F900305843FFF7C4FA2846FEF728
:103C780007FCD4F800802B682361B8F1000F0FDA35
:103C8800B4F90420002A0BDAFFF73EFF0126CAE741
:103C9800002BE2DA03F18073E360A388013BDBE7E2
:103CA800B4F90470002F03DBB4F90620BA420ADC29
:103CB80000220023C4E90623C4E90823C4E90A232F
:103CC800C4E90C23AFE7E568ED1AB5F5000F36DB5C
:103CD80005F17F45D4E90601D4E90A23281841EB08
:103CE800E571013243F10003C4E90601C4E90A237E
:103CF800FCF796FAB8F1000F27DDA063BFB12F1AC1
:103D080048BF471BD4E90801D4E90C23381841EB14
:103D1800E771013243F10003C4E90C23C4E9080147
:103D2800FCF77EFA236CE0639F4200DD2764FFF70F
:103D380075F800283FF476AFFFF7FAFE73E715F53C
:103D4800000FB8BF05F18075C4E72F1A48BF471B9D
:103D58006064D4E90801D4E90C23381841EBE77111
:103D6800013243F10003C4E90C23C4E90801FCF75C
:103D780057FAE36CA0649F42C8BFE764D7E700BF67
:103D880020230020B822002044220020F8B53B4C14
:103D98003B483C4D3C4EFCF7D3FF23684FF47A7206
:103DA80002FB03F000135043384B03220A2100138F
:103DB800FFF71EF83648FCF7C3FFA06B2B4600221E
:103DC8000A21FFF715F8E06B2B4600220A21FFF7BE
:103DD8000FF82B4600220A21206CFFF709F830461D
:103DE800FCF7AEFF46F2A810FCF74CFF2948FCF799
:103DF800A7FF606C2B4600220A21FEF7F9FFA06C92
:103E08002B4600220A21FEF7F3FF2B4600220A2147
:103E1800E06CFEF7EDFF3046FCF792FF46F2A81083
:103E2800FCF730FF1C48FCF78BFF636CA06B184451
:103E380000222B460A214010FEF7DAFFA76B606CC0
:103E48002B4600220A21381AFEF7D2FF3046FCF72B
:103E580077FF46F2A810FCF715FF1048FCF770FF33
:103E68000F4B1868002240682B460A21FEF7C0FF56
:103E78003046BDE8F840FCF763BF00BF20230020B0
:103E88005D830008C0830008A882000866830008D4
:103E98006B83000876830008818300080883000884
:103EA800B8220020002805DD3228A8BF3220024BA6
:103EB800586070471920FAE7182400201E4B1F4845
:103EC80070B5D3E9001507EE905AF8EEE77A0022AC
:103ED800FEEEC87AC1E90122C1ED007AC3E90222E7
:103EE8001A6111460132B2F5007F416040F8081BA3
:103EF800F8D113489983C3E90502124A1248B2F966
:103F08000420DA83002AB8BF7F3222F07F0200241F
:103F18001A844FF6FF72C3E90A44C3E90C445A8471
:103F28009C84FCF70DFF22462846084BBDE87040EC
:103F38000421FEF75DBF00BF18240020C011002037
:103F480080000100442200208C830008A882000819
:103F580019481A4B006810B5194C00220A21FEF7BF
:103F680047FFA06A154B00220821FEF741FF206B8E
:103F7800124B00220821FEF73BFFE06A0F4B00229C
:103F88000821FEF735FF606B0C4B00220821FEF775
:103F98002FFFB4F92200094B00220821FEF728FF61
:103FA800B4F92400054B00220821FEF721FFBDE8E3
:103FB80010400448FCF7C4BE80230020C0830008DA
:103FC80018240020A88200082DE9F041994C658B3F
:103FD800012D65D0022D03D0002D45D001255CE0D0
:103FE800B4F91810B4F916609348002293B28B42C2
:103FF80002F10102C0F2DC800023DFF83CC2A360BA
:104008001F4618469AB2914200F3DF8007B1A060BC
:10401800A268DFF8248202EBD27200235210A26059
:10402800E3609E461E461D4698B2814200F3DC803E
:10403800BEF1000F00D0E6600023DFF8FC81E068E5
:10404800236190FBF5F09E46E0601E461D469AB23D
:10405800914200F3DC80BEF1000F00D02661236995
:1040680093FBF5F32361B9E7B4F9206016B901238E
:10407800638312E0714F203636B238462684FEF745
:10408800FFF92068B7F904203146FFF753F86C4B65
:10409800C1683A681868FEF799FA2846BDE8F081C1
:1040A800A58B002D6FD0013DADB2632D2168634E05
:1040B800A58354D8236BB6F90420C9681A44E36A67
:1040C80022630B44616BE36201316163002D46D1C9
:1040D80092FBF1F293FBF1F32263B4F92220B4F9D5
:1040E8001400B4F92410E362002A16DBB4F9167040
:1040F800974212DD504A0028D5BF02EBC10252F8A0
:1041080031005168C018D6BFC91842F83100516053
:10411800FEF784FE08B1FFF71BFF238CB4F91410D7
:10412800A28A002913442384A38C2EDDB4F9181025
:1041380001331BB29942A3840DDC0023A384638C52
:10414800B4F91600591C09B28842618403DC524252
:104158000233A28263840023C4E90B336363B4F996
:1041680020503648A562FEF78BF92068B6F904207E
:104178002946FEF7DFFF324BC16832681868FEF740
:1041880025FA002589E7C7258FE7013B1BB2002BDD
:10419800A384E0DA238B013BA384638C013B1BB22D
:1041A800002B6384D7DA638B5242A28201335FE724
:1041B80050F8335095FBF6F540F8335000EBC30345
:1041C8005D6895FBF6F55D6010E75CF832500CEB26
:1041D800C20201335668AA1B48BF721B8242D4BF71
:1041E8000246012710460DE758F8307008EBC0006A
:1041F8000133D0F804C0B7EB0C0048BFACEB0700A4
:104208008242C2BF361801354FF0010E0CE758F84C
:10421800327008EBC2020133D2F804C0B7EB0C02CB
:1042280048BFACEB07029042BEBFB61801354FF04D
:10423800010E0CE718240020C011002044220020A1
:10424800B822002010B50F4C0F48FCF779FDA06884
:104258000E4B00220821FEF7CBFDE0680B4B002235
:104268000821FEF7C5FD2069084B00220821FEF74A
:10427800BFFD0748FCF764FDBDE810400448FCF7A3
:104288005FBD00BF1824002094830008C083000885
:10429800A88200082DE9F843DFF8C8802D4C2E4F7E
:1042A8000026B8F91830B5B29D4204DBBDE8F843E2
:1042B8002A48FCF745BD30B2234600220821FEF704
:1042C8007FFDB8F914006843B0F5004F3BDBA0F55B
:1042D800803007EBC509234600220821FEF788FD38
:1042E80057F83500234600220821FEF781FDD9F84A
:1042F8000400234600220821FEF77AFD57F835000E
:10430800D9F80430184400EBD07023460022082165
:104318004010FEF76DFD57F83550D9F804002346D4
:1043280000220821281AFEF763FD002210462346C2
:104338000821FEF75DFD0948FCF702FD0848FCF777
:10434800A1FC0136ADE710F5004FB8BF00F580308D
:10435800BFE700BFC0830008C0110020A882000882
:10436800A086010018240020124B00224FF480413F
:10437800C3E900214FF400404FF44041C3E9020172
:104388004FF480311961A1F5A0315961A1F580413F
:104398009961A1F58041D961A1F58041C3E9112254
:1043A800C3E91322C3E91522C3E917221962C3F826
:1043B800882070478C2300201C481D4B006810B5CE
:1043C8001C4C00220A21FEF713FDB4F90400184B17
:1043D80000220821FEF70CFDB4F91200144B00224C
:1043E8000821FEF705FD144A114B506C42F2107279
:1043F8005043082102220014FEF7FAFC002210465E
:104408000B4B0821FEF7F4FC00221046084B08214C
:10441800FEF7EEFC00221046054B0821FEF7E8FCEB
:10442800BDE810400548FCF78BBC00BF8023002086
:10443800C0830008442200208C230020A8820008A2
:10444800F8B5344C23880F2B4FEA53054FF0010081
:1044580027D800FA03F34AF6AA2213422BD145F2D1
:10446800555213421DD004EB85032B4F5E686664DA
:104478003846FEF705F8294B3A6818683146FEF7C2
:10448800A5F8FEF7CBFC08B1FFF796FF608818B9CE
:1044980040F2F313638003E0013880B2608008B112
:1044A8000020F8BD2388C4F888001235013344F889
:1044B80025002380F5E7184E3046FDF7E1FF174B3E
:1044C80032681868616CFEF781F8FEF7A7FC08B13E
:1044D800FFF772FF1235B6F9123054F825206088BC
:1044E8001344D4F8882044F825300132C4F88820D1
:1044F80010B940F2CF73CDE7013880B26080002850
:10450800CED1B3FBF2F3218844F825300131218064
:10451800C7E700BF8C23002044220020B8220020D7
:104528002DE9F84FDFF820B2814C824FDFF81C826A
:10453800814E824D5846FCF703FCA06C3B46002296
:104548000821FEF755FCE06C3B4600220821FEF7E7
:104558004FFC206D3B4600220821FEF749FC3B46F4
:1045680000220821606DFEF743FC4046FCF7E8FB9B
:1045780046F2A810FCF786FB7148FCF7E1FBA06C3B
:1045880042F2107A0AFB00F0334601220821001497
:10459800FEF72EFCE06C0AFB00F0334601220821EE
:1045A8000014FEF725FC206D0AFB00F033460122BB
:1045B80008210014FEF71CFC606D0AFB00F033466E
:1045C800012208210014FEF713FC4046FCF7B8FB53
:1045D80046F2A810FCF756FB5A48FCF7B1FBA06C52
:1045E8004EF6602909FB00F02B4600220821001432
:1045F800FEF7FEFBE06C09FB00F02B4600220821C9
:104608000014FEF7F5FB206D09FB00F02B46002295
:1046180008210014FEF7ECFB606D09FB00F02B4647
:10462800002208210014FEF7E3FB4046FCF788FB54
:1046380046F2A810FCF726FB5846FCF781FBA06D54
:104648003B4600220A21FEF7D3FBE06D3B460022E1
:104658000A21FEF7CDFB206E3B4600220A21FEF719
:10466800C7FB3B4600220A21606EFEF7C1FB4046AD
:10467800FCF766FB46F2A810FCF704FB3048FCF791
:104688005FFBA06D0AFB00F03346012208210014ED
:10469800FEF7AEFBE06D0AFB00F03346012208216D
:1046A8000014FEF7A5FB206E0AFB00F0334601223A
:1046B80008210014FEF79CFB606E0AFB00F03346ED
:1046C800012208210014FEF793FB4046FCF738FB53
:1046D80046F2A810FCF7D6FA1A48FCF731FBA06D91
:1046E80009FB00F02B46002208210014FEF780FB8E
:1046F800E06D09FB00F02B46002208210014FEF7AC
:1047080077FB206E09FB00F02B46002208210014DD
:10471800FEF76EFB606E09FB00F02B4600140022CA
:104728000821FEF765FB4046BDE8F84FFCF708BBDB
:104738008C230020C0830008AE830008BC830008D7
:10474800A6830008B58300089C830008A882000897
:1047580010B501202DED028BFCF7BCFF0020FEF701
:104768003DFD14489FED148AFCF7EAFAFCF77CFF3C
:10477800002407EE904AF8EEE77A013467EE887A6B
:10478800B0EE677ABEEEC87A17EE100AFEF726FD7D
:1047980044F62060FCF776FA652CEAD14FF48040A5
:1047A800FEF71CFDBDEC028B0448BDE81040FCF789
:1047B800C7BA00BFC48300080AD7233CD9830008BE
:1047C8002748284B006810B5274C00220A21FEF71D
:1047D8000FFB244BB4F9040000220821FEF7F0FA7D
:1047E800204BB4F9120000220821FEF7E9FA1D4B0C
:1047F800B4F9140000220821FEF7E2FA638B053BA6
:104808009BB2012B1AD8194C164BB4F9040000229C
:104818000821FEF7D5FA134BB4F906000022082147
:10482800FEF7CEFA0F4BB4F9080000220821FEF774
:10483800C7FABDE810400E48FCF782BA00221046BD
:10484800084B0821FEF7BCFA00221046054B082148
:10485800FEF7B6FA0022034B08211046E7E700BF2F
:1048680080230020C0830008442200204401002047
:10487800A882000838B5144D2C88012C0CD0022CC5
:104888001ED0FCB92046FCF725FFFCF7EDFE2B886F
:1048980001332B80204638BDFEF7C0FA20B10B4803
:1048A800FDF7EEFDFFF78CFFFBF7B8FE0446002886
:1048B800F0D0FCF757FA2B8801332B800024E9E766
:1048C800FFF746FF0124E5E71C23002044220020CF
:1048D800084B094809494FF480321A60084A12887F
:1048E800052A084A08BF1146074A08BF0246C3E915
:1048F800012170476C2200201100E0FF94AA2A00D1
:10490800E0210020EFFF1F006C55D5FF07EE900A4D
:104918009FED057A054BF8EEE77A67EE877AFEEEAB
:10492800C87AC3ED007A70470AD7233C6C2200206E
:104938004BF20B635843024B9860404258607047F3
:104948006C22002070B51F4C1F4EA08102282DD16B
:1049580011B93368B3F90010A2681C4B1C4DE181F2
:104968009A42D8BF01336268D8BFA360194B9A42F4
:10497800A8BF03F1FF332846A8BF6360FDF780FD99
:104988002068FEF72BFC2A68B368E36122620023E3
:10499800E26201214FF48032C4E90933C4E9041208
:1049A800C4E910332383A4F8483070BD012807D127
:1049B800002908BF01210029B8BF494209B2CBE745
:1049C8000021C9E76C220020B8220020DB380E0045
:1049D8004422002025C7F1FF10B50E4CE069FEF710
:1049E80009FC4FF48040FEF7F9FBA3890A4A022B21
:1049F80006D01168B4F84800236C93FBF0F30B80E1
:104A0800B4F84830616C106891FBF3F1BDE81040D0
:104A1800FDF786BD6C220020B82200202DE9F04762
:104A2800554C2369002B71DD42F2C400FEF7F0FB00
:104A3800656A05F503550435504E65623046FDF745
:104A48001FFD3268E36AD31AB3F5000F66DB03F182
:104A58007F43A16AA7680B44C4E90A32A7F5E32299
:104A6800A2F26E42934205DB226A1A442263E2698B
:104A78002A446263D4F804C00CF5E32202F26E42C1
:104A8800934205DC226A1A44A263E2692A44E2637B
:104A9800A28A208B0AB301281DD9A689616BD4F894
:104AA8003C90D4F830E0D4F83880022E3CD1B4F9E8
:104AB8000E20266C4944C644164402FB1E115200BF
:104AC80091FBF2F1626C26641144B4F848206164E9
:104AD8000132A4F848200022A282294903F5633252
:104AE80002F237228A4232D80122E282BB4201DA3C
:104AF80063452FDC2369002BCCBF4FF0FF33012324
:104B08002361013001232083636123E01D48FEF700
:104B18007FFB656AA5F50355043D8DE713F5000F86
:104B2800B8BF03F1807394E7012EA1EB0902AEEB45
:104B3800080A92FBFAF2BCD1B4F90E60002EB8BF95
:104B48007642B6B2002AB4BF72423246B1E7E28A70
:104B5800002ACBD1238B062B0BD905F50355043539
:104B680044F288139D4204D8FFF736FF0120BDE8C0
:104B7800F0870020FBE700BF6C22002044220020C1
:104B88006E1C07003CDFFFFF421E92B2102A08B5D8
:104B98001FD80123934040F2551213420AD113F44F
:104BA800AA3F16D00E4A01230130108053800D4AC7
:104BB800938008BD0C4B5B8B5A1E012AF2D9043B2B
:104BC800022BEFD90948FCF7BBF8BDE80840FEF70F
:104BD8006FB9034B00221A60BDE80840FEF738B9E8
:104BE800701100208023002044220020DE8300086A
:104BF80038B56A4CA088002800F0CE80684D2B8814
:104C08009A1E102A00F29980DFE802F0099723978C
:104C18003897519776978A97A097A097A000012870
:104C280004D1FEF737FBFEF70BF986E0FEF79AFC96
:104C3800002800F08280E38833B14CF25030FCF752
:104C480021F85848FCF77CF8FEF7A2FDFEF73EF97C
:104C580073E0012802D1FEF7C3FEE4E7FEF7F2FE97
:104C680000286AD0E38833B14CF25030FCF70AF8D8
:104C78004C48FCF765F8FEF7D9FAE7E7012806D1B2
:104C880040F28D614FF48030FEF710FFCBE7FEF75E
:104C9800C3FF002851D0E38833B14CF25030FBF702
:104CA800F1FF4048FCF74CF8FFF770F8CEE7012811
:104CB80002D1FFF703F9B6E7FFF786F900283CD0E1
:104CC800E38833B14CF25030FBF7DCFF3548FCF792
:104CD80037F8FFF7B7FAFFF7DDFA334A334B516875
:104CE8001B680B44B2F900104FF480405943FDF79C
:104CF8002DFCFCF709FCA9E7012802D1FFF734FBDA
:104D080091E7FFF79DFBC0B1E38833B14CF2503017
:104D1800FBF7B8FF2348FCF713F8FFF701FCDCE7C3
:104D2800012806D16423E380214B208100221A80C8
:104D380079E7FFF79FFD002888D1FBF76FFC58B390
:104D4800FCF710F8BDE83840FEF7C0B801280ED1CE
:104D5800122B04D100210220FFF7F4FD63E7102B8A
:104D68000BBF144B0021B3F900100846F4E7FFF716
:104D780055FE0028E1D0E38833B14CF25030FBF700
:104D880081FF0848FBF7DCFF2B88122B01D0FEF7C8
:104D98004DFAFEF765FA59E738BD00BF80230020B9
:104DA80070110020A8820008602200204422002000
:104DB8001C230020BC1100202DE9F0472B4B5B8BF6
:104DC800012B8CB005D02A480CB0BDE8F047FBF7A2
:104DD800B7BF284E284FDFF8AC80DFF8AC9000242E
:104DE800A5B20DF106012846FCF7BAFF02A9E0B208
:104DF800FBF78EFC0846FBF7A3FF3846FBF7A0FF3E
:104E0800BDF806A002A95046FBF792FC02A8FBF7E2
:104E180097FF4046FBF794FF083D56F8040BFBF755
:104E28008FFF072D07D80CAB03EB4403484623F844
:104E380028ACFBF785FF0F2C02D11048FBF780FF49
:104E48000F480134FBF77CFF122CC9D106A8FDF7E7
:104E5800CFF902A9FBF76CFC02A8FBF771FF084821
:104E6800FBF76EFF0CB0BDE8F08700BF44220020BE
:104E78001B840008000000206C8200084C84000895
:104E8800A8820008EF820008428400082DE9F04F4C
:104E98002DED028BDFF8E8B1634D85B0FDF7C2FB5D
:104EA8006248FBF74DFF624B1888052800F0B08078
:104EB800062800F0AF80042840F0AE805D48DFF897
:104EC80090A1FBF73DFF5846FBF73AFF5A48FBF71E
:104ED80037FF5846FBF734FF4FF000096989002275
:104EE8005046FDF733FA20B96B8913B15348FBF7E5
:104EF80027FF5046FDF76EFADFF888819FED508A4C
:104F0800FCF72CFC0120FCF7E5FB0020FCF7F8FB84
:104F1800FCF7AAFBAB88D5F80610A8F80030404685
:104F2800C8F80490FDF7FCFA4648FBF709FF00248F
:104F380007EE904AF8EEE77A002167EE887AB0EE3D
:104F4800677ABEEEC87A17EE100AFDF7FFFAFCF78B
:104F5800DBFA202C94BF44F6206041F288300134FB
:104F6800FBF790FE652CE3D1374C3848FBF7E8FE99
:104F78003748FDF785FABAF904102046FEF7D0F84D
:104F8800FDF76EFFFDF794FFFEF71AF9314BA3F812
:104F98005490314B4FF4C8121C605A60FFF798FCCC
:104FA8002E482F4CFBF76EFE0020FEF723F92D4A02
:104FB8004FF6FF7313802C4B202200279A6201972B
:104FC8002A4B1B889BB2002BFAD0284BA3F80090E1
:104FD800019B013301932360254B5E88002E00F06E
:104FE800A482FFF705FEEFB1013FBFB2002FE7D162
:104FF8001C4BB3F90030002BE2DA1B494B691A0449
:10500800DB4302F4001203F0200313438B61D7E75C
:10501800184854E7184852E7C0B21849FBF76FFB25
:1050280016484CE73127CBE72001002056840008BA
:10503800E02100206C8400087B840008828400083A
:105048000AD7233CA584000824220020D98300081D
:1050580044220020C42200201824002040420F00CF
:10506800802300206000002000040048C8210020A0
:105078007011002072840008778400085C240020E6
:10508800A8820008602200206D48FDF72FFF002845
:105098007FF404AF6B48FDF729FF18B1FDF7A6FFB1
:1050A800FDF706FF6848FDF721FF20B10123E380E3
:1050B8002381FDF7FDFE6548FDF718FF28B102239F
:1050C800E38001232381FDF7F3FE6148FDF70EFF1E
:1050D80028B10323E38001232381FDF7E9FE5D481E
:1050E800FDF704FF28B10423E38001232381FDF7A2
:1050F800DFFE5948FDF7FAFE28B10523E3800123B6
:105108002381FDF7D5FE5548FDF7F0FE28B10623AB
:10511800E38001232381FDF7CBFE5148FDF7E6FE2E
:1051280028B10723E38001232381FDF7C1FE4D4801
:10513800FDF7DCFE28B10823E38001232381FDF776
:10514800B7FE4948FDF7D2FE28B10923E3800123C1
:105158002381FDF7ADFE4548FDF7C8FE50B1FDF7C8
:105168009FFBAB88A8F80030D5F80630C8F80430A3
:10517800FDF79EFE3E48FDF7B9FE50B1B8F8003085
:10518800AB80D8F80430C5F80630FDF77FFBFDF793
:105198008FFE3848FDF7AAFE18B1FDF73FFFFDF76F
:1051A80087FE3548FDF7A2FE18B1FDF783FBFDF732
:1051B8007FFE3248FDF79AFE18B104236B80FDF795
:1051C80077FE2F48FDF792FE18B105236B80FDF797
:1051D8006FFE2C48FDF78AFE18B106236B80FDF799
:1051E80067FE2948FDF782FE18B1A5F80290FDF781
:1051F8005FFE2648FDF77AFE10B101266E816DE646
:105208002348FDF773FE08B10226F7E72148FDF7AA
:105218006DFE08B10426F1E71F48FDF767FE08B1E7
:105228000326EBE71D48FDF761FE08B10626E5E712
:105238001B48FDF75BFE0646A0B30526DEE700BF68
:10524800BE840008C6840008D2840008DA840008F6
:10525800E2840008EA840008F2840008FA8400085E
:10526800028500080A850008128500081A850008CA
:105278002385000829850008328500083B85000839
:105288004685000850850008598500085F85000894
:1052980070850008808500088E8500089E850008B6
:1052A800B1850008AF48FDF721FE0028A6D1AE4819
:1052B800FDF71CFE0028A0D1AC48FDF717FE00281A
:1052C800A2D1AB48FDF712FE0028A3D1A948FDF7EB
:1052D8000DFE0028A4D1A848FDF708FE0028A5D196
:1052E800A648FDF703FE0028A7D1A548FDF7FEFD57
:1052F800002883D1A3480DF10E01FDF713FE38B144
:10530800BDF90E30002BB8BF5B42AB81FDF7D0FD75
:105318009D48FDF7EBFD18B1A5F80C90FDF7C8FD09
:105328009A48FDF7E3FD28B1FDF780FFFDF798FFE8
:10533800FDF7BEFD9648FDF7D9FD20B1954B072234
:105348001A80FDF7B5FD9448FDF7D0FD20B1914BCB
:10535800C3F80490FDF7ACFD8E499048FDF7E2FDD7
:1053680008B1FDF7A5FD8E498E48FDF70DFE08B181
:10537800FDF79EFD8C48FDF7B9FD10B10120FFF740
:1053880003FC8A48FDF7B2FD10B10320FFF7FCFBD0
:105398008748FDF7ABFD10B10520FFF7F5FB854801
:1053A800FDF7A4FD10B10B20FFF7EEFB82480DF1CD
:1053B8000E01FDF7B7FD30B1BDF90E00FEF772FD25
:1053C8000720FFF7E1FB7D48FDF790FD18B1FEF7D8
:1053D80039FFFDF76DFD7A48FDF788FD10B109200A
:1053E800FFF7D2FB7748FDF781FD18B1FFF798F872
:1053F800FDF75EFD74480DF10E01FDF793FD48B110
:10540800BDF80E00642310FB03F00002FDF7F2FE66
:10541800FDF74EFD6D480DF10E01FDF783FD48B116
:10542800BDF80E00642310FB03F00002FDF7F0FE48
:10543800FDF73EFD66480DF10E01FDF773FDD0B195
:10544800BDF90E30182B64DC1923ADF80E30BDF908
:105458000E309FED607A07EE903AF8EEE77A67EE45
:10546800877AB0EE677ABEEEC87A17EE100AFDF7B3
:10547800B5FEFDF71DFD5848FDF738FD10B10D20AC
:10548800FFF782FB55480DF10E01FDF74BFD30B1DA
:10549800534BBDF90E201A600F20FFF775FB5148DA
:1054A800FDF724FD10B11120FFF76EFB4E480DF1FA
:1054B8000E01FDF737FD70B1BDF90E3013F1B40FD1
:1054C8002BDA4FF64C73ADF80E30BDF90E00FFF72E
:1054D8002FFAFDF7EDFC45480DF10E01FDF722FD11
:1054E80060B1BDF90E30182B1BDC1923ADF80E3056
:1054F800BDF90E00FFF70AFAFDF7DAFC3C48FDF7A4
:10550800F5FC00283FF468ADFFF756FCFDF7D0FC2A
:1055180062E5642B9BDD642397E7B42BD5DDB423C8
:10552800D1E7642BE4DD6423E0E7FBF777F8002894
:105538003FF457ADFDF79CFCFDF7AAFC00283FF4AB
:105548004BAD2C48FDF7D2FC00283FF49DAD2A4B0B
:105558001E802A4B01221A8005B0BDEC028BBDE8E3
:10556800F08F00BFC3850008CC850008DB850008E4
:10557800E9850008F58500080386000814860008F8
:10558800248600082B860008348600083D8600081B
:1055980044860008602200204A86000851860008D8
:1055A80064220020578600085E86000846860008A8
:1055B8004C860008658600086B8600086E86000821
:1055C80074860008778600088086000887860008A9
:1055D8008E8600080AD7233C978600089F86000815
:1055E800BC110020A8860008AE860008B98600080D
:1055F800C3860008BB8400086811002066110020DB
:1056080010F0800F38B5704C08D00022D0282280C6
:105618000CD16E4B1A806E4B01220DE02388052BAE
:105628000BD8DFE803F00A4E71829CB8902805D1A8
:10563800664B1A80664B04221A8038BD00F00F03AF
:10564800032B00F0700008D16249FF25402808703C
:105658004B708D7013D05028DBD05F4A11888B4275
:1056680024D15C4AFF25302810705370957014D0EF
:105678000ED8C0B11028E0D1544B0022D9E701233D
:1056880023800B23A380E280544B5B6A6380D4E7BA
:1056980050280BD14D4B0022BCE74C4B00221A80FE
:1056A8004B4B0522C8E702232380EDE77028C4D1BD
:1056B800484A99425370C0D1042323800023E380D1
:1056C800E2E7E388464AD054A08801339BB283427C
:1056D800E380D9D313460022114695B2A8420ED8CA
:1056E8003A4B00221A803A4A0320108029B101223D
:1056F8001A803C4AD3680133D3600023D4E713F8F7
:10570800015B01326940E8E7324B042898704FF09A
:10571800000306D838B12D4A13802D4A0221118082
:10572800C2E77528F7D0238087E7E3882C4AD0544E
:10573800A08801339BB28342E380A5D3134600229D
:10574800114695B2A84205D8204B00221A800220A3
:105758001F4ACAE713F8015B01326940F1E7E388A1
:10576800042B08D8DFE803F0030D0F1113005128AC
:1057780003D1052222800133A1E74628FBD000226D
:10578800F8E74C28FAE74128F8E75328F6E74828CD
:10579800F5D1FBF7AFFDE388042B08D8DFE803F069
:1057A80003090B0D0F00512801D000232380E38843
:1057B800E1E74D28F8E74F28F6E74428F4E74528BD
:1057C800F3D1FFF763FBF0E75424002068110020B1
:1057D80066110020CA210020E021002000040040BA
:1057E800E42100204C1100202DE988488E4D00242A
:1057F800DFF850928D4E8E4FDFF84CB2DFF84C82B6
:10580800DFF84CA2FCF78CFFB9F90030002BBCBFC5
:105818002023AB62874B3C801C80874BABF8004051
:105828001C80A8F8004074803480B480FDF72AF901
:10583800FCF7AEFF4FF400433B804FF6FF73A9F827
:1058480000302023AB62AB61FAF7E8FE18B1FBF732
:1058580089FAFFF7D5FEFCF789FFB8F800309BB24C
:10586800013B062B1BD8DFE803F004070C0F1214CA
:105878004700A8F80040BBE7FDF79EF9A8F80040EC
:105888000DE0FDF7B5F9F9E7FDF768FAF6E7FCF77B
:10589800C9FEABF80040FDF76DFAA8F80000FDF767
:1058A8004DF9664B1B889BB2002BCDD0634B1C80F7
:1058B800FBF7FCF9B9F90010002936DDBAF8003019
:1058C80001339BB2B1F5FA7FAAF8003045D15C4AA2
:1058D80010880C2841D80122824012F4825F2AD114
:1058E80012F0240015D112F0120F36D0B3F5FA7F5A
:1058F80007D12023AB6118E0FDF758FAFCF7A5FEA5
:10590800BCE7B3F57A7F10D3AAF800002023AB6276
:105918000BE0B3F5FA7FECD0B3F52F7FF6D0B3F5F3
:10592800487FE6D0B3F57A7F14D23B88012B21D18A
:10593800FDF732F988E7B3F5FA7FDAD0B3F5167FC9
:10594800E4D0B3F52F7FD4D0B3F5487FDED0B3F5DC
:10595800617FE6E7AAF80040D8E78B42E5DB6B6990
:10596800AAF800401A04DB4302F4001203F02003F3
:105978001343BFE7022B3FF467AF23F4FE4148F21D
:10598800030081428AB226D811040DD4012ACFD04F
:1059980013D8002A7FF458AFFDF7F0F86FEA4040BB
:1059A8006FEA504038804FE7A2F50042013A022AD8
:1059B80015D8DFE802F01B232A00032A25D0142A71
:1059C8007FF442AF4FF49673338001237380B48021
:1059D80048F2030326E048F214039A42F0E7C3F3BF
:1059E8000E033B803223A9F80030D5E7C3F30E033A
:1059F8003B804FF4FA73A9F8003099E7C3F30E031C
:105A08003B806423A9F800301EE7B388328801334D
:105A18009BB29A42B380BFF417AF73886FEA4343CF
:105A28006FEA53433B800FE700040048C22100207F
:105A380064110020E2210020C0210020C82100209C
:105A4800E02100206000002068110020661100207D
:105A5800CE21002010B594B03822002106A801F00C
:105A6800B5FD1422002101A801F0B0FD002000F0CE
:105A7800B3FA01224FF48033CDE90623032402232D
:105A8800552206A8CDE90D34CDE91023CDE912330E
:105A98000F9300F0FBFA08B172B6FEE70421CDE9D6
:105AA80003000F2305900DEB0100CDE9013400F050
:105AB80033FD08B172B6FEE714B010BD07B5104A41
:105AC800136823F48063136000F0B0F8FFF7C2FF97
