:020000040800F2
:1000000000500020C9470008B1470008B347000866
:10001000B5470008B7470008B947000800000000CE
:10002000000000000000000000000000BB470008C6
:10003000BD47000800000000BF470008C147000896
:10004000114800081148000811480008114800082C
:10005000114800081148000811480008114800081C
:10006000114800081148000811480008114800080C
:1000700011480008114800081148000811480008FC
:1000800011480008114800081148000811480008EC
:1000900011480008114800081148000811480008DC
:1000A00011480008114800081148000811480008CC
:1000B00011480008114800081148000811480008BC
:1000C00011480008114800081148000811480008AC
:1000D0001148000881200008114800081148000854
:1000E00011480008114800081148000800000000ED
:1000F0000000000000000000000000000000000000
:0C01000000000000000000005FF808F1A3
:10010C0010B5054C237833B9044B13B10448AFF345
:10011C0000800123237010BD60000020000000004F
:10012C006C5E000808B5034B1BB103490348AFF3E1
:10013C00008008BD00000000640000206C5E000818
:10014C00034613F8012B002AFBD1181A013870470B
:10015C00006870470B0A017043700B0C090E83701A
:10016C00C170704783690239023B8B4283BF43895C
:10017C00C06A01FB030000207047034600F10B012D
:10018C000020C20142EA500213F8010B02448B42D8
:10019C0002F0FF00F5D1704703685A1C0260187812
:1001AC00A0F16103192B01D8203870477F2882BF3A
:1001BC00024B1B1813F8800C704700BF9D5E0008A3
:1001CC00F0B5054614461E4685B00191E3B223B93D
:1001DC002B785BB954B1012004E001A8FFF7DCFFD8
:1001EC0010B9002005B0F0BD013CEFE7019B029572
:1001FC000393029803783F2B01D02A2B1FD1002E9A
:10020C00EFD0002210F8013B3F2B03780CBF0132DA
:10021C0042F480723F2BF5D02A2BF3D0039F731E30
:10022C0039460290FFF7CCFF0028D4D1397801A8C9
:10023C00FFF7B2FF002CD4D00029D7D1D1E702A808
:10024C00FFF7AAFF074603A8FFF7A6FF8742014660
:10025C00EDD1002FCDD1BEE702684AB1134613F899
:10026C00011B1F290BD93A29F9D1911C8B4202D0C1
:10027C004FF0FF3070471278302AF9D1036000201C
:10028C00704738B50D46044618B9092000232B6079
:10029C0038BD0368002BF8D01A78002AF5D0818875
:1002AC00DA889142F1D1587802F066FA10F0010028
:1002BC00EBD12368EBE770B50379044613B900253D
:1002CC00284670BD00F13406026B0123314640789C
:1002DC0002F0A2FA054680B9216B636AE269CB1A77
:1002EC0093422071EBD2E378022BE8D10A4401232C
:1002FC003146607802F090FAE2E70125E0E738B584
:10030C00036B05468B420C4610D0FFF7D4FF60B947
:10031C0022460123687805F1340102F037FA0028EF
:10032C001CBF4FF0FF3401202C6338BD0020FCE7CC
:10033C0038B5002303714FF0FF3303630446FFF716
:10034C00DEFF00283FD194F83430B4F83252EB2B56
:10035C0003D01833DBB2012B2ED84AF655239D421D
:10036C0006D108221A4904F1860005F0F3FC48B3C3
:10037C00B4F83F30B3F5007F1ED194F84130DBB1B7
:10038C005A1E1A4218D1B4F84230ABB194F844302A
:10039C00013B012B10D8B4F845306BB1B4F84730A1
:1003AC007F2B06D804F15400FFF7D2FEB0F5803F46
:1003BC0002D3B4F84A3043B94AF6552085420CBFF3
:1003CC000220032038BD0420FCE70020FAE700BF20
:1003DC00845E000801292DE9F04706460C461746B5
:1003EC0072D983698B426FD90378022B3FD0032BD0
:1003FC0050D0012B68D101EB5108416A01EB582117
:10040C00FFF77DFF054638BB14F0010406F13409F3
:10041C0008F1010AC8F308081FBF19F808203B01AE
:10042C0003F0F00302F00F0214BF1343FBB209F800
:10043C0008300123716A3046337101EB5A21FFF702
:10044C005EFF054640B9CAF3080A44B1C7F3071763
:10045C0009F80A70012333712846BDE8F08719F8B2
:10046C000A30C7F3032723F00F031F43F0E7416A59
:10047C0001EB1421FFF743FF05460028ECD1640083
:10048C0006F1340304F4FF741F551A19C7F3072738
:10049C005770DFE7416A01EBD411FFF730FF0546D7
:1004AC000028D9D1A40006F1340304F4FE742344CB
:1004BC001846FFF74DFE27F0704700F070413943A6
:1004CC001846FFF747FEC5E70225C5E70023F0B540
:1004DC000B6085B00E461546FFF7BEFE0028C0F235
:1004EC00CA806B4B53F82040002C00F0C68034605F
:1004FC002378607805F0FE055BB102F03DF9C70783
:10050C0007D41DB110F0040500D00A25284605B00B
:10051C00F0BD00236078237002F092F8C60700F15A
:10052C00AE800DB14107F0D400212046FFF700FF4B
:10053C00022840F08B806E46324604F5FD7304F2BF
:10054C003A211846FFF704FE10338B4242F8040B95
:10055C00F7D1002556F8041B00296FD02046FFF771
:10056C00E7FE01286BD8B4F83F30276BB3F5007F5A
:10057C0070D1B4F84A5025B904F15800FFF7E8FDE2
:10058C00054694F84430E5615A1E012AE37061D89F
:10059C0094F841606681002E5CD0721E324259D1B3
:1005AC00B4F845100A07218154D1B4F8470018B9A2
:1005BC0004F15400FFF7CCFDB4F84220002A49D0D6
:1005CC0005FB03FE02EB111CF444604542D3A0EB87
:1005DC000C00B042B0FBF6F33CD32E48834239D822
:1005EC004FF6F57083424CD90326D019023327629B
:1005FC00032E6744A3616062E7622DD1B4F85E20DC
:10060C000A4327D104F16000FFF7A2FD9B0003F21F
:10061C00FF13B5EB532FA0621CD34FF0FF33C4E98B
:10062C00043380231C4A63711388002501339BB269
:10063C001380E380194B2670E36067E703200135D4
:10064C00042D87D1042805D101255FE70428FBD0B0
:10065C00012888D90D2559E70029FBD0022E4FEA35
:10066C0043011ABFC91803F001030B46704418BFAD
:10067C0003EB5103CBE70B2548E70C2546E7032595
:10068C0044E740F6F576B3428CBF02260126ACE770
:10069C007C000020F5FFFF0F80000020820000206E
:1006AC0003284B8B04BF8A8A43EA024318467047DF
:1006BC000129F8B506460C464ED9836999424BD2AE
:1006CC000378022B29D0032B34D0012B44D101EB1E
:1006DC005105416A01EB5521FFF711FE10B14FF0A6
:1006EC00FF30F8BD716A6F1CC5F308053544304600
:1006FC0001EB572195F83450FFF701FE0028EED19D
:10070C00C7F30807374497F8343045EA0320E3076A
:10071C004CBF0009C0F30B00E3E7416A01EB142165
:10072C00FFF7EDFD0028DAD1640004F4FF743444C3
:10073C00A08ED6E7416A01EBD411FFF7E0FD00284B
:10074C00CDD1A40006F1340004F4FE742044FFF76C
:10075C00FFFC20F07040C4E70120C2E72DE9F04116
:10076C0080460F46056849B92E69C6B1AB69B342DC
:10077C0098BF01266B69A3B9002406E02846FFF751
:10078C0097FF0128044603D801242046BDE8F081D8
:10079C00421C51D0AB698342F7D83E46EAE70126AA
:1007AC00E8E7BE42AB6914D1741CA34298BF022483
:1007BC00D8F800002146FFF77BFF0128E4D0431C4A
:1007CC003AD0D8B12B69012B03D9AA699A4288BFB8
:1007DC001E463446AB690134A34202D8012ECBD05D
:1007EC0002242146D8F80000FFF762FF40B101282F
:1007FC00CAD0013020D0B442ECD1BDE7002CE8D0F7
:10080C004FF0FF3221462846FFF7E4FD90B957B967
:10081C00D5E90532023A93422C6110D96B7943F039
:10082C0001036B71B1E7224639462846FFF7D2FD2A
:10083C000028EDD00128A7D14FF0FF34A5E7013BEC
:10084C006B61EBE703692DE9F74F03F12008B8F56D
:10085C00001F24BF00238361836905468946046811
:10086C0073B1C8F3080ABAF1000F50D141690133D2
:10087C00836139B92389B3EB581F48D80023AB6186
:10088C0004200BE06789013F17EA58273FD1204627
:10089C00FFF70EFF0128064603D8022003B0BDE87F
:1008AC00F08F421C01D10120F8E7A369834228D8BC
:1008BC00B9F1000FE2D028466969FFF74FFF0646F1
:1008CC00002836D00128E8D0431CECD02046FFF796
:1008DC00F2FC01900028E6D131462046FFF742FC9D
:1008EC00019B04F1340B814620634FF400721946CE
:1008FC00584605F03FFA63899F420FD363899F42A4
:10090C00D1D1314620466E61FFF72CFCA8613434FE
:10091C0054440020C5F81080EC61BFE70123594610
:10092C00607809EB070201F077FF0028E6D1013768
:10093C00E1E70720B2E7B1F5001FF8B506460C4613
:10094C00056801D30220F8BDCA06FBD1826801619B
:10095C00BAB92B78022B01D9AB6A9BB92B89B3EBB3
:10096C00541FEFD9A86AC6E905200028EAD000EB8D
:10097C0054203435C4F308042544B061F5610020DB
:10098C00E1E713461A466F897F02BC42114603D237
:10099C002846FFF7E7FBE6E73068FFF789FE431CC4
:1009AC00024606D00128CDD9AB698342CAD9E41BD3
:1009BC00EBE70120C7E700002DE9F04F002185B0DF
:1009CC000446D0F800B0FFF7B6FF0546002840F00B
:1009DC008D804FF0FF084FF0FF3AC146C4F82CA0B1
:1009EC005846A169FFF78BFC054600287ED1E669C5
:1009FC003778002F7ED0F27AE52F02F03F03A371F7
:100A0C0003D0100704D50F2B04D0C4F82CA050E051
:100A1C000F2B56D194F82B30590640D47A0646D574
:100A2C00236996F80D8007F0BF07E362737B43459B
:100A3C003FD1738B002B3CD1DBF80C30012200939F
:100A4C000D233578DFF8B09005F03F05013D5D438F
:100A5C0019F8013BF35A7AB3282D2AD81846039378
:100A6C0000F060FF009B0290691C33F815000191A7
:100A7C0000F058FF029A82421BD1039B01991A463F
:100A8C000D461E4B9945E3D133785B0604D51AB15C
:100A9C00009B33F8153063B9013F5FFA87F90021E9
:100AAC002046FFF7CFFE0546002899D01EE0B94539
:100ABC00BCD04FF0FF09F2E74FF6FF718B42E0D04C
:100ACC00F7E7B9F1000F04D13046FFF756FB40456C
:100ADC000CD094F82B5015F0010596D10B22304612
:100AEC0004F1200105F036F900288ED1284605B016
:100AFC00BDE8F08F0425F9E71D5F00082A5F0008A8
:100B0C002DE9F04F0646036885B001938A4611F82B
:100B1C00013B2F2BFAD05C2BF8D00021B1609AF856
:100B2C0000301F2B00F212818023304686F82B30C8
:100B3C0005B0BDE8F04FFFF7FEBE53461C789A4651
:100B4C002F2C03F10103F9D05C2CF7D01F2C8CBF98
:100B5C0000240124A400ABF10202AFBB00232BF84C
:100B6C001730002F00F017813BF813201946202A6C
:100B7C0003F10103F8D009B92E2A02D144F0030481
:100B8C00E4B2ABF1020232F817302E2B01D0013F48
:100B9C00F9D14FF020334FF0000973623362C6F87D
:100BAC002730C84608233BF811504A1C0DB3202DA2
:100BBC0003D02E2D10D1BA4212D044F00304E4B26B
:100BCC001146F0E70424C6E732F81730202B01D089
:100BDC002E2BC3D1013FC0E7994504D2BA424FD165
:100BEC000B2B44D101E00B2B3BD10B2344F0030422
:100BFC00E4B296F82020E52A04BF052286F82020CE
:100C0C00082B04BF4FEA88085FFA88F808F00C0339
:100C1C000C2B03D008F00303032B02D144F0020485
:100C2C00E4B2A1070BD418F0010F1CBF44F0100460
:100C3C00E4B218F0040F1CBF44F00804E4B23046D0
:100C4C0086F82B40FFF7B8FE96F82B3000286CD0B6
:100C5C00042803D113F0040F08BF052005B0BDE82C
:100C6C00F08FBA4203D044F00304E4B2C1D84FEA87
:100C7C0088083A460B234FF008095FFA88F89FE77B
:100C8C007F2D3ED944F00201CDE902232846CBB298
:100C9C0040F2B511009300F011FEDDE9022310F0D3
:100CAC00800F054614D03E4900F07F054D5D45B1DF
:100CBC0029463C48CDE9022305F073F8DDE902230F
:100CCC0008B300995F2541F00301C9B2009110E00F
:100CDC00FF28ECD9591E894504D344F003049946E6
:100CEC00E4B26DE706EB0901000A81F8200009F176
:100CFC00010906EB0901009C81F8205009F101095A
:100D0C005EE70094D4E7A5F1410189B2192902D814
:100D1C0048F00208EDE7A5F1610189B219299EBFDF
:100D2C00203D48F00108ADB2E3E75A0796D4B379F9
:100D3C00DB0632D5019B03F134013369C3F308039D
:100D4C001944019B1878FFF7ABFCB060002733689F
:100D5C00D3F80CB01AF8010B00283FF433AF40F273
:100D6C00B51100F0CBFD0446A8B11F287FF62AAFC1
:100D7C002F283FF4E2AE5C283FF4DFAE7F2804D886
:100D8C000146094805F00DF828B9282F03D02BF897
:100D9C0017400137DEE7062060E705205EE700BF5D
:100DAC009D5E0008965E00088D5E00081FB5CDE9BB
:100DBC00001003A814460391FFF74EFA002818DB25
:100DCC000D4A52F820301BB1002142F82010197046
:100DDC00019B23B100215870197042F820302CB1BE
:100DEC000022684601A9FFF771FB0446204604B0B7
:100DFC0010BD0B24FAE700BF7C0000202DE9F04F5A
:100E0C0099B0144605460391002800F06D8102F05C
:100E1C003F073A4605A903A8FFF758FB00900028A6
:100E2C0040F05C81059E03990BA80B96FFF768FEBA
:100E3C00014620B99DF95730002BB8BF062114F09C
:100E4C001C0F00F02E81002900F09E80042905D192
:100E5C009DF857A01AF0A00404D00621002300919D
:100E6C002B60E1E0DDF82C80D8F80C2032F814303F
:100E7C00002B68D108AB13AA1AF0010F07CA83E83C
:100E8C00070000F03C8140234FF00109DFF860B20D
:100E9C008DF8573008AA13ABD8F80CC007CA03C397
:100EAC00B9F1050F23F8022B4FEA12421A705BD9E5
:100EBC004B46ACF1020131F8022F002A45D1072232
:100ECC0008A803F00F0C0CF13001392988BF0CF184
:100EDC003701013A9E4600F8011D4FEA131302D068
:100EEC00BEF10F0FEDD87E2102F160036B4403F8C5
:100EFC00481C00230DF14B019A4205D011F8010F4B
:100F0C0003F1010C202831D1072A8FBF202102F1D7
:100F1C006001694411F8481C03F101030BA898BF48
:100F2C0001321844082BC177EED10BA8FFF744FD12
:100F3C000146002840F0DE8009F10109B9F1640F87
:100F4C00A8D107218AE7013490E7102002F0010CA8
:100F5C000CEB430313F4803F18BF83EA0B030138F7
:100F6C004FEA5202F2D1A6E74B46A8E76346C3E725
:100F7C00824601210BA8FFF765FC0146002800F012
:100F8C00D5800429DDD069E79DF8323013F0110FBC
:100F9C00D7D1600700F1A480210700F15C81336B8D
:100FAC00390712992B626962307848BF47F04007C5
:100FBC00FFF776FBA860044601F11C00FFF7C8F8A8
:100FCC000021F38805F128094FF40072E86080468F
:100FDC002E604846AB802F746974E961696104F036
:100FEC00C9FEBA0620D5B8F1000F1DD07789C5F817
:100FFC0014807F02474562D30021AC6100297FF445
:10100C002DAFC8F308037BB121463046FFF7AAF891
:10101C00002800F04E8100EB5822EA61012349467A
:10102C00707801F0B3FBB0B9009819B0BDE8F08F3F
:10103C00DAF81830984280F03C81804641460B9893
:10104C00FFF736FBC346804600B3012800F0318120
:10105C00B0F1FF3F01D1012100E759460022504673
:10106C00FFF7B8F9014600287FF4F8AEDAE905324B
:10107C00911E8B4208D20133CAF814309AF805300D
:10108C0043F001038AF805309045D7D349463046E2
:10109C00FFF735F9013C0146346100283FF47FAF7E
:1010AC00DCE600297FF4DAAE9DF83230DA0619D48A
:1010BC00A4077FF574AFD8073FF543AF6FE7214620
:1010CC002868FFF7F5FA01280446A8EB070803D9AE
:1010DC00431C8FD1012190E702218EE70099BDE6D8
:1010EC000821BBE60421B9E6092300939CE700BF65
:1010FC002110010004287FF4B1AE8DF857A01AF02E
:10110C00020F1EBF0D230C34B4FBF3F44FF000019F
:10111C000BA808BF0124DDF82C9018BF0134FFF791
:10112C000AFC014600287FF42CAF824611994846F0
:10113C00FFF7E5F8014600287FF423AF129B1B78DC
:10114C00E52B02D0002B7FF413AF0AF1010A5445B2
:10115C007FF40FAF013C5ED00F990BA8A1EB4411AB
:10116C00FFF7E9FB014600287FF478AE13A8FFF7E0
:10117C0004F84FF6FF79029011994046FFF7BFF83B
:10118C00014600287FF46AAE129B029AD8F80CB084
:10119C005A734FF00F024FF00D0CE1B2DA724A1E87
:1011AC000CFB02F2DFF810C11873CDF804C08446B2
:1011BC009876D876DDF804A0484518BF3BF81200A5
:1011CC001AF801EB0CF1010C03F80E0018BF0132F8
:1011DC00CDF804A003EB0E0A4FEA102E002808BF2E
:1011EC004846BCF10D0F8AF801E0E3D1484502D026
:1011FC003BF812200AB941F040011970012300217B
:10120C0088F804300BA8FFF71DFB014600287FF47B
:10121C0025AE013CB0D111994046FFF770F801465C
:10122C0000287FF41BAE2022129804F0A3FD129A22
:10123C0013AB03CB1060516019889B7811819372AA
:10124C009DF85730129A03F018031373012347F0DB
:10125C00080788F8043002F02DF80246014612986F
:10126C000E30FEF777FF129811461630FEF772FF1C
:10127C0012993078FFF714FA2023CB720023129ABC
:10128C0004469376D3763178032904BF13755375CE
:10129C00129A137753779377D377012333710028FE
:1012AC003FF47DAE9842D6F83090DDF82CA07FF458
:1012BC00BFAE0221D2E500BF1D5F00082DE9F04F43
:1012CC009A46002385B08846CAF8003003A9044624
:1012DC001646FEF7D6FF054630BB657C25BB237C46
:1012EC009A0740F1AA80636904F1280BF34228BFE6
:1012FC00DE43AEB16369C3F30802002A40F08B8071
:10130C00DDF80C90B9F80A70013F17EA53271ED18B
:10131C0073B9A16871B92046FFF720FA014648B9A4
:10132C00237C43F040032374284605B0BDE8F08FBE
:10133C00A169F0E7012902D102256574F4E74B1C81
:10134C0001D10125F9E7A368A16103B9A16094F962
:10135C001030002B0CDA01235946E26999F8010090
:10136C0001F05AFA0028ECD1237C03F07F0323749C
:10137C004846A169FEF7F6FE0028DDD0B6F5007FE1
:10138C0007EB000235D3B9F80A1007EB5620884258
:10139C004FEA562399F8010088BFCB1B4146CDE993
:1013AC00002301F039FA0028CBD1E169009A019BA6
:1013BC00891A99420CD24FF40072584608EB41211D
:1013CC00009304F03FFD227C009B02F07F0222740C
:1013DC005F02DAF80030F61B3B44CAF80030636950
:1013EC00B8441F44E3686761BB422CBFE360E7600D
:1013FC007FE7E169636991420CD0E168994209D9B0
:10140C000123594699F80100009201F0BFF9009AA6
:10141C00002896D1E26160694146C0F30800C0F52E
:10142C000077B74228BF374658443A4604F00AFDC5
:10143C00237C63F07F032374CBE7072574E72DE946
:10144C00F34101A90546FEF71CFF002840F08E80F1
:10145C002B7C13F0400000F089801B06019C0CD5FE
:10146C000123EA69607805F1280101F0D5F900281B
:10147C007FD12B7C03F07F032B7401F01BFF296AB7
:10148C0006462046FEF73BFF00286FD16A6AD37AE6
:10149C0043F02003D372AB682968C3F3072093761B
:1014AC00D076097802F11C00032901BF1B0C1375BF
:1014BC001B0A5375E968FEF74DFE314602F1160022
:1014CC00FEF748FE00239374D37401232046237146
:1014DC00FEF7F1FE0646002844D12378032B39D1C0
:1014EC0094F80580B8F1010F34D104F134070146AA
:1014FC004FF40072384604F03DFC552384F8323228
:10150C00AA2384F8333252234122722184F83430D6
:10151C0084F83530612384F8372084F8363084F829
:10152C001B3284F8181284F8191284F81A22616993
:10153C0004F50770FEF70EFE216904F50870FEF73E
:10154C0009FE226A4346013239466078226301F073
:10155C0063F9667100226078114601F0B3F9003826
:10156C0018BF01202B7C23F040032B7402B0BDE884
:10157C00F0810120FAE730B585B00446019140B303
:10158C00002203A901A8FEF7A1FF70B9039D204614
:10159C0001992560FFF7B4FAE8B994F92B30002BC8
:1015AC000BDBA379DB0603D40520002323600EE0BC
:1015BC002878E169FFF774F8A060EB8800212046D9
:1015CC00A380FFF7B8F90428EED00028EDD105B0C0
:1015DC0030BD0920FBE70428E6D0E6E713B501A9E6
:1015EC000446FEF74EFE00B9206002B010BD0000AC
:1015FC002DE9F74F0C4601A90546FEF742FE0746BA
:10160C00002870D134B92146284603B0BDE8F04F0C
:10161C00FFF791B94FF0FF08042046464FF6FF7ACA
:10162C00D5F80090A96911B900286FD056E048464A
:10163C00FEF765FE002851D1E8690378002B00F015
:10164C00B280C27AE52B02F03F02AA7151D02E2B48
:10165C004FD022F0200108294BD00F2A4ED1590629
:10166C0045D503F0BF062B6990F80D80EB62437BE8
:10167C0043453ED1428B002A3BD14FF00D0C0378F1
:10168C00D9F80C1023F04003013B0CFB03F34FF093
:10169C00010CDFF8D4E11EF801BB30F80BB0BCF143
:1016AC00000F28D0282B24D8DC4621F813B00133A6
:1016BC0001320D2AEFD10278520607D5BCF1000F8A
:1016CC0004D0282B15D8002221F81320013EF6B2A5
:1016DC0000212846FFF7B6F80028A3D000230428E1
:1016EC00AB6113D00746384603B0BDE8F08FB34268
:1016FC00BDD0FF26ECE7D345DAD0FAE71EB9FEF7EA
:10170C003CFD404502D04FF0FF33EB624FF0000838
:10171C00D5F800B084F81680AB69002B00F09880E7
:10172C00EB6A013377D100234FF02E0C1846E96990
:10173C004E1E16F8012F0130202A10D0052A08BFA2
:10174C00E522092806D10B2B9EBF04EB030E8EF865
:10175C0009C0013304EB030E8EF8092001330B286A
:10176C00E7D10020E2185072A27D002A63D1002B31
:10177C0058D06FF0070C082604F10800ACEB040CF1
:10178C000CEB000310F8012F002A4ED02E2A93B236
:10179C0066D0A3F14102192A03D80A7B164200D065
:1017AC0020334373ECE7042098E7B9F1000F05D11F
:1017BC0000F520539BB2B3F5006F13D340F2B51173
:1017CC0040EA094000F07AF8FF28C6F1FF0A1AD95E
:1017DC00BAF1010F22D9A319020A9A75D8750223FE
:1017EC0000201E44814608F10208DBF80C3033F867
:1017FC0008000028D9D1B9F1000F18BF002600232A
:10180C002644B3758FE748B1BAF1000F08D0A3197D
:10181C0098750123E4E7C1464646E6E70026EAE769
:10182C005646E8E73F23A3750123002223449A750B
:10183C000B7B03B96372CB7A01F11C0003F03F03FD
:10184C002372FEF785FC2060CB8AE3800B8BA38090
:10185C0000212846FEF7F6FF042818BF074642E78A
:10186C00102613469DE700BF1D5F0008F8B506461D
:10187C000C4601F1160721463046FFF7B9FE054626
:10188C0050B94CB1A37D3BB1024604233946306BB1
:10189C00FEF796FC0028EED02846F8BD38B50D466C
:1018AC00036311460446FFF766FE28B92946204615
:1018BC00BDE83840FFF7DABF38BD00007F2810B50F
:1018CC0001D880B210BDB0F5803F13D240F2B513F1
:1018DC0099420FD10022084931F8024B93B284424D
:1018EC0003D103F18000C0B2ECE70132802AF3D1BE
:1018FC001346F6E70020E5E7D86100087F280DD9EC
:10190C0040F2B513994208D1FF2806D8044B00F1D8
:10191C000040803833F8100070470020704700BF3B
:10192C00D8610008B0F5803FF0B521D21F4A20499C
:10193C0083B2B0F5805F28BF0A46141D34F8042C1E
:10194C002146A2B1934212D334F8025C2E0AEDB2B6
:10195C00AF18B84223DA082E09D8DFE806F0050ADA
:10196C0010131517191B1D00801A34F81030184667
:10197C00F0BD9A1A02F001029A1A93B2F7E7103BE3
:10198C009BB2F4E7203BFBE7303BF9E71A3BF7E768
:10199C000833F5E7503BF3E7A3F5E353F0E70434E2
:1019AC00002ECBD101EB4502C7E700BF2A5F000830
:1019BC001C610008054B82B09A6902439A619B69CD
:1019CC0003400193019B02B0704700BF001002401E
:1019DC00F0B50646124C85B00D466846611804F009
:1019EC0031FA30460123002202F110076F4417F838
:1019FC00107C14F8011B1F4218BF41F0800100F845
:101A0C00011B811B89B25B008D429BB201D805B0D2
:101A1C00F0BD802B02BF0132012392B2E4E700BF7C
:101A2C009C070020064B034413F8013C03F1804350
:101A3C0003F500331A6822F001021A60704700BFE8
:101A4C00D1640008064B034413F8013C03F18043B6
:101A5C0003F500331A6842F001021A60704700BFA8
:101A6C00D16400086FF02002084B1A605B68084ACA
:101A7C0002F60C0353E8003F43F0200302F60C007F
:101A8C0040E800310029F3D1704700BF0038014015
:101A9C0000300140028810B58488531C23404488D0
:101AAC009C4217BF84680020A154038018BF0120FA
:101ABC0010BD00002DE9F043154F85B00A460646CF
:101ACC003918684604F0BEF9B84601240025DFF841
:101ADC00449005F110036B4413F8103C18F8011BEB
:101AEC00234218BF41F080014846FFF7D3FFA8EB13
:101AFC0007039BB264009E42A4B202D805B0BDE8B5
:101B0C00F083802C02BF01350124ADB2E1E700BFA8
:101B1C009C0700203805002070B506460C468D1831
:101B2C00AC4200D170BD304614F8011BFFF7B2FF78
:101B3C00F6E7034602884188521A90B2120441BF5C
:101B4C009B880133C01880B2704742880388808814
:101B5C009B1A9AB21BB2002BBEBF431C9B181BB224
:101B6C00C01A80B2704738B50446FEF7E9FA002275
:101B7C0083B263B9DAB983B22020013B91B29942A6
:101B8C0014DA655C0132302D10D16054F6E7013B5C
:101B9C009BB2E15C2E2908BF1A46EAE7655C01336B
:101BAC00302D03D1605499B29142F7DB38BD20201F
:101BBC00013AF8E710B53024632807D80C703021AF
:101BCC00092808D830301170187010BD01346438F1
:101BDC00E4B2C0B2F0E701310A38C9B2C0B2EFE7E3
:101BEC0030B5302442F20F75A84212D80C70302157
:101BFC00B0F57A7F14D211703022632816D81A707F
:101C0C003023092817D8039A30301370049B1870AE
:101C1C0030BDA0F51C5001341038E4B280B2E3E7BB
:101C2C000131A0F57A70C9B280B2E1E701326438B3
:101C3C00D2B280B2E1E701330A38DBB280B2E0E71E
:101C4C0010B58B1C4A1C0C46FFF7B4FF0023E37045
:101C5C0010BD13B50B1D0193CB1C00934A1C8B1CA0
:101C6C000C46FFF7BDFF0023637102B010BD0309E2
:101C7C009F2894BF303337330B70002300F00F00D4
:101C8C00092894BF3030373048708B70704713B5CB
:101C9C0002460C46C0B201A9FFF7E9FF2146100A23
:101CAC00FFF7E5FF9DF80430A3709DF80530E37055
:101CBC009DF80630237102B010BD0A4613B50446D8
:101CCC0001A9C0B2FFF7D3FF9DF80430C4F307207D
:101CDC0093719DF80530D371FFF7C9FF9DF804305F
:101CEC00C4F3074013719DF805305371FFF7BFFF24
:101CFC009DF80430200E93709DF80530D370FFF7DB
:101D0C00B6FF9DF8043013709DF805305370002316
:101D1C00137202B010BD2DE9F0410E460021069C55
:101D2C002170317875295DD17578632D0BD10178CF
:101D3C00B778682F1BD1632D21460CD1BDE8F0413B
:101D4C000078FFF794BF692D01D10188F0E76C2D65
:101D5C0043D10168ECE7692D04D1BDE8F04100885E
:101D6C00FFF795BF0068BDE8F041FFF7A6BF2B2F2A
:101D7C0059D1A1B32770012017464FF030089DB2FE
:101D8C0002EB050EAEEB070C1CF4004F4DD1002BF3
:101D9C00C5F10005C8BF0025002BD4BFD718171CF0
:101DAC001D442DB2BBB20DB101352DB24FF00A0C52
:101DBC0098423FD300237A213046A35403F0F1FF1D
:101DCC0058B1B3782B2B55D1601CFFF7CCFE2046B5
:101DDC00FEF7B6F9012383423FD3BDE8F081202002
:101DEC002070C8E77329F8D1717863290DD190F967
:101DFC000010B0782B2814D100290FDA2D20207078
:101E0C0001200029B8BF4942B6E7692902D1B0F9CF
:101E1C000010EEE76C29E0D10168EAE708BF20204A
:101E2C00EDE70020EDE70020A6E7013FBFB204F884
:101E3C000780A7E7013B9BB2D71AAF4204EB03081C
:101E4C0009D0B1FBFCFE0CFB1E1771463037FFB2FC
:101E5C0088F80070ACE72E27FAE7E25C202A06D05F
:101E6C002278234403F8012C20232370B5E7013397
:101E7C009BB2B0E72046FFF776FE2046FEF760F9EE
:101E8C0001238342A9D2E25C202AE9D101339BB21F
:101E9C00F7E7002110B5044608468BB2E25C01312D
:101EAC0002B910BD00EB800302EB4302303A90B252
:101EBC00F3E70120FFF77EBD0D4B984202D10420C1
:101ECC00FFF778BD0B4B984205D003F58063984221
:101EDC0003D11020F4E70820F2E7074B984201D118
:101EEC002020EDE7054B984200D070474020E7E7F3
:101EFC0000080140000C0140001401400018014092
:101F0C002DE9F0410C46154686B0074610220021FB
:101F1C0002A81E469DF8348003F02CFF01940B2D73
:101F2C0007D8DFE805F00E0E070A1414141616165F
:101F3C001B1DFEE70823029303E0082302930123F1
:101F4C000593032E0ED8DFE806F01E200E1E01238B
:101F5C00F1E70123029304230493F2E70923EAE750
:101F6C000923F7E7FEE701230393B8F1000F02D032
:101F7C003846FFF7A1FF053D042D0BD8DFE805F02F
:101F8C0007110A0711000323EEE70223ECE7C4F361
:101F9C000F247C61384601A903F090FC06B0BDE823
:101FAC00F081C4F30F243C61F4E700000C4BD3F830
:101FBC00FC2022F08072C3F8FC20D3F8FC2042F005
:101FCC008072C3F8FC20A3F55D431A6822F001026D
:101FDC001A601A6842F001021A6000225A607047B7
:101FEC0000ED00E0064B074A1B680749B3FBF2F310
:101FFC00434310B54C684A68121B9A42FBD310BD80
:10200C000400002040420F00001000E072B6064BA6
:10201C005B6A9BB262B6054A91889380994282BFF3
:10202C001168013111607047000800405C05002008
:10203C0072B6084B5B6A99B262B6074A9BB290883B
:10204C0091808842106884BF0130106003EB00401F
:10205C00704700BF000800405C0500200021034BC6
:10206C005A6A034B19609A80704700BF0008004001
:10207C005C0500200D4B10B51868810611D5DA6887
:10208C0092060ED50A4C0B495A68238809880133ED
:10209C00C3F30C0389B299421FBF0749D2B2CA5489
:1020AC002380030744BF014B5B6810BD003801401F
:1020BC00224A0020204A0020202A0020034B1A68C4
:1020CC005206FCD558600120704700BF0038014013
:1020DC0008B5411E11F8010F00B908BDFFF7EEFF5E
:1020EC00F8E70000024A13685B06FCD5704700BF96
:1020FC00003801400848094A0188138889B29BB20C
:10210C009942F9D013880133C3F30C03138013885D
:10211C00034A9BB2D05C7047224A0020204A002020
:10212C00202A0020002300B589B0CDE90633CB1A54
:10213C0018BF01231B03CDE902320C23019004913B
:10214C00034801A9059303F027FD09B05DF804FBD2
:10215C000038014073B52E4C0825E368012623F4A2
:10216C000053E360FFF7A5FE4FF48040FFF722FC1D
:10217C0000F1804003230A22264900F54840CDE9AE
:10218C000056FFF7BDFE032323491A462348CDE929
:10219C000056FFF7B5FE002221481146FFF7C2FF9B
:1021AC00102223691F4923F490432361636923F0B0
:1021BC002A0363611C4B83F8252320225A6001F605
:1021CC000C0353E8003F23F0200301F60C0040E819
:1021DC000032002AF3D16FF020032360134B1A80D6
:1021EC00134B1A80236923F400632361636923F082
:1021FC0008036361236923F480432361636923F03B
:10220C0022036361E36843F40053E36002B070BDE2
:10221C0000380140020002040400040400080140DC
:10222C0080841E000030014000E100E0204A0020C4
:10223C00224A002008B5FFF78DFFBDE80840FFF7E4
:10224C0011BC0000034B18739A68D207FCD5187B9D
:10225C00704700BF00300140FF20FFF7F3BFFFF7CE
:10226C00FBBF000008B5322305490B60FFF7F7FFF1
:10227C00FFF7F2FFFF2802D00B68002BF8D108BD46
:10228C005805002070B5084C2378DB0707D41026BE
:10229C00064D6E61FFF7E6FF2E61FFF7E0FF237836
:1022AC0043F00103237070BD0000002000080140C2
:1022BC00020638B504460D4607D500217720FFF7F6
:1022CC00F7FF01282FD804F07F041022184B1A6155
:1022DC005A61FFF7C7FFFF2828D12046FFF7B2FF4E
:1022EC00280EFFF7AFFFC5F30740FFF7ABFFC5F3B1
:1022FC000720FFF7A7FFE8B2FFF7A4FF402C13D08D
:10230C00482C14BF01208720FFF79CFF4C2C01D1D7
:10231C00FFF7A5FF0A21FFF79FFF030603D501393D
:10232C0011F0FF01F7D138BD9520EDE7FF20FAE75A
:10233C00000801404FF6FF7330B504468DB00D46D2
:10234C0026480221ADF8063003F0E8F903212348B2
:10235C0003F0E4F9142200210DEB020003F00AFD56
:10236C001F4B032102934FF48053CDE90A531023E2
:10237C0002AA049319480DF10603039303F026FAFD
:10238C000023CDE90343802302AA022113480793BB
:10239C0003F01CFA0220FFF755FB0320FFF752FB5A
:1023AC00104B0E495A6842F001025A605A6842F0CA
:1023BC0002025A600A689206FCD55A68022022F082
:1023CC0001025A605A6822F002025A60FFF72AFB97
:1023DC000320FFF727FB0DB030BD00BF000002400B
:1023EC000C3001400030014038B50A2304460C4D36
:1023FC002B60FFF731FFFF2803D128680028F8D1A4
:10240C0038BDFE2809D1204689B2FFF793FFFFF7AC
:10241C0026FFFFF724FF0120F2E70020F0E700BFC2
:10242C00540500204FF6FF7330B504468DB00D46B1
:10243C0026480221ADF8063003F070F90321234839
:10244C0003F06CF9142200210DEB020003F092FC56
:10245C001F4B032102934FF48053CDE90A531023F1
:10246C00CDE90343802302AA1848079303F0AEF981
:10247C0000230DF1060202210392144802AA0493D0
:10248C00079303F0A3F90220FFF7DCFA0320FFF710
:10249C00D9FA104B0D495A6842F001025A605A6839
:1024AC0042F002025A600A689206FCD55A68022071
:1024BC0022F001025A605A6822F002025A60FFF7B9
:1024CC00B1FA0320FFF7AEFA0DB030BD00000240A8
:1024DC000C3001400030014070B506460D46FFF748
:1024EC00C1FEFF28044617D12846FFF7ABFEFD2D91
:1024FC0014D030464FF40071FFF794FF2046FFF7DD
:10250C00A1FE2046FFF79EFEFFF7A6FE00F01F007F
:10251C00431F5842584170BD0020FCE70120FAE7E8
:10252C00431E062B94BFC0003820704708B5FFF738
:10253C00F7FF034A136823F038030343136008BD05
:10254C0000300140F0B5012500248FB0384E282210
:10255C00002104A803F00EFCFFF7ABFC4FF48050F5
:10256C00FFF728FA41F21001304603230622CDE989
:10257C000045FFF7C5FC06271023304633610A22BD
:10258C00032342F2200101950097FFF7B9FC304676
:10259C0003230A2248F28001CDE90075FFF7B0FC55
:1025AC00032330461A4644F24001CDE90075FFF78B
:1025BC00A7FC38230A934FF4827305934FF40073EE
:1025CC00022609930723CDE90B4404940694194C75
:1025DC0004A920460D93CDE9076503F07EFA6368E4
:1025EC00304623F0010363606368314623F0020335
:1025FC006360FFF717FA0320FFF714FA0E4803F095
:10260C008DF803210C4803F089F80C4B5A692A43C6
:10261C005A615B692B400393039B236843F040038F
:10262C002360A3689B07FCD5E3680FB0F0BD00BF27
:10263C000008014000300140000002400010024040
:10264C00F7B5002840F08E80474F3B789B0703D5A9
:10265C003878C0B203B0F0BD1923444D2B602B6801
:10266C00002BFCD1FFF76EFF0720FFF75FFF0A2658
:10267C00013EFFF7F4FD16F0FF06F9D1314640207C
:10268C00FFF716FE0128044667D164234FF4D57179
:10269C0048202B60FFF70CFE012844D101AC2646E4
:1026AC000421FFF7D9FD013911F0FF0106F8010BE8
:1026BC00F7D19DF80630012B4FD19DF80730AA2B8E
:1026CC004BD12B6833B14FF08041E920FFF7F0FD7F
:1026DC000028F6D12B68002B3FD000217A20FFF781
:1026EC00E7FD002839D10421FFF7B6FD013911F0BF
:1026FC00FF0104F8010BF7D19DF8043013F0400FE3
:10270C0014BF0C2404241022194B1C70194B1A6191
:10271C00FFF7A5FD1CB33B78012003F0FE033B70D3
:10272C00FFF704FF94E73146E920FFF7C1FD0228CB
:10273C0036BFE926412602242B682BB100213046F6
:10274C00FFF7B6FD0028F7D12B6833B14FF40071B9
:10275C005020FFF7ADFD0028D5D00024D3E7FFF7BC
:10276C0091FD75E7012075E700000020540500205D
:10277C00520500200008014018B9034B1878C0B26C
:10278C0070470120704700BF0000002038B50D468F
:10279C001C461146002835D1002B33D01B4B1B781F
:1027AC00DA0731D41A4B1B781B0758BF4902012C8E
:1027BC0014D15120FFF77CFD38B94FF40071284635
:1027CC00FFF712FEB0FA80F464091022114B1A6163
:1027DC00FFF745FD201E18BF012038BD5220FFF722
:1027EC0067FD0028F1D14FF400712846FFF7FCFD7E
:1027FC0018B1013C05F50075F5D100214C20FFF70F
:10280C0057FDE2E70420E8E70320E6E7000000209C
:10281C00520500200008014070B50E4615461C46B6
:10282C00002842D1002B40D0234B1A78D0073ED43D
:10283C001B7859073DD4214B1B781A0758BF6D02E2
:10284C00012C14D129465820FFF732FD58BBFE212C
:10285C003046FFF741FEB0FA80F464091022184BA1
:10286C001A61FFF7FCFC201E18BF012070BD13F08D
:10287C00060F03D02146D720FFF71AFD2946592011
:10288C00FFF716FD0028E9D1FC213046FFF724FEA6
:10289C0018B1013C06F50076F6D1FD210020FFF7BA
:1028AC001BFE0028DAD10124D8E70420DEE7032040
:1028BC00DCE70220DAE700BF000000205205002010
:1028CC00000801407FB515460446002840F0F7800B
:1028DC00052918D11378012B09D0022B10D0002B0D
:1028EC0040F0ED80FFF7CEFC204604B070BD1922FD
:1028FC00754B1A601A68002AFCD1FFF723FEF3E728
:10290C0001235370F0E7714B1C7814F0010440F074
:10291C00D8800E2900F2D180DFE801F0081751555C
:10292C00CFCFCFCFCFCF9EA2B1B4C4001022684B73
:10293C005A61FFF797FCB0F1FF0418BF0124102275
:10294C00634B1A61FFF78BFCCEE700214920FFF7A0
:10295C00AFFC044608B10124F1E710216846FFF7EB
:10296C0043FD0028F7D09DF800309DF808109B0916
:10297C00012B9DF8093006D1013303EB01239BB2E7
:10298C009B022B60DBE79DF807209DF80A00920064
:10299C0002EB91129DF806100132890201F440619C
:1029AC000A449DF805105B0001F00F0101EBD011FA
:1029BC0003F006030B44073B02FA03F3E1E74FF481
:1029CC0000731380BBE7434E317811F004011AD029
:1029DC000021CD20FFF76CFC0028BCD1FFF73FFC99
:1029EC0010216846FFF700FD0028B4D03024013CCC
:1029FC00FFF735FC14F0FF04F9D110239DF80A20E1
:102A0C0012099340BDE74920FFF752FC0446002809
:102A1C00A1D110216846FFF7E7FC00289BD0327843
:102A2C009DF80A3092079DF80B100AD59DF80D20E1
:102A3C005B0003F07E0303EBD11392090133013ADF
:102A4C00DFE7CA0002F01802C3F3840302EB511251
:102A5C00013302FB033394E71E4B1B7813706EE7B4
:102A6C0000214920FFF724FC00287FF474AF1021CB
:102A7C002846FFF7B9FCB0FA80F464095FE700213F
:102A8C004A20EFE700217A20FFF712FC04460028C9
:102A9C007FF461AF291DFFF7DFFB05F8010BA9429D
:102AAC00F9D14CE70021CD20FFF702FC00287FF480
:102ABC0052AFFFF7D4FB4021DAE704243FE70424AC
:102ACC0012E7032410E700BF54050020000000208B
:102ADC00000801405205002000210E4A136813F033
:102AEC00FF031EBF03F1FF33DBB213600A4A136806
:102AFC0013F0FF031EBF03F1FF33DBB21360074B70
:102B0C001A68196022B9064A137803F0F903137096
:102B1C00704700BF54050020580500209C08002079
:102B2C00000000207FB500250126044644F2400138
:102B3C00FFF7BFF902230B220F48CDE90056FFF730
:102B4C00DFF902230B2248F28001CDE900560A4836
:102B5C00FFF7D6F92268094B9A420AD103F5DE3306
:102B6C00DA6942F40012DA61DB6903F400130393AF
:102B7C00039B04B070BD00BF000C0140005400402A
:102B8C000848094B4FF4804203600023C0E903322C
:102B9C00064AC0E90533C0E90733C0E9012302F056
:102BAC00D3B800BF3807002000540040801A06003C
:102BBC001FB5084B1C784FF0FF33CDE901230123DF
:102BCC0002460091044804FA03F102F065F904B0DE
:102BDC0010BD00BF8C070020380700201FB5084B24
:102BEC001C784FF0FF33CDE90123012302460091FD
:102BFC00044804FA03F102F0DFF904B010BD00BF81
:102C0C008C0700203807002008B5FFF7B9FF002219
:102C1C00014B1A7008BD00BF8C070020024A1368D4
:102C2C0001331360704700BF9007002008B50122E4
:102C3C00FFF7D4FF20B10120024A1368013313605F
:102C4C0008BD00BF9007002007B501228DF80710C2
:102C5C000DF10701FFF7ACFF20B10120034A136807
:102C6C000133136003B05DF804FB00BF9007002034
:102C7C00F7B50D461E4617461AB910461A7003B022
:102C8C00F0BD0DF10701FFF7D1FF012460B929193F
:102C9C00C9B204FA07F2C91B9DF80730013A8A4001
:102CAC001A400A413270EAE72046E8E7F7B50646D3
:102CBC000D461F461446FAB10DF10701FFF7B6FF9A
:102CCC000123B8B9EA18D2B2121BA3409DF8071021
:102CDC009740013B9340FFB221EA03011F40394367
:102CEC0030468DF80710FFF7AFFF003818BF0120F2
:102CFC0003B0F0BD1846FBE71046F9E70346012286
:102D0C0006210220FFF7D2BF034601220621022032
:102D1C00FFF7AEBF2DE9F8430A240E46BDF8241088
:102D2C009846B1FBF4F304FB1311BDF8209001EBB2
:102D3C0003110546C9B200201746FFF785FFB9FB02
:102D4C00F4F304FB139101EB0311C9B20120FFF75B
:102D5C007BFFB8FBF4F304FB138101EB0311C9B245
:102D6C000220FFF771FFB7FBF4F304FB137101EBC7
:102D7C000311C9B20420FFF767FFB6FBF4F304FBA1
:102D8C00136101EB0311C9B20520FFF75DFFA5F537
:102D9C00FA6191FBF4F304FB131101EB0311062010
:102DAC00BDE8F843C9B2FFF74FBF000008B50722D2
:102DBC0000200649FFF712FF30B9054B188880B286
:102DCC00B0FA80F0400908BD0020FCE7D4000020D8
:102DDC009407002010B504460A20FFF703F920469B
:102DEC00FFF78CFFBDE8104042F21070FFF7FAB805
:102DFC0013B504460A20FFF7F5F80DF10700FFF7AD
:102E0C0083FF9DF80730181B044B18BF01201B884B
:102E1C009BB20BB140F4004002B010BD94070020EF
:102E2C0070B544F62060FFF7DDF868230A24124DD4
:102E3C002B706420FFF7D6F8FFF7B8FF30B9013CD0
:102E4C00A4B2002CF5D10020287070BD0A240B4EC2
:102E5C000020FFF7BFFF3046FFF7C4F80020FFF754
:102E6C00C7FF20B1013CA4B2002CF1D1EBE7044B1D
:102E7C0018600120E9E700BF8C070020A086010044
:102E8C009007002010B527490B78C3F3021202EB10
:102E9C00820203F00F0303EB420303804B78C3F36E
:102EAC00021202EB820203F00F0303EB4203438096
:102EBC008C7814F0400F4FEA241304F00F0229D041
:102ECC0003F0010303EB830302EB4302A30648BFA9
:102EDC000C3282800B79C3F3011202EB820203F0F5
:102EEC000F0303EB4203C3804B79C3F3001202EBD5
:102EFC00820203F00F0303EB420303818B791A095F
:102F0C0003F00F0302EB820203F5FA6303EB4203B7
:102F1C00438110BD03F0030303EB830302EB430275
:102F2C00D7E700BFD400002010B5072204460B4998
:102F3C000020FFF753FE20B92046FFF7A3FF012026
:102F4C0010BD40F2E2730020638101232080608079
:102F5C00A0802381E380FFF761FEF1E7D40000201D
:102F6C000E4A0F4B11681B780B44136001220D4B5A
:102F7C001A800D4A1368013313600C4B1A8892B2F5
:102F8C0032B909221A801B889BB22BB9FFF7A4BD5A
:102F9C001A88013A92B2F5E7704700BF244A002024
:102FAC000800002014060020C42800205005002032
:102FBC000023024A1380024A136070471406002053
:102FCC00C42800201E4B10B55B681E4C236001F01A
:102FDC001BFC1D4802F022FC1C4802F01FFC1C4884
:102FEC0002F01CFC1B4802F0A5FD1B4802F0A2FDE0
:102FFC001A4802F09FFD02F0E7FC4FF0E02200239C
:10300C0017491361536193614A6822F003024A60C5
:10301C0072B64FF0FF319A0002F16042013302F5B3
:10302C006142082BC2F88010C2F88011F3D162B64D
:10303C00034B1B6883F3088823689847FEE700BF9F
:10304C0000F0FF1F4805002000080140000C014063
:10305C00001001400038014000440040004800408E
:10306C000010024007B5082300220749CDE90032C1
:10307C00064803230A22FEF743FF012003B05DF844
:10308C0004EBFEF7AFBF00BF0200020400080140D2
:10309C0007B50120FFF726F8FEF7A4FF0023CDE9C2
:1030AC000033032303491A460348FEF729FF03B0F4
:1030BC005DF804FB0200020400080140F8B500248E
:1030CC0006462546E3B28B4204D32846BDE8F840B9
:1030DC00FEF7F4BF375D01343846FEF7EFFF7D4055
:1030EC00F0E70000FF21094A002391800849136092
:1030FC0091603F21074A918007491360916001213B
:10310C00064A918013805380704700BFC829002065
:10311C00C8280020142A0020D4290020840500206F
:10312C00002208B5064B1A61C3E90022C3E902224A
:10313C009A82FFF77FF8BDE80840FFF7D3BF00BFC6
:10314C006405002007B51049104BCA68104822F4DA
:10315C00E0621204120C1343CB600122002340F2F4
:10316C000441CDE900320422FEF7CAFEFEF71EFF31
:10317C00FFF7D6FFFFF78CFFFEF770FF03B05DF88B
:10318C0004EBFFF715BF00BF00ED00E00003FA05EC
:10319C00000801400022034B1A805A809A80DA8082
:1031AC00704700BFBC28002070B52F4B86B09B78B1
:1031BC00013B032B55D8DFE803F00211314AFFF72E
:1031CC0051FF2A4B1C782046FEF778FF284B1978C4
:1031DC000846FEF773FF84EA010018E0102400256E
:1031EC00FFF740FF1022002101A802F0C3FD214986
:1031FC0001A802F01FFE01A911F8016B013C304639
:10320C00A4B2FEF75BFF7540002CF5D12846FEF703
:10321C0055FFFFF73DFF012006B070BD10240025BF
:10322C00FFF720FF1022002101A802F0A3FD124994
:10323C0001A802F0FFFD01A911F8016B013C304619
:10324C00A4B2FEF73BFF7540002CF5D1DEE7FFF78B
:10325C0009FF0A4B1C7819882046FEF72FFF090A34
:10326C00B6E70020D8E700BF340700209A070020FB
:10327C007E050020816300088B630008D8050020C0
:10328C00094A78B1138801339BB20A2B13800AD9EF
:10329C0048F20202054B1A80054A138823F00203F8
:1032AC0013807047108070477C0500207E0500203D
:1032BC009A070020014B1868704700BF18060020C1
:1032CC0042EA4112A0F2BC70BDF8041042EA402060
:1032DC00BDF80020490841EA421141EAC32189B2F4
:1032EC0001EB00407047000013B5BDF81440019489
:1032FC00BDF810400094FFF7E3FF024B186002B0DA
:10330C0010BD00BF180600202DE9F3411D46002317
:10331C000F4604461646DFF8B0800370414602F0B3
:10332C0031FD69463846294FFEF793FC0DF101013A
:10333C00204602F027FD3946204602F023FD69465F
:10334C00F0B2FEF77DFC0DF10101204602F01AFDF2
:10335C003946204602F016FD6946E8B2FEF770FCCD
:10336C000DF10101204602F00DFD4146204602F010
:10337C0009FD174D69469DF82000FEF761FC0DF123
:10338C000101204602F0FEFC2946204602F0FAFC20
:10339C0069469DF82400FEF753FC0DF1010120460F
:1033AC0002F0F0FC2946204602F0ECFC69469DF840
:1033BC002800FEF745FC20460DF1010102F0E2FC6D
:1033CC0002B0BDE8F08100BF976300089963000864
:1033DC00DC6200082DE9F843224A034622492348BF
:1033EC00FEF75CFA044600283AD11F4F07F1160885
:1033FC00BB7D7BB34046FCF7A3FE032824D97B7E20
:10340C00303B092B20D800252E46DFF86490BB19E1
:10341C009B7D4046A3F13002092A9EBF6A1C09F825
:10342C00053095B2FCF78CFE0136B6B28642EED36F
:10343C00042D28BF042500230D484355FEF729FD14
:10344C00A04238BF204684B239460848FEF70EFA2F
:10345C000028CDD00548FEF7C1F82046BDE8F8831A
:10346C000024FAE72C6400081C060020E00500206C
:10347C00A010002010B51148FEF767FB0C281BD9D3
:10348C0045210E48FEF706FB0D4C09210B48FEF7B3
:10349C0001FB04220B490948FEF73EFB2178074843
:1034AC00FEF7F8FA61780548FEF7F4FAA1780348BC
:1034BC00BDE81040FEF7EEBA10BD00BF3805002085
:1034CC00340700204C05002070B5C94C8AB020464A
:1034DC00FEF73BFB3D2839D952212046C54E2588A5
:1034EC00FEF7D8FA00212046FEF7D4FA0422204633
:1034FC00C149FEF711FB31782046FEF7CBFA717803
:10350C002046FEF7C7FA2046B178FEF7C3FA3378A7
:10351C00402B40F0CB807378032B33D1B7490B7819
:10352C009A0615D50A222046FEF7F6FA2388A188BA
:10353C005B1B9AB21BB2002BBCBF4B1C9B1805F13A
:10354C000105A268B8BF1BB20D4053550AB070BD3F
:10355C004B78CA785B004B708B7803EBC2134B80B3
:10356C000B798A795B000B714B7903EBC213A1F8D1
:10357C000530CB794A7A5B00CB710B7A03EBC21323
:10358C000B81CFE7072B36D19C4E01223378314685
:10359C005B06204610D5FEF7BFFA01222046B11873
:1035AC00FEF7BAFA0122B11C2046FEF7B5FA002349
:1035BC000322019301A9B6E7FEF7AEFA01222046D9
:1035CC00B118FEF7A9FA01222046B11CFEF7A4FAA5
:1035DC0001222046F11CFEF79FFA33792BB9022207
:1035EC00ADF8043001A982489EE703EB83035B002E
:1035FC0003F2DE33F3E70B2B98D10622242101A82A
:10360C00FEF7E6F91522204601A9FEF785FA9DF88A
:10361C002530BDF9192003F00F0303EB02136946A3
:10362C00042220460093FEF777FA9DF82630BDF968
:10363C001B2003F00F0303EB021369460422204600
:10364C000093FEF769FA9DF82730BDF91D2003F0B1
:10365C000F0303EB02136946042220460093FEF786
:10366C005BFA9DF82530BDF91F201B0903EB0213F3
:10367C006946042220460093FEF74EFA9DF8263048
:10368C00BDF921201B0903EB0213694604222046D5
:10369C000093FEF741FA9DF82730BDF923201B0952
:1036AC0003EB02136946042200933CE7002B7FF4E2
:1036BC003DAF7278B3780B2A40F08C80342B2DD828
:1036CC00222B7FF633AF233B112B3FF62FAF01A2FA
:1036DC0052F823F0393700084337000849370008FF
:1036EC0039350008393500083337000833370008FE
:1036FC0039350008EF370008EF3700084F3700085E
:10370C005537000839350008393500085B37000893
:10371C00613700083337000839370008732B10D095
:10372C007F2B7FF403AF02210E2001E002210C203D
:10373C00FEF7C0F9FAE604211620F9E702210A2067
:10374C00F6E702210720F3E704211220F0E702211B
:10375C000820EDE704220F210DEB0200FEF738F9EB
:10376C009DF80A30BDF9042003F00F0303EB02139C
:10377C00694604221E480093FEF7CEF99DF80B30E3
:10378C00BDF9062003F00F0303EB02136946042274
:10379C0017480093FEF7C0F99DF80C30BDF90820CE
:1037AC0003F00F0303EB0213694604221048009345
:1037BC00FEF7B2F902220E480DF10D01FEF7ACF93D
:1037CC0002220DF10F010A48FEF7A6F902220DF1B3
:1037DC00110108E7742B07D0762BB5D02F2B7FF473
:1037EC00A5AE02210D20A3E702210620A0E700BF11
:1037FC0038050020340700204C0500209C070020D1
:10380C002DE9F74301230024CDE90043032340F2C3
:10381C0001111A462148FEF773FB0B22204B214E57
:10382C001A80214B41F6FF721C80DFF88080204B00
:10383C0034801C60A8F8004004249A801D4ADFF8EC
:10384C0078901E4F9A6033880BBB4CF25030FEF7C9
:10385C00C9FBFEF7C7FBFFF7D7F9682389F80030DF
:10386C00FFF7DEFA0128054611D11448FFF75CFB7F
:10387C0068B17B893580B3F5FA6F05D13B89012B93
:10388C0002D1FB88012B02D00123A8F80030013CA7
:10389C00A4B2002CD7D103B0BDE8F083000C0140DA
:1038AC0098070020AE28002044050020AC280020FA
:1038BC0038050020A00800208C070020A02800203C
:1038CC0013B50D4C2046FEF734F9B0F5805F10D9D6
:1038DC00A06861884FF4805201AB01440748FDF7A2
:1038EC00EDFCFFF7CDFC6388A28803F580531340F1
:1038FC00638002B010BD00BF38050020DC00002042
:10390C0000232DE9F047554D554E2B80338886B05A
:10391C000BB104232B80534C23881BB12B8843F011
:10392C0008032B80012250495048FDF73FFA18B18B
:10393C00022006B0BDE8F0872B8843F001032B80F2
:10394C003388002B6CD02388002B69D0484B494816
:10395C005C891E89DF88B3F80480B3F80290B3F851
:10396C0000A032463B462146CDE9019ACDF80080B5
:10397C00FFF7CAFC4049414802F05CFA3D49A1F509
:10398C00007002F0FFF93E493C4802F0FBF9434657
:10399C003A4631462046CDE9009A384E394CFFF76D
:1039AC00A3FC0A2231462046FDF728FA0028BFD195
:1039BC00354906F5007002F03DFA06F50070FCF78B
:1039CC00BFFB86F8010206F50070FCF7B9FB05ABEE
:1039DC00024606F500712046FDF770FC0028A7D1C1
:1039EC002046FDF72CFD0028A2D16269E368274F21
:1039FC009B1AE360237C386023F00803606106F5B2
:103A0C0000702374FCF79CFB06F5007182B23846FB
:103A1C00FEF782F82B88012043F002032B8088E705
:103A2C001B48FFF7D7FC0130124980B2FEF711F9A1
:103A3C001149124802F0FEF96FF400731549C818C9
:103A4C0002F0A0F90E490D4802F09CF90023012266
:103A5C0040F2E2701146CDE900339EE79A07002050
:103A6C00AE280020AC2800202C64000804030020A1
:103A7C00A0280020A00A0020A2630008A0080020B3
:103A8C009F630008DC000020A663000838050020B6
:103A9C009B630008A10A0020094A08B513881BB9CA
:103AAC0041F64B53138008BD013B9BB21380002B96
:103ABC00F9D10448FDF7C3FCBDE80840FFF7E0BBB3
:103ACC0044050020DC00002010B5354C88B023885C
:103ADC000BB9FFF769FB334B9B78722B09D0732B17
:103AEC0037D02388002B3CD108B0BDE81040FFF73D
:103AFC00EBBC00230393CDF80F302B4B1B88EBB1A1
:103B0C0068222A4B05A81A70FFF70EFABDF81E3072
:103B1C00ADF80C30BDF81C308DF80E30BDF81A30F5
:103B2C008DF80F30BDF818308DF81030BDF8163008
:103B3C008DF81130BDF814308DF81230FFF792FA71
:103B4C00072103A8FFF7BAFA08B0BDE81040FFF749
:103B5C009FBA154A23881288002AC2D033B1FFF7C6
:103B6C00B3FC08B0BDE81040FFF784BC05A80222E6
:103B7C000721FDF72DFF68220C4B9DF816101A70CB
:103B8C009DF81A309DF8172001939DF81930BDF857
:103B9C00140000939DF81830FFF7BCF8A1E700BFA4
:103BAC008205002034070020AE2800208C0700205E
:103BBC00034B1B880BB1FFF75DBCFFF785BC00BF47
:103BCC008205002030B51C468BB005AD1346ADF810
:103BDC000E000A460DF10E0005490095FEF79BF804
:103BEC002846FEF775FA2046FEF772FA0BB030BD88
:103BFC00C763000830B51C468BB005AD1346039067
:103C0C000A4603A805490095FEF785F82846FEF7F5
:103C1C005FFA2046FEF75CFA0BB030BDCC630008AF
:103C2C0070B51546044686B04618B44204D12846F1
:103C3C00FEF74EFA06B070BD14F8010B01A9FEF7A1
:103C4C0016F80846FEF744FAEFE700000022024B94
:103C5C005A601A81704700BFB02800200022024B26
:103C6C001A609A80704700BF8C05002008B5FEF7DB
:103C7C0041FA054A9388D11801339BB2382B28BFDF
:103C8C0038238871938008BD8C0500200A2801D048
:103C9C003B2807D10021044B01209A8899801A44B3
:103CAC0091717047002070478C0500200023034A57
:103CBC0003489380034A1360FEF70ABAB028002029
:103CCC00D16300088C05002008B5FFF7BFFF002268
:103CDC00034B04481A60BDE80840FEF7F9B900BF71
:103CEC008C050020D163000870B50546FCF728FA56
:103CFC00094E02462946B01D02F060F8044640B950
:103D0C002846FEF7E5F90548FEF7E2F90120B47103
:103D1C0070BD0020FCE700BF8C0500202A64000861
:103D2C002DE9F84306460F46FCF70AFADFF84880FF
:103D3C00024608F1060905463146484602F03EF8AF
:103D4C000446B0B909EB050001F078FF05B23D80DF
:103D5C003046FEF7BDF90948FEF7BAF92846224667
:103D6C000721074BFFF72EFF012088F80640BDE81E
:103D7C00F8830020FBE700BF8C0500208B5E000859
:103D8C002A64000810B50748FEF7A2F90648FEF7AA
:103D9C009FF9BDE81040054800220E21044BC06875
:103DAC00FFF728BFD4630008E46300086405002013
:103DBC002A64000808B5074B1A88074B92B21B8877
:103DCC009BB29A4205D0FEF795F9BDE80840FFF783
:103DDC007BBF08BD224A0020204A00202DE9F04775
:103DEC0098B0FEF711FF6822654B1A70FFF718F8B0
:103DFC00002800F0C280634D072229460020FEF700
:103E0C00EDFE0446002840F0B28005A8FFF73AF812
:103E1C005D48FEF75DF95D48FEF75AF922465C4BAA
:103E2C0028780421FFF7CEFE28460121594AFFF7D6
:103E3C00F7FE2246564B68780421FFF7C3FE01219A
:103E4C00544A6818FFF7ECFE2246514BA87804211F
:103E5C00FFF7B8FEA81C01214E4AFFF7E1FE2246EF
:103E6C004B4BE8780421FFF7ADFEE81C0121494AD1
:103E7C00FFF7D6FE2246464B28790421FFF7A2FE17
:103E8C00281D0121434AFFF7CBFE2246404B68799F
:103E9C000421FFF797FE681D01213E4AFFF7C0FE83
:103EAC003B4B224668790421FFF78CFE01213A4AEC
:103EBC00A81DFFF7B5FE3948FEF70AF92246BDF9F1
:103ECC001E000721334BBDF81E50FFF77BFE224628
:103EDC00BDF91C0007212F4BBDF81C60FFF772FECB
:103EEC00224607212C4BBDF91A00BDF81A70FFF7BA
:103EFC0069FE2B48FEF7ECF82246BDF918000721A5
:103F0C00244BBDF81880FFF75DFE2246BDF9160064
:103F1C000721204BBDF81690FFF754FEBDF814A0F6
:103F2C002246BDF9140007211B4BFFF74BFE3B4605
:103F3C003246294608A8CDE9019ACDF80080FFF752
:103F4C00E3F908A8FEF7C4F81348FEF7C1F8434696
:103F5C003A4631462846CDE9009AFFF7B1F9224698
:103F6C000E210D4BFFF746FE18B0BDE8F0870D484B
:103F7C0018B0BDE8F047FEF7ABB80B48F8E700BF48
:103F8C008C070020D4000020EA630008FB630008C3
:103F9C008B5E0008026400082A64000806640008AE
:103FAC000F640008186400082D6400082DE9F74F11
:103FBC00DFF86C91FFF756F85A48FEF789F8484637
:103FCC00FEF786F85848FEF783F84846FEF780F867
:103FDC00FFF744FEFFF76AFE4FF6FF730024534FC2
:103FEC0026463B800423524DDFF848816B61B8F8BC
:103FFC0000309BB2002BFAD00023A8F800304E4BB7
:10400C000136DFF838B11E604D4ABBF802A0BAF198
:10401C00000F6DD14B4B1988138889B29BB2994212
:10402C0066D0FFF723FEFFF731FE454A0028ECD09F
:10403C004548FFF759FE50B10122444BA3F800A0AC
:10404C00434B1A8003B0BDE8F08FC724CFE741483B
:10405C00FFF74AFE0028ADD13F48FFF745FE18B1E7
:10406C00FFF790FEFFF722FE3C48FFF73DFE20B124
:10407C003B48FEF72DF8FFF719FE3A48FFF734FEE0
:10408C0020B13748FEF724F8FFF710FE3648FFF74B
:10409C002BFE20B13248FEF71BF8FFF707FE334822
:1040AC00FFF722FE20B12E48FEF712F8FFF7FEFDB7
:1040BC002F48FFF719FE18B1FFF790FEFFF7F6FD3A
:1040CC002C480DF10601FFF72BFE20B12448FDF71B
:1040DC00FFFFFFF7EBFD28480DF10601FFF720FE6F
:1040EC00002891D01E48FDF7F3FFFFF7DFFD8BE7AB
:1040FC00FFF760FE002CA8D0013CA4B2002C7FF48A
:10410C0076AFB7F90030002BBFF671AFEB681A042D
:10411C00DB4302F4802203F0040313432B6166E7B4
:10412C002A6400085964000870640008020000202A
:10413C000008014014060020B02800208C05002047
:10414C00204A0020224A00207764000882050020C3
:10415C00800500207A640008826400088E640008E0
:10416C0049640008976400089D640008A664000870
:10417C00AF640008B7640008C564000810F0800F35
:10418C0070B50546A04C14D000262680FDF750FFD4
:10419C00FF219E4B9E4A186005F07003302B05F0F2
:1041AC000F0513705570917014D1BDE87040FFF776
:1041BC008BB92388052B09D8013B042B09D8DFE8E0
:1041CC0013F039005C00EC0007013501642B00F0A2
:1041DC00468170BD03D823B3102BE6D0F9E7402BF2
:1041EC000AD0502BE1D0702BF3D18A4B1B88AB42F9
:1041FC00EFD10423238009E0072D0AD00B2D0CD01E
:10420C00032DE6D1012323800B23A380E680824B70
:10421C000DE0012323800623F7E7012323802B23C2
:10422C00F3E70B2D0CBF022264227B4B22805B6ACE
:10423C006380CEE7E388794AD054A08801339BB2DF
:10424C008342E380E3D313460022114695B2A84281
:10425C000ED800220320724B1A80724A108029B1AA
:10426C0001221A80704AD3680133D360002382E0A4
:10427C0013F8015B01326940E8E7654B342898700C
:10428C0032D8222805D8451E032D6ED90023238051
:10429C009FE7A0F12305112DF8D801A353F825F0C1
:1042AC006F430008414300084F430008994200083F
:1042BC00994200089F4300089F4300089942000858
:1042CC0057430008574300088743000897430008EA
:1042DC0057430008994200085F43000867430008F1
:1042EC009F4300086F430008A0F17205EBB20D2B41
:1042FC00CCD80D2DCAD801A353F825F0774300086C
:10430C00874300088F430008994200089743000830
:10431C009942000899420008994200089942000805
:10432C0099420008994200089942000899420008F5
:10433C009F430008032323801B23A3800023E380D7
:10434C0065E7032323800D23F7E703232380102342
:10435C00F3E7032323800B23EFE7032323801423AA
:10436C00EBE7032323800F23E7E7002302212C4AEA
:10437C0013802C4A1180238049E7032323800A23CE
:10438C00DBE7032323800923D7E7032323801723A9
:10439C00D3E7032323801123CFE7E3881F4AD054AC
:1043AC00A08801339BB28342E380FFF430AF134605
:1043BC000022114695B2A84205D80022184B0220C3
:1043CC001A80184A4AE713F8015B01326940F1E799
:1043DC00E388042B08D8DFE803F0030D0F1113005A
:1043EC00512803D1052222800133A8E74628FBD0AF
:1043FC000022F8E74C28FAE74128F8E75328F6E7BB
:10440C004828F5D1FEF7DEFDBC2800204C05002025
:10441C003407002098070020000800409C0700206B
:10442C00820500208005002064050020E388042B11
:10443C0008D8DFE803F003090B0D0F00512801D059
:10444C0000232380E388CFE74D28F8E74F28F6E7D1
:10445C004428F4E74528F3D1FFF7A8FDF0E7024B19
:10446C009870FFF731F811E7340700202DE98848E0
:10447C00DFF818A2DFF81882FEF764FEB8F90030F6
:10448C00844C002BBCBF042363610023824A834FFE
:10449C001380834E834ADFF81092844D3380A9F841
:1044AC0000302B807B803B80BB801380FFF7A8F90A
:1044BC00FEF770FE4FF4004333804FF6FF73A8F8FD
:1044CC000030042363612361DFF8E4B1794B1A886F
:1044DC00BBF8003092B29BB29A4203D0FDF70AFEB1
:1044EC00FFF74CFEFFF7ECF92B889BB2013B062B38
:1044FC0016D8DFE803F004070B090E104400002364
:10450C002B80B7E7FFF7E0FA002308E0FFF750FB3A
:10451C00FAE7FEF7A7FD0023A9F8003007232B804C
:10452C00BAF800309BB2002BD0D00023AAF8003090
:10453C00FDF76CFDB8F90000002837DD5E49B0F5D9
:10454C00FA7F0B8803F101039BB20B8046D15B4AC7
:10455C00B2F800C0BCF10C0F40D8012202FA0CF2E8
:10456C0012F4825F28D112F0240C13D112F0120F26
:10457C0034D0B3F5FA7F05D10423236116E0FEF79E
:10458C0087FDC1E7B3F57A7F10D3A1F800C00423EF
:10459C0063610BE0B3F5FA7FEED0B3F52F7FF6D065
:1045AC00B3F5487FE8D0B3F57A7F14D23388012B6A
:1045BC0021D1FFF771FA87E7B3F5FA7FDCD0B3F5B9
:1045CC00167FE4D0B3F52F7FD6D0B3F5487FDED07D
:1045DC00B3F5617FE6E700230B80D8E78342E5DB88
:1045EC0000230B80E3681A04DB4302F4802203F0FF
:1045FC0004031343C1E7022B3FF466AF48F20300F8
:10460C0023F4FE4181428AB23FF65EAF11040ED410
:10461C00012ACED0032A29D0002A7FF455AFFFF708
:10462C006FF96FEA40406FEA504030804CE7A2F5DA
:10463C000042013A022A03D8DFE802F009111800FF
:10464C00C3F30E0333803223A8F80030E7E7C3F33B
:10465C000E0333804FF4FA73A8F80030A9E7C3F3C4
:10466C000E0333806423A8F800302DE7BB883A880A
:10467C0001339BB29A42BB80BFF426AF7B886FEAB2
:10468C0043436FEA534333801EE700BF14060020F8
:10469C0002000020000801409A070020DA050020E3
:1046AC007E050020D8050020820500208005002012
:1046BC00204A0020224A002096070020980700205C
:1046CC0010B590B01422002108A801F053FB14225D
:1046DC00002101A801F04EFB02244FF4803301228B
:1046EC00CDE90D43CDE906234FF4E01306A80A9259
:1046FC000F9300F0A5FD08B172B6FEE70F23CDE9CC
:10470C0001344FF480630390CDE90430214601A8B5
:10471C0000F058FF08B172B6FEE710B010BD0000F3
:10472C0007B500F0A5F8FFF7CBFF0C4B9A6942F0E8
:10473C0020029A619A6902F020020192019A9A6908
:10474C0042F004029A619B6903F004030093009BFE
:10475C0003B05DF804EBFFF789BE00BF0010024008
:10476C000E4B82B09A6942F001029A619A6902F08A
:10477C0001020092009ADA6942F08052DA61DB6938
:10478C00074A03F080530193019B536823F0E063C5
:10479C0043F00073536002B0704700BF001002403A
:1047AC0000000140FEE7FEE7FEE7FEE7FEE770478C
:1047BC0070477047FEF7D4BB704700000C480D499A
:1047CC000D4A002302E0D458C4500433C4188C4260
:1047DC00F9D30A4A0A4C002301E013600432A242C6
:1047EC00FBD3FFF7E9FF01F001FBFFF799FF7047DF
:1047FC00000000206000002014660008600000200B
:10480C00604B0020FEE7704710B54FF0FF320024DC
:10481C00044B1A611C61DA60DC60FFF7F4FF204680
:10482C0010BD00BF0010024038B50E4B05461A787B
:10483C004FF47A73B3FBF2F30B4A1068B0FBF3F04E
:10484C0000F070F8044658B90F2D09D802462946D5
:10485C004FF0FF3000F036F82046044B1D6038BD99
:10486C000120FCE708000020040000200C000020C0
:10487C00074A08B51368032043F01003136000F0D7
:10488C000FF80F20FFF7D0FFFFF76AFF002008BDDD
:10489C0000200240014B1868704700BF244A0020DA
:1048AC0007490302CA6803F4E06322F4E0621204CD
:1048BC00120C134343F0BF6343F40033CB607047D7
:1048CC0000ED00E0154B30B5DC68C4F30224C4F1F4
:1048DC000703251D042B28BF0423062D4FF0FF359D
:1048EC0094BF0024033C05FA03F321EA0303A5401B
:1048FC0022EA0502A340002843EA0203ACBF00F100
:10490C006040074A4FEA0313DBB2ABBF00F56140CE
:10491C0000F00F0080F80033135430BD00ED00E0C0
:10492C0014ED00E00138B0F1807F0BD24FF0E023A2
:10493C00F021054A586182F8231000200722986163
:10494C001A6170470120704700ED00E001680022F9
:10495C004B6913F4806310D06FF480634B61202398
:10496C00026380F83D3080F83E20036C80F83C20D8
:10497C0043F00403036401207047184670472DE987
:10498C00F84606460F4691461D464FEA114A3368D3
:10499C00BAF1010F0CBF5C699C6927EA0404A4B24C
:1049AC00B4FA84F46409A14501D0002025E06A1C06
:1049BC00EED0FFF76FFF089BC01AA84201D8002D5C
:1049CC00E5D13368BAF1010F0CBF5B699B6927EA2B
:1049DC0003039BB2B3FA83F35B099945D7D1002348
:1049EC0020220120336386F83D2086F83E30326C5D
:1049FC0086F83C3042F020023264BDE8F8862DE99E
:104A0C00F04104460F46164698462568686927EA21
:104A1C00000080B2B8B16B695A0516D52B682022FC
:104A2C0043F400732B606FF480636B61002323638A
:104A3C0084F83D2084F83E30226C42F004020120C0
:104A4C00226484F83C30BDE8F081731CDED0FFF7A3
:104A5C0021FFA0EB0800B04201D8002ED5D123686D
:104A6C005A6927EA020292B2002ACED000232022F1
:104A7C00236384F83D2084F83E30226C42F02002FF
:104A8C00DDE770B504460D46164623685B691B06C8
:104A9C0001D5002070BD2046FFF758FFC8B96A1C2D
:104AAC00F3D0FFF7F7FE801BA84201D8002DECD104
:104ABC0023685B6913F08003E7D12022236384F819
:104ACC003D2084F83E30226C84F83C3042F02002C9
:104ADC0022640120DEE700002DE9F0431546026850
:104AEC009946136885B043F480731360DDE90C7844
:104AFC000E463B4600224FF00111CDF800800446D3
:104B0C00FFF73DFF236838B11B68DB0502D54FF476
:104B1C000073236403200AE006F0FE061E613A4689
:104B2C00434620461749FFF76AFF18B1012005B02C
:104B3C00BDE8F083236803905A69394603929B6958
:104B4C00424603932046039BFFF79BFF40B1236C27
:104B5C00042B01BF2268136843F400731360E5E76C
:104B6C00B9F1010F236802D1EDB21D61DFE72A0A0A
:104B7C001A61394642462046FFF783FF0028E6D1EA
:104B8C002368F1E7020001002DE9FF479A46DDE9B1
:104B9C000C78036815461A680E4642F480621A6057
:104BAC001A684FF0011142F480721A603B460022E1
:104BBC00CDF800800446FFF7E2FE236848B11B687D
:104BCC00DB0502D54FF400732364032004B0BDE869
:104BDC00F0875FFA86F906F0FE061E613A464346F8
:104BEC0020462949FFF70BFF08B10120EEE72368A7
:104BFC0003905A69394603929B69424603932046B7
:104C0C00039BFFF73EFF40B1236C042B01BF2268CE
:104C1C00136843F400731360E7E7BAF1010F2368DC
:104C2C001AD1EDB24246394620461D61FFF729FFE5
:104C3C0002460028E8D1216820460B6843F48073B3
:104C4C000B603B464FF00111CDF80080FFF797FE4B
:104C5C00226860B11368B3E72A0A1A6139464246E2
:104C6C002046FFF70EFF0028CED12368D9E749F084
:104C7C0001031361204643463A460349FFF7BFFE42
:104C8C00003818BF0120A1E70200010070B50446EE
:104C9C000D46164623685B695B0701D5002070BD85
:104CAC002046FFF753FEC8B96A1CF3D0FFF7F2FD9C
:104CBC00801BA84201D8002DECD123685B6913F04E
:104CCC000403E7D12022236384F83D2084F83E308E
:104CDC00226C84F83C3042F0200222640120DEE792
:104CEC0070B504460D46164621684B6913F0400317
:104CFC0001D0002010E04A69D2060ED56FF01002E8
:104D0C004A612022236384F83D2084F83E30226CD3
:104D1C000120226484F83C3070BDFFF7BBFD801B82
:104D2C00A84201D8002DDFD123685B6913F0400342
:104D3C00DAD12022236384F83D2084F83E30226CA3
:104D4C0042F02002E4E7000070B5044608B90120E7
:104D5C0070BD90F83D3003F0FF021BB980F83C2089
:104D6C00FDF7E0FE242384F83D3023681A6822F016
:104D7C0001021A601A6842F400421A601A6822F49E
:104D8C0000421A6000F0BAFC3F4B65689D4294BF2C
:104D9C003E4B3F4B98428CBF00230123002BD6D1B6
:104DAC00394E3C4BB542B0FBF3F388BF4FF49676CB
:104DBC002268516821F03F0141EA030182BF73432D
:104DCC004FF47A76B3FBF6F35160116A013321F09C
:104DDC003F010B431362D169431E2B4821F44F4111
:104DEC00854221F0FF0132D86D00B3FBF5F340F69C
:104DFC00FC700133034242D0C3F30B031943D1615E
:104E0C001168D4E9073021F0C00103430B43136050
:104E1C009168D4E9030321F40341034321F0FF011A
:104E2C000B439360D168D4E9053021F0FF010343B3
:104E3C000B43D3601368002043F00103136020235D
:104E4C00206484F83D30206384F83E0080E7A0683D
:104E5C0050B905EB4505B3FBF5F30133C3F30B0375
:104E6C007BB143F40043C9E719206843B3FBF0F36B
:104E7C000133C3F30B0323B143F44043BEE70423D4
:104E8C00BCE70123BAE700BFA08601007F841E00A7
:104E9C00FF083D0040420F002DE9F74304469946B8
:104EAC000F4690460C9EFFF7F5FC94F83D300546F6
:104EBC00202B03D0022003B0BDE8F083009019230F
:104ECC00012220463A49FFF75AFD0028F2D194F806
:104EDC003C30012BEED00123206884F83C30036871
:104EEC004246D90758BF036839465CBF43F00103FB
:104EFC000360036823F400630360212384F83D30CE
:104F0C00402384F83E30002323640A9B20466362CE
:104F1C00BDF82C30CDE900656385638D2385254B69
:104F2C00E3624B46FFF7D8FD00282AD00120C2E7E8
:104F3C00FFF7A7FD40B1236C042B01BF2268136857
:104F4C0043F400731360F1E7636A27681A4612F89A
:104F5C00011B39616262628D218D013A92B26285C8
:104F6C007A69481E80B2520720850AD548B15A7812
:104F7C0002333A616362638D0239013B9BB2218536
:104F8C006385238D2A4631462046002BD0D1FFF76E
:104F9C007DFE0028CFD12268136843F400731360A0
:104FAC00202384F83C0084F83D3084F83E0082E7EE
:104FBC00020010000000FFFF2DE9F043994600238A
:104FCC00044689B003930D469046129FFFF762FC8E
:104FDC0094F83D300646202B04D00225284609B013
:104FEC00BDE8F08300901923012220469049FFF779
:104FFC00C6FC0028F1D194F83C30012BEDD00123F4
:10500C00206884F83C3003682946DB0758BF0368E6
:10501C0042465CBF43F001030360036823F4006362
:10502C000360222384F83D30402384F83E30002373
:10503C002364109B20466362BDF84430CDE90076B2
:10504C006385638D23857B4BE3624B46FFF79CFDA9
:10505C00054608B10125C1E7228D2368C2B9049029
:10506C005A6904929A690492049A1A6842F400727A
:10507C001A60DFF8C481DFF8C491238D002B37D17F
:10508C00202284F83C3084F83D2084F83E30A5E79B
:10509C00012A11D11A6822F480621A6072B6236850
:1050AC0005905A6905929A690592059A1A6842F414
:1050BC0000721A6062B6DCE7022A1A680ED142F45A
:1050CC0000621A6072B6236806905A6906929A6951
:1050DC000692069A1A6822F48062EAE742F4806229
:1050EC001A6007905A6907929B690793079BC0E760
:1050FC00032B78D8012B15D1324639462046FFF7C1
:10510C00EFFD0028A6D123681A69636A1A70636AD6
:10511C0001336362238D013B2385638D013B9BB27D
:10512C006385AAE7022B4FF000023B46414620461E
:10513C00009618D1FFF723FC00288BD172B6236898
:10514C001A6842F400721A601A69636A1A70636A08
:10515C0001336362238D013B2385638D013B9BB23D
:10516C00638562B6CFE7FFF70AFC00287FF472AFC5
:10517C002268136823F48063136072B646F2A81198
:10518C0023681A69636A1A70626A531C6362238DFE
:10519C00013B2385638D013B9BB26385D9F80030BD
:1051AC00B3FBF1F323214B430393039B013B039389
:1051BC00039B6BB92022236384F83D2084F83E3096
:1051CC00226C42F02002226462B684F83C3041E743
:1051DC00236859694907E8D5196841F400711960C9
:1051EC001B695370B3E7324639462046FFF778FD0A
:1051FC0000287FF42FAF23681A69636A1A70628DD6
:10520C00616A013A92B24B1C628522686362238DFB
:10521C005069013B9BB2400723857FF52EAF032BD2
:10522C0002BF136823F48063136013694B706EE73D
:10523C00020010000000FFFF040001000400002029
:10524C002DE9F341054638B30368DB0710D42B680E
:10525C009F075ED42B68190700F195802B685A07BD
:10526C0000F1C180E869002840F02C81002029E081
:10527C00904C636803F00C03042B07D0636803F0B5
:10528C000C03082B0AD16368DE0307D523689C0343
:10529C00DDD56B68002BDAD1012013E06B68B3F518
:1052AC00803F12D1236843F480332360FFF7F2FA76
:1052BC00064623689803CAD4FFF7ECFA801B6428CF
:1052CC00F7D9032002B0BDE8F0819BB9236823F421
:1052DC0080332360236823F480232360FFF7DAFAFA
:1052EC00064623689903B2D5FFF7D4FA801B6428CD
:1052FC00F7D9E6E7B3F5A02F236803D143F4802355
:10530C002360CFE723F480332360236823F48023C6
:10531C00CBE7684C636813F00C0F07D0636803F09D
:10532C000C03082B10D16368DA030DD423689B0798
:10533C0002D52B69012BAFD123686A6923F0F803DE
:10534C0043EAC203236085E72A695B4B6AB10122F9
:10535C001A60FFF79FFA064623689F07ECD4FFF705
:10536C0099FA801B0228F7D9ABE71A60FFF792FA7B
:10537C000646236898077FF56DAFFFF78BFA801B05
:10538C000228F6D99DE7AA694A4E4B4BE2B101229D
:10539C00C3F88024FFF77EFA0446736A9B070DD589
:1053AC004FF4FA52454B1B68B3FBF2F3019300BF69
:1053BC00019B5A1E0192002BF9D14FE7FFF76AFAB5
:1053CC00001B0228E9D97CE7C3F88024FFF762FAB6
:1053DC000446736A9F077FF541AFFFF75BFA001B2A
:1053EC000228F6D96DE7334CE369D80024D40127A1
:1053FC00E36943F08053E361E36903F08053009366
:10540C00009B2F4E3368D90518D5EB68012B26D19C
:10541C00236A43F001032362FFF73CFA41F2883818
:10542C000646236A9B073FD5002F3FF41BAFE36969
:10543C0023F08053E36115E70027E2E7336843F478
:10544C0080733360FFF726FA80463368DA05DCD4C4
:10545C00FFF720FAA0EB08006428F6D931E7ABB9C6
:10546C00236A41F2883823F001032362236A23F074
:10547C0004032362FFF70EFA0646236A9807D3D576
:10548C00FFF708FA801B4045F7D91AE7052B236A6A
:10549C0003D143F004032362BAE723F00103236230
:1054AC00236A23F00403B6E7FFF7F4F9801B4045A9
:1054BC00B7D906E700100240000042420400002069
:1054CC00007000402A4C636803F00C03082B3ED09C
:1054DC000022284B02281A662CD1FFF7DBF906466E
:1054EC002368990120D42B6AB3F5803F05D16268FB
:1054FC00A96822F400320A436260696A62680B434D
:10550C0022F474121343012263601A4B1A66FFF7DC
:10551C00C1F9054623689A013FF5A8AEFFF7BAF921
:10552C00401B0228F6D9CCE6FFF7B4F9801B022801
:10553C00D6D9C6E6FFF7AEF9054623689B017FF581
:10554C0095AEFFF7A7F9401B0228F6D9B9E601285A
:10555C003FF4B8AE63682A6A03F4803191427FF459
:10556C009BAE6A6A03F4701393423FF47FAE93E6EA
:10557C0000100240000042420D4A536803F00C0137
:10558C00082912D10B48C3F38341DB03405C09D5D6
:10559C005368094AC3F340435043084AD35CB0FBF9
:1055AC00F3F07047064B584370470348704700BFF1
:1055BC0000100240F064000800127A000065000838
:1055CC0000093D002DE9F0410D46044610B90120BB
:1055DC00BDE8F081444A136803F007038B4228D3DB
:1055EC0021688E0730D4CA0743D43F4A136803F0AE
:1055FC000703AB4265D822683C4D12F0040F6CD106
:10560C00130706D56B68226923F4605343EAC2037F
:10561C006B60FFF7B1FF6B68354AC3F30313D35CC0
:10562C00D840344B1860344B1868FFF7FDF8002055
:10563C00CEE7136823F007030B431360136803F0E2
:10564C0007038B42C3D1CBE7284B11F0040F1EBFCD
:10565C005A6842F4E0625A60080742BF5A6842F442
:10566C0060525A605A68A06822F0F00202435A60F5
:10567C00B9E762681D4E012A33681AD113F4003F52
:10568C00A5D0736841F2883823F003031343736089
:10569C00FFF700F907467368626803F00C03B3EB7D
:1056AC00820FA2D0FFF7F6F8C01B4045F3D90320B8
:1056BC008EE7022A02D113F0007FE1E713F0020F0C
:1056CC00DEE7136823F007032B431360136803F022
:1056DC000703AB427FF47BAF8DE76B68E16823F483
:1056EC00E0630B436B608BE700200240001002402C
:1056FC00D8640008040000200C000020044B054A6C
:10570C005B68C3F30223D35C034A1068D84070472C
:10571C0000100240E864000804000020244B0246FC
:10572C0098421CD101291CD002291CD003291CD061
:10573C0004291CD005291CD01E486C33062918BF1F
:10574C0003461868012920F0010018604FF0000092
:10575C00186058609860D8600DD151607047154B37
:10576C00EFE7154BEDE7154BEBE7154BE9E7154B61
:10577C00E7E7154BE5E70239052917D8DFE801F013
:10578C0003070A0D101310230020536070474FF4C9
:10579C008073F9E74FF48053F6E74FF48033F3E767
:1057AC004FF48013F0E74FF08073EDE70120704762
:1057BC000000024080000240080002401C00024031
:1057CC00300002404400024058000240124B70B5B9
:1057DC000B4413F8015CD2E9023633431669445981
:1057EC003343566924F4FF443343966924F0700420
:1057FC003343D66941193343566A334323434351E8
:10580C0053680020CB601368126A8B604B681B0CCA
:10581C001B0413434B6070BD02650008224B984279
:10582C000BD103F58433DA6842F00402DA60DA68EB
:10583C0022F004020020DA6070471C4B984209D118
:10584C0003F58233DA6842F00802DA60DA6822F093
:10585C000802EFE7164B984209D103F58033DA685A
:10586C0042F01002DA60DA6822F01002E2E7114B23
:10587C00984209D103F57C43DA6842F02002DA60E1
:10588C00DA6822F02002D5E70B4B984209D103F5D8
:10589C007843DA6842F04002DA60DA6822F04002BB
:1058AC00C8E70120704700BF00080140000C014010
:1058BC000010014000140140001801402DE9F04F88
:1058CC000D680446C5F30F2595FAA5F20326B2FA26
:1058DC0082F204274FF0011C40F2011E35FA02F04F
:1058EC0001D1BDE8F08F012393402B426AD0072AE7
:1058FC0088BFA2F10803D1F804A08ABF0CFA03F305
:10590C000EFA02F343F08063BAF1080F0ED1E0688F
:10591C004FEA132898FAA8F9B9FA89F920EA080885
:10592C00086900FA09F048EA0000E0604FEA1368E1
:10593C0093FAA3F9B9FA89F993FAA3FB0F20BBFAEE
:10594C008BFB4FEA890900FA09F954F808004FEA71
:10595C008B0B20EA09090AFA0BFA49EA0A0A44F8FD
:10596C0008A0486820F0080001282BD193FAA3F96D
:10597C00B9FA89F993FAA3F0B0FA80F04FEA8909E1
:10598C0006FA09F92AEA09094FEA800A886800FA36
:10599C000AF049EA000044F8080093FAA3F9B9FAAE
:1059AC0089F993FAA3F3B3FA83F34FEA890907FA57
:1059BC0009F920EA0909C8689B00984049EA0000E7
:1059CC0044F80800013289E7144B1A6842F00102CE
:1059DC001A601A689207FCD55A6822F003025A60C2
:1059EC005A6812F00C0FFBD11A6822F080721A6000
:1059FC00186810F00070FBD158601A6822F450221D
:105A0C001A601A6822F0F80242F080021A6098605C
:105A1C005A6A42F080725A62704700BF001002400E
:105A2C00034B044A5B68C3F30313D35CD840704741
:105A3C0000100240D8640008034B044A5B68C3F3AF
:105A4C000223D35CD840704700100240E864000881
:105A5C00034B044A5B68C3F3C223D35CD840704742
:105A6C0000100240E8640008094A5368DB0341BF98
:105A7C0053680848C3F34043013348BFB0FBF3F00D
:105A8C00536858BF0448C3F38343023358437047E9
:105A9C000010024000127A0000093D00044B5B68C4
:105AAC0003F00C03082B01D1FFF7DEBF0148704750
:105ABC000010024000127A0010B50146FFF7EEFF0D
:105ACC000860FFF7ADFF48600446FFF7B5FF88603C
