:020000040800F2
:1000000000500020D5270008BD270008BF270008A2
:10001000C1270008C3270008C5270008000000000A
:10002000000000000000000000000000C7270008DA
:10003000C927000800000000CB270008CD270008D2
:100040001D2800081D2800081D2800081D2800087C
:100050001D2800081D2800081D2800081D2800086C
:100060001D2800081D2800081D2800081D2800085C
:100070001D2800081D2800081D2800081D2800084C
:100080001D2800081D2800081D2800081D2800083C
:100090001D2800081D2800081D2800081D2800082C
:1000A0001D2800081D2800081D2800081D2800081C
:1000B0001D2800081D280008390F00081D28000809
:1000C0001D2800081D2800081D2800081D280008FC
:1000D0001D280008750D00081D2800081D280008AF
:1000E0001D2800081D2800081D2800080000000029
:1000F0000000000000000000000000000000000000
:0C01000000000000000000005FF808F1A3
:10010C0010B5054C237833B9044B13B10448AFF345
:10011C0000800123237010BD10000020000000009F
:10012C00F041000808B5034B1BB103490348AFF37A
:10013C00008008BD0000000014000020F041000801
:10014C00034613F8012B002AFBD1181A013870470B
:10015C0080F0004002E000BF81F0004142001FBF70
:10016C005FEA410392EA030F7FEA226C7FEA236C79
:10017C006AD04FEA1262D2EB1363C1BFD21841406E
:10018C0048404140B8BF5B42192B88BF704710F004
:10019C00004F40F4000020F07F4018BF404211F0A7
:1001AC00004F41F4000121F07F4118BF494292EA0F
:1001BC00030F3FD0A2F1010241FA03FC10EB0C003B
:1001CC00C3F1200301FA03F100F0004302D54942C8
:1001DC0060EB4000B0F5000F13D3B0F1807F06D375
:1001EC0040084FEA310102F10102FE2A51D2B1F16D
:1001FC00004F40EBC25008BF20F0010040EA030062
:10020C007047490040EB0000013A28BFB0F5000FE1
:10021C00EDD2B0FA80FCACF1080CB2EB0C0200FA97
:10022C000CF0AABF00EBC25052421843BCBFD040E6
:10023C001843704792F0000F81F4000106BF80F460
:10024C0000000132013BB5E74FEA41037FEA226C23
:10025C0018BF7FEA236C21D092EA030F04D092F0EE
:10026C00000F08BF0846704790EA010F1CBF002022
:10027C00704712F07F4F04D1400028BF40F000407F
:10028C00704712F100723CBF00F50000704700F09F
:10029C00004343F0FE4040F4000070477FEA2262C6
:1002AC0016BF08467FEA23630146420206BF5FEA97
:1002BC00412390EA010F40F4800070474FF0000397
:1002CC0004E000BF10F0004348BF40425FEA000C5E
:1002DC0008BF704743F0964301464FF000001CE006
:1002EC0050EA010208BF70474FF000030AE000BF5C
:1002FC0050EA010208BF704711F0004302D540429A
:10030C0061EB41015FEA010C02BF8446014600200B
:10031C0043F0B64308BFA3F18053A3F50003BCFA26
:10032C008CF2083AA3EBC25310DB01FA02FC6344D3
:10033C0000FA02FCC2F12002BCF1004F20FA02F2DA
:10034C0043EB020008BF20F00100704702F12002CD
:10035C0001FA02FCC2F1200250EA4C0021FA02F22E
:10036C0043EB020008BF20EADC7070474FF0FF0C33
:10037C001CEAD0521EBF1CEAD15392EA0C0F93EA2E
:10038C000C0F6FD01A4480EA010C400218BF5FEAD0
:10039C0041211ED04FF0006343EA501043EA511143
:1003AC00A0FB01310CF00040B1F5000F3EBF49003D
:1003BC0041EAD3715B0040EA010062F17F02FD2A41
:1003CC001DD8B3F1004F40EBC25008BF20F0010024
:1003DC00704790F0000F0CF0004C08BF49024CEA3B
:1003EC00502040EA51207F3AC2BFD2F1FF0340EACD
:1003FC00C250704740F400004FF00003013A5DDC3E
:10040C0012F1190FDCBF00F000407047C2F100027E
:10041C00410021FA02F1C2F1200200FA02FC5FEA6B
:10042C00310040F1000053EA4C0308BF20EADC70B5
:10043C00704792F0000F00F0004C02BF400010F427
:10044C00000F013AF9D040EA0C0093F0000F01F0D4
:10045C00004C02BF490011F4000F013BF9D041EAF6
:10046C000C018FE70CEAD15392EA0C0F18BF93EAF8
:10047C000C0F0AD030F0004C18BF31F0004CD8D122
:10048C0080EA010000F00040704790F0000F17BFA9
:10049C0090F0004F084691F0000F91F0004F14D0EF
:1004AC0092EA0C0F01D142020FD193EA0C0F03D147
:1004BC004B0218BF084608D180EA010000F000404A
:1004CC0040F0FE4040F40000704740F0FE4040F425
:1004DC00400070474FF0FF0C1CEAD0521EBF1CEAC4
:1004EC00D15392EA0C0F93EA0C0F69D0A2EB0302E2
:1004FC0080EA010C49024FEA402037D04FF080537C
:10050C0043EA111143EA10130CF000408B4238BF40
:10051C005B0042F17D024FF4000C8B4224BF5B1A4E
:10052C0040EA0C00B3EB510F24BFA3EB510340EA9C
:10053C005C00B3EB910F24BFA3EB910340EA9C004A
:10054C00B3EBD10F24BFA3EBD10340EADC001B01BA
:10055C0018BF5FEA1C1CE0D1FD2A3FF650AF8B425E
:10056C0040EBC25008BF20F0010070470CF0004C6B
:10057C004CEA50207F32C2BFD2F1FF0340EAC25096
:10058C00704740F400004FF00003013A37E792F057
:10059C00000F00F0004C02BF400010F4000F013AB5
:1005AC00F9D040EA0C0093F0000F01F0004C02BFB0
:1005BC00490011F4000F013BF9D041EA0C0195E719
:1005CC000CEAD15392EA0C0F08D142027FF47DAFB2
:1005DC0093EA0C0F7FF470AF084676E793EA0C0FA2
:1005EC0004D14B023FF44CAF08466EE730F0004CA0
:1005FC0018BF31F0004CCAD130F000427FF45CAF30
:10060C0031F000437FF43CAF5FE700BF4FF0FF3C9D
:10061C0006E000BF4FF0010C02E000BF4FF0010CF0
:10062C004DF804CD4FEA40024FEA41037FEA226CB9
:10063C0018BF7FEA236C11D001B052EA530C18BFDB
:10064C0090EA010F58BFB2EB030088BFC81738BF40
:10065C006FEAE17018BF40F0010070477FEA226C2E
:10066C0002D15FEA402C05D17FEA236CE4D15FEA2A
:10067C00412CE1D05DF8040B704700BF844608465E
:10068C006146FFE70FB5FFF7C9FF002848BF10F11F
:10069C00000F0FBD4DF808EDFFF7F4FF0CBF012064
:1006AC0000205DF808FB00BF4DF808EDFFF7EAFFEE
:1006BC0034BF012000205DF808FB00BF4DF808EDA9
:1006CC00FFF7E0FF94BF012000205DF808FB00BF9E
:1006DC004DF808EDFFF7D2FF94BF012000205DF824
:1006EC0008FB00BF4DF808EDFFF7C8FF34BF012031
:1006FC0000205DF808FB00BF4FEA4002B2F1FE4F4C
:10070C000FD34FF09E03B3EB12620DD94FEA0023C7
:10071C0043F0004310F0004F23FA02F018BF4042A0
:10072C0070474FF00000704712F1610F01D1420287
:10073C0005D110F0004008BF6FF0004070474FF03B
:10074C0000007047054B82B0DA690243DA61DB695D
:10075C0018400190019B02B0704700BF001002408E
:10076C00054B82B09A6902439A619B6918400190CB
:10077C00019B02B0704700BF00100240012910B568
:10078C0012D0102912D0B1F5807F0CBF04230623A0
:10079C00074A084CD15CE45C042318300A58A34087
:1007AC0022EA03030B5010BD0023F1E70223EFE70D
:1007BC00C8420008CF4200084FF08042044B198811
:1007CC0011625988C2F820149A88024B1A62704739
:1007DC0036100020002C0140034A138843F4887320
:1007EC0043F001031380704736100020044B1A8825
:1007FC0042F480521A805A8842F011025A80704793
:10080C0036100020044B5A8842F488525A809A8839
:10081C0042F001029A80704736100020044B0831D8
:10082C0053F821305843000C00F5407080B27047EB
:10083C00440000206FF02002064B1A605B68064AE9
:10084C0052E8003F43F0200342E800310029F7D181
:10085C00704700BF003801400C38014038B50446E1
:10086C00FFF76EFC002283B263B9DAB983B22020A1
:10087C00013B91B2994214DA655C0132302D10D1F2
:10088C006054F6E7013B9BB2E15C2E2908BF1A4687
:10089C00EAE7655C0133302D03D1605499B2914283
:1008AC00F7DB38BD2020013AF8E703099F2894BFF5
:1008BC00303337330B70002300F00F00092894BF3E
:1008CC003030373048708B70704713B502460C4689
:1008DC00C0B201A9FFF7E9FF2146100AFFF7E5FFB7
:1008EC009DF80430A3709DF80530E3709DF8063038
:1008FC00237102B010BD0A4613B5044601A9C0B25B
:10090C00FFF7D3FF9DF80430C4F3072093719DF8D3
:10091C000530D371FFF7C9FF9DF80430C4F30740CD
:10092C0013719DF805305371FFF7BFFF9DF804302C
:10093C00200E93709DF80530D370FFF7B6FF9DF82D
:10094C00043013709DF8053053700023137202B0FD
:10095C0010BD2DE9F04188460021069C217098F8C5
:10096C00001075294ED198F8011063290CD1057827
:10097C0098F80260682E20D163290ED12146BDE87B
:10098C00F0410078FFF791BF692901D10588EFE7A5
:10099C006C2940F086800568EAE7692905D1214673
:1009AC00BDE8F0410088FFF790BF6C294DD121467E
:1009BC00BDE8F0410068FFF79EBF2B2E45D1F5B185
:1009CC002670012110464FF0300E9EB202EB060C41
:1009DC00ACEB00073F043AD4002BC6F10006C8BFAD
:1009EC000026002BD4BFD718171C1E4436B2BBB23E
:1009FC000EB1013636B20A204FF02E0C3BE020210E
:100A0C002170DEE773294CD198F8011063290ED1BF
:100A1C0090F9005098F802102B2914D1002D0FDA00
:100A2C002D2121700121002DB8BF6D42CAE7692923
:100A3C0002D1B0F90050EDE76C2932D10568E9E735
:100A4C0008BF2021EDE70021EDE70021BAE70138CE
:100A5C0080B204F800E0BBE7013B9BB2D71AB74267
:100A6C001FBFB5FBF0F700FB17553035E55414BF2D
:100A7C003D4604F803C09942EED300237A21404648
:100A8C00A35402F0B5FD60B198F802302B2B17D1AE
:100A9C00601CFFF7E3FE2046FFF752FB0123834265
:100AAC0001D3BDE8F081E25C202A06D022782344F1
:100ABC0003F8012C20232370F3E701339BB2EEE7FC
:100ACC002046FFF7CBFE2046FFF73AFB012383427B
:100ADC00E7D2E25C202AE9D101339BB2F7E701208F
:100AEC00FFF73EBE0D4B984202D10420FFF738BEF3
:100AFC000B4B984205D003F58063984203D110202C
:100B0C00F4E70820F2E7074B984201D12020EDE7EB
:100B1C00054B984200D070474020E7E700080140A1
:100B2C00000C014000140140001801400B4B98428E
:100B3C0003D14FF40060FFF713BEB0F1804F04D027
:100B4C00074B984204D1022000E00120FFF7FABDC8
:100B5C00044B984201D10420F8E77047002C014067
:100B6C0000040040000800402DE9F0410C461546F9
:100B7C0086B007461022002102A81E469DF834803C
:100B8C0002F02EFD01940B2D07D8DFE805F00E0EB8
:100B9C00070A1414141616161B1DFEE708230293DD
:100BAC0003E00823029301230593032E0ED8DFE8FC
:100BBC0006F00E1E200E0123F1E7012302930423FD
:100BCC000493F2E70923EAE70923F7E7FEE7032397
:100BDC000393B8F1000F02D03846FFF783FF053DB1
:100BEC00042D0BD8DFE805F007110A0711000223CA
:100BFC00EEE70123ECE7C4F30F247C61384601A92E
:100C0C0002F03AFA06B0BDE8F081C4F30F243C615F
:100C1C00F4E7000070B50446164686B00D46142263
:100C2C00002101A802F0DCFC2046FFF77FFF042E18
:100C3C0004D8DFE806F02A2E04323B00FEE71C4BFA
:100C4C001C4A1B68B3FBF2F39BB20022013B20460B
:100C5C0001A9ADF80430CDE902250492059202F009
:100C6C0017FB236823F080032360A36823F48043DD
:100C7C0023F00703A360636823F070036360A36829
:100C8C0023F08003A36006B070BD094B0A4A1B68B1
:100C9C00D8E7074B094A1B68D4E7054B064A1B6883
:100CAC00B3FBF2F303EB83035B00CDE70123CCE74B
:100CBC000400002080A8120140420F0000127A00AC
:100CCC0000224FF0FF31FFF7A5BF00000C4BD3F80B
:100CDC00FC2022F08072C3F8FC20D3F8FC2042F0F8
:100CEC008072C3F8FC20A3F55D431A6822F0010260
:100CFC001A601A6842F001021A6000225A607047AA
:100D0C0000ED00E0064B074A1B680749B3FBF2F302
:100D1C00434310B54C684A68121B9A42FBD310BD72
:100D2C000400002040420F00001000E072B6064B99
:100D3C005B6A9BB262B6054A91889380994282BFE6
:100D4C001168013111607047000800403C00002020
:100D5C000021034B5A6A034B19609A80704700BFFD
:100D6C00000800403C0000200D4B10B518688106AF
:100D7C0011D5DA6892060ED50A4C0B495A682388AD
:100D8C0009880133C3F3080389B299421FBF07498D
:100D9C00D2B2CA542380030744BF014B5B6810BD19
:100DAC0000380140761400207414002074120020C6
:100DBC00034B1A685206FCD558600120704700BFDF
:100DCC000038014008B5411E11F8010F00B908BDEB
:100DDC00FFF7EEFFF8E70000024A13685B06FCD54C
:100DEC00704700BF003801400848094A0188138841
:100DFC0089B29BB29942F9D013880133C3F308032B
:100E0C0013801388034A9BB2D05C70477614002081
:100E1C007414002074120020002300B5002989B03E
:100E2C00CDE9063318BF4FF48053CDE902320C23C1
:100E3C0001900491034801A9059302F05BFB09B0F2
:100E4C005DF804FB0038014073B5082501262A4CD7
:100E5C002A49E36823F40053E360FFF740FE4FF4A4
:100E6C008040FFF77DFC03230A222548CDE900567C
:100E7C00FFF77AFE032323491A462148CDE9005691
:100E8C00FFF772FE002220481146FFF7C5FF102223
:100E9C0023691E4923F490432361636923F02A03D9
:100EAC0063611B4B83F8252320225A6051E8003FD5
:100EBC0023F0200341E80032002AF7D16FF0200321
:100ECC002360144B1A80144B1A80236923F400639B
:100EDC002361636923F008036361236923F480436E
:100EEC002361636923F022036361E36843F40053D5
:100EFC00E36002B070BD00BF003801400200020484
:100F0C00000801400400040480841E000C380140D9
:100F1C0000E100E0741400207614002008B5FFF7FF
:100F2C0093FFBDE80840FFF785BC0000094B1A6928
:100F3C0092070DD56FF002021A615A6B02F57A72A4
:100F4C005A630122044B1A80044A1368013313605C
:100F5C00704700BF00080040B4100020181100209A
:100F6C0030B50025184B194C1D80194B89B0204603
:100F7C001D60FFF7A5FE29461C2201A802F030FBDC
:100F8C0030230093636A6A4603F57A730121204685
:100F9C00039302F0B5F901212046FFF7EFFBF02295
:100FAC000C4B83F81E234FF080421A606FF0020343
:100FBC002361E36843F00203E360236843F0010319
:100FCC00236009B030BD00BFB41000200008004001
:100FDC001811002000E100E02DE9F04180464CF2B0
:100FEC0050300D4616461C4601F008FD68BBB8F1A2
:100FFC00010F06D0B8F1020F0CBF4FF002084FF0F2
:10100C0004080027124A136943F0010313613801E5
:10101C00C0F12002A0F1200304FA02F226FA00F03B
:10102C00104324FA03F3184380B225F817004CF24E
:10103C00503001F0E3FC18B90137FBB24345E6D35D
:10104C00034A136923F001031361BDE8F08100BF6B
:10105C00002002407FB501230022CDE9040301A941
:10106C0002A8CDE9022301F005FD00280CBF0420E5
:10107C00052007B05DF804FB0A4608B501460023BD
:10108C000220FFF7A9FF00280CBF0420052008BD93
:10109C0008B5FFF7DFFF031F5842584108BD08B5DC
:1010AC00FFF7EAFF031F5842584108BD2DE9F047EE
:1010BC00244B254D01280FBF3D263C26AA461D4634
:1010CC000F4614462149224A06BF89469A46914644
:1010DC0001F078FC31462846FFF7DAFF50B3002FB9
:1010EC0008BF4FF478744FF000080334A40805F1DE
:1010FC001006AAEB050A1FFA88F39C4207D84FF09A
:10110C0011312846FFF7CBFFA0B1042413E03FB9FF
:10111C005AF806104B1C06D108F101080436EAE710
:10112C0057F82810F6E74E450AD23046FFF7B7FFBE
:10113C000028F1D1002401F057FC2046BDE8F087CF
:10114C000324F8E700F0000800F40008FFF700089B
:10115C00FFF3000810B501F035FC3C210748FFF700
:10116C0097FF20B13D210648FFF792FF20B90024DC
:10117C0001F03AFC204610BD0424F9E700F0000809
:10118C0000F4000830B5002340F2EF34064D9AB25B
:10119C00914201D8042030BDA34203D05A5DC25401
:1011AC000133F4E70320F6E710F0000838B50446E5
:1011BC000D4672B60A4601460020FFF777FF62B66D
:1011CC00042806D172B601202A462146FFF76EFF8D
:1011DC0062B638BD38B5124B1C68D3F80054B4F164
:1011EC00113F09D1B5F1113F17D000220120114652
:1011FC00BDE83840FFF75ABFB5F1113F03D10022CB
:10120C0011461046F4E7FFF7A5FF042804D12C4043
:10121C0001340CBF0220012038BD0420FCE700BFC4
:10122C0000F00008154D08B5154C6B68236001F0F3
:10123C00F1FA144801F0D0FE134801F0CDFE13482A
:10124C0001F0CAFE124802F023F901F099FF4FF0A9
:10125C00E02300221A615A619A6102F1804202F580
:10126C000432536823F003035360012383F3108883
:10127C002B6883F3088823689847FEE700F0FF1F6C
:10128C003800002000080140000C01400010014013
:10129C00003801404FF08043D862C3F82C0403F5AA
:1012AC009633D8627047000010B588B004461C22F3
:1012BC00002101A802F094F960236A4601214FF045
:1012CC0080400093039402F01BF801214FF0804002
:1012DC00FFF754FA6A4610214FF0804002F010F8E4
:1012EC0010214FF08040FFF749FA6A464FF48071A5
:1012FC004FF0804002F004F84FF480714FF08040C2
:10130C00224CFFF73BFA6A464FF480514FF0804075
:10131C0001F0F6FF4FF480514FF08040FFF72EFAAA
:10132C006A460121204601F0EBFF20460121FFF720
:10133C0025FA6A461021204601F0E2FF20461021D2
:10134C00FFF71CFA6A464FF48071204601F0D8FF73
:10135C0020464FF48071FFF711FA6A464FF4805122
:10136C00204601F0CDFF20464FF4805104F5943413
:10137C00FFF704FA6A460121204601F0C1FF012162
:10138C002046FFF7FBF908B010BD00BF0004004079
:10139C00F0B58BB00546FFF7A2FB0420FFF7E0F990
:1013AC000820FFF7DDF9092203230024CDE90123EE
:1013BC00374B0E4637486946CDE90344009301F09C
:1013CC005BFE40F2033369463348009301F054FE50
:1013DC00142221460DEB020002F002F92023012019
:1013EC00CDE9063505A9FFF7ADF94FF0804001F0C6
:1013FC004FFF4FF080431A68284F22F080021A608A
:10140C009A68274C3A409A605A68022022F070027F
:10141C005A609A6805A922F080029A60FFF792F947
:10142C00204601F035FF23684FF4006023F0800361
:10143C002360A36805A93B40A360636823F0700395
:10144C006360A36823F08003A36004F59434FFF772
:10145C0087F9204601F01CFF2368284623F08003FF
:10146C002360A3683B40A360636823F07003636050
:10147C00A36823F08003A360FFF70CFF3046FFF74F
:10148C0013FF636C43F4004363640BB0F0BD00BF07
:10149C00CFCF010400080140000C0140F8BFFFFF52
:1014AC00000400400022024B9A805A801A80704738
:1014BC003610002008B5FFF76BFF4FF08042136821
:1014CC0043F001031360D2F8003443F00103C2F877
:1014DC00003402F59632136843F00103136008BD23
:1014EC00754B2DE9F04FB3F806C0B3F8EAEFB3F83B
:1014FC0000809E895F881D89DC89988859891A8AA1
:10150C00B3F8EC3F002B63D14FF080496B4BDFF805
:10151C00B0A1BEF1050F50D8DFE80EF04F03132039
:10152C002F3EC9F84080C3F834C09E63C9F83470AC
:10153C00C9F83850C9F83C40D8631964604B5A63F9
:10154C0039E0C3F83C80C3F840C0CAF834604FF0AF
:10155C0080467763B563F46330641AE0C3F83C806B
:10156C00C3F840C0CAF834604FF0804637645D63FE
:10157C009C637063B163F2631DE0C9F83480C9F8F1
:10158C0038C0C9F83C60DF631D64CAF83440C9F840
:10159C00400059639A630EE0C9F84080C3F834C028
:1015AC009E63DF631D64CAF83440C9F83400C9F87F
:1015BC003810C9F83C20BDE8F08FC9F83480C9F860
:1015CC0038C0C9F83C60C9F840705D639C63B3E7F0
:1015DC0000EB4003C0EBC30001EB4103C1EBC301C3
:1015EC0002EB4203C2EBC30207EB4703C7EBC30793
:1015FC000CEB4C0905EB4503C5EBC305CCEBC90C57
:10160C0004EB4403C4EBC3041FFA8CF908EB480346
:10161C0006EB460CC8EBC308C6EBCC061FFA86FCDF
:10162C00264B4FF08046DFF898A080B289B292B278
:10163C00BFB2ADB2A4B21FFA88F8BEF1050F32D812
:10164C00DFE80EF031030D141B26C6F84080C3F8FA
:10165C003490C3F838C07763B563F4636CE7C3F8B0
:10166C003C80C3F84090CAF834C070E7C3F83C80A3
:10167C00C3F84090CAF834C076E7C6F83480C6F890
:10168C003890C6F83CC0DF631D64CAF8344063E789
:10169C00C6F84080C3F83490C3F838C0DF631D64CB
:1016AC00CAF8344065E7C6F83480C6F83890C6F8F6
:1016BC003CC0376489E700BF4400002000040040B0
:1016CC00002C014038B54FF08044124B226A12496D
:1016DC001A800A6A5A80114A156A9D800023236277
:1016EC000B6213620E49024660B148F60A20FFF7FE
:1016FC00D1FD0123A1F8EC3FFFF7F2FEBDE8384025
:10170C00FFF75AB840F20A60FFF7C4FDA1F8EC2FBE
:10171C00F2E700BF3610002000040040002C01400E
:10172C0044000020F8B500240B4D0C4F0C4E204605
:10173C00FEF7C8FD3946FEF719FE01F085FF31466C
:10174C00FEF714FEFEF7D8FF0134B4F57C7F45F8A4
:10175C00040BECD1F8BD00BF64000020DE40CC3B94
:10176C0000803848FA2828BFFA20FA2928BFFA2125
:10177C00FA2A28BFFA22024B188359839A8370479E
:10178C00440000202DE9F04106463F4CB0F57C7F2B
:10179C0028BFA0F57C76B4F8188028BFB6B20D46E9
:1017AC00608231464046FFF739F806F5A877BFB29C
:1017BC00B7F57C7F24BFA6F52876B7B239462080D2
:1017CC004046FFF72BF807F5A87189B2B1F57C7F7D
:1017DC0024BFA7F52877B9B2E0804046FFF71EF882
:1017EC00B5F57C7FA582678B24BFA5F57C75ADB262
:1017FC002946A0813846FFF711F805F5A876B6B250
:10180C00B6F57C7F24BFA5F52875AEB23146608055
:10181C003846FFF703F806F5A87189B2B1F57C7F5D
:10182C0024BFA6F52876B1B220813846FEF7F6FF24
:10183C00B2F57C7FE282A68B24BFA2F57C7292B2B9
:10184C001146E0813046FEF7E9FF02F5A875ADB20E
:10185C00B5F57C7F24BFA2F5287295B22946A080ED
:10186C003046FEF7DBFF05F5A87189B2B1F57C7F38
:10187C0028BFA5F52875608128BFA9B23046FEF7B0
:10188C00CDFF2082BDE8F08144000020554908B509
:10189C00FFF708FEB1F8EE3F23F00702DB06A1F8D4
:1018AC00EE2F4AD5B1F8EA2FB1F8E43F052A00F241
:1018BC008780DFE802F0850320466374022B07D88B
:1018CC00FEF794FFB1F8EE3F43F00103A1F8EE3FB1
:1018DC00B1F8E63F022B07D8FEF77EFFB1F8EE3FDA
:1018EC0043F00203A1F8EE3FB1F8E83F022B24D8F5
:1018FC00FEF788FF1BE0022B07D8FEF783FFB1F839
:10190C00EE3F43F00103A1F8EE3FB1F8E63F022BA6
:10191C0007D8FEF761FFB1F8EE3F43F00203A1F8E0
:10192C00EE3FB1F8E83F022B07D8FEF75FFFB1F8A6
:10193C00EE3F43F00403A1F8EE3FBDE80840FEF78C
:10194C003BBF022B07D8FEF75DFFB1F8EE3F43F02B
:10195C000103A1F8EE3FB1F8E63F022B07D8FEF7E2
:10196C0045FFB1F8EE3F43F00203A1F8EE3FB1F8AA
:10197C00E83F022BE1D8FEF72FFFD8E7022B07D860
:10198C00FEF72AFFB1F8EE3F43F00103A1F8EE3F5A
:10199C00B1F8E63F022BC4D8FEF734FFBBE7022BAD
:1019AC0007D8FEF723FFB1F8EE3F43F00103A1F88F
:1019BC00EE3FB1F8E63F022BD9D8FEF723FFD0E774
:1019CC00022B07D8FEF708FFB1F8EE3F43F00103F6
:1019DC00A1F8EE3FB1F8E63F022B85D8FEF706FFE3
:1019EC007CE700BF44000020044B1A88012A03D175
:1019FC0000221A80FFF74ABF704700BF3410002046
:101A0C00064AB2F8EE3F20B143F01003A2F8EE3FC5
:101A1C00704723F010039BB2F8E700BF440000208E
:101A2C00012828BF012008B5064BB3F8EE3FC3F3DD
:101A3C000013984204D0FFF7E3FF0122024B1A80F7
:101A4C0008BD00BF4400002034100020104B30B5FE
:101A5C00B3F8E42F05884488AA4282880BD1B3F8E6
:101A6C00E60FA04207D1B3F8E80F904203D1B3F8C8
:101A7C00EA0F88420AD0A3F8E82F0122A3F8E45F0A
:101A8C00A3F8E64FA3F8EA1F024B1A8030BD00BF43
:101A9C004400002034100020064BD3F8E42FB2F1A0
:101AAC00011F03D1B3F8E83F012B01D0FFF70ABEA9
:101ABC00704700BF44000020012828BF0120044BC0
:101ACC00B3F8EC3F834201D0FFF7E6BF704700BF8D
:101ADC004400002008B5FFF7E5FC4FF003104FF071
:101AEC0003220E4B4FF44071C3E90022C3E90222DA
:101AFC00C3F8E40F00220320C3F81220DA829A61A3
:101B0C009A83C3F8E80FC3F8EC2F19820122BDE8C1
:101B1C00084040F20A60FFF7CDBC00BF4400002033
:101B2C0007B5082300220749CDE9003206480323F4
:101B3C000A22FFF719F8012003B05DF804EBFFF758
:101B4C00E1B800BF020002040008014007B5012003
:101B5C00FFF742F9FFF7D6F80023CDE90033032352
:101B6C0003491A460348FEF7FFFF03B05DF804FB78
:101B7C000200020400080140FF21094A0023918061
:101B8C000849136091603F21074A9180074913600F
:101B9C0091600121064A918013805380704700BFE9
:101BAC001C1200201C11002068120020281200209A
:101BBC005A100020002208B5064B1A61C3E9002216
:101BCC00C3E902229A82FFF7A9F9BDE80840FFF7A2
:101BDC00D3BF00BF3C10002007B51049104BCA689A
:101BEC00104822F4E0621204120C1343CB60012261
:101BFC00002341F21001CDE900320422FEF7B4FFBC
:101C0C00FFF764F8FFF7D6FFFFF7A0FFFFF7A0F888
:101C1C0003B05DF804EBFFF7A3B900BF00ED00E0E3
:101C2C000003FA0500080140064A138843B1064B2D
:101C3C0051885B6A5B1A9BB2642B84BF00231380B0
:101C4C00704700BF10110020000800400022034B19
:101C5C001A805A809A80DA80704700BF10110020D9
:101C6C0070B52F4B86B09B78013B032B55D8DFE822
:101C7C0003F00211314AFFF753FF2A4B1C78204620
:101C8C00FFF796F8284B19780846FFF791F884EA85
:101C9C00010018E010240025FFF742FF102200215C
:101CAC0001A801F09DFC214901A801F0AEFC01A99D
:101CBC0011F8016B013C3046A4B2FFF779F875407E
:101CCC00002CF5D12846FFF773F8FFF73FFF0120F2
:101CDC0006B070BD10240025FFF722FF1022002152
:101CEC0001A801F07DFC124901A801F08EFC01A9AC
:101CFC0011F8016B013C3046A4B2FFF759F875405E
:101D0C00002CF5D1DEE7FFF70BFF0A490C782046D3
:101D1C00FFF74EF80988090AB6E70020D8E700BF9C
:101D2C00B6100020BE1000205410002008420008FD
:101D3C0012420008AC1000204FF0FF32024B1A6028
:101D4C005A601A81704700BF2C0000200A2108B588
:101D5C000248FFF72BFA80B208BD00BF2C00002010
:101D6C000A2108B50248FFF70DFA80B208BD00BF82
:101D7C002C00002008B5FFF7DFFFFFF72BFA042833
:101D8C000CD0FFF7D9FFFFF725FA042803D1FFF792
:101D9C00E7FF042806D0FFF7CFFF03E0FFF7E0FFD3
:101DAC000428EED1074803882E2B09D02E23064990
:101DBC0020F8023B01F029FCBDE80840FFF7C6BF44
:101DCC0008BD00BF2C0000201E42000807B5FFF71D
:101DDC00D1FF04220F4B1A800F4B5A6A0F4B1A80FB
:101DEC00FFF778FEFFF79EFC00200D4B0146986133
:101DFC009883FFF705FE03236846ADF80430ADF871
:101E0C000230ADF80030FFF721FEFFF73FFD03B0C5
:101E1C005DF804FBBC1000200008004000110020FD
:101E2C004400002008B5094A094B12885B6A9B1ACA
:101E3C0042F210729BB2934206D90020FFF7F0FDDC
:101E4C00BDE80840FFF7D0BD08BD00BF0011002061
:101E5C0000080040054BB3F8EE3F13F0100F0CBF19
:101E6C0096224FF4FA72024B1A80704744000020FD
:101E7C0000000020024B1B880BB9FFF7F1BE704726
:101E8C00581000203A4B2DE9F341188880B9394B92
:101E9C00394F18803B78DFF8E48013F020040AD027
:101EAC00FFF7BEFDFFF7A0FD354B5B6AA8F80030CD
:101EBC0002B0BDE8F08103F04000FFF7FDFD38787B
:101ECC00214600F01000FFF7ABFD3B7813F0010F3B
:101EDC000CBF0322002213F0020FADF800200CBF40
:101EEC000322002213F0040F14BF20460320ADF888
:101EFC0004006846ADF80220FFF7A8FDFC78BD7918
:101F0C00E40104F46073BC78ED0104F07F041C431D
:101F1C007E7A05F460737D79F60105F07F051D432B
:101F2C00FA7906F4607339793E7A78785200490070
:101F3C00400006F07F061E43FFF714FCB4F57C7FCF
:101F4C00A4BFA4F57C7424B2B5F57C7FA4BFA5F521
:101F5C007C752DB2B6F57C7FA4BFA6F57C7636B227
:101F6C00A0B2A9B2B2B2FFF70DFCFFF7B9FA99E72C
:101F7C005810002034100020C01000200011002048
:101F8C000008004030B51C468BB005AD1346ADF8CB
:101F9C000E000A460DF10E0005490095FEF7D9FC1E
:101FAC002846FEF70FFF2046FEF70CFF0BB030BDA6
:101FBC002242000830B51C468BB005AD1346039089
:101FCC000A4603A805490095FEF7C3FC2846FEF710
:101FDC00F9FE2046FEF7F6FE0BB030BD2742000896
:101FEC000022024B1A609A80704700BF60100020DC
:101FFC0008B5FEF7F9FE064B99884A1C92B2382AAE
:10200C009A8088BF38221944887188BF9A8008BD8D
:10201C00601000200A2801D03B2807D10021044B76
:10202C0001209A8899801A4491717047002070475A
:10203C00601000200023034A03489380034A136076
:10204C00FEF7C0BE041100202C42000860100020D6
:10205C0070B50546FEF774F8094E02462946B01DC8
:10206C0001F0DBFA044640B92846FEF7ABFE054802
:10207C00FEF7A8FE0120B47170BD0020FCE700BF84
:10208C00601000205F42000810B50748FEF79AFE6A
:10209C000648FEF797FEBDE81040054800220E21C9
:1020AC00044BC068FFF786BF2F4200083F42000870
:1020BC003C1000205F42000810B50848FEF782FE75
:1020CC000748FEF77FFEBDE81040064800220521B8
:1020DC00054BB0F90000FFF755BF00BF45420008A3
:1020EC00624200082C0000205F4200082DE9F74FE7
:1020FC00DFF844910024FFF713FD5048FEF762FE11
:10210C004846FEF75FFE4E48FEF75CFE4846FEF77B
:10211C0059FEFFF7DFFC0120FFF782FC21466846E1
:10212C00ADF80440ADF80240ADF80040FFF78EFC6E
:10213C00FFF7ACFBFFF754FFFFF77CFF4148FEF7BE
:10214C00E1FD4FF6FF73404F26463B8010233F4D79
:10215C00DFF8FC806B61B8F800309BB2002BFAD032
:10216C000023A8F800303B4B0136DFF8ECB01E60C2
:10217C003A4ABBF802A0BAF1000F49D1384B198882
:10218C00138889B29BB2994242D0FFF731FFFFF717
:10219C0041FF324A0028ECD03248FFF759FF50B1CA
:1021AC000122314BA3F800A0304B1A8003B0BDE8DC
:1021BC00F08F3124CFE72E48FFF74AFF002899D142
:1021CC002C48FFF745FF18B1FFF75EFFFFF732FF12
:1021DC002948FFF73DFF18B1FFF7C2FDFFF72AFFB3
:1021EC002648FFF735FF18B1FFF7B0FDFFF722FFC8
:1021FC002348FFF72DFF18B1FFF75EFFFFF71AFF1B
:10220C002048FFF725FF0028B2D0FFF713FFAFE7F8
:10221C00002CCED0013CA4B2002C9CD1B7F90030DC
:10222C00002B98DAEB681A04DB4302F4801203F0FB
:10223C00100313432B618EE75F4200086B420008CA
:10224C008942000840420F000000002000080140B5
:10225C00B410002004110020601000207414002021
:10226C0076140020904200085810002056100020D0
:10227C00934200089B420008A7420008B0420008A5
:10228C00B6420008BF42000810F0800F70B5724CC7
:10229C0008D00021D02821800CD1704B198001224C
:1022AC006F4B0DE02388052B0BD8DFE803F00A54A5
:1022BC007786A0BC902805D1684B19800422684B06
:1022CC001A8070BD00F00F02032A00F0700308D1D1
:1022DC00FF26644D402B2B706A70AE7016D0502BBD
:1022EC00DBD000F00E00042801D0062A26D1FF20F6
:1022FC005C49302B0B704A70887016D00FD8D3B154
:10230C00102BDED10022554B1A80D7E701232380F6
:10231C000B23E180A380544B5B6A6380D1E7502B85
:10232C000CD100224D4B1A80B9E700224B4B1A807E
:10233C0005224B4BC4E702232380ECE7702BC0D162
:10234C00484B5A70494B1B889342BAD104232380C3
:10235C000023E380DFE7E388454AD054A0880133AB
:10236C009BB28342E380D6D313460022114695B22A
:10237C00A8420ED800220320384B1A80384A10800D
:10238C0029B101221A803B4AD3680133D360002360
:10239C00D2E713F8015B01326940E8E7314B9870E2
:1023AC00013803284FF0000305D802212B4A138073
:1023BC002B4A1180C0E7238083E7E3882C4AD05452
:1023CC00A08801339BB28342E380A4D3134600223E
:1023DC00114695B2A84205D80022204B02201A8043
:1023EC001F4ACCE713F8015B01326940F1E7E3883F
:1023FC00042B08D8DFE803F0030D0F11130051284C
:10240C0003D1052222800133A3E74628FBD000220A
:10241C00F8E74C28FAE74128F8E75328F6E748286C
:10242C00F5D1FEF7FFFEE388042B08D8DFE803F0B4
:10243C0003090B0D0F00512801D000232380E388E2
:10244C00E1E74D28F8E74F28F6E74428F4E745285C
:10245C00F3D1FFF74BFEF0E71011002058100020CD
:10246C0056100020B610002000080040BC100020C0
:10247C00C01000203C1000202DE98848DFF818A27D
:10248C00DFF81882FFF7A8FBB8F90030844C002B5A
:10249C00BCBF102363610023824A834D1380834F9A
:1024AC00834ADFF81092844E3B80A9F800303380C9
:1024BC006B802B80AB801380FFF788FCFFF7C6FB8B
:1024CC004FF400433B804FF6FF73A8F80030102305
:1024DC0063612361DFF8E4B1794B1A88BBF80030F3
:1024EC0092B29BB29A4203D0FEF77EFCFFF7CCFE71
:1024FC00FFF79AFB33889BB2013B062B16D8DFE81B
:10250C0003F004070B090E103B0000233380B7E7E0
:10251C00FFF7B0FC002308E0FFF7B4FCFAE7FFF785
:10252C00FFFA0023A9F8003007233380FFF77AFC69
:10253C00BAF800309BB2002BCED00023AAF80030A2
:10254C00FEF7F4FBB8F9000000281EDD5D4AB0F57B
:10255C00FA7F138803F101039BB213803BD15A49D4
:10256C00098801390B2936D8DFE801F0091535093E
:10257C001521353535353521FFF7E8FACAE7B3F5BE
:10258C00FA7F0BD0B3F57A7F20D23A88012A2FD16B
:10259C00FFF760FC9EE7B3F5FA7F02D110232361AD
:1025AC00F3E7B3F52F7F13D0B3F5487FE9E7B3F525
:1025BC00FA7FF3D0B3F5167F0AD0B3F52F7FEDD0A9
:1025CC00B3F5487F04D0B3F5617FDAE700231380BD
:1025DC0010236361D9E78342D7DB00231380E368C0
:1025EC001A04DB4302F4801203F010031343D6E702
:1025FC00022A3FF46FAF48F2030022F4FE418142FD
:10260C008BB223D8190409D4012BC1D00FD8002BBD
:10261C007FF460AF48F214033B805BE7A3F5004303
:10262C00013B022B16D8DFE803F019212800032BFD
:10263C0023D0142B7FF44EAF0023AB804FF4967352
:10264C002B8001236B8048F20303E5E748F2140268
:10265C009342EFE73223A8F80030DBE74FF4FA732C
:10266C00C2F30E023A80A8F8003091E76423C2F35B
:10267C000E023A80A8F800302CE7AB882A88013388
:10268C009BB29A42AB80BFF425AF6B886FEA434391
:10269C006FEA5343C0E700BFB410002000000020D5
:1026AC0000080140BE100020AE1000205410002085
:1026BC00AC1000205810002056100020741400207C
:1026CC0076140020BA100020BC10002010B590B079
:1026DC001422002108A800F083FF1422002101A875
:1026EC0000F07EFF02244FF480330122CDE90D432C
:1026FC00CDE906234FF4E01306A80A920F9300F0DD
:10270C000DFA08B172B6FEE70F23CDE901344FF490
:10271C0080630390CDE90430214601A800F0C0FB92
:10272C0008B172B6FEE710B010BD000007B500F09E
:10273C00A5F8FFF7CBFF0C4B9A6942F020029A6187
:10274C009A6902F020020192019A9A6942F00402FD
:10275C009A619B6903F004030093009B03B05DF83E
:10276C0004EBFFF789BE00BF001002400E4B82B095
:10277C009A6942F001029A619A6902F00102009290
:10278C00009ADA6942F08052DA61DB69074A03F099
:10279C0080530193019B536823F0E06343F0007373
:1027AC00536002B0704700BF0010024000000140AF
:1027BC00FEE7FEE7FEE7FEE7FEE77047704770476F
:1027CC0000F06EB8704700000C480D490D4A00230C
:1027DC0002E0D458C4500433C4188C42F9D30A4ACA
:1027EC000A4C002301E013600432A242FBD3FFF732
:1027FC00E9FF00F0D1FEFFF799FF704700000020C1
:10280C0010000020D846000810000020A014002062
:10281C00FEE7704710B54FF0FF320024044BDA602E
:10282C001C61DA60DC60FFF7F4FF204610BD00BFCE
:10283C000010024038B50E4B054618784FF47A73E9
:10284C00B3FBF0F30B4A1068B0FBF3F000F07EF82A
:10285C00044658B90F2D09D8024629464FF0FF30CF
:10286C0000F042F82046044B1D6038BD0120FCE707
:10287C0008000020040000200C000020074A08B5C6
:10288C001368032043F01003136000F01BF80F20B3
:10289C00FFF7D0FFFFF76AFF002008BD00200240C1
:1028AC00034A044B11681B780B441360704700BF3C
:1028BC007814002008000020014B1868704700BFF6
:1028CC007814002007490302CA6803F4E06322F479
:1028DC00E0621204120C134343F0BF6343F4003361
:1028EC00CB60704700ED00E0164B30B5DC68C4F3EC
:1028FC000224C4F10703251D042B28BF0423062D35
:10290C004FF0FF3598BF002405FA03F388BF033C52
:10291C0021EA0303A34005FA04F422EA0402002886
:10292C0043EA0203ACBF00F16040074A4FEA0313CD
:10293C00DBB2ABBF00F5614000F00F0080F8003354
:10294C00135430BD00ED00E014ED00E00138B0F19F
:10295C00807F0BD24FF0E023F021054A586182F8BA
:10296C0023100020072298611A61704701207047DC
:10297C0000ED00E0114AD36813F0100305D01049A4
:10298C00CB6943F00203CB611023D268500706D504
:10299C000B4943F00403CA6942F00102CA61074AB9
:1029AC00D169C90708D50648C16941F00401C16164
:1029BC00D16921F00101D161D36070470020024040
:1029CC0080140020064B186910F0800007D0054ACF
:1029DC005A6002F188325A601869C0F3C01070470F
:1029EC000020024023016745034A0020136943F08D
:1029FC0080031361704700BF0020024070B505468C
:102A0C00FFF75AFF0646114CE368D80712D4E36867
:102A1C00990644BF2023E360E368DA0606D4E36931
:102A2C00DB0703D4E06810F0040007D0FFF7A2FF27
:102A3C00012003E06B1CE7D00DB9032070BDFFF73C
:102A4C003BFF801BA842DFD9F7E700BF0020024004
:102A5C000022064BDA61064B1A6942F002021A6137
:102A6C0058611A6942F040021A61704780140020C4
:102A7C00002002402DE9F041264F05463B7E88465A
:102A8C00012B44D001243C7603684CF25030022BCD
:102A9C001AD1FFF7B3FF20B1012000233B76BDE82C
:102AAC00F0811D4CF86123694CF2503043F0040363
:102ABC002361236943F040032361FFF79FFF2369E0
:102ACC0023F004032361E8E7FFF798FF0028E3D124
:102ADC004FF0FF33C8F800302046AE680E4CD5E9F5
:102AEC00023203EB8223B342D7D93046FFF7B0FF53
:102AFC004CF25030FFF782FF236923F0020323616D
:102B0C0010B1C8F80060C8E706F58066E7E7022058
:102B1C00C5E700BF80140020002002402DE9F341DE
:102B2C00054638B30368DB0710D42B689F075ED4C7
:102B3C002B68190700F195802B685A0700F1C180AA
:102B4C00E869002840F02C81002029E0904C636853
:102B5C0003F00C03042B07D0636803F00C03082B61
:102B6C000AD16368DE0307D523689C03DDD56B6847
:102B7C00002BDAD1012013E06B68B3F5803F12D142
:102B8C00236843F480332360FFF796FE06462368E0
:102B9C009803CAD4FFF790FE801B6428F7D9032052
:102BAC0002B0BDE8F0819BB9236823F48033236025
:102BBC00236823F480232360FFF77EFE06462368F8
:102BCC009903B2D5FFF778FE801B6428F7D9E6E7A6
:102BDC00B3F5A02F236803D143F480232360CFE700
:102BEC0023F480332360236823F48023CBE7684CE1
:102BFC00636813F00C0F07D0636803F00C03082B09
:102C0C0010D16368DA030DD423689B0702D52B69B6
:102C1C00012BAFD123686A6923F0F80343EAC2039E
:102C2C00236085E72A695B4B6AB101221A60FFF7C2
:102C3C0043FE064623689F07ECD4FFF73DFE801B3E
:102C4C000228F7D9ABE71A60FFF736FE0646236871
:102C5C0098077FF56DAFFFF72FFE801B0228F6D982
:102C6C009DE7AA694A4E4B4BE2B10122C3F880247E
:102C7C00FFF722FE0446736A9B070DD54FF4FA52F8
:102C8C00454B1B68B3FBF2F3019300BF019B5A1E2B
:102C9C000192002BF9D14FE7FFF70EFE001B022823
:102CAC00E9D97CE7C3F88024FFF706FE0446736A73
:102CBC009F077FF541AFFFF7FFFD001B0228F6D9F8
:102CCC006DE7334CE369D80024D40127E36943F062
:102CDC008053E361E36903F080530093009B2F4E14
:102CEC003368D90518D5EB68012B26D1236A43F03C
:102CFC0001032362FFF7E0FD41F288380646236AA0
:102D0C009B073FD5002F3FF41BAFE36923F08053A3
:102D1C00E36115E70027E2E7336843F4807333601F
:102D2C00FFF7CAFD80463368DA05DCD4FFF7C4FD33
:102D3C00A0EB08006428F6D931E7ABB9236A41F25D
:102D4C00883823F001032362236A23F004032362EF
:102D5C00FFF7B2FD0646236A9807D3D5FFF7ACFD03
:102D6C00801B4045F7D91AE7052B236A03D143F0A2
:102D7C0004032362BAE723F001032362236A23F0DE
:102D8C000403B6E7FFF798FD801B4045B7D906E76B
:102D9C00001002400000424204000020007000407D
:102DAC002A4C636803F00C03082B3ED00022284BFE
:102DBC0002281A662CD1FFF77FFD0646236899017D
:102DCC0020D42B6AB3F5803F05D16268A96822F440
:102DDC0000320A436260696A62680B4322F474121F
:102DEC001343012263601A4B1A66FFF765FD054613
:102DFC0023689A013FF5A8AEFFF75EFD401B022841
:102E0C00F6D9CCE6FFF758FD801B0228D6D9C6E6CA
:102E1C00FFF752FD054623689B017FF595AEFFF742
:102E2C004BFD401B0228F6D9B9E601283FF4B8AE99
:102E3C0063682A6A03F4803191427FF49BAE6A6A1C
:102E4C0003F4701393423FF47FAE93E600100240FC
:102E5C00000042420D4A536803F00C01082912D1BC
:102E6C000B48C3F38341DB03405C09D55368094A23
:102E7C00C3F340435043084AD35CB0FBF3F07047B4
:102E8C00064B584370470348704700BF0010024080
:102E9C00EE42000800127A00FE42000800093D00D4
:102EAC002DE9F0410D46044610B90120BDE8F08132
:102EBC00444A136803F007038B4228D321688E071A
:102ECC0030D4CA0743D43F4A136803F00703AB421C
:102EDC0065D822683C4D12F0040F6CD1130706D54F
:102EEC006B68226923F4605343EAC2036B60FFF7FB
:102EFC00B1FF6B68354AC3F30313D35CD840344B32
:102F0C001860344B1868FFF795FC0020CEE7136867
:102F1C0023F007030B431360136803F007038B4282
:102F2C00C3D1CBE7284B11F0040F1EBF5A6842F4F3
:102F3C00E0625A60080742BF5A6842F460525A6015
:102F4C005A68A06822F0F00202435A60B9E762683E
:102F5C001D4E012A33681AD113F4003FA5D07368B3
:102F6C0041F2883823F0030313437360FFF7A4FC8A
:102F7C0007467368626803F00C03B3EB820FA2D0B0
:102F8C00FFF79AFCC01B4045F3D903208EE7022AB9
:102F9C0002D113F0007FE1E713F0020FDEE71368B4
:102FAC0023F007032B431360136803F00703AB42B2
:102FBC007FF47BAF8DE76B68E16823F4E0630B4330
:102FCC006B608BE70020024000100240D6420008E4
:102FDC00040000200C000020224B98420BD103F57A
:102FEC008433DA6842F00402DA60DA6822F0040210
:102FFC000020DA6070471C4B984209D103F58233EC
:10300C00DA6842F00802DA60DA6822F00802EFE7C8
:10301C00164B984209D103F58033DA6842F010025E
:10302C00DA60DA6822F01002E2E7114B984209D11B
:10303C0003F57C43DA6842F02002DA60DA6822F0A9
:10304C002002D5E70B4B984209D103F57843DA6897
:10305C0042F04002DA60DA6822F04002C8E7012050
:10306C00704700BF00080140000C014000100140F7
:10307C0000140140001801402DE9F04F0D68044682
:10308C00C5F30F2595FAA5F20327B2FA82F24FF099
:10309C00040C4FF0011E40F2011835FA02F001D178
:1030AC00BDE8F08F012393402B4266D0072A88BFDE
:1030BC00A2F10803D1F804A08ABF0EFA03F308FAB0
:1030CC0002F343F08063BAF1080F0CD1E668180ADA
:1030DC0090FAA0F9B9FA89F926EA0006086900FA0B
:1030EC0009F00643E6604FEA136993FAA3F6B6FAC1
:1030FC0086F693FAA3FB0F20BBFA8BFBB60000FA03
:10310C0006F654F809004FEA8B0B20EA06060AFA79
:10311C000BFB46EA0B0644F80960486820F00800EF
:10312C0001282AD193FAA3F0B0FA80F093FAA3FB0A
:10313C00BBFA8BFB800007FA00F026EA00068868D1
:10314C004FEA8B0B00FA0BFB46EA0B0644F80960BE
:10315C0093FAA3FABAFA8AFA93FAA3F3B3FA83F3BB
:10316C004FEA8A0A0CFA0AFA26EA0A0ACE689B0087
:10317C009E404AEA060644F8096001328DE70000D9
:10318C00144B1A6842F001021A601A689207FCD5B7
:10319C005A6822F003025A605A6812F00C0FFBD1E5
:1031AC001A6822F080721A60186810F00070FBD157
:1031BC0058601A6822F450221A601A6822F0F80239
:1031CC0042F080021A6098605A6A42F080725A6229
:1031DC00704700BF00100240034B044A5B68C3F306
:1031EC000313D35CD840704700100240D64200084D
:1031FC00034B044A5B68C3F30223D35CD84070478B
:10320C0000100240E6420008034B044A5B68C3F31B
:10321C00C223D35CD840704700100240E64200083D
:10322C00094A5368DB0341BF5068084BC0F3404068
:10323C00013048BFB3FBF0F0536858BF0448C3F3E8
:10324C0083430233584370470010024000127A0047
:10325C0000093D00044B5B6803F00C03082B01D103
:10326C00FFF7DEBF014870470010024000127A00E1
:10327C0008B50146FFF7EEFF0860FFF7ADFF4860A9
:10328C00FFF7B6FF88604868FFF7BEFFC86008BD4F
:10329C001A4A036890420AD0B0F1804F07D0A2F5C9
:1032AC009432904203D002F58062904215D14A6864
:1032BC0023F070031343114A90420AD0B0F1804FAF
:1032CC0007D0A2F59432904203D002F5806290426E
:1032DC0003D1CA6823F44073134303608B68C36241
:1032EC000B888362054B984204BF0B6903634369E7
:1032FC0043F0010343610020704700BF002C0140E4
:10330C00B1F5807F30B500F0908005D801292AD026
:10331C00102958D0012030BDB1F5805FFAD1036A75
:10332C00156823F480530362036A4468C16923F46B
:10333C00005321F4E64141EA0521156943EA0533BE
:10334C00556823F4805343EA0533504DA84204BF1B
:10335C00956924F48044D26808BF44EA851444601B
:10336C00C16102642CE0036A156823F00103036257
:10337C00036A4168846923F0020324F073042C432C
:10338C0015692B43556823F001032B433F4DA8428D
:10339C0012D1556923F0080343EA8503956823F09D
:1033AC00040343EA8503956921F480712943D569A7
:1033BC0021F4007141EA4501D268416084614263A5
:1033CC0003620020A7E7036A156823F01003036269
:1033DC00036A4168846923F0200324F4E64444EA38
:1033EC000524156943EA0513556823F0100343EAD5
:1033FC000513264DA84213D1556923F0800343EAE7
:10340C008513956823F0400343EA8513956921F4ED
:10341C00806141EA8501D56921F4006141EAC50169
:10342C00D268416084618263CAE7036A156823F439
:10343C0080730362036A4168C46923F4007324F047
:10344C0073042C43156943EA0523556823F48073F0
:10345C0043EA05230D4DA84213D1556923F40063AB
:10346C0043EA8523956823F4806343EA85239569B1
:10347C0021F4805141EA0511D56921F4005141EA4A
:10348C004511D2684160C461C26399E7002C0140C8
:10349C00154B98420BD103F55843DA6842F480423D
:1034AC00DA60DA6822F48042DA60002070470F4B51
:1034BC0098420AD103F5E6331A6942F400321A61D4
:1034CC001A6922F400321A61EFE7094B984209D1CC
:1034DC0003F5E4331A6942F480221A611A6922F462
:1034EC008022F0E701207047003801400044004082
:1034FC000048004030B5C36804469B040D4685B0B7
:10350C0002D5012005B030BD4B68C968C2680B43B9
:10351C00296922F4B0520B4322F00C021343C3600E
:10352C000369AA6823F440531343036143696A692E
:10353C0023F44073134343616846FFF799FE134B22
:10354C009C4219D1039B002BDBD02A68002AD8D0CF
:10355C0019214B439200B3FBF2F36422B3FBF2F15B
:10356C0002FB11331B013233B3FBF2F303EB0113F8
:10357C009BB20020A360C5E7054B9C4201D1029B86
:10358C00E1E7044B9C42BCD1F9E700BF0038014095
:10359C00004400400048004070B500260C4D0D4C16
:1035AC00641BA410A64209D100F01CFE00260A4D93
:1035BC000A4C641BA410A64205D170BD55F8043BFF
:1035CC0098470136EEE755F8043B98470136F2E789
:1035DC00D0460008D0460008D0460008D446000863
:1035EC0003460244934200D1704703F8011BF9E7EC
:1035FC000346C9B2184613F8012B12B18A42F9D10D
:10360C007047002918BF00207047034611F8012BA2
:10361C0003F8012B002AF9D17047034610B572B19B
:10362C000139841813F8010B11F8012F904201D1C4
:10363C00A34201D1801A10BD0028F3D1FAE710463D
:10364C00F9E720F00040704707B51B4A20F0004313
:10365C009342014606DC0022002103B05DF804EB26
:10366C0000F0BCBCB3F1FF4F04DBFCF775FD03B0FD
:10367C005DF804FB694600F021F800F00300012816
:10368C0008D002280BD090B901220199009800F0C3
:10369C00A5FCECE70199009800F06EF9E7E7012230
:1036AC000199009800F09AFC00F10040DFE70199C5
:1036BC00009800F061F9F7E7D80F493F2DE9F04F7A
:1036CC00A04A20F0004696420C46824687B004DCA5
:1036DC00002308604B6000251AE09B4A96424BDCA5
:1036EC0000289A499A4F26F00F0623DDFCF734FD8B
:1036FC00BE42054610D09749FCF72EFD01462060CE
:10370C002846FCF729FD9349FCF726FD012560604E
:10371C00284607B0BDE8F08F8F49FCF71DFD8F4997
:10372C000546FCF719FD014620602846FCF714FD00
:10373C008A49E9E7FCF712FDBE4205460ED08549E1
:10374C00FCF70CFD014620602846FCF705FD81497D
:10375C00FCF704FD4FF0FF356060D9E77E49FCF7BC
:10376C00FDFC7E490546FCF7F9FC01462060284625
:10377C00FCF7F2FC7949EBE7794A964200F3918029
:10378C00FFF75FFF77490746FCF7F0FD4FF07C51E0
:10379C00FCF7E4FCFCF7B0FF0546FCF793FD6B4926
:1037AC008146FCF7E3FD01463846FCF7D5FC694938
:1037BC0080464846FCF7DAFD1F2D07460CDC6A4AAA
:1037CC00691E52F8212026F0FF03934204D039469B
:1037DC004046FCF7C1FC0BE039464046FCF7BCFC0C
:1037EC00C0F3C7534FEAE65BC3EBD656082E01DC99
:1037FC00206026E058494846FCF7B8FD07460146CC
:10380C004046FCF7A9FC014606464046FCF7A4FCE2
:10381C003946FCF7A1FC074650494846FCF7A6FD83
:10382C003946FCF799FC014607463046FCF794FCF8
:10383C00C0F3C753ABEB030BBBF1190F16DCB0464F
:10384C002060266840463146FCF786FC3946FCF77A
:10385C0083FCBAF1000F6060BFF65AAF06F1004668
:10386C0000F10040266060606D4251E73F494846D8
:10387C00FCF77CFD074601463046FCF76DFC014623
:10388C0080463046FCF768FC3946FCF765FC06467A
:10389C0037494846FCF76AFD3146FCF75DFC0746A4
:1038AC0095E7B6F1FF4F05DB0146FCF755FC606070
:1038BC00206010E7F715863FA6EBC7563046FCF79D
:1038CC001BFFFCF7FFFC014603903046FCF744FC61
:1038DC004FF08741FCF74AFD0646FCF70DFFFCF75D
:1038EC00F1FC0146049005463046FCF735FC4FF0E0
:1038FC008741FCF73BFD00210590FCF7CBFEF0B1B6
:10390C0000212846FCF7C6FE002814BF0123022321
:10391C00184A21460192022203A800923A4600F06E
:10392C00ABF8BAF1000F0546BFF6F2AE236803F10F
:10393C0000432360636803F10043636094E703234F
:10394C00E6E700BFD80F493FE3CB1640800FC93FD5
:10395C00D00FC93F434435370044353708A3852E73
:10396C00800F494384F9223F0043000800A3852EB1
:10397C0032318D24804300082DE9F04120F00044C1
:10398C00B4F1485F0646884603DAFCF7B5FE00281A
:10399C005CD031463046FCF7E9FC4FF07C510546D3
:1039AC00FCF7E4FC2B4907462846FCF7DFFC2A49C8
:1039BC00FCF7D4FB2946FCF7D9FC2849FCF7CCFBD7
:1039CC002946FCF7D3FC2649FCF7C8FB2946FCF733
:1039DC00CDFC2449FCF7C0FB2946FCF7C7FC224967
:1039EC00FCF7BCFB2946FCF7C1FC2946FCF7BEFCE6
:1039FC00414605463046FCF7B9FC01462846FCF723
:103A0C00ABFB1A4B05469C420ADC01463846FCF7D8
:103A1C00A3FB01464FF07E50FCF79EFBBDE8F08106
:103A2C00134B4FF07E509C42CCBF124C04F17F44A0
:103A3C002146FCF791FB214606463846FCF78CFBE9
:103A4C002946FCF789FB01463046E5E74FF07E50EE
:103A5C00E4E700BF4ED747ADF6740F317CF29334D8
:103A6C00010DD037610BB63AABAA2A3D9999993E14
:103A7C000000483F0000903E2DE9F04FDBB0029271
:103A8C000493649AB24B059053F822300091019341
:103A9C00049B013B0393029B1A1DC0F29B80DC1E0E
:103AAC0048BF1C1DE41000254FF0000B671CFB00E9
:103ABC000693029B039AA3EBC707019BA4EB020896
:103ACC0003EB0209659B1EAE03EB880A4D4540F3E0
:103ADC008380049A1EAB03EB82054FF00009002390
:103AEC000DF58C7B019A914540F39E8013460AAAF2
:103AFC0002EB83030893659BDDF8048003EB8403DE
:103B0C0007930AAC2646C3464FF087495AAB03EBE2
:103B1C00880353F8505C0DF58C7ABBF1000F00F361
:103B2C0088803946284600F011FB4FF07851054645
:103B3C00FCF71CFC00F0C8FA4FF08241FCF716FCB5
:103B4C0001462846FCF708FB0546FCF7D5FD064662
:103B5C00FCF7B8FB01462846FCF7FEFA002F81461D
:103B6C0040F3868008F1FF320AAB53F82250C7F1BC
:103B7C00080145FA01F31E448B40ED1AC7F107000A
:103B8C000AAB43F822500541002D7FDD00229246FE
:103B9C000136904500F3B080002F05DD012F00F0B9
:103BAC00BD80022F00F0C580022D6FD149464FF029
:103BBC007E50FCF7D1FA8146BAF1000F66D0394637
:103BCC004FF07E5000F0C2FA01464846FCF7C4FAAA
:103BDC0081465BE0002466E718EB050F07D45AF822
:103BEC002500FCF76FFB46F8040B01356EE75846D1
:103BFC00F9E70793059BDAF8001053F82800FCF757
:103C0C00B5FB01463046FCF7A9FA0646079B08F1BE
:103C1C000108039AAAF1040A9045EADD4BF8046BFB
:103C2C0009F1010904355DE7AA461E464FF000086C
:103C3C00EFE74FF06E512846FCF798FBFCF75CFD64
:103C4C00FCF740FB49460990FCF790FB01462846DF
:103C5C00FCF782FAFCF750FD099B0BF1FF3B46F891
:103C6C00040B5AF82B101846FCF778FA054654E763
:103C7C0006D108F1FF330AAA52F82350ED1183E75D
:103C8C004FF07C51FCF724FD054698BB00214846BB
:103C9C00FCF700FD002800F0988008F1FF34234663
:103CAC00002201998B424CDA002A7AD00AAB53F8E5
:103CBC002430083F002B00F0868039464FF07E50B0
:103CCC0000F044FAA24681464FF06E5846AFBAF166
:103CDC00000F80F2AF8027460022002FC0F2D9805F
:103CEC0046A990464FF0000A1A4B01EB870BA4EB48
:103CFC000709C2E0022549E72368BAF1000F08D191
:103D0C001BB1C3F58073236001239A46013204343E
:103D1C003FE7C3F1FF0323605346F6E708F1FF3298
:103D2C000AAB53F8223003F07F030AA941F8223082
:103D3C003AE708F1FF320AAB53F8223003F03F03A5
:103D4C00F3E70AA951F82310013B0A43A9E700BF86
:103D5C00C446000898460008013352F8041D002997
:103D6C00FAD0049A08F1010508EB02041EAA02EB32
:103D7C00840498440DF58C79A845FFF6C2AE079BD8
:103D8C00A34653F82500FCF79DFA4FF0000A0026D5
:103D9C002060039B9A4507DD49F825600434013502
:103DAC00EAE70123089AD8E7059B5BF8040953F866
:103DBC002A10FCF7DBFA01463046FCF7CFF90AF182
:103DCC00010A0646E5E7013C70E7069B029A484665
:103DDC00991A00F0BBF94FF087410446FCF778FCC8
:103DEC0000B34FF06E512046FCF7C0FAFCF784FC90
:103DFC00FCF768FA4FF087418146FCF7B7FA0146A9
:103E0C002046FCF7A9F9FCF777FC0AAB43F828002D
:103E1C004846FCF771FC08F101040AAB083743F87B
:103E2C0024004AE72046FCF767FC0AAB444643F8FB
:103E3C00280042E70AAB53F82A00FCF743FA49463C
:103E4C00FCF794FA414647F82A004846FCF78EFAEC
:103E5C000AF1FF3A81463AE753F8040B5BF8041B6E
:103E6C0003920293FCF782FA01464046FCF776F97E
:103E7C00DDE9023280460AF1010A01998A4501DC2A
:103E8C00CA45E9DD5AAB03EB890949F8A08C013F1F
:103E9C0023E7649B022B07DC002B4DDC2ED006F0B5
:103EAC0007005BB0BDE8F08F649B032BF7D10DF1DD
:103EBC00C80B0BEB8407B846A246BAF1000F48DCDE
:103ECC00A146B9F1010F5FDC0020012C75DC329AA0
:103EDC00339B002D77D100990A600A464B609060A5
:103EEC00DDE757F82410FCF739F9013C002CF8DA1F
:103EFC000DB100F10040009B1860D0E7002032AFFC
:103F0C00F4E758F82710FCF729F9013F002FF8DAED
:103F1C00BDB100F10043009A014613603298FCF7E2
:103F2C001BF901270DF1C808BC420CDA0DB100F1E8
:103F3C000040009B5860B2E7274600200DF1C808EE
:103F4C00E4E70346E7E758F82710FCF707F90137D1
:103F5C00EAE7D8F8003058F8042C194610460293BA
:103F6C000192FCF7FBF8019A014681461046FCF7DA
:103F7C00F3F8029B0AF1FF3A1946FCF7EFF848F800
:103F8C000409C8F8009098E757F8043CD7F800A04B
:103F9C00184651460193FCF7E1F8019B0146804617
:103FAC001846FCF7D9F85146FCF7D8F847F804093D
:103FBC0009F1FF39C7F8008083E75BF82410FCF7A0
:103FCC00CDF8013C81E7009902F1004203F1004376
:103FDC000A604B600A4600F1004080E72DE9F84387
:103FEC0020F00043B3F1485F04460F46914603DAD4
:103FFC00FCF782FB002835D021462046FCF7B6F9A9
:10400C00054601462046FCF7B1F9294906462846E3
:10401C00FCF7ACF92749FCF79FF82946FCF7A6F901
:10402C002549FCF79BF82946FCF7A0F92349FCF736
:10403C0093F82946FCF79AF92149FCF78FF880464A
:10404C00B9F1000F11D101462846FCF78FF91D4933
:10405C00FCF782F83146FCF789F901462046FCF75B
:10406C007DF804462046BDE8F8834FF07C51384675
:10407C00FCF77CF9414681463046FCF777F901465E
:10408C004846FCF769F82946FCF770F93946FCF705
:10409C0063F80C4905463046FCF768F9014628469A
:1040AC00FCF75CF801462046FCF756F8D9E700BF50
:1040BC00D3C92E2F342FD7321BEF3836010D503980
:1040CC008988083CABAA2A3E70B5C0F3C7557F3D22
:1040DC00162D0146044620F0004626DC002D0EDA93
:1040EC001749FCF73BF80021FCF7FCFA28B1002C2F
:1040FC0023DA144B002E18BF1C4621461BE0124E2F
:10410C002E41304217D00E49FCF728F80021FCF75D
:10411C00E9FA0028F1D0002CBEBF4FF4000343FA9B
:10412C0005F5641924EA0604E7E7B6F1FF4F02D35C
:10413C00FCF714F80146084670BD0024DDE700BF0B
:10414C00CAF24971000080BFFFFF7F0030F00042CF
:10415C0038B503460D4604462AD0B2F1FF4F04D3BE
:10416C000146FBF7FBFF034622E010F0FF4F17D18F
:10417C004FF09841FCF7FAF8174A034695420BDBCF
:10418C000446C0F3C752193A2A44FE2A0ADD1349E1
:10419C00184661F31E0000E01149FCF7E7F8E2E76E
:1041AC00D20DF1E7002A05DD24F0FF4040EAC253AE
:1041BC00184638BD12F1160F05DA4CF25032954202
:1041CC00E5DC0749E4E7193224F0FF444FF04C5189
:1041DC0044EAC250E1E700BFB03CFFFFCAF24971AC
:1041EC006042A20DF8B500BFF8BC08BC9E467047F3
:0C41FC00F8B500BFF8BC08BC9E46704738
:1042080076302E353365206C6C0076312E7820465A
:10421800313033543800656E640073692B7A00734B
:104228006C2B7A003E20004E542042757320457254
:10423800726F72730D0A006372633A2000506172E4
:10424800616D65746572732073746F72656420693B
:104258006E2053657475700D0A004C61796F757422
:104268003A20000D0A0D0A48656C6C6F2C20492015
:10427800616D204D4F544F522054524950504C4577
:104288000076302E35336500405100524553544175
:104298005254006E746275736572726F7273007235
:1042A800657472696576650073746F726500676519
:1042B80074736574757000636C72736574757000DF
:1042C80000000000040404000008000000080000CA
:1042D80000000000000001020304060708090000AE
:1042E80000000102030402030405060708090A0B7B
:1042F8000C0D0E0F10100102000FC93F000F4940AE
:1043080000CB9640000FC9400053FB4000CB16413C
:1043180000ED2F41000F49410031624100537B41BC
:10432800003A8A4100CB9641005CA34100EDAF41C1
:10433800007EBC41000FC94100A0D5410031E241D7
:1043480000C2EE410053FB4100F20342003A0A4228
:104358000083104200CB164200141D42005C234229
:1043680000A5294200ED2F4200363642007E3C422D
:1043780000C74242000F4942A2000000F9000000B5
:10438800830000006E0000004E00000044000000A2
:104398001500000029000000FC00000027000000B4
:1043A80057000000D1000000F500000034000000B4
:1043B800DD000000C0000000DB000000620000001B
:1043C80095000000990000003C0000004300000038
:1043D8009000000041000000FE00000051000000B5
:1043E80063000000AB000000DE000000BB0000001E
:1043F800C500000061000000B700000024000000B4
:104408006E0000003A000000420000004D0000006D
:10441800D2000000E0000000060000004900000093
:104428002E000000EA00000009000000D100000092
:10443800920000001C000000FE0000001D000000AB
:10444800EB0000001C000000B10000002900000083
:10445800A70000003E000000E80000008200000005
:1044680035000000F50000002E000000BB00000031
:104478004400000084000000E90000009C000000E7
:104488007000000026000000B40000005F0000007B
:104498007E0000004100000039000000910000008B
:1044A800D60000003900000083000000530000001F
:1044B80039000000F40000009C00000084000000A7
:1044C8005F0000008B000000BD000000F900000044
:1044D800280000003B0000001F000000F80000005A
:1044E80097000000FF000000DE000000050000004B
:1044F800980000000F000000EF0000002F000000EF
:10450800110000008B0000005A0000000A000000A3
:104518006D0000001F0000006D0000003600000064
:104528007E000000CF00000027000000CB00000044
:1045380009000000B70000004F000000460000001E
:104548003F000000660000009E0000005F000000C1
:10455800EA0000002D0000007500000027000000A0
:10456800BA000000C7000000EB000000E5000000F2
:10457800F10000007B0000003D0000000700000083
:1045880039000000F70000008A0000005200000017
:1045980092000000EA0000006B000000FB00000031
:1045A8005F000000B10000001F0000008D00000047
:1045B8005D00000008000000560000000300000035
:1045C8003000000046000000FC0000007B000000F6
:1045D8006B000000AB000000F0000000CF000000FE
:1045E800BC000000200000009A000000F400000059
:1045F800360000001D000000A9000000E3000000D4
:1046080091000000610000005E000000E60000006C
:104618001B00000008000000650000009900000071
:10462800850000005F00000014000000A0000000EA
:1046380068000000400000008D000000FF0000003E
:10464800D8000000800000004D000000730000004A
:1046580027000000310000000600000006000000EE
:104668001500000056000000CA000000730000009A
:10467800A8000000C900000060000000E20000007F
:104688007B000000C00000008C0000006B000000F0
:104698000000C93F0000F0390000DA370000A233FB
:1046A8000000842E0000502B0000C2270000D022FA
:1046B8000000C41F0000C61B0000441704000000CF
:0846C8000700000009000000DA
:0446D00031010008AC
:0446D4000D010008CC
:1046D800FFFF00000024F4000100000010000000AB
:04000005080027D5F3
:00000001FF
