:020000040800F2
:1000000000500020193B0008013B0008033B00089A
:10001000053B0008073B0008093B00080000000002
:100020000000000000000000000000000B3B000882
:100030000D3B0008000000000F3B0008113B0008CA
:10004000613B0008613B0008613B0008613B000820
:10005000613B0008613B0008F51F0008613B000898
:10006000613B0008613B000889130008613B000800
:1000700095200008613B0008613B0008613B0008D7
:10008000613B0008613B0008613B0008613B0008E0
:10009000613B0008613B0008613B0008613B0008D0
:1000A000613B0008613B0008613B0008613B0008C0
:1000B000AD0A0008E5130008613B0008613B000839
:1000C000613B0008613B0008613B0008613B0008A0
:1000D000613B0008DD080008613B0008613B000847
:1000E000613B0008613B0008613B00080000000024
:1000F0000000000000000000000000000000000000
:0C01000000000000000000005FF808F1A3
:10010C0010B5054C237833B9044B13B10448AFF345
:10011C0000800123237010BD10000020000000009F
:10012C00CC4B000808B5034B1BB103490348AFF394
:10013C00008008BD0000000014000020CC4B00081B
:10014C00034613F8012B002AFBD1181A013870470B
:10015C00054B82B0DA690243DA61DB690340019333
:10016C00019B02B0704700BF00100240054B82B0EB
:10017C009A6902439A619B6903400193019B02B007
:10018C00704700BF00100240402910B511D810294B
:10019C0011D0012914BF06230023084A084CD15C56
:1001AC00E45C042318304258A34022EA0303435072
:1001BC0010BD0623F1E70223EFE700BF294E00082C
:1001CC00304E00080E4BB3F8012052BA0280B3F83F
:1001DC00032052BA4280B3F8052052BA8280B3F899
:1001EC00072052BA0A80B3F8092052BAC280B3F879
:1001FC000B2052BA0281B3F80D305BBA43817047C1
:10020C00640100200E4BB3F8012052BA0A80B3F8F7
:10021C00032052BA0280B3F8052052BA4280B3F8D8
:10022C00072052BA8280B3F8092052BAC280B3F8C0
:10023C000B2052BA0281B3F80D305BBA4381704780
:10024C0064010020F0B50646124C85B00D46684698
:10025C00611804F0A7FC30460123002202F11007BC
:10026C006F4417F8107C14F8011B1F4218BF41F0A3
:10027C00800100F8011B811B89B25B008D429BB28F
:10028C0001D805B0F0BD802B02BF0132012392B220
:10029C00E4E700BFA60100200B4B0C4A1B6810B40E
:1002AC00A2FB03239B0C03EB8302094C520002F5C7
:1002BC00FA72A4FB02420749920948684B681B1A60
:1002CC009A42FBD810BC70470400002083DE1B430D
:1002DC00D34D6210001000E008B5FFF7DDFF1022CF
:1002EC00014B5A6108BD00BF00080140064B034496
:1002FC0013F8013C03F1804303F500331A6822F034
:10030C0001021A60704700BF224E0008064B0344DE
:10031C0013F8013C03F1804303F500331A6842F0F3
:10032C0001021A60704700BF224E00086FF02002D5
:10033C00084B1A605B68084A02F60C0353E8003F4E
:10034C0043F0200302F60C0040E800310029F3D101
:10035C00704700BF003801400030014038B50446FA
:10036C00FFF7EEFE002283B263B9DAB983B2202024
:10037C00013B91B2994214DA655C0132302D10D1F7
:10038C006054F6E7013B9BB2E15C2E2908BF1A468C
:10039C00EAE7655C0133302D03D1605499B2914288
:1003AC00F7DB38BD2020013AF8E703099F2894BFFA
:1003BC00303337330B70002300F00F00092894BF43
:1003CC003030373048708B70704713B502460C468E
:1003DC00C0B201A9FFF7E9FF2146100AFFF7E5FFBC
:1003EC009DF80430A3709DF80530E3709DF806303D
:1003FC00237102B010BD0A4613B5044601A9C0B260
:10040C00FFF7D3FF9DF80430C4F3072093719DF8D8
:10041C000530D371FFF7C9FF9DF80430C4F30740D2
:10042C0013719DF805305371FFF7BFFF9DF8043031
:10043C00200E93709DF80530D370FFF7B6FF9DF832
:10044C00043013709DF8053053700023137202B002
:10045C0010BD2DE9F0410E460021069C217031782B
:10046C0075295DD17578632D0BD10178B778682F1C
:10047C001BD1632D21460CD1BDE8F0410078FFF76C
:10048C0094BF692D01D10188F0E76C2D43D101682F
:10049C00ECE7692D04D1BDE8F0410088FFF795BF6A
:1004AC000068BDE8F041FFF7A6BF2B2F59D1A1B3CF
:1004BC002770012017464FF030089DB202EB050E55
:1004CC00AEEB070C1CF4004F4DD1002BC5F1000511
:1004DC00C8BF0025002BD4BFD718171C1D442DB244
:1004EC00BBB20DB101352DB24FF00A0C98423FD37F
:1004FC0000237A213046A35404F008FB58B1B3789A
:10050C002B2B55D1601CFFF729FF2046FFF718FE57
:10051C00012383423FD3BDE8F08120202070C8E73F
:10052C007329F8D1717863290DD190F90010B07846
:10053C002B2814D100290FDA2D202070012000293E
:10054C00B8BF4942B6E7692902D1B0F90010EEE70D
:10055C006C29E0D10168EAE708BF2020EDE7002014
:10056C00EDE70020A6E7013FBFB204F80780A7E73C
:10057C00013B9BB2D71AAF4204EB030809D0B1FB85
:10058C00FCFE0CFB1E1771463037FFB288F800706A
:10059C00ACE72E27FAE7E25C202A06D02278234427
:1005AC0003F8012C20232370B5E701339BB2B0E78D
:1005BC002046FFF7D3FE2046FFF7C2FD01238342FE
:1005CC00A9D2E25C202AE9D101339BB2F7E70120E2
:1005DC00FFF7CCBD0D4B984202D10420FFF7C6BDEE
:1005EC000B4B984205D003F58063984203D1102041
:1005FC00F4E70820F2E7074B984201D12020EDE701
:10060C00054B984200D070474020E7E700080140B6
:10061C00000C014000140140001801400B4B9842A3
:10062C0003D14FF40060FFF7A1BDB0F1804F04D0AF
:10063C00074B984204D1022000E00120FFF788BD4F
:10064C00044B984201D10420F8E77047002C01407C
:10065C0000040040000800402DE9F0410C4615460E
:10066C0086B007461022002102A81E469DF8348051
:10067C0004F044FA01940B2D07D8DFE805F00E0EB8
:10068C00070A1414141616161B1DFEE708230293F2
:10069C0003E00823029301230593032E0ED8DFE811
:1006AC0006F01E200E1E0123F1E701230293042302
:1006BC000493F2E70923EAE70923F7E7FEE70123AE
:1006CC000393B8F1000F02D03846FFF783FF053DC6
:1006DC00042D0BD8DFE805F007110A0711000323DE
:1006EC00EEE70223ECE7C4F30F247C61384601A942
:1006FC0003F044FF06B0BDE8F081C4F30F243C6165
:10070C00F4E7000007B513464FF0010C0022CDE9C9
:10071C00002C0A4601460348FFF79EFF03B05DF824
:10072C0004FB00BF000801404FF4006307B5064806
:10073C000422036100230549CDE900330223FFF7AE
:10074C008BFF03B05DF804FB0008014008000804AF
:10075C00002307B50322CDE9003341F21001022337
:10076C000248FFF779FF03B05DF804FB0008014075
:10077C0030B50023154687B00446ADF80630FFF7B8
:10078C004DFF042D04D8DFE805F02A2E04323B007F
:10079C00FEE71C4B1C4A1B68B3FBF2F39BB2002216
:1007AC00013BCDE90221204601A9ADF804300492A9
:1007BC00059204F01FF8236823F080032360A368DC
:1007CC0023F4804323F00703A360636823F07003D2
:1007DC006360A36823F08003A36007B030BD094BAE
:1007EC000A4A1B68D8E7074B094A1B68D4E7054B34
:1007FC00064A1B68B3FBF2F303EB83035B00CDE704
:10080C000123CCE70400002080A8120140420F0015
:10081C0000127A000022FFF7ABBF00224FF0FF312D
:10082C00FFF7A6BF10B50446FFF7A2FF236843F0FD
:10083C000103236010BD00000C4BD3F8FC2022F008
:10084C008072C3F8FC20D3F8FC2042F08072C3F80D
:10085C00FC20A3F55D431A6822F001021A601A68A5
:10086C0042F001021A6000225A60704700ED00E06D
:10087C00064B074A1B680749B3FBF2F3434310B519
:10088C004C684A68121B9A42FBD310BD040000202E
:10089C0040420F00001000E072B64FF080435B6ADC
:1008AC009BB262B6044A91889380994282BF1168C8
:1008BC0001311160704700BF640000204FF080438D
:1008CC0000215A6A014B19609A807047640000201D
:1008DC000D4B10B51868810611D5DA6892060ED545
:1008EC000A4C0B495A68238809880133C3F308035F
:1008FC0089B299421FBF0749D2B2CA542380030759
:10090C0044BF014B5B6810BD00380140EE0600206F
:10091C00EC060020EC040020034B1A685206FCD5B0
:10092C0058600120704700BF0038014008B5411ED7
:10093C0011F8010F00B908BDFFF7EEFFF8E7000052
:10094C00024A13685B06FCD5704700BF00380140B3
:10095C000848094A0188138889B29BB29942F9D098
:10096C0013880133C3F3080313801388034A9BB223
:10097C00D05C7047EE060020EC060020EC04002052
:10098C00002300B589B0CDE90633CB1A18BF01237B
:10099C001B03CDE902320C2301900491034801A9F9
:1009AC00059304F059F809B05DF804FB00380140D8
:1009BC0073B52E4C0825E368012623F40053E3603D
:1009CC00FFF705FE4FF48040FFF7D0FB00F18040AD
:1009DC0003230A22264900F54840CDE90056FFF7CB
:1009EC003BFE032323491A462348CDE90056FFF763
:1009FC0033FE002221481146FFF7C2FF2022236953
:100A0C001F4923F490432361636923F02A03636134
:100A1C001C4B83F825235A6001F60C0353E8003F66
:100A2C0023F0200301F60C0040E80032002AF3D139
:100A3C006FF020032360144B1A80144B1A80236927
:100A4C0023F400632361636923F008036361236962
:100A5C0023F480432361636923F022036361E36819
:100A6C0043F40053E36002B070BD00BF0038014096
:100A7C0002000204040004040008014080841E00EB
:100A8C000030014000E100E0EC060020EE06002002
:100A9C0008B5FFF78DFFBDE80840FFF747BC000025
:100AAC004FF080431A6992070DD56FF002021A615C
:100ABC005A6B02F57A725A630122034B1A80034A6D
:100ACC001368013313607047360100209003002037
:100ADC0010B50024194B88B01C80194B4FF0804086
:100AEC001C60FFF79AFE21461C2201A804F006F8B0
:100AFC0030234FF080440093636A6A4603F57A739F
:100B0C0001212046039303F0ADFE01212046FFF79F
:100B1C003BFBF0220B4B83F81C234FF080521A60E6
:100B2C006FF002032361E36843F00203E360236880
:100B3C0043F00103236008B010BD00BF3601002054
:100B4C009003002000E100E02DE9F84381464CF2CF
:100B5C0050300E4617461D4603F0F0F888BBB9F12D
:100B6C00010F06D0B9F1020F0CBF4FF002094FF084
:100B7C0004094FF00008144A136943F00103136190
:100B8C004FEA0814C4F12002A4F1200305FA02F282
:100B9C0027FA04F4144325FA03F31C43A4B24CF2D1
:100BAC00503026F8184003F0C9F828B908F10108AC
:100BBC005FFA88F39945E3D8034A136923F00103DC
:100BCC001361BDE8F88300BF002002407FB501230C
:100BDC000022CDE9040301A902A8CDE9022303F008
:100BEC00E9F800280CBF0420052007B05DF804FBD1
:100BFC000A4608B5014600230220FFF7A5FF00288E
:100C0C000CBF0420052008BD08B5FFF7DFFF031F4C
:100C1C005842584108BD08B5FFF7EAFF031F584278
:100C2C00584108BD2DE9F047264B274D01280FBF31
:100C3C003D263C26AA461D460F4614462349244A07
:100C4C0006BF89469A46914603F05CF83146284621
:100C5C00FFF7DAFF28B9002403F066F82046BDE858
:100C6C00F087002F08BF4FF478744FF0000803345E
:100C7C00C4F38F0405F11006AAEB050A1FFA88F3DA
:100C8C009C4209D84FF011312846FFF7C4FF041ECF
:100C9C0018BF0124A400DFE73FB95AF806104B1C1B
:100CAC0006D108F101080436E8E757F82810F6E7F2
:100CBC004E4505D23046FFF7AEFF0028F1D1CAE70A
:100CCC000324C9E700F0000800F40008FFF700084F
:100CDC00FFF3000810B503F015F83C210848FFF7A6
:100CEC0093FF044638B13D210648FFF78DFF041EE3
:100CFC0018BF0124A40003F017F8204610BD00BF54
:100D0C0000F0000800F4000830B5002340F2EF3486
:100D1C00064D9AB2914201D8042030BDA34203D0B3
:100D2C005A5DC2540133F4E70320F6E710F00008D3
:100D3C0038B504460D4672B60A4601460020FFF748
:100D4C0071FF62B6042806D172B601202A462146EC
:100D5C00FFF768FF62B638BD38B5124B1C68D3F884
:100D6C000054B4F1113F09D1B5F1113F17D0002255
:100D7C0001201146BDE83840FFF754BFB5F1113FD3
:100D8C0003D1002211461046F4E7FFF7A3FF042815
:100D9C0004D12C4001340CBF0220012038BD0420AA
:100DAC00FCE700BF00F00008034B18739A68D207E9
:100DBC00FCD5187B704700BF00300140431E062B4A
:100DCC0094BFC0003820704708B5FFF7F7FF034AFF
:100DDC00136823F038030343136008BD003001404F
:100DEC0070B58EB02822002104A803F087FEFFF70F
:100DFC00EEFB4FF48050FFF7B9F90621032241F2C4
:100E0C001000FFF77FFC0124062610232E4D0A222A
:100E1C002B612846032342F22001CDE90064FFF741
:100E2C001BFC284603230A2248F28001CDE900640A
:100E3C00FFF712FC032328461A4644F24001CDE981
:100E4C000064FFF709FC38234FF482720A930023E5
:100E5C000225CDE90432CDE90B334FF40072069331
:100E6C000723CDE90754194C04A9204609920D9388
:100E7C0003F093FC6368284623F001036360636806
:100E8C00294623F002036360FFF730FA0320FFF7D3
:100E9C002DFA0F4803F040FA03210D4803F03CFAF9
:100EAC000C4B5A6942F001025A615B6903F0010371
:100EBC000393039B236843F040032360A3689B07C1
:100ECC00FCD5E3680EB070BD000801400030014055
:100EDC00000002400010024038B505460C46FFF7F2
:100EEC00FBF945F08000FFF75FFFFF20FFF75CFF89
:100EFC001022024B207001201A6138BD00080140FD
:100F0C0038B505460C46FFF7E7F905F07F00FFF70B
:100F1C004BFF2046FFF748FF1022024B01201A61BD
:100F2C0038BD00BF00080140F7B500270D461E462E
:100F3C0014461F70A2B10DF10701FFF7CDFF012878
:100F4C000CD1291B00FA04F201319DF80730013A4B
:100F5C008A401A400A41327003B0F0BD3846FBE7B4
:100F6C000120F9E7F7B505460E461C461746EAB1CF
:100F7C000DF10701FFF7B0FF012815D100FA07F2B8
:100F8C00F11B0131013A8A408C409DF80710E4B204
:100F9C0021EA0201144028462143FFF7B1FF431E0A
:100FAC005842584103B0F0BD0020FBE70120F9E79F
:100FBC00012307211A466B20FFF7D4BF012303211D
:100FCC001A466A20FFF7CEBF0023012206216B20B0
:100FDC00FFF7C8BF0346032202216B20FFF7C2BFF5
:100FEC0001461920FFF78CBF01461920FFF774BF8B
:100FFC000346032202211A20FFF7B4BF0346032243
:10100C0002211A20FFF790BF0346022204211B2065
:10101C00FFF7A8BF0346022204211B20FFF784BF61
:10102C000346022204211C20FFF79CBF0346022228
:10103C0004211C20FFF778BF10B5044600F007030D
:10104C00032202211A20FFF78DFFC4F301130222A1
:10105C00BDE8104001211B20FFF784BF13B503220C
:10106C0004460DF1060302211A20FFF75DFF0DF176
:10107C000703022201211B20FFF756FF9DF80630C3
:10108C0003F00703237002B010BD10B5044600F046
:10109C000703032202211D20FFF764FFC4F3001392
:1010AC000122BDE8104003211D20FFF75BBF13B5E3
:1010BC00032204460DF1060302211D20FFF734FF25
:1010CC000DF10703012203211D20FFF72DFF9DF8D1
:1010DC0007309DF806201B0102F0070203F01003F5
:1010EC001343237002B010BD38B50025154C752084
:1010FC0021462570FFF7F0FE012814D12378682BC8
:10110C0010D0702B11D0712B11D0732B11D0122B3E
:10111C0011D0422B11D0472B11D0A3F1DB0253423B
:10112C005341D80038BD2846FCE70520FAE70220D9
:10113C00F8E70720F6E70320F4E70420F2E706209F
:10114C00F0E700BF640100202DE9F04107460E4690
:10115C0015461C460A209DF81880FFF789FB384677
:10116C00FFF738FF3046FFF74FFF2846FFF740FFE9
:10117C002046FFF755FF4046FFF732FFBDE8F04130
:10118C00FFF722BFF7B50F460A2016461D46FFF79C
:10119C006FFB0DF10700FFF73DFF9DF807400A209C
:1011AC00E41B18BF0124FFF763FB0DF10700FFF7E9
:1011BC0025FF9DF807306400B3424FF00A0018BFBA
:1011CC0044F00404FFF754FB0DF10700FFF72EFF6A
:1011DC009DF807300A20AB4218BF44F00804FFF713
:1011EC0047FB0DF10700FFF7FFFE9DF807209DF868
:1011FC0020309A4218BF44F01004204603B0F0BDD2
:10120C002DE9F84307460E4615461C460A209DF864
:10121C0020909DF82480FFF72BFB3846FFF7DAFE71
:10122C003046FFF7F1FE2846FFF706FF2046FFF792
:10123C00F7FE4846FFF729FF4046FFF7D1FEBDE811
:10124C00F843FFF7C1BEF7B50F460A2016461D46F8
:10125C00FFF70EFB0DF10700FFF7DCFE9DF80740D2
:10126C000A20E41B18BF0124FFF702FB0DF1070055
:10127C00FFF7F4FE9DF807306400B3424FF00A000C
:10128C0018BF44F00404FFF7F3FA0DF10700FFF761
:10129C00CDFE9DF807300A20AB4218BF44F008047D
:1012AC00FFF7E6FA0DF10700FFF79EFE9DF8072009
:1012BC009DF824300A209A4218BF44F01004FFF71E
:1012CC00D7FA0DF10700FFF7F2FE9DF807209DF805
:1012DC0020309A4218BF44F02004204603B0F0BDE1
:1012EC0073B505460C4616460DF10701FFF7F4FDE4
:1012FC0028469DF8073004EA0301314302B0BDE8EB
:10130C007040FFF7FDBD6422B0F9003053434FF439
:10131C00AA7293FBF2F303F64563038070476422D1
:10132C00B0F9003053434FF4AA7293FBF2F303F677
:10133C0034030380704742F21072B0F9003053430B
:10134C004FF44F5293FBF2F303F6C4130380704730
:10135C00084BDA6892070CD40121074A11805A6AAB
:10136C0010325A636FF002021A61DA6842F002021C
:10137C00DA6070470004004008030020114B1A6823
:10138C00D0061BD55969C90618D5102122F01002B8
:10139C0059611A600C490D4A506A098889B2014496
:1013AC00012091630A49088000200A4908806FF0E7
:1013BC0004011161D16841F00401D16010225A611D
:1013CC00704700BF00040140FE01002000040040F3
:1013DC000002002002030020524A10B513699C073A
:1013EC0025D56FF0020313614F4B1B88516B9BB2D9
:1013FC000B4453634D4B4E49188880B200287AD069
:10140C001888013080B21880188880B2022849D818
:10141C004FF40063474A4B611388013303F07F0399
:10142C0013801388444A9BB2D35C444A13803D4AD0
:10143C001369580735D56FF0040313613A4B1B88B9
:10144C00916B9BB20B4493633D4B1A8892B2002A6A
:10145C005AD01A8892B2082A56D81A88013292B2F7
:10146C001A80384A1188C1F34E01118030498968BD
:10147C00C90641BF118889B241F0800111801B88D7
:10148C009BB2082B0DD930483049038809880133A9
:10149C00DBB289B2994204D012882D49D2B2CA5417
:1014AC00038010BD188880B20A280DD8234B1A88E7
:1014BC0012F0010F4FF4006214BF0A614A611A88DE
:1014CC00C2F34E021A80B2E7188880B20B284FF490
:1014DC000060086109D11F4A1188164A89B2128826
:1014EC0092B29142A3D00122ECE7D16821F0020123
:1014FC00D1600022E6E74FF400640C61D16821F062
:10150C000201D160188092E706491A88C868124A0D
:10151C0020F00400C86000211980136843F0100308
:10152C001360BEE700040040FC010020080300200B
:10153C00000801408C0300200A0300208A030020CD
:10154C0000020020020300200603002004030020F8
:10155C00020200208E0300200004014009490A4ABF
:10156C0008B50B881288013303F07F0392B29A42BC
:10157C0006D0064AD0540B800120FFF7E9FE08BDC7
:10158C000020FCE78E0300208C0300200A030020BF
:10159C0038B504464518AC4200D138BD14F8010BDF
:1015AC00FFF7DCFFF7E70000044A13880133DBB2D6
:1015BC0013801388024A9BB2D05C7047040300204E
:1015CC00020200200023024A1380024A1380704753
:1015DC000403002006030020B0F5614F0D4A0E4BAA
:1015EC000CD0B0F5E13F10D0B0F5165F0DD172B64E
:1015FC0040F24131118040F2E24203E072B68B219D
:10160C001180D0221A8062B6704772B645211180C3
:10161C005422F7E7FC010020FE010020012807B549
:10162C0004D103B05DF804EBFFF77EB80023012270
:10163C00CDE90033034902230348FFF70DF803B04B
:10164C005DF804FB0800080400080140012807B5F8
:10165C0004D103B05DF804EBFFF77AB80023012244
:10166C00CDE9003341F2100102230348FEF7F4FFE9
:10167C0003B05DF804FB00BF0008014030B52E4CF0
:10168C008BB0204601224FF0FF31FFF7CBF8202220
:10169C00002102A803F032FA02AA0121204603F02D
:1016AC00E1F820460121FEF76FFD02AA1021204629
:1016BC0003F0D8F820461021FEF766FD6FF0020308
:1016CC0023616FF00403236130231C4C0F2184F839
:1016DC001D334FF000532360FEF779FF184AD3688F
:1016EC0023F00F0391FAA1F11025D360154B684636
:1016FC00CDE9005302F09EFE134B4FF4E1301A6813
:10170C0022F010021A60B02284F81D235D614FF4A0
:10171C0080632360FFF760FF00230C4A13800C4AA0
:10172C0013800C4A13800C4A13800C4A13800C4A09
:10173C0013800BB030BD00BF0004004000E100E09E
:10174C000000014001000200000401408C03002055
:10175C008E03002008030020040300200603002051
:10176C00000200201E4B10B55B681E4C236002F07B
:10177C00F3F91D4802F0B2FE1C4802F0AFFE1C4803
:10178C0002F0ACFE1B4803F035F91B4803F032F9AC
:10179C001A4803F02FF902F077FF4FF0E0220023F4
:1017AC0017491361536193614A6822F003024A603E
:1017BC0072B64FF0FF319A0002F16042013302F52C
:1017CC006142082BC2F88010C2F88011F3D162B6C6
:1017DC00034B1B6883F3088823689847FEE700BF18
:1017EC0000F0FF1F6000002000080140000C0140C9
:1017FC000010014000380140004400400048004007
:10180C000010024007B5082300220749CDE9003239
:10181C00064803230A22FEF71FFF012003B05DF8E0
:10182C0004EBFFF725B800BF0200020400080140DA
:10183C0007B50120FFF784F8FFF71AF80023CDE96C
:10184C000033032303491A460348FEF705FF03B090
:10185C005DF804FB0200020400080140F8B50446E0
:10186C00002500F10E0714F8016B3046FFF754F811
:10187C00A74285EA0605F6D108466940FFF74CF801
:10188C00BDE8F840C8B2FFF747B8F8B500240646E3
:10189C002546E3B28B4204D32846BDE8F840FFF757
:1018AC003BB8375D01343846FFF736F87D40F0E73A
:1018BC00FF21094A002391800849136091603F2160
:1018CC00074A91800749136091600121064A918073
:1018DC0013805380704700BF9404002094030020B1
:1018EC00E0040020A00400208A000020002208B59B
:1018FC00064B1A61C3E90022C3E902229A82FFF760
:10190C00C7F8BDE80840FFF7D3BF00BF6C0000204C
:10191C000D4908B5CA680D4B22F4E0621204120C92
:10192C001343CB600022042140F20440FEF7EAFE90
:10193C00FEF782FFFFF7DAFFFFF77AFFFEF7BEFF35
:10194C00BDE80840FFF7C4B800ED00E00003FA055D
:10195C00064A13884BB14FF0804351885B6A5B1A7F
:10196C009BB2642B84BF002313807047F4010020CA
:10197C000022034B1A805A809A80DA80704700BF8D
:10198C00F401002070B52F4B86B09B78013B032BE4
:10199C0055D8DFE803F00211314AFFF733FF2A4B29
:1019AC001C782046FEF7B8FF284B19780846FEF73E
:1019BC00B3FF84EA010018E010240025FFF722FF92
:1019CC001022002101A803F099F8214901A803F085
:1019DC00E1F801A911F8016B013C3046A4B2FEF705
:1019EC009BFF7540002CF5D12846FEF795FFFFF7BD
:1019FC001FFF012006B070BD10240025FFF702FF69
:101A0C001022002101A803F079F8124901A803F073
:101A1C00C1F801A911F8016B013C3046A4B2FEF7E4
:101A2C007BFF7540002CF5D1DEE7FFF7EBFE0A4B90
:101A3C001C7819882046FEF76FFF090AB6E70020CC
:101A4C00D8E700BF3801002062010020840000208C
:101A5C00084C0008124C00082C01002007B5032389
:101A6C000022022118460092FFF76EFB03B05DF8CE
:101A7C0004FB07B503230022022118460092FFF74E
:101A8C0081FB03B05DF804FB07B510230022CDE900
:101A9C000032032302211846FFF7B2FB03B05DF8B6
:101AAC0004FB07B510230022CDE9003203230221E9
:101ABC001846FFF7C8FB03B05DF804FB08B510210E
:101ACC003720FFF71DFA0220FEF7D2FE0121382045
:101ADC00FFF716FABDE808400220FEF7C9BE08B5AC
:101AEC000022F8217620FFF7FBFB0022C0214E20BC
:101AFC00FFF7F6FBBDE808400122E8211120FFF7B3
:101B0C00EFBB08B50A20FEF7B3FE0522F82113201F
:101B1C00FFF7E6FB0A20FEF7ABFE0322FC214C206C
:101B2C00FFF7DEFB0322F8211420FFF7D9FB60221C
:101B3C008F216420FFF7D4FB082280216520FFF75A
:101B4C00CFFB40223F214D20FFF7CAFB0A20FEF7B6
:101B5C008FFE0F22C0214E20FFF7C2FB4FF47A708C
:101B6C00FEF786FE0A20FEF783FE232210214F206B
:101B7C00FFF7B6FB0A20FEF77BFEBDE80840032208
:101B8C0010215020FFF7ACBB13B50A20FEF770FEF6
:101B9C000DF107011320FFF79FF99DF807400A206C
:101BAC00053C18BF0124FEF763FE0DF107014C2024
:101BBC00FFF792F99DF807300A20332B18BF44F039
:101BCC000204FEF755FE0DF107014E20FFF784F9D4
:101BDC009DF807300A200F2B18BF44F00404FEF7C1
:101BEC0047FE0DF107014F20FFF776F99DF80730FE
:101BFC000A20232B18BF44F00804FEF739FE0DF120
:101C0C0007015020FFF768F99DF80730032B18BF28
:101C1C0044F01004204602B010BD08B50022F82193
:101C2C007620FFF75DFBC0214E200022FFF758FB0A
:101C3C00BDE8084001211120FFF762B910B5044638
:101C4C000522C0211320FFF74BFBB3220C214C20A3
:101C5C00FFF746FB0322C0211420FFF741FB602253
:101C6C008F216420FFF73CFB082280216520FFF7C1
:101C7C0037FB00228C216220FFF732FB012C19D19B
:101C8C000422F0214D20FFF72BFB2246F821762071
:101C9C00FFF726FB0A20FEF7EBFD0422F9217B203F
:101CAC00FFF71EFB76200022F821FFF719FB0A2014
:101CBC00FEF7DEFD40223F214D20FFF711FB0F22E6
:101CCC00C0214E20FFF70CFB4FF47A70FEF7D0FDCD
:101CDC00232210214F20FFF703FBBDE81040032205
:101CEC0010215020FFF7FCBA13B50A20FEF7C0FDF7
:101CFC000DF107011320FFF7EFF89DF807400A20BC
:101D0C00053C18BF0124FEF7B3FD0DF107014C2073
:101D1C00FFF7E2F89DF807300A20B32B18BF44F008
:101D2C000204FEF7A5FD0DF107014E20FFF7D4F8D4
:101D3C009DF807300A200F2B18BF44F00404FEF75F
:101D4C0097FD0DF107014F20FFF7C6F89DF80730FE
:101D5C000A20232B18BF44F00804FEF789FD0DF16F
:101D6C0007015020FFF7B8F89DF80730032B18BF78
:101D7C0044F01004204602B010BD00000023024ABB
:101D8C001380024A13807047400100203C01002060
:101D9C000023054A1380D380138153805381938091
:101DAC009381024A137070472C0000203A000020E7
:101DBC0010B50024044B3022214604481C8002F04C
:101DCC009DFE034B1C8010BD3E01002094000020A2
:101DDC0090000020764BF0B51B889A1E012A79D80A
:101DEC0074236FF034077348734C0568C1686B43F8
:101DFC0007FB0133B4F900208669476A9200002B77
:101E0C0002EB4601B8BF3F33394401EBA3117423F5
:101E1C006FF0340746624668C5607343B4F90250EC
:101E2C00D0F81CC082610269AD0007FB0233C561AA
:101E3C0005EB4C02B4F904507424876A06613A44E9
:101E4C006FF03407866801600029B8BFFF31744316
:101E5C00002BB8BF3F3302EBA3124369C0F828C074
:101E6C0007FB0344D0F820C0C76AAD004260002ACB
:101E7C00B8BFFF3205EB4C03002CB8BF3F343B44DA
:101E8C0003EBA4138360002BB8BFFF3309121212AB
:101E9C00C0F82CC0056246611B1247F6FF75A942BB
:101EAC00A8BF2946454C4648A142B8BF2146AA4284
:101EBC00A8BF2A46A242B8BF2246AB42A8BF2B46B7
:101ECC00A342B8BF234609B212B21BB201804280B2
:101EDC0083800AE0012B60D13A4A138801339BB20C
:101EEC00072B138002D900231380F0BD002BFCD0EC
:101EFC003048314B8569B3F90020690004689700BC
:101F0C0001EB8201426AC668114404EB4402921B45
:101F1C00C66948BF0332C460B3F9024001EBA201A9
:101F2C00720002EB8402456287614568A700846AEF
:101F3C00D0F810C02244016005EB45040029B8BF5D
:101F4C000731B4EB0C0448BF03348662066A02EB1B
:101F5C00A402B3F90440730003EB8403C761056169
:101F6C00A7008568C46AD0F814C02344426005EB0E
:101F7C004504002AB8BF0732B4EB0C0448BF033445
:101F8C0003EBA4038360002BB8BF0733C910D21036
:101F9C00C66207624561DB107FE7074BB3F900109F
:101FAC00B3F90220B3F90430890092009B0074E766
:101FBC003E01002094000020500100200080FFFF13
:101FCC00420100209000002008B5FFF7F1FE00222E
:101FDC00044BDA801A801A815A805A819A809A812D
:101FEC0008BD00BF420100200122214B10B55A61EF
:101FFC00204B214C1B888AB0053B022B34BF9D2300
:10200C00BB232370FEF768F90220FEF76FF903205B
:10201C00FEF76CF90021142203A802F06FFD174B98
:10202C004FF4805100930F23CDE908311023CDE9F3
:10203C000143134C6A460321204602F0C5F90023E4
:10204C000293104B6A46019380230221204605938C
:10205C0002F0BAF90220FEF759F90320FEF756F9FF
:10206C0020236360E36943F00203E3610AB010BD0F
:10207C00000401403C010020840100200C30014090
:10208C00000002406401002008B51D4BDA6922F003
:10209C000202DA6120225A601022A3F578431A61F9
:1020AC00184B1B88042B1BD01749053B012BA1F1A6
:1020BC000C001ED8FEF7A6F80846FFF73CF9FFF710
:1020CC0089FE124A124BB2F90610D980B2F90810E7
:1020DC001981B2F90A10B2F90C2059819A8108BD04
:1020EC000949A1F10C00FEF76DF80846FFF717F946
:1020FC00E5E7FEF767F80846FFF705F9DFE700BFED
:10210C00000002403C0100205C0100205001002036
:10211C004201002008B502F07FF940230D49C1F8B7
:10212C008030BFF34F8FBFF36F8F01220A4B5A6180
:10213C0003F57C43DA6922F00202DA614FF4805233
:10214C00C1F88020BFF34F8FBFF36F8F20225A60EE
:10215C0008BD00BF00E100E00004014013B50022FF
:10216C00022140F20110FEF7CDFA194A0F219368B3
:10217C0023F00F0391FAA1F10124936068460094B7
:10218C00ADF804408DF8064002F054F9B023114A22
:10219C00202182F80633104B4FF480505C614023B1
:1021AC001360702382F80C330C4B59601060DA69A1
:1021BC0042F00202DA615960A3F550435A68224397
:1021CC005A605A6842F002025A6002B010BD00BF59
:1021DC000000014000E100E000040140000002406A
:1021EC002422FF21014802F089BC00BF3C000020E2
:1021FC00242108B50248FEF79BFD80B208BD00BF44
:10220C003C000020242108B50248FEF77DFD80B279
:10221C0008BD00BF3C0000204FF40052084B0121C8
:10222C001A81DA809A8000221983DA819A815A8184
:10223C009A825A821A82DA8259835A80704700BF76
:10224C003C000020074BDA8A022A03D90C2A1CBF57
:10225C000022DA821A8BFF2A84BF01221A83002201
:10226C005A8370473C00002010B5FFF7B9FFFEF70A
:10227C0073FD04280CD0FFF7B3FFFEF76DFD0428A7
:10228C0003D1FFF7BFFF042806D0FFF7A9FF03E037
:10229C00FFF7B8FF0428EED1114C2388362B13D04E
:1022AC00FFF7BAFF2388202B12D1FFF7ABFF0023D7
:1022BC006380E3820123238336230A490A4823805F
:1022CC0002F068FCFFF794FFBDE81040FFF7BABFBF
:1022DC00213B142BF0D8FFF795FF01236383EBE729
:1022EC003C0000201E4C000858000020B0F90020D3
:1022FC000D4B9A80B0F90220DA80B0F904201A81D3
:10230C00B0F906205A81B0F908209A81B0F90A2058
:10231C00DA81B0F90C201A82B0F90E205A82B0F989
:10232C0010209A82FFF764BF3C00002030B589B0C2
:10233C00FEF74DF90021182202A8012502F0DEFB60
:10234C0060231B4C43F67F612046CDE90035FEF738
:10235C0061FA6A464FF48051204602F083FA204617
:10236C004FF48051FDF710FFFFF788F92A462946F4
:10237C001048FEF7C7F92A4629460F48FEF7C2F95E
:10238C006A462946204602F06DFA29462046FDF79A
:10239C00FBFE2A4629460948FEF7B4F9636C43F460
:1023AC000043636423682B43236009B030BD00BF36
:1023BC00002C014008000804100010040100010466
:1023CC0007B5012300220549CDE9002304480A2260
:1023DC00FEF742F903B05DF804FB00BF01000104F5
:1023EC000008014007B5012300220549CDE900236F
:1023FC0004480A22FEF730F903B05DF804FB00BF75
:10240C000800080400080140012206210148FEF7DB
:10241C0079B900BF08000804012202481146FEF7F2
:10242C0071B900BF08000804012205210148FEF71C
:10243C0069B900BF10001004012206210148FEF703
:10244C0061B900BF10001004012202481146FEF7CA
:10245C0059B900BF10001004002370B5394A3A4C2A
:10246C000F29E3812382A382A3816381E380A3806C
:10247C0005460E46136419D80A2903D8A1F108039E
:10248C00012B15D80020FFF7C9F80023102D23834A
:10249C0011D8072D44D9A5F10803082B40D8DFE843
:1024AC0003F00C0C3F0C0C0C390C3C006429E9D0EB
:1024BC00FFF7B2FFE9E7642D32D14FF4E130FFF7BB
:1024CC008BF8FEF731F90023204A1380204A138041
:1024DC00012323830D2E26D80A2E26D91D4A00202F
:1024EC00136823F010031360FFF7B0F80023102DCE
:1024FC00638323D01CD80B3D022D1BD8FEF728F983
:10250C00144A136843F010031360FFF75BF80123C0
:10251C00638370BD4FF41650D1E7FFF775FFD9E711
:10252C00FFF760FFD6E7642ED8D0FFF78DFFDDE70D
:10253C00642DE3D0BDE87040FFF776BFBDE8704076
:10254C00FFF77ABF002C0140C40000208C03002050
:10255C008E030020000401400022FF21074BDA818A
:10256C001A829A82D98259809A80DA801A815A8189
:10257C009A811A835A83FFF7D9BE00BFC40000208A
:10258C001FB54B4B5A880E2A5CD15A89002A59D058
:10259C00198B002956D0153A112A53D8DFE802F0CE
:1025AC0009102330525252525252555B66717E833F
:1025BC008583404BD8681B8A0190ADF808300EE03B
:1025CC009B8973B1013BDBB2072B28BF07233A4A27
:1025DC00019220338DF80830FF238DF80930062145
:1025EC002DE00723F3E79B8943B1013BDBB2072BBB
:1025FC0028BF0723304A01923033EBE70723F9E772
:10260C009B89FBB164229B03A3F57F530E3BB3FB69
:10261C00F2F32A4A0192C3F303328DF80820C3F374
:10262C0003228DF80920C3F3031203F00F038DF876
:10263C000B30FF2309218DF80A208DF80C3001A8EE
:10264C00FEF7A6FF05B05DF804FB1A4BD3F8120099
:10265C00DB8A0190B1E79B8933B1013BDBB2072BDD
:10266C0028BF0723164AB3E70723FBE79B8933B13F
:10267C00013BDBB2072B28BF0723114ABBE707231B
:10268C00FBE79B89002BDDD06422C3EB0343A3F54E
:10269C007F43CD3BB3FBF2F30A4ABBE70A4B186806
:1026AC009B88019089E7094BF9E7094BF7E700BFD5
:1026BC00C4000020E44B0008810104078101044799
:1026CC008101040881010448234C00082A4C0008AD
:1026DC00314C00080022024BDA811A829A82704730
:1026EC00C40000200A4B1A8B62B95B88052B05D0FD
:1026FC00102B08D040F2DC52064B02E04FF47A72F9
:10270C00044B1A6470474FF40062034B1A61704714
:10271C00C4000020002C014000080140064B5A8BDD
:10272C0042B95B884FF48052102B044B01D11A61D3
:10273C0070475A61704700BFC40000200008014078
:10274C001FB5994CE38A62889A420DD0FF2B01D1B8
:10275C00FFF736FEE18A6088FFF77EFEFFF7C2FFC7
:10276C00FFF7DCFF6388E3826388053B0B2B00F2E9
:10277C003381DFE813F0A90027000C004E00720033
:10278C003101890089008900D4008900EE00E388BA
:10279C0063B1228B618B0A4392B23AB903EB830388
:1027AC005B00824A03F2DE339BB2136423893BB194
:1027BC0003EB83035B007D4A03F2DE339BB253636E
:1027CC0004B010BDA388002BF0D0228B618B0A4380
:1027DC0092B2002AEAD1032B744911D0042B16D0E3
:1027EC00012B734840F02081E3813223A382A5237F
:1027FC0023824FF4805303614FF4E1630B64D5E7FC
:10280C000223E381A523238240F21453F6E703232A
:10281C00F7E7A388002BC9D00022E281228B002A83
:10282C00C4D0032B0CD0042B0CD0012BBED1614B8C
:10283C0018689B8801900621ADF8083001A820E0AB
:10284C005D4BF5E75D4B072118689A889B790190E1
:10285C00ADF808208DF80A30F0E7A1880029A5D042
:10286C000023E381238B002BA0D0032904D004295F
:10287C009CD1534B0193E1E70421524B0DEB01002A
:10288C000193FEF785FE91E7A388002B8ED00022E2
:10289C00E281228B002A89D0032B0AD0042B0AD088
:1028AC00012B83D1484A5168106801AB03C308213E
:1028BC00C4E7464AF7E7464A01AB51681068127AFA
:1028CC0003C309211A70B9E7A388002B3FF46EAF3C
:1028DC00228B618B0A4392B2002A7FF467AF012BE3
:1028EC000ED0033B012B7FF661AFFFF7F3FE4FF4E5
:1028FC0080522F4B5A614FF47A7203F510530CE04F
:10290C00E3813223A382A5234FF480522382284BE8
:10291C001A614FF4FA6203F510531A6446E7A38860
:10292C00002B3FF443AF0022E281228B002A3FF4BC
:10293C003DAF032B08D0042B7FF438AF254BD3F8D5
:10294C001E005B8C019076E7224B98699B8B019063
:10295C0071E7A388002B3FF429AF228B618B0A43CC
:10296C0092B2002A7FF422AF032B11490AD0042B18
:10297C000FD0012B0FD1E3816423A3824FF480533A
:10298C004B6113E70223E381642323824FF400633A
:10299C00F6E70323F7E7FFF79DFE4FF480530B6137
:1029AC004FF400630B6101E7C4000020002C0140D0
:1029BC0000080140384C00083F4C0008464C000809
:1029CC00CC0104CCCC0103984E4C0008574C0008A9
:1029DC00604C0008E44B0008A388002B3FF4E6AEE3
:1029EC00228B618B0A4392B2002A7FF4DFAE032B59
:1029FC0010490FD0042B12D0012B0F4814D1E381B6
:102A0C003223A382A52323824FF48053036140F227
:102A1C009E73F3E60223E38140F21A43EEE60323AE
:102A2C00E38140F2DC53E9E6FFF754FE4FF48053A8
:102A3C004361F6E7002C0140000801400D4908B540
:102A4C00CB89B3B10B8A0BB1013B0B82088A0128ED
:102A5C0001D1FFF747FE8B8A0BB1013B8B828B8A2E
:102A6C00012B03D1BDE80840FFF758BE184308BF3F
:102A7C00C88108BDC40000200321F8B5012240F62E
:102A8C000800FDF73FFE194B1949DB8A012B01D1D8
:102A9C000B80F8BD022B01D10223F9E70C2BF7D0E8
:102AAC00012340220B800023124CA068013A00073E
:102ABC0048BF013392B248BF9BB2002AF5D1302BEC
:102ACC00E7D80F2BE8D904250B4F48F6B800FDF7D3
:102ADC00CFFEB7F9006048F6B800002EB8BF2561EC
:102AEC00FDF7C6FE002EF0DA6561EEE73C00002033
:102AFC0060010020000801400000002008B5FFF72D
:102B0C00B3FBFFF7B9FFFEF76BF900210A4A062069
:102B1C00138843F4004343F010031380FEF754F979
:102B2C00FFF736F9054B1980FFF728F9044B19808C
:102B3C00BDE80840FFF710BD2C0100202E0100203D
:102B4C00A401002030B52E4B87B01C8854B9FEF779
:102B5C0019FF2C4B9B78762B13D005D82F2B1AD022
:102B6C00302B2AD007B030BD772BFBD1FEF74AFEB5
:102B7C0012212548FEF789FE07B0BDE83040FEF76C
:102B8C0057BE042212210DEB0200FDF75BFB01A8DE
:102B9C00FFF7ACFBE6E71D4B1B8B002BE2D00D21A6
:102BAC00022201A8FDF74EFB9DF804100C29D9D880
:102BBC000DF10500FEF7ECFCD4E7144B8DF8044046
:102BCC005B8B5BB1124C134D22882B8892B29BB25B
:102BDC009A4203D09DF804100F2904D9FEF712FE77
:102BEC00112101A8C6E74B1C8DF80430FEF7DCFC64
:102BFC0001F118030DEB030101F8130CE4E700BF1E
:102C0C00880000203801002040000020C400002073
:102C1C0006030020040300200F4B10B41B88CBB913
:102C2C000E4B5B78072B15D10D4A0E4B1478507850
:102C3C001C806406917804D510BC58819981FFF7EB
:102C4C009FBC9980D178127910BC5880D9801A8198
:102C5C00FFF776BD10BC70478800002038010020BB
:102C6C00A6010020C4000020194B10B51B881B06C0
:102C7C002DD572B6174A184B104603F10C0153F8B8
:102C8C00044B8B4242F8044BF9D11B88138062B67B
:102C9C000D23124C2370124B1B88022B14D147F6B8
:102CAC00BF734FF67D7102881A4492B28A4209D8DA
:102CBC0042881A4492B28A4204D8828813449BB246
:102CCC008B4201D9052323700122064B1A8010BDBB
:102CDC00620100202C000020420100203A0000205C
:102CEC003C0100202E01002008B5074B1B881B0659
:102CFC0003D5064B1B88012B04D0FFF749F80122A2
:102D0C00034B1A70072008BD620100202E01002021
:102D1C003A00002008B5044B04481978FEF79EFDD4
:102D2C000022034B1A8008BD3A0000202C00002022
:102D3C002E01002038B5934C228822F4FE41112933
:102D4C008BB21DD8092B21D90B3B062B20D8DFE8E1
:102D5C0013F030008800AE00BA00CA00EE003B0150
:102D6C00A3F500430B3BC2F30E01062B0FD8DFE893
:102D7C0013F01C0077009E00AA00B600DD001B01BA
:102D8C0003F5FF41763189B20729E9D938BD218095
:102D9C00FFF7C0F9FFF718F90620FEF7EFFFFEF773
:102DAC0013F848F20B032380F0E70022764B2180C6
:102DBC001A80FEF799F9754B754A80B21880138802
:102DCC0023F4797323F003039BB2138000283DD0C6
:102DDC0070490828098B09D80125854015F0A40FE6
:102DEC0024D115F4A07F05D1042816D041BB43F0A3
:102DFC00020302E051B943F0060313801388664ABC
:102E0C0003F00703138048F20C03CCE743F48373FD
:102E1C0003211380614B1980F0E711B943F00503CE
:102E2C00EBE743F4827343F00103F1E711B943F08C
:102E3C000403E2E743F4827313800221574BEAE761
:102E4C0043F4817313800121544BE4E74E4A1388F9
:102E5C0001339BB21380192B98D948F20203A2E7D5
:102E6C0021804A4D2B88062B01D0082B11D1FEF75F
:102E7C00D4FE2A884A4B082A03D022F00202042AE4
:102E8C000FD100229A800F221A805A8048F2030335
:102E9C0089E7042B02D1FEF722FEEAE7FEF788F859
:102EAC00E7E700229A800F221A800D22EDE7C2F389
:102EBC000E022280FEF788F80022394B9A800122FC
:102ECC001A800E22E1E7C2F30E022280FEF776F89A
:102EDC000022334B9A8001221A800F22D5E7002260
:102EEC00294B21801A80294B1B88062B08D0023BCA
:102EFC00062B18D8DFE803F014171114171404006C
:102F0C00234B1888C0F34020FEF798FE0022244B78
:102F1C009A8064221A801022B7E7FEF7F2FDF5E7DB
:102F2C00FEF7B2FDF2E7FEF799FDEFE72180174BB4
:102F3C001B88062B08D0023B062B16D8DFE803F0C3
:102F4C0012150F1215120400FEF7CEFE80B9154AA9
:102F5C00138843F08003138048F2110323E7FEF734
:102F6C0013FEF3E7FEF79DFDF0E7FEF782FDEDE7BC
:102F7C000F23054A2380138801339BB213800A2B3D
:102F8C006AE700BF84000020A4010020400100205B
:102F9C002C0100203C0000203C0100203E010020C0
:102FAC003001002062010020104B21801B88082B6F
:102FBC0005D023F00203042B01D0FEF77FFDFFF7B1
:102FCC00CDF80120FDF700FF094B4FF496711B88DB
:102FDC0013F0800218BF0022064B15BF9A809A800E
:102FEC000122022214BF198019804EE740010020F3
:102FFC00620100203001002030B51C468BB005ADBD
:10300C001346ADF80E000A460DF10E000549009569
:10301C00FDF71FFA2846FDF789FC2046FDF786FCD4
:10302C000BB030BD6A4C000830B51C468BB005ADFA
:10303C00134603900A4603A805490095FDF709FAC3
:10304C002846FDF773FC2046FDF770FC0BB030BD35
:10305C006F4C00080022024B1A609A80704700BF28
:10306C00E000002008B5FDF773FC054A9388D118E1
:10307C0001339BB2382B28BF38238871938008BD4D
:10308C00E00000200A2801D03B2807D10021044B86
:10309C0001209A8899801A449171704700207047DA
:1030AC00E00000200023034A03489380034A136086
:1030BC00FDF73CBCE8010020744C0008E000002047
:1030CC0070B50546FDF73CF8094E02462946B01D81
:1030DC0001F029FD044640B92846FDF727FC0548B8
:1030EC00FDF724FC0120B47170BD0020FCE700BF8B
:1030FC00E0000020214D000810B50748FDF716FC34
:10310C000648FDF713FCBDE81040054800220E21CF
:10311C00044BC068FFF788BF774C0008874C000849
:10312C006C000020214D000870B53748374C384DE5
:10313C00FDF7FCFB3748FDF7F9FB2B460022052178
:10314C00B4F90000FFF758FF3348344EFDF7EEFB9F
:10315C002B4600220521B4F91600FFF74DFF30482D
:10316C00FDF7E4FB3346B4F9040000220821FFF715
:10317C0043FF3346B4F9060000220821FFF73CFF59
:10318C002B4600220821B4F90800FFF735FF25482B
:10319C00FDF7CCFB3346B4F90A0000220821FFF7F7
:1031AC002BFF3346B4F90C0000220821FFF724FF53
:1031BC002B4600220821B4F90E00FFF71DFF1A4818
:1031CC00FDF7B4FB3346B4F9100000220821FFF7D9
:1031DC0013FF3346B4F9120000220821FFF70CFF4D
:1031EC002B4600220821B4F91400FFF705FF0F4805
:1031FC00FDF79CFB2B46B4F918000022BDE870408B
:10320C000521FFF7F9BE00BF8D4C00083C000020E3
:10321C00214D0008AA4C0008B34C0008CA4C000809
:10322C00BE4C0008CE4C0008DA4C0008E64C0008F6
:10323C002DE9F84FDFF868A2FEF7E4FA9948FDF79C
:10324C0075FB994B1B88022B1AD00C2B1AD0012B17
:10325C0002D19648FDF76AFB5046FDF767FB944890
:10326C00FDF764FB5046FDF761FB924B1B88013B5D
:10327C00072B57D8DFE803F0084C56504A524E54EF
:10328C008D48E7E78D48E5E78D48FDF74FFBFFF7E5
:10329C00E1FEFFF707FF4FF6FF730025DFF82482EE
:1032AC002F46A8F800300423874EDFF82092736174
:1032BC00B9F800309BB2002BFAD00023844C0137B4
:1032CC00A9F800302760834A834BB3F802B0BBF1F6
:1032DC00000F40F04381814B1988138889B29BB24F
:1032EC00994200F03B81FFF7BDFEFFF7CBFE794A18
:1032FC000028E9D07A48FFF7E3FEB8B10122794BF8
:10330C00A3F800B0784B1A80BDE8F88F7748BCE77B
:10331C007748BAE77748B8E77748B6E77748B4E72D
:10332C007748B2E77748B0E7C725C1E77648FFF79B
:10333C00C7FE002880D17548FFF7C2FE18B1FFF711
:10334C00DBFEFFF7AFFE7248FFF7BAFE20B1012398
:10335C00E3802381FFF7A6FE6E48FFF7B1FE28B18C
:10336C000223E38001232381FFF79CFE6A48FFF7C9
:10337C00A7FE28B10323E38001232381FFF792FEEC
:10338C006648FFF79DFE28B10423E38001232381C7
:10339C00FFF788FE6248FFF793FE18B1FEF732FF85
:1033AC00FFF780FE5F48FFF78BFE18B1FEF720FF9A
:1033BC00FFF778FE5C48FFF783FE18B1FFF7B4FE09
:1033CC00FFF770FE5948FFF77BFE18B1FEF724FF9C
:1033DC00FFF768FE5648FFF773FE20B10122554BEC
:1033EC00DA82FFF75FFE5448FFF76AFE20B1022233
:1033FC00504BDA82FFF756FE5048FFF761FE20B1C2
:10340C000C224C4BDA82FFF74DFE4D48FFF758FE6D
:10341C0020B10022474BDA82FFF744FE4948FFF700
:10342C004FFE20B10122434B1A83FFF73BFE464867
:10343C00FFF746FE20B100223E4B1A83FFF732FE07
:10344C004248FFF73DFE20B101223A4B5A83FFF769
:10345C0029FE3F48FFF734FE20B10022354B5A833A
:10346C00FFF720FE3B48FFF72BFE58B14FF40052FC
:10347C00304B1A81DA809A800022DA819A815A8143
:10348C00FFF710FE3448FFF71BFE00283FF41BAF7C
:10349C000022284B9A825A821A82FFF703FE12E707
:1034AC00214D0008F74C0008600100208A4D0008EF
:1034BC00094D000840010020924D00089A4D00086B
:1034CC00104D0008000000200008014036010020CB
:1034DC00E8010020EC060020E0000020EE060020B1
:1034EC006D4D000888000020860000201A4D000851
:1034FC00244D00082E4D0008384D0008434D00089F
:10350C004F4D00085B4D0008704D0008784D0008C9
:10351C00844D00088C4D0008944D00089C4D00080B
:10352C00A44D0008AD4D0008B34D0008BC4D00087B
:10353C00C54D00083C000020CF4D0008D94D0008B7
:10354C00E34D0008E94D0008F44D0008FF4D00085C
:10355C00094E0008134E00081A4E0008002D3FF4C7
:10356C00E3AE013DADB2002D7FF4A2AEB8F9003050
:10357C00002BBFF69DAEF3681A04DB4302F48022E5
:10358C0003F004031343336192E600BF10F0800F85
:10359C0070B5744C08D00022D02822800CD1724B0C
:1035AC001A800122714B0DE02388052B0BD8DFE824
:1035BC0003F00A46698AA4C0902805D16A4B1A8088
:1035CC0004226A4B1A8070BD694900F00F030D8804
:1035DC0000F07000AB420AD1FF2666493028087013
:1035EC004B708E7014D010D8B8B11028E6D0072BC1
:1035FC001AD1FF215F4A402810705370917013D17B
:10360C00012323800623A38016E05028C7D0EEE7C1
:10361C00554B1A800522554BD4E7022323804FF0DB
:10362C0080435B6A6380CEE77028CCD1514A9D42BF
:10363C005370C8D1042323800023E380EFE7E38891
:10364C004D4AD054A08801339BB28342E380E6D329
:10365C0013460022114695B2A8420ED80022032030
:10366C00414B1A80414A108029B101221A80434AE9
:10367C00D3680133D3600023D0E713F8015B013228
:10368C006940E8E73B4B3028987003D00ED80428EB
:10369C0007D840B100230221334A1380334A1180EA
:1036AC00BCE72F280BD0002323808CE7762802D090
:1036BC007728EFD0F7E7032323801723A3E703230F
:1036CC00238010239FE7E3882B4AD054A088013332
:1036DC009BB28342E380A2D313460022114695B2DB
:1036EC00854205D30022204B02201A801F4ABAE7DC
:1036FC0013F8015B01326940F1E7E388042B08D829
:10370C00DFE803F0030D0F111300512803D105223C
:10371C002280013391E74628FBD00022F8E74C28A1
:10372C00FAE74128F8E75328F6E74828F5D1FEF7E1
:10373C0019F8E388042B08D8DFE803F003090B0D14
:10374C000F00512801D000232380E388E1E74D28A6
:10375C00F8E74F28F6E74428F4E74528F3D1FFF7BC
:10376C0067FDF0E7F40100208800002086000020AF
:10377C006001002038010020A60100206C00002010
:10378C002DE98848DFF854A2DFF85482FEF7C0F820
:10379C00B8F90030934C002BBCBF042363610023A9
:1037AC00914A924F1380924E924ADFF84C92934D6D
:1037BC003380A9F800302B807B803B80BB8013804A
:1037CC00FFF79CF9FEF7D4F84FF4004333804FF623
:1037DC00FF73A8F80030042363612361DFF820B283
:1037EC00884B1A88BBF8003092B29BB29A4203D035
:1037FC00FDF7AEF8FFF7CAFEFEF7AAF82B889BB2CE
:10380C00013B062B1BD8DFE803F004070C0F121446
:10381C00490000232B80B7E7FFF794F900232B8096
:10382C000DE0FFF7F9F9F9E7FFF71EFAF6E7FDF7F8
:10383C00E9FF0023A9F80030FFF756FA2880BAF800
:10384C0000309BB2002BCBD00023AAF80030FDF740
:10385C0023F8B8F90000002839DD6B49B0F5FA7F80
:10386C000B8803F101039BB20B8057D1674AB2F866
:10387C0000C0BCF10C0F51D8012202FA0CF212F468
:10388C00825F39D112F0240C15D112F0120F45D0F1
:10389C00B3F5FA7F07D10423236118E0FFF73AFA56
:1038AC00FDF7C6FFBAE7B3F57A7F10D3A1F800C0D5
:1038BC00042363610BE0B3F5FA7FECD0B3F52F7FF3
:1038CC00F6D0B3F5487FE6D0B3F57A7F23D23288B1
:1038DC00531E012B0DD948F2110022F4FE418142F6
:1038EC008BB206D8190426D4032B69D04ED8002BE2
:1038FC0055D0FFF7A3F871E7B3F5FA7FCBD0B3F54A
:10390C00167FD5D0B3F52F7FC5D0B3F5487FCFD078
:10391C00B3F5617FD7E700230B80C9E78342D6DB81
:10392C0000230B80E3681A04DB4302F4802203F0CB
:10393C0004031343B0E7A3F50043112BD9D801A11D
:10394C0051F823F0A5390008B3390008C339000831
:10395C00CD390008FF380008FF380008FF38000890
:10396C00FF380008FF380008FF3800089F390008AE
:10397C009F3900089F3900089F3900089F390008BB
:10398C009F3900089F3900089F3900080A3B072B14
:10399C00AFD8FFF7CFF9ACE73223A8F8003048F2E4
:1039AC000A033380A5E74FF4FA73C2F30E02328098
:1039BC00A8F800309DE7C2F30E0264233280F7E7CB
:1039CC00BB883A8801339BB29A42BB8091D27B88E8
:1039DC006FEA43436FEA5343E3E700BF360100202D
:1039EC00000000200008014062010020300100208E
:1039FC00840000202C01002088000020860000207C
:103A0C00EC060020EE0600205E0100206001002084
:103A1C0010B590B01422002108A801F06FF8142200
:103A2C00002101A801F06AF802244FF4803301222E
:103A3C00CDE90D43CDE906234FF4E01306A80A9215
:103A4C000F9300F00BFA08B172B6FEE70F23CDE925
:103A5C0001344FF480630390CDE90430214601A872
:103A6C0000F0BEFB08B172B6FEE710B010BD00004E
:103A7C0007B500F0A5F8FFF7CBFF0C4B9A6942F0A5
:103A8C0020029A619A6902F020020192019A9A69C5
:103A9C0042F004029A619B6903F004030093009BBB
:103AAC0003B05DF804EBFFF76BBE00BF00100240E3
:103ABC000E4B82B09A6942F001029A619A6902F047
:103ACC0001020092009ADA6942F08052DA61DB69F5
:103ADC00074A03F080530193019B536823F0E06382
:103AEC0043F00073536002B0704700BF00100240F7
:103AFC0000000140FEE7FEE7FEE7FEE7FEE7704749
:103B0C007047704700F06EB8704700000C480D49C4
:103B1C000D4A002302E0D458C4500433C4188C421C
:103B2C00F9D30A4A0A4C002301E013600432A24282
:103B3C00FBD3FFF7E9FF01F009F8FFF799FF704796
:103B4C000000002010000020704E00081000002023
:103B5C0018070020FEE7704710B54FF0FF32002425
:103B6C00044B1A611C61DA60DC60FFF7F4FF20463D
:103B7C0010BD00BF0010024038B50E4B05461A7838
:103B8C004FF47A73B3FBF2F30B4A1068B0FBF3F00B
:103B9C0000F07CF8044658B90F2D09D80246294686
:103BAC004FF0FF3000F042F82046044B1D6038BD4A
:103BBC000120FCE708000020040000200C0000207D
:103BCC00074A08B51368032043F01003136000F094
:103BDC001BF80F20FFF7D0FFFFF76AFF002008BD8E
:103BEC0000200240034A044B11681B780B441360FD
:103BFC00704700BFF006002008000020014B186839
:103C0C00704700BFF006002007490302CA6803F49E
:103C1C00E06322F4E0621204120C134343F0BF631E
:103C2C0043F40033CB60704700ED00E0154B30B52A
:103C3C00DC68C4F30224C4F10703251D042B28BF40
:103C4C000423062D4FF0FF3594BF0024033C05FAE6
:103C5C0003F321EA0303A54022EA0502A34000284E
:103C6C0043EA0203ACBF00F16040074A4FEA03137A
:103C7C00DBB2ABBF00F5614000F00F0080F8003301
:103C8C00135430BD00ED00E014ED00E00138B0F14C
:103C9C00807F0BD24FF0E023F021054A586182F867
:103CAC0023100020072298611A6170470120704789
:103CBC0000ED00E0114AD36813F0100305D0104951
:103CCC00CB6943F00203CB611023D268500706D5B1
:103CDC000B4943F00403CA6942F00102CA61074A66
:103CEC00D169C90708D50648C16941F00401C16111
:103CFC00D16921F00101D161D360704700200240ED
:103D0C00F8060020064B186910F0800007D0054A11
:103D1C005A6002F188325A601869C0F3C0107047BB
:103D2C000020024023016745034A0020136943F039
:103D3C0080031361704700BF0020024070B5054638
:103D4C00FFF75CFF0646114CE368D80712D4E36812
:103D5C00990644BF2023E360E368DA0606D4E369DE
:103D6C00DB0703D4E06810F0040007D0FFF7A2FFD4
:103D7C00012003E06B1CE7D00DB9032070BDFFF7E9
:103D8C003DFF801BA842DFD9F7E700BF00200240AF
:103D9C000022064BDA61064B1A6942F002021A61E4
:103DAC0058611A6942F040021A617047F806002007
:103DBC00002002402DE9F041264F05463B7E884607
:103DCC00012B44D001243C7603684CF25030022B7A
:103DDC001AD1FFF7B3FF20B1012000233B76BDE8D9
:103DEC00F0811D4CF86123694CF2503043F0040310
:103DFC002361236943F040032361FFF79FFF23698D
:103E0C0023F004032361E8E7FFF798FF0028E3D1D0
:103E1C004FF0FF33C8F800302046AE680E4CD5E9A1
:103E2C00023203EB8223B342D7D93046FFF7B0FFFF
:103E3C004CF25030FFF782FF236923F00203236119
:103E4C0010B1C8F80060C8E706F58066E7E7022005
:103E5C00C5E700BFF8060020002002402DE9F34121
:103E6C00054638B30368DB0710D42B689F075ED474
:103E7C002B68190700F195802B685A0700F1C18057
:103E8C00E869002840F02C81002029E0904C636800
:103E9C0003F00C03042B07D0636803F00C03082B0E
:103EAC000AD16368DE0307D523689C03DDD56B68F4
:103EBC00002BDAD1012013E06B68B3F5803F12D1EF
:103ECC00236843F480332360FFF798FE064623688B
:103EDC009803CAD4FFF792FE801B6428F7D90320FD
:103EEC0002B0BDE8F0819BB9236823F480332360D2
:103EFC00236823F480232360FFF780FE06462368A3
:103F0C009903B2D5FFF77AFE801B6428F7D9E6E750
:103F1C00B3F5A02F236803D143F480232360CFE7AC
:103F2C0023F480332360236823F48023CBE7684C8D
:103F3C00636813F00C0F07D0636803F00C03082BB5
:103F4C0010D16368DA030DD423689B0702D52B6963
:103F5C00012BAFD123686A6923F0F80343EAC2034B
:103F6C00236085E72A695B4B6AB101221A60FFF76F
:103F7C0045FE064623689F07ECD4FFF73FFE801BE7
:103F8C000228F7D9ABE71A60FFF738FE064623681C
:103F9C0098077FF56DAFFFF731FE801B0228F6D92D
:103FAC009DE7AA694A4E4B4BE2B10122C3F880242B
:103FBC00FFF724FE0446736A9B070DD54FF4FA52A3
:103FCC00454B1B68B3FBF2F3019300BF019B5A1ED8
:103FDC000192002BF9D14FE7FFF710FE001B0228CE
:103FEC00E9D97CE7C3F88024FFF708FE0446736A1E
:103FFC009F077FF541AFFFF701FE001B0228F6D9A2
:10400C006DE7334CE369D80024D40127E36943F00E
:10401C008053E361E36903F080530093009B2F4EC0
:10402C003368D90518D5EB68012B26D1236A43F0E8
:10403C0001032362FFF7E2FD41F288380646236A4A
:10404C009B073FD5002F3FF41BAFE36923F0805350
:10405C00E36115E70027E2E7336843F480733360CC
:10406C00FFF7CCFD80463368DA05DCD4FFF7C6FDDC
:10407C00A0EB08006428F6D931E7ABB9236A41F20A
:10408C00883823F001032362236A23F0040323629C
:10409C00FFF7B4FD0646236A9807D3D5FFF7AEFDAC
:1040AC00801B4045F7D91AE7052B236A03D143F04F
:1040BC0004032362BAE723F001032362236A23F08B
:1040CC000403B6E7FFF79AFD801B4045B7D906E716
:1040DC00001002400000424204000020007000402A
:1040EC002A4C636803F00C03082B3ED00022284BAB
:1040FC0002281A662CD1FFF781FD06462368990128
:10410C0020D42B6AB3F5803F05D16268A96822F4EC
:10411C0000320A436260696A62680B4322F47412CB
:10412C001343012263601A4B1A66FFF767FD0546BD
:10413C0023689A013FF5A8AEFFF760FD401B0228EB
:10414C00F6D9CCE6FFF75AFD801B0228D6D9C6E675
:10415C00FFF754FD054623689B017FF595AEFFF7ED
:10416C004DFD401B0228F6D9B9E601283FF4B8AE44
:10417C0063682A6A03F4803191427FF49BAE6A6AC9
:10418C0003F4701393423FF47FAE93E600100240A9
:10419C00000042420D4A536803F00C01082912D169
:1041AC000B48C3F38341DB03405C09D55368094AD0
:1041BC00C3F340435043084AD35CB0FBF3F0704761
:1041CC00064B584370470348704700BF001002402D
:1041DC004F4E000800127A005F4E000800093D00A7
:1041EC002DE9F0410D46044610B90120BDE8F081DF
:1041FC00444A136803F007038B4228D321688E07C7
:10420C0030D4CA0743D43F4A136803F00703AB42C8
:10421C0065D822683C4D12F0040F6CD1130706D5FB
:10422C006B68226923F4605343EAC2036B60FFF7A7
:10423C00B1FF6B68354AC3F30313D35CD840344BDE
:10424C001860344B1868FFF797FC0020CEE7136812
:10425C0023F007030B431360136803F007038B422F
:10426C00C3D1CBE7284B11F0040F1EBF5A6842F4A0
:10427C00E0625A60080742BF5A6842F460525A60C2
:10428C005A68A06822F0F00202435A60B9E76268EB
:10429C001D4E012A33681AD113F4003FA5D0736860
:1042AC0041F2883823F0030313437360FFF7A6FC35
:1042BC0007467368626803F00C03B3EB820FA2D05D
:1042CC00FFF79CFCC01B4045F3D903208EE7022A64
:1042DC0002D113F0007FE1E713F0020FDEE7136861
:1042EC0023F007032B431360136803F00703AB425F
:1042FC007FF47BAF8DE76B68E16823F4E0630B43DD
:10430C006B608BE70020024000100240374E000823
:10431C00040000200C000020244B024698421CD1C3
:10432C0001291CD002291CD003291CD004291CD023
:10433C0005291CD01E486C33062918BF0346186883
:10434C00012920F0010018604FF00000186058603F
:10435C009860D8600DD151607047154BEFE7154B45
:10436C00EDE7154BEBE7154BE9E7154BE7E7154B7D
:10437C00E5E70239052917D8DFE801F003070A0D34
:10438C00101310230020536070474FF48073F9E72B
:10439C004FF48053F6E74FF48033F3E74FF4801378
:1043AC00F0E74FF08073EDE701207047000002400A
:1043BC0080000240080002401C0002403000024015
:1043CC004400024058000240124B70B50B4413F8E5
:1043DC00015CD2E9023633431669445933435669BA
:1043EC0024F4FF443343966924F070043343D669B4
:1043FC0041193343566A33432343435153680020D6
:10440C00CB601368126A8B604B681B0C1B04134344
:10441C004B6070BD614E00080020044B044A1860CC
:10442C0058609860D86018615A6170470004014068
:10443C00FFFF0F00024610B50079136800283DD02D
:10444C00002B45D0507901281BD0022823D030BB3B
:10445C0021494C6824EA03044C600C681C430C6032
:10446C0092796AB1022A1CD0032A23D0012A31D1B5
:10447C00194AD16821EA0301D16091680B4393601A
:10448C0010BD1549086820EA030008604868184305
:10449C0048600020E4E7104908681843F5E701205C
:1044AC00DEE70D4A916821EA03019160D1680B4364
:1044BC00D360E5E7084A91681943F6E7064A1168A4
:1044CC0021EA03011160516821EA03035360D7E725
:1044DC001846D5E70120D3E700040140224B98424F
:1044EC000BD103F58433DA6842F00402DA60DA683F
:1044FC0022F004020020DA6070471C4B984209D16C
:10450C0003F58233DA6842F00802DA60DA6822F0E6
:10451C000802EFE7164B984209D103F58033DA68AD
:10452C0042F01002DA60DA6822F01002E2E7114B76
:10453C00984209D103F57C43DA6842F02002DA6034
:10454C00DA6822F02002D5E70B4B984209D103F52B
:10455C007843DA6842F04002DA60DA6822F040020E
:10456C00C8E70120704700BF00080140000C014063
:10457C000010014000140140001801402DE9F04FDB
:10458C000D680446C5F30F2595FAA5F20326B2FA79
:10459C0082F204274FF0011C40F2011E35FA02F0A2
:1045AC0001D1BDE8F08F012393402B426AD0072A3A
:1045BC0088BFA2F10803D1F804A08ABF0CFA03F358
:1045CC000EFA02F343F08063BAF1080F0ED1E068E3
:1045DC004FEA132898FAA8F9B9FA89F920EA0808D9
:1045EC00086900FA09F048EA0000E0604FEA136835
:1045FC0093FAA3F9B9FA89F993FAA3FB0F20BBFA42
:10460C008BFB4FEA890900FA09F954F808004FEAC4
:10461C008B0B20EA09090AFA0BFA49EA0A0A44F850
:10462C0008A0486820F0080001282BD193FAA3F9C0
:10463C00B9FA89F993FAA3F0B0FA80F04FEA890934
:10464C0006FA09F92AEA09094FEA800A886800FA89
:10465C000AF049EA000044F8080093FAA3F9B9FA01
:10466C0089F993FAA3F3B3FA83F34FEA890907FAAA
:10467C0009F920EA0909C8689B00984049EA00003A
:10468C0044F80800013289E7144B1A6842F0010221
:10469C001A601A689207FCD55A6822F003025A6015
:1046AC005A6812F00C0FFBD11A6822F080721A6053
:1046BC00186810F00070FBD158601A6822F4502270
:1046CC001A601A6822F0F80242F080021A609860B0
:1046DC005A6A42F080725A62704700BF0010024062
:1046EC00034B044A5B68C3F30313D35CD840704795
:1046FC0000100240374E0008034B044A5B68C3F3BA
:10470C000223D35CD840704700100240474E00088B
:10471C00034B044A5B68C3F3C223D35CD840704795
:10472C0000100240474E0008094A5368DB0341BFA2
:10473C0053680848C3F34043013348BFB0FBF3F060
:10474C00536858BF0448C3F383430233584370473C
:10475C000010024000127A0000093D00044B5B6817
:10476C0003F00C03082B01D1FFF7DEBF01487047A3
:10477C000010024000127A0010B50146FFF7EEFF60
:10478C000860FFF7ADFF48600446FFF7B5FF88608F
:10479C002046FFF7BDFFC86010BD02460068F0B5AB
:1047AC0010F0400023D1D1E900373B438F684D69AD
:1047BC003B43CF6816683B430F690C6A3B438F69D8
:1047CC002B433B43CF6926F47F463B43234326F0E0
:1047DC00BF06334313605368B4F5005F23F0040342
:1047EC0043EA1543536001D18B8C1361F0BD01205A
:1047FC00FCE700001A4A036890420AD0B0F1804FDF
:10480C0007D0A2F59432904203D002F58062904218
:10481C0015D14A6823F070031343114A90420AD011
:10482C00B0F1804F07D0A2F59432904203D002F53C
:10483C008062904203D1CA6823F44073134303602F
:10484C008B68C3620B888362054B984204BF0B696B
:10485C000363436943F0010343610020704700BFC9
:10486C00002C0140B1F5807F30B500F0908005D868
:10487C0001292AD0102958D0012030BDB1F5805F14
:10488C00FAD1036A156823F480530362036A4468FF
:10489C00C16923F4005321F4E64141EA052115696D
:1048AC0043EA0533556823F4805343EA0533504DEE
:1048BC00A84204BF956924F48044D26808BF44EA36
:1048CC0085144460C16102642CE0036A156823F00E
:1048DC0001030362036A4168846923F0020324F034
:1048EC0073042C4315692B43556823F001032B43A8
:1048FC003F4DA84212D1556923F0080343EA8503C2
:10490C00956823F0040343EA8503956921F48071CB
:10491C002943D56921F4007141EA4501D26841600F
:10492C008461426303620020A7E7036A156823F0E1
:10493C0010030362036A4168846923F0200324F4A2
:10494C00E64444EA0524156943EA0513556823F047
:10495C00100343EA0513264DA84213D1556923F0E1
:10496C00800343EA8513956823F0400343EA8513DB
:10497C00956921F4806141EA8501D56921F40061D2
:10498C0041EAC501D268416084618263CAE7036A67
:10499C00156823F480730362036A4168C46923F4C5
:1049AC00007324F073042C43156943EA05235568FE
:1049BC0023F4807343EA05230D4DA84213D15569A6
:1049CC0023F4006343EA8523956823F4806343EA68
:1049DC008523956921F4805141EA0511D56921F4AB
:1049EC00005141EA4511D2684160C461C26399E744
:1049FC00002C0140154B98420BD103F55843DA6853
:104A0C0042F48042DA60DA6822F48042DA600020F4
:104A1C0070470F4B98420AD103F5E6331A6942F4FA
:104A2C0000321A611A6922F400321A61EFE7094B5D
:104A3C00984209D103F5E4331A6942F480221A61D1
:104A4C001A6922F48022F0E70120704700380140F7
:104A5C00004400400048004030B5C36804469B0445
:104A6C000D4685B002D5012005B030BD4B68C96834
:104A7C00C2680B43296922F4B0520B4322F00C029A
:104A8C001343C3600369AA6823F4405313430361BF
:104A9C0043696A6923F44073134343616846FFF723
:104AAC006BFE134B9C4219D1039B002BDBD02A6865
:104ABC00002AD8D019214B439200B3FBF2F36422A5
:104ACC00B3FBF2F102FB11331B013233B3FBF2F3F4
:104ADC0003EB01139BB20020A360C5E7054B9C427E
:104AEC0001D1029BE1E7044B9C42BCD1F9E700BF2A
:104AFC000038014000440040004800400346024496
:104B0C00934200D1704703F8011BF9E70346C9B281
:104B1C00184613F8012B12B18A42F9D170470029BB
:104B2C0018BF0020704710B56AB10139841810F80D
:104B3C00012B11F8013F9A4203D1A04201D0002A67
:104B4C00F5D1D01A10BD1046FCE7000070B5002658
:104B5C000C4D0D4C641BA410A64209D100F030F88A
:104B6C0000260A4D0A4C641BA410A64205D170BD48
:104B7C0055F8043B98470136EEE755F8043B984747
:104B8C000136F2E7684E0008684E0008684E0008CF
:104B9C006C4E0008034611F8012B03F8012B002A78
:104BAC00F9D170470A44914200F1FF3300D17047AC
:104BBC0010B511F8014B914203F8014FF9D110BD1A
:104BCC00F8B500BFF8BC08BC9E467047F8B500BFEE
:084BDC00F8BC08BC9E467047BE
:104BE4002D00002000002E00003000008101040789
:104BF40000FF8101040800FF8101040002FF81011C
:104C0400040003FF76302E353665206C6C00763157
:104C14002E302046313033543800656E645800819C
:104C240001043803FF008101043802FF00810104FC
:104C34001801FF0073686F6F740D007265636F6E07
:104C44000D007265636F66660D0073687574746534
:104C5400720A00766964656F6F6E0A00766964652E
:104C64006F6F66660A0073692B7A00736C2B7A0087
:104C74003E20004E5420427573204572726F727349
:104C84000D0A006372633A2000506172616D6574AD
:104C94006572732073746F72656420696E20536546
:104CA4007475700D0A004C61796F75743A20004D6B
:104CB4006F64756C6549643A2000416363536361B2
:104CC4006C653A202000202C20004163635A6572F1
:104CD4006F3A202020004779726F5363616C653A04
:104CE40020004170706C7941636346696C7465722D
:104CF4003A20000D0A48656C6C6F2C204920616DC8
:104D040020494D550076302E353665004D505536C8
:104D14003058300D0A004D5055363530300D0A00EC
:104D24004D5055393235300D0A004D505539323514
:104D3400350D0A0049434D34323630350D0A0049E9
:104D4400434D3432363838500D0A0049434D34321D
:104D5400363838560D0A00756E6B6E6F776E204DBF
:104D640050552F49434D0D0A0040510052455354AC
:104D7400415254006E746275736572726F7273007F
:104D840073747265616D310073747265616D3200A4
:104D940073747265616D330073747265616D340090
:104DA40072657472696576650073746F7265006705
:104DB4006574736574757000636C72736574757073
:104DC400007365746964696D753100736574696431
:104DD400696D7532007365746964696D7533006358
:104DE4006C7269640073657461636366696C7400F2
:104DF400636C7261636366696C740073657465786F
:104E040074636C6B00636C72657874636C6B0063C1
:104E14006C7261636300636C726779726F00081C63
:104E24003044586C800000000004040400000800B2
:104E34000000080000000000000000010203040656
:104E44000708090000000001020304020304050628
:104E54000708090A0B0C0D0E0F10100102081C3074
:044E640044586C80C2
:044E6800310100080C
:044E6C000D0100082C
:104E7000FFFF00000024F40001000000100000000B
:0400000508003B199B
:00000001FF
