:020000040800F2
:1000000000001024710F0208B90E0208BB0E02088E
:10001000BD0E0208BF0E0208C10E0208000000005B
:10002000000000000000000000000000C30E0208F5
:10003000C50E020800000000C70E0208C90E020823
:10004000C10F0208C10F0208C10F0208C10F020848
:10005000C10F0208C10F0208C10F0208C10F020838
:10006000C10F0208C10F0208C10F0208C10F020828
:10007000C10F0208C10F0208C10F0208C10F020818
:10008000C10F0208C10F0208C10F0208C10F020808
:10009000C10F0208C10F0208C10F0208C10F0208F8
:1000A000C10F0208C10F0208C10F02082D54000839
:1000B000C10F0208C10F0208C10F0208C10F0208D8
:1000C000C10F0208C10F0208C10F0208C10F0208C8
:1000D000C10F02081164000881450008C10F020821
:1000E000C10F0208C10F0208C10F0208C10F0208A8
:1000F000C10F0208C10F0208A9550008C10F02086C
:10010000C10F0208C10F0208C10F0208C10F020887
:10011000F93F000805430008C10F0208C10F02089B
:10012000C10F0208C10F0208C10F0208C10F020867
:10013000C10F02080000000000000000C10F02080B
:10014000C10F0208C10F0208C10F0208C10F020847
:10015000C10F0208C10F0208C10F0208C10F020837
:10016000C10F0208C10F0208C10F0208C10F020827
:10017000C10F0208DD660208C10F0208000000007E
:10018000C10F0208C10F0208C10F0208C10F020807
:10019000C10F0208C10F0208C10F0208C10F0208F7
:1001A000C10F0208C10F0208C10F0208C10F0208E7
:1001B000C10F0208C10F0208C10F0208C10F0208D7
:1001C000C10F0208C10F020800000000000000007B
:1001D0000000000000000000C10F02080000000045
:1001E000000000000000000000000000000000000F
:1001F0000000000000000000C10F0208C10F02084B
:10020000C10F0208C10F020800000000C10F020860
:100210004D3F0008C10F0208C10F0208C10F0208BC
:10022000C10F0208C10F0208C10F02080000000040
:10023000C10F0208C10F020800000000C10F020830
:10024000C10F0208C10F0208C10F0208C10F020846
:10025000C10F0208C10F0208C10F0208C10F020836
:10026000C10F0208C10F0208C10F0208C10F020826
:10027000C10F0208C10F0208C10F020800000000F0
:10028000C10F0208C10F020800000000C10F0208E0
:1002900000000000C10F0208C10F020800000000AA
:0C02A00000000000C10F0208C10F02089E
:1002B00010B5054C237833B9044B13B10448AFF3A0
:1002C00000800123237010BD1003002400000000F3
:1002D000EC70020808B5034B1BB103490348AFF3A8
:1002E000008008BD0000000014030024EC70020828
:1002F00010F8012B11F8013B012A28BF9A42F7D0D0
:10030000D01A7047034613F8012B002AFBD1181AA4
:100310000138704781F0004102E000BF83F00043E4
:1003200030B54FEA41044FEA430594EA050F08BF90
:1003300090EA020F1FBF54EA000C55EA020C7FEA54
:10034000645C7FEA655C00F0E2804FEA5454D4EBD1
:100350005555B8BF6D420CDD2C4480EA020281EA9B
:10036000030382EA000083EA010180EA020281EAD3
:100370000303362D88BF30BD11F0004F4FEA013125
:100380004FF4801C4CEA113102D0404261EB410134
:1003900013F0004F4FEA03334CEA133302D05242BA
:1003A00063EB430394EA050F00F0A780A4F1010476
:1003B000D5F1200E0DDB02FA0EFC22FA05F28018B0
:1003C00041F1000103FA0EF2801843FA05F3594196
:1003D0000EE0A5F120050EF1200E012A03FA0EFC15
:1003E00028BF4CF0020C43FA05F3C01851EBE3713F
:1003F00001F0004507D54FF0000EDCF1000C7EEB5C
:1004000000006EEB0101B1F5801F1BD3B1F5001F99
:100410000CD349085FEA30004FEA3C0C04F10104B8
:100420004FEA445212F5800F80F09A80BCF1004FE1
:1004300008BF5FEA500C50F1000041EB045141EA63
:10044000050130BD5FEA4C0C404141EB0101013C2C
:1004500028BFB1F5801FE9D291F0000F04BF01461B
:100460000020B1FA81F308BF2033A3F10B03B3F1ED
:1004700020020CDA0C3208DD02F1140CC2F10C027D
:1004800001FA0CF021FA02F10CE002F11402D8BFDB
:10049000C2F1200C01FA02F120FA0CFCDCBF41EAA7
:1004A0000C019040E41AA2BF01EB0451294330BD76
:1004B0006FEA04041F3C1CDA0C340EDC04F1140453
:1004C000C4F1200220FA04F001FA02F340EA03002A
:1004D00021FA04F345EA030130BDC4F10C04C4F170
:1004E000200220FA02F001FA04F340EA0300294650
:1004F00030BD21FA04F0294630BD94F0000F83F49A
:10050000801306BF81F480110134013D4EE77FEA7C
:10051000645C18BF7FEA655C29D094EA050F08BFC8
:1005200090EA020F05D054EA000C04BF19461046A9
:1005300030BD91EA030F1EBF0021002030BD5FEAED
:10054000545C05D14000494128BF41F0004130BD15
:1005500014F580043CBF01F5801130BD01F0004569
:1005600045F0FE4141F470014FF0000030BD7FEADC
:10057000645C1ABF194610467FEA655C1CBF0B46D7
:10058000024650EA013406BF52EA033591EA030FEE
:1005900041F4002130BD00BF90F0000F04BF0021E6
:1005A000704730B54FF4806404F132044FF0000519
:1005B0004FF0000150E700BF90F0000F04BF002192
:1005C000704730B54FF4806404F1320410F00045F8
:1005D00048BF40424FF000013EE700BF42004FEAF3
:1005E000E2014FEA31014FEA02701FBF12F07F4370
:1005F00093F07F4F81F06051704732F07F4208BF27
:10060000704793F07F4F04BF41F40021704730B52D
:100610004FF4607401F0004521F000411CE700BF79
:1006200050EA010208BF704730B54FF000050AE0FC
:1006300050EA010208BF704730B511F0004502D5FD
:10064000404261EB41014FF4806404F132045FEAFF
:10065000915C3FF4D8AE4FF003025FEADC0C18BFA8
:1006600003325FEADC0C18BF033202EBDC02C2F19A
:10067000200300FA03FC20FA02F001FA03FE40EA2C
:100680000E0021FA02F11444BDE600BF80F00040E4
:1006900002E000BF81F0004142001FBF5FEA41035A
:1006A00092EA030F7FEA226C7FEA236C6AD04FEA5A
:1006B0001262D2EB1363C1BFD2184140484041409F
:1006C000B8BF5B42192B88BF704710F0004F40F451
:1006D000000020F07F4018BF404211F0004F41F46D
:1006E000000121F07F4118BF494292EA030F3FD039
:1006F000A2F1010241FA03FC10EB0C00C3F120034C
:1007000001FA03F100F0004302D5494260EB4000DA
:10071000B0F5000F13D3B0F1807F06D340084FEA45
:10072000310102F10102FE2A51D2B1F1004F40EB3A
:10073000C25008BF20F0010040EA030070474900A2
:1007400040EB0000013A28BFB0F5000FEDD2B0FA3F
:1007500080FCACF1080CB2EB0C0200FA0CF0AABF62
:1007600000EBC25052421843BCBFD0401843704700
:1007700092F0000F81F4000106BF80F40000013206
:10078000013BB5E74FEA41037FEA226C18BF7FEADD
:10079000236C21D092EA030F04D092F0000F08BF1F
:1007A0000846704790EA010F1CBF0020704712F006
:1007B0007F4F04D1400028BF40F00040704712F145
:1007C00000723CBF00F50000704700F0004343F0AA
:1007D000FE4040F4000070477FEA226216BF0846E0
:1007E0007FEA23630146420206BF5FEA412390EAA3
:1007F000010F40F4800070474FF0000304E000BF99
:1008000010F0004348BF40425FEA000C08BF704749
:1008100043F0964301464FF000001CE050EA01020D
:1008200008BF70474FF000030AE000BF50EA010222
:1008300008BF704711F0004302D5404261EB41010F
:100840005FEA010C02BF84460146002043F0B64334
:1008500008BFA3F18053A3F50003BCFA8CF2083A59
:10086000A3EBC25310DB01FA02FC634400FA02FC62
:10087000C2F12002BCF1004F20FA02F243EB020069
:1008800008BF20F00100704702F1200201FA02FCCB
:10089000C2F1200250EA4C0021FA02F243EB0200BE
:1008A00008BF20EADC7070477BB972B90029BEBF6F
:1008B00000204FF0004106E008BF00281CBF6FF089
:1008C00000414FF0FF3000F0D7B9ADF1080C6DE9F1
:1008D00004CE002909DB002B1ADB00F069F8DDF8F3
:1008E00004E0DDE9022304B07047404261EB4101BE
:1008F000002B1BDB00F05CF8DDF804E0DDE90223EF
:1009000004B0404261EB4101524263EB4303704744
:10091000524263EB430300F04BF8DDF804E0DDE9FD
:10092000022304B0404261EB41017047524263EB45
:10093000430300F03DF8DDF804E0DDE9022304B0F4
:10094000524263EB4303704707EE900AF5EEC07A1C
:10095000F1EE10FA01D400F00BB8F1EE677A08B5A9
:1009600017EE900A00F004F8404261EB410108BD27
:100970009FED0B6B07EE900A9FED0B5BB7EEE77AEE
:1009800027EE066BBCEEC66BB8EE464BA4EE457B7D
:10099000FCEEC77B16EE101A17EE900A704700BFE8
:1009A000000000000000F03D000000000000F041E9
:1009B0002DE9F047089E0D4604460F46002B4AD10C
:1009C0008A42944665D9B2FA82F343B102FA03FC33
:1009D000C3F120029F4020FA02F217439C404FEAE5
:1009E0001C4E1FFA8CF5B7FBFEF1220C0EFB1177A3
:1009F00042EA074201FB05F090420AD91CEB0202D1
:100A000001F1FF3780F01C81904240F219810239D8
:100A10006244121AA4B2B2FBFEF00EFB102244EAAA
:100A2000024400FB05F5A5420AD91CEB040400F1C1
:100A3000FF3280F00781A54240F20481644402380D
:100A400040EA0140641B00211EB1DC400023C6E9DE
:100A50000043BDE8F0878B4208D9002E00F0ED80FE
:100A60000021C6E900050846BDE8F087B3FA83F126
:100A7000002949D1AB4202D3824200F2F880841AA5
:100A800065EB030201201746002EE2D0C6E90047BD
:100A9000DFE702B9FFDEB2FA82F3002B40F090806C
:100AA0008A1A4FEA1C471FFA8CFE0121B2FBF7F5A8
:100AB00007FB1520220C42EA00420EFB05F0904293
:100AC00008D91CEB020205F1FF3802D2904200F275
:100AD000CB804546121AA4B2B2FBF7F007FB1022F6
:100AE00044EA02440EFB00FEA64508D91CEB0404B0
:100AF00000F1FF3202D2A64500F2BB801046A4EB03
:100B00000E0440EA05409FE7C1F120078B4022FA1E
:100B100007FC4CEA030C05FA01F420FA07F3FD4048
:100B20004FEA1C492343B5FBF9F81FFA8CFE09FB79
:100B300018551C0C44EA054408FB0EF5A54202FAC0
:100B400001F200FA01F00BD91CEB040408F1FF3AA2
:100B500080F08880A54240F28580A8F102086444B4
:100B6000641B9DB2B4FBF9F309FB134445EA04444A
:100B700003FB0EFEA64508D91CEB040403F1FF3568
:100B80006CD2A6456AD9023B644443EA0843A3FBFE
:100B90000295A4EB0E04AC42C846AE4656D353D0E1
:100BA00056B1B0EB080264EB0E0404FA07F7CA4032
:100BB000CC401743C6E9007418460021BDE8F08711
:100BC000C3F1200102FA03FC20FA01F225FA01F137
:100BD0009D402A434FEA1C471FFA8CFEB1FBF7F0F9
:100BE00007FB1015110C41EA054100FB0EF58D4283
:100BF00004FA03F408D91CEB010100F1FF382FD2ED
:100C00008D422DD902386144491B92B2B1FBF7F5F0
:100C100007FB151142EA014205FB0EF1914208D98A
:100C20001CEB020205F1FF3816D2914214D9023DA5
:100C30006244521A45EA004138E73146304608E737
:100C40003946E6E61046FBE64845A9D2B9EB02086C
:100C500065EB0C0E013BA3E74546EAE72B4694E71C
:100C60004046D1E7D0467BE7023D624432E7084682
:100C70000AE76444023842E7704700BFB0F16040C1
:100C800041F1000120F0404011F0004105D501384C
:100C900040F04040013061EB0101002904DB10F11C
:100CA000604041F1FF31704710F1005041F1000107
:100CB0007047002B70B507DA524263EB43030028FC
:100CC00005DA4042002503E00028FBDA4042012516
:100CD000C617A2FB004102FB0612A40FA3FB0001F2
:100CE00044EA820403FB0611890041EA9071800006
:100CF000201841EB927115B1404261EB410170BD8A
:100D0000002B70B507DA524263EB4303002805DA83
:100D10004042002503E00028FBDA40420125A2FB07
:100D20000046C11702FB0162DE175943240C00FB89
:100D3000061144EA0244A3FB00300144090441EADD
:100D400013411B04E01841EB124115B1404261EB25
:100D5000410170BD002B70B507DA524263EB4303CB
:100D6000002805DA4042002503E00028FBDA404273
:100D70000125A2FB0046C11702FB0162DE175943A1
:100D8000240E00FB061144EA0224A3FB00300144B8
:100D9000090241EA13611B02E01841EB126115B12F
:100DA000404261EB410170BD800A4FF4B47240EAE9
:100DB00081508912A0FB020302FB0133800A40EA42
:100DC00083506423A0FB030340F38F20704708B5D2
:100DD000FFF754FF4FF4B472800A40EA8150891241
:100DE000A0FB020302FB0133800A40EA8350642324
:100DF000A0FB030340F38F2008BD800A4FF4B472B8
:100E000040EA81508912A0FB020302FB0133800AF1
:100E10004FF47A7140EA83509B12A0FB010201FB60
:100E20000323800A40EA835070470023C0E902335D
:100E3000C0E9003370474FF0804303600023C0E9EE
:100E40000233436070470B6803604B685B4243604A
:100E50008B685B428360CB685B42C36070472DE95F
:100E6000F0430B681568D2F804C083FB05354F6862
:100E700096689B0F8C68D2F80CE043EA850387FBE9
:100E80000C59D1F80C80AD0F45EA89055B1B84FB3A
:100E90000659AD0F45EA89055B1B88FB0E59AD0F5E
:100EA00045EA89055B1B036013680D6883FB0779BE
:100EB000BF0F47EA890785FB0CC94FEA9C7C4CEAC7
:100EC000890C67448EFB04C94FEA9C7C4CEA890C70
:100ED000674488FB06C94FEA9C7C4CEA890C83FB7B
:100EE0000449A40FA7EB0C0744EA890485FB0669B3
:100EF0004760B60F5768D1F804C046EA8906344403
:100F000087FB086983FB0838B60F9B0F46EA890602
:100F100043EA880334448CFB0E6985FB0E5EB60FF2
:100F2000AD0F46EA890645EA8E05A41B2B44846072
:100F300092688CFB02C24FEA9C7C4CEA820C8A6865
:100F400087FB02726344BF0F47EA8207DB1BC36063
:100F5000BDE8F0832DE9F0430B681568576883FB03
:100F60000535D1F804C094689B0F8E68D2F80C80C8
:100F700043EA85038CFB0759D1F80CE0AD0F45EA35
:100F800089052B4486FB0459AD0F45EA89052B449E
:100F90008EFB0859AD0F45EA89052B4403600B68A9
:100FA000156883FB0779BF0F47EA890785FB0CC9E2
:100FB0004FEA9C7C4CEA890CA7EB0C0788FB06C91E
:100FC0004FEA9C7C4CEA890CA7EB0C078EFB04C90A
:100FD0004FEA9C7C4CEA890C83FB0449A40F6744CC
:100FE00044EA890485FB06694760B60F5768D1F863
:100FF00004C046EA8906A41B87FB0E6985FB0E5ECA
:10100000B60FAD0F46EA890645EA8E05A41B8CFB98
:10101000086983FB0838B60F9B0F46EA890643EA46
:10102000880334445B1B846092688CFB02C24FEAE5
:101030009C7C4CEA820C8A6887FB0272A3EB0C034F
:10104000BF0F47EA82073B44C360BDE8F0832DE948
:10105000F0430B681568D2F804C083FB05354F6870
:1010600096689B0F8C68D2F80CE043EA850387FBF7
:101070000C59D1F80C80AD0F45EA89052B4484FB4F
:101080000659AD0F45EA89052B4488FB0E59AD0F73
:1010900045EA89052B44036013680D6883FB0779D3
:1010A000BF0F47EA890785FB0CC94FEA9C7C4CEAD5
:1010B000890CA7EB0C078EFB04C94FEA9C7C4CEA19
:1010C000890CA7EB0C0788FB06C94FEA9C7C4CEA0D
:1010D000890C83FB0449A40F674444EA890485FB17
:1010E00006694760B60F5768D1F804C046EA89061A
:1010F000A41B87FB086983FB0838B60F9B0F46EAE1
:10110000890643EA8803A41B8CFB0E6985FB0E5EEF
:10111000B60FAD0F46EA890645EA8E0534445B1BDF
:10112000846092688CFB02C24FEA9C7C4CEA820C81
:101130008A6887FB0272A3EB0C03BF0F47EA8207A2
:101140003B44C360BDE8F0832DE9F04FD1E9007462
:1011500085B087FB04834FEA987848EA83088B6858
:10116000C96883FB07E54FEA9E7E4EEA850E81FB48
:101170000775BF0F47EA850783FB0456AD0F45EAA5
:10118000860581FB046CB60F6D0046EA8C0676007E
:10119000019683FB036CB60F46EA8C067600029636
:1011A00081FB03369B0F43EA860381FB0116890FFF
:1011B0005B0041EA8601029E0393C6F180461368F4
:1011C000A6EB410686FB036A019BB60FD2E9019CA0
:1011D00046EA8A0605EB470AA5EB47058AFB09ABF9
:1011E0004FEA9A7A4AEA8B0A5644A3EB4E0A039BCB
:1011F0008AFB0CAB4FEA9A7A4AEA8B0A564406609D
:1012000084FB0446A40F44EA86041668640085FB48
:101210000657C4F18044AD0FA4EB410145EA8705B0
:1012200081FB0919890F41EA89010D4403EB48014B
:10123000A3EB480381FB0C17890F41EA87010D449A
:101240004560526883FB02329B0F43EA8203019A96
:1012500002EB4E0282FB0626920F42EA86021344FC
:10126000029AA41A84FB0C4CA40F44EA8C04234475
:10127000836005B0BDE8F08F0B682DE9F04183FB7A
:1012800003620546B60FD1E9024046EA82064A6883
:1012900084FB00814FEA987848EA810882FB0317B3
:1012A000890F41EA8701884484FB0271BF0F47EA36
:1012B000810780FB031C890F41EA8C017F1A80FBA8
:1012C000001C82FB0002890F800F41EA8C0140EA7A
:1012D000820084FB033231449B0F01F1604143EAF9
:1012E0008203C01A24F086FF4310C0175B4260EBF4
:1012F0004000C5E900304FEA480024F0CFFF43101A
:10130000C017C5E9023084FB04433846A40F44EA01
:101310008304311901F1604124F06CFF4310C017C0
:101320005B4260EB4000C5E90430BDE8F0818A68AB
:101330000B6870B5044682FB0205800F40EA850009
:1013400083FB0356AD0F45EA860528444D68C968FE
:1013500082FB052583FB0131920F9B0F42EA850238
:1013600043EA810300F16041D01A24F043FF4210A8
:10137000C317524263EB4303C4E9002370BD2DE958
:10138000F043054687B0894601AAD1E90030694695
:10139000DB0943EA406025F071F803AA02A9D9E904
:1013A0000230DB0943EA406025F068F8019C039FA6
:1013B000029E84FB07834FEA987848EA830886FBFD
:1013C0000443A40F44EA8304009B83FB077286FB5B
:1013D0000363BF0FB60F47EA820746EA8306D9E9DF
:1013E000043053EA000206D1C5E90084C5E902765B
:1013F00007B0BDE8F083DB0905AA04A943EA406011
:1014000025F03CF8DDE9043288FB0210890F41EA3F
:10141000800186FB030C800F40EA8C00091A2960CA
:1014200084FB0210890F41EA800187FB030C800FC7
:1014300040EA8C00091A696084FB034183FB083889
:10144000A40F9B0F44EA810487FB027186FB0262B2
:1014500043EA8803BF0FB60F47EA810746EA8206D0
:101460003C443344AC60EB60C2E72DE97043044672
:101470004FF080762422002104F1240525F0FCFBA6
:101480002422002104F134004FF0000825F0F4FB81
:101490002846A6604FF0000966652662FFF7CBFC80
:1014A000A66504F1680695E80F000025C4E91889CF
:1014B00086E80F0004F18C00A4F87850C4F884503A
:1014C000A4F88850C4E91F55FFF7AFFCA4F89C505E
:1014D000C4E92855C4E92A89BDE87083F8B50446F3
:1014E0000D46416DC06C04F12406890104F16807C2
:1014F000800124F07FFE4310C0175B4260EB400088
:10150000C5E90030206D800124F0C8FE00224310A0
:101510002946C017C5E9023000233046C5E9042337
:10152000FFF72DFF96E80F0087E80F00236BA06AF6
:10153000626A80FB0367E16AB60F46EA870682FBB0
:10154000017CBF0F47EA8C07F61B46F35916A661CC
:1015500081FB0316890F41EA860182FB0006800F9A
:1015600040EA8600014441F35911E16183FB0331F4
:101570009B0F43EA810382FB0221920F42EA810220
:10158000134403F1604343F359132362D5E9042361
:10159000C4E91823F8BD2DE9F347054698461646D9
:1015A0000F46D1E9043069469B1A01AA60EB080096
:1015B000DB0943EA406024F061FFDDE90042D5E940
:1015C0000B30D5E9091C84FB00E94FEA9E7E4EEA08
:1015D000890E82FB019A4FEA997949EA8A09CE4439
:1015E000C5F824E083FB04E94FEA9E7E4EEA890EAB
:1015F0008CFB029A4FEA997949EA8A09CE44C5F8E8
:1016000028E083FB023E80FB02029B0F800F43EA2F
:101610008E038CFB04CE84FB014140EA82004FEA3A
:101620009C7CA40F4CEA8E0C44EA8104A3EB0C03CF
:10163000001BEB622863C7E90468C5E9186802B0BB
:10164000BDE8F0872DE9F04F98461B8A8DB004461F
:1016500013F010038946924603D0B0F8783013B1E6
:10166000013BA4F87830B4F87830A4F89C30002B13
:101670004DD12368236463686364A368A364D4E9D9
:10168000103787FB07723F0E47EA022783FB0332BE
:101690001B0E43EA02231F44A36C83FB03321B0E81
:1016A00043EA02231F4427EAE777384624F01AFF6B
:1016B0004FF480310246C31783460020FFF7F4F849
:1016C000236CA16C80FB033280FB01614FEA136C39
:1016D000636C360EC4F8A0B04CEA022C80FB0332D7
:1016E00046EA012611481B0ED8F80010C4F84CC079
:1016F00043EA0223814204F108026665236517DC90
:10170000494620460DB0BDE8F04FFFF7E7BEE26F57
:1017100023689B1AD4F88020236463689B1AD4F84A
:1017200084206364A3689B1AA8E700BFB81E050065
:10173000256A85FB0310090E41EA0021E06980FB60
:10174000060E000E40EA0E20091AA06980FB066E04
:1017500080FB0303360E0291000E46EA0E2685FB3F
:101760000C5E40EA03202D0E45EA0E25751BE66946
:1017700086FB0C6C0395360E46EA0C26331AB8F835
:1017800012000128049340F0C48185FB0550261FF8
:101790002D0E45EA002581FB0110090E41EA0021CA
:1017A00000200D4483FB03311B0E43EA01231D443B
:1017B00085FB07572D0E45EA072556F8043FB1690A
:1017C000B24283FB01314FEA136343EA0123184419
:1017D000F3D100F17F40019224F0DBFC80FB00019B
:1017E000030ED8F8200043EA012380FB0303000E18
:1017F00040EA0320284404F1140524F073FE019A02
:101800000646002052F8043FD168954283FB01311F
:101810004FEA136343EA01231844F3D124F0B9FCDF
:1018200005460BF17F4024F0B4FCD8F818309842FC
:10183000C0F26A81D8F81C2044F288139A4240F31F
:101840006681AB1BD8F8241083FB01311B0E43EAE1
:1018500001231E44D317F1173006090641EA162169
:10186000FFF722F8C0F18070B0F1807FA8BF4FF081
:10187000807020EAE070A56D8542A0EB0503D4BF1F
:10188000D8F82820B74A83FB02321B0E43EA022312
:101890001D444FF0C073A56585FB03532D0E45EA2B
:1018A0000325B8F81030B4F8782013F0020F18BFF1
:1018B0004FF08075002AE26818BF4FF080750592DE
:1018C0002269C4F8A450069262690792DA0700F10F
:1018D0004D8105A9D8E90223C4E92A23059B0022EA
:1018E0006363069BA363079BE3630B6801325B1092
:1018F00092B283FB0A30032A4FEA136343EA0023C0
:1019000041F8043BF1D1059DA76A069B87FB051CA6
:10191000E26A079E890F206B41EA8C0182FB03CEAD
:101920004FEA9C7C49424CEA8E0CA1EB0C0180FBF7
:1019300006CE4FEA9C7C4CEA8E0CA1EB0C0186FB98
:1019400002CE08914FEA9C7C616A4CEA8E0C81FBC6
:1019500005EA4FEA9E7E4EEA8A0EF44480FB03EAD3
:101960004FEA9E7E4EEA8A0EACEB0E0CCDF824C0F8
:1019700081FB03CE4FEA9C7C4CEA8E0C86FB07EA87
:1019800081FB06164FEA9E7E83FB0737890F4EEADE
:101990008A0E9B0FACEB0E0C80FB050E82FB05251F
:1019A00041EA860143EA870304F13006920F0B44B3
:1019B000800F42EA850204F1200540EA8E0008A962
:1019C0009B1A60440B932B460A9053F8042F51F84E
:1019D000040B9E4202441A60F7D1B8F810309B06FF
:1019E0000DD5B4F8882052B12B4653F8041F986ED9
:1019F0009E4201441960F8D1013AA4F888202A4691
:101A0000002052F8043F9B11964283FB03314FEABA
:101A1000136343EA01231844F3D124F0C3FC55F8BF
:101A2000043F80FB0332AE424FEA136343EA0223D2
:101A30002B60F4D1276BA06A626A80FB07C3E56A5A
:101A40004FEA9C7C4CEA830C82FB05319B0F43EAF6
:101A50008103ACEB030C85FB0713890F41EA83017B
:101A600082FB00369B0F43EA860382FB026EB60FB1
:101A70000B4446EA8E0687FB071E4FEA430843F3F2
:101A80005913890FE36141EA8E014CF3591E314429
:101A9000C4F818E001F1604141F359134900236291
:101AA00085FB003E980F82FB0723920F40EA8E00D1
:101AB00042EA8302871A4FEA4C0024F09BFB431052
:101AC000C0175B4260EB4000C9E90030404624F09B
:101AD000E5FB4310C017C9E9023085FB05323846E3
:101AE0009B0F43EA8203F11801F1604124F082FB6D
:101AF0004310C0175B4260EB4000C9E90430C4E901
:101B000018300DB0BDE8F08F4FF08070B3E60020C4
:101B1000B1E6D8F81420144B9A421FDD0BF17F4038
:101B200024F037FBA0F52335D8F81420A5F5577518
:101B3000A2F52332E917A2F5577228060906D31732
:101B400041EA1521FEF7B0FEC0F18075B5F1807F46
:101B5000A8BF4FF0807525EAE575A2E64FF08075C5
:101B60009FE600BF33333300E4D00200D8F80020F2
:101B7000B2F1C45F52DDD8F80420364B9A427FF7A9
:101B8000A8AED31700204FF48031FEF78DFE074634
:101B90008B46D8E90232D4E91856581B4FF000059D
:101BA00062EB06012C4EFFF769F80A4686420346AF
:101BB0002A4875EB01014FF0FF31BCBF33462A467E
:101BC00004F12006834272EB010504F11405BCBF49
:101BD00003460A4605A81B0C43EA024341F62212BB
:101BE00002FB03F155F8043F026881FB033CAE425F
:101BF0004FEA136343EA0C234FEAE37E03FB0BFC3B
:101C000007FB0ECCA3FB07E39C444FEA1E6343EAA9
:101C10000C231A4440F8042BE4D15AE6E91702AE2B
:101C200028060906D31741EA152105ADFEF73CFE4B
:101C3000002156F8043B01312A6880FB033789B242
:101C40001B0E032943EA07231A4445F8042BF0D15D
:101C500091E700BF98991900408EE308C0711CF706
:101C60000B680E4A10B583FB02341B0E43EA0423B3
:101C7000C3674B6883FB02341B0E43EA0423C0F89E
:101C800080308B6883FB02321B0E43EA0223C0F8CC
:101C900084303223A0F8783010BD00BF87181A00B6
:101CA0000023036043607047D0ED026AD0ED017AF3
:101CB000F5EE406AF1EE10FA02D1C0ED007A7047FD
:101CC00090ED007AB4EEE77AF1EE10FA08D5A6EEC0
:101CD000807AB4EEE77AF1EE10FA77FE877AECE7D5
:101CE000EDDDA6EEC07AB4EEE77AF1EE10FA58BF59
:101CF000F0EE477AE1E70000A0F52F73B3F5C86F67
:101D000004D8A0F2DC50044B1883704710B9024B82
:101D10000122DA86704700BF30030024A0F52F733C
:101D2000B3F5C86F04D8A0F2DC50044B5883704759
:101D300010B9024B01221A87704700BF30030024FC
:101D4000A0F52F73B3F5C86F04D8A0F2DC50044B94
:101D50009883704710B9024B01225A87704700BF21
:101D600030030024034B0122DA864FF001129A63FC
:101D7000704700BF300300240038024B18BF012019
:101D800058847047300300240038024B18BF0120EC
:101D9000D8877047300300240138014B988470477E
:101DA00030030024A0F52F73B3F5C86F0DD8A0F24F
:101DB000DC500C4BD884A1F52F73B3F5C86F0BD84A
:101DC000A1F2DC51074B198570470028F3D1054B70
:101DD00047F6FF72DA84EEE719B9024B47F6FF7255
:101DE0001A8570473003002440F6FC03984228BF50
:101DF0001846044BB0F52F7F38BF4FF42F709887EB
:101E0000704700BF3003002408B5054BB3F86430B9
:101E1000012B03D0FFF770FF012008BD0020FCE775
:101E20003003002408B5054BB3F86430012B03D010
:101E3000FFF774FF012008BD0020FCE730030024F9
:101E400008B5054BB3F86430012B03D0FFF778FFDA
:101E5000012008BD0020FCE730030024094BB3F843
:101E60006430012B10B5144609D0FFF745FF084632
:101E7000FFF754FF2046FFF763FF012010BD00204D
:101E8000FCE700BF3003002430B5084CB4F86450C0
:101E9000012D1DBFC4E90223DDE90323C4E90001CC
:101EA00000201CBF0120C4E9042330BD30030024FE
:101EB0001FB51148B0F86430012B1AD0BEEEC11A1C
:101EC0006946FEEEC11ABEEEC10A11EE103AFEEEF0
:101ED000C10A5B428DED000ACDED010A029311EEBD
:101EE000903A5B420393FFF7C7F9012005B05DF814
:101EF00004FB0020FAE700BF30030024054BB3F8D1
:101F00006420012A1DBF00F1FF30D883012000208A
:101F1000704700BF30030024044BB3F86420012A4B
:101F20001ABFD88301200020704700BF300300246F
:101F3000064BB3F86420012A05D0003818BF0120F1
:101F40005884012070470020704700BF30030024F0
:101F5000064BB3F86420012A05D0003818BF0120D1
:101F6000D887012070470020704700BF300300244D
:101F7000054BB3F86420012A1DBF00F1FF3098849F
:101F800001200020704700BF30030024044BB3F849
:101F90006420012A1ABF988401200020704700BFE6
:101FA0003003002408B5054BB3F86430012B03D08F
:101FB000FFF7F8FE012008BD0020FCE730030024F5
:101FC000044BB3F86420012A1DBF58850120998570
:101FD0000020704730030024074BB3F86420012A27
:101FE00007D0032805D803EB40000139C185012043
:101FF00070470020704700BF3003002408B5054B30
:10200000B3F86430012B03D0FFF7EEFE012008BDCA
:102010000020FCE730030024044BB3F86420012ABD
:102020001ABF188401200020704700BF300300242D
:1020300008B5054BB3F86430012B03D00120FFF73E
:1020400091FE08BD0020FCE7300300240A4BB3F8E2
:102050006420012A1DBF012083ED110AC3ED121A6D
:1020600000201FBFC3ED140A83ED152A83ED171A54
:10207000C3ED182A704700BF3003002408B5084B91
:102080009FED080A03F14000FFF70EFE03F14C003C
:10209000FFF70AFE03F15800BDE80840FFF704BE51
:1020A00030030024A69BC43A08B5154B1822002122
:1020B000184624F0E1FD4FF6FF7203460021C2836B
:1020C000DA854FF0FF328161818301626FF0004059
:1020D0001A639A860B4A586247F6FF70DA63002249
:1020E0001885C3F8361059871A645A649A64DA64FA
:1020F0001A655A659A65DA651A66A3F8641008BD10
:1021000030030024DC05FFFFD0ED007A0D4AFEEE1F
:10211000C17AC2ED027AD0ED017AFEEEC17AC2ED4B
:10212000037AD0ED027AFEEEC17A17EE903AD0ED46
:10213000037AFEEEC17A5B42136117EE903A5B427E
:102140005361704798030024D0ED007A1C4AF4EEE6
:10215000677AF1EE10FA77BF9FED1A7A002367EEE7
:10216000877AFDEEE77A78BF17EE903AD0ED017AE4
:10217000F4EE677A9361F1EE10FA77BF9FED117A72
:10218000002367EE877AFDEEE77A78BF17EE903A84
:10219000D0ED027AF4EE677A78BF5B42D361F1EE5C
:1021A00010FA77BF9FED077A002367EE877AFDEE7E
:1021B000E77A7CBF17EE903A5B421362704700BF2C
:1021C0009803002400007A44034B0022DA841A8822
:1021D00022F400521A80704798030024194B49F6E4
:1021E000404130B55C68021B8A4202D9996E914227
:1021F00004D3196F144D411AA94206D949F640413A
:1022000018678A422CBF9A66996649F63F418A420E
:1022100002D8596E914204D8D96E0B4D411AA94289
:1022200006D949F64041D8668A4294BF5A66596633
:102230001A881C6642F0040258601A8040F29A2202
:102240005A8030BD98030024C8140500D0ED006A00
:10225000F4EE666AF1EE10FA22D690ED017AB4EE51
:10226000477AF1EE10FA1BD6D0ED027AF4EE677AD7
:10227000F1EE10FA14D6F5EE406AF1EE10FA0DD137
:10228000B5EE407AF1EE10FA08D1F5EE407AF1EEB3
:1022900010FA14BF0120002080B270470120FBE734
:1022A00000207047114B1A88998C22F4A06211F01B
:1022B000010F92B21A801CBF42F480721A808A0702
:1022C00004D518B11A8842F480621A801A88480628
:1022D00022F4C05292B248BF42F400621A808A06C9
:1022E00042BF1A8842F480521A8070479803002433
:1022F00038B504460530FFF707FF04F115052846F9
:10230000FFF722FFFFF760FF63780F4A03F0010039
:1023100013F0020F938416BF40F00400108510855F
:1023200013F0400F14BF8020012013F0200F18BFBE
:10233000022050850846FFF751FF2846FFF786FF29
:10234000BDE83840FFF7AEBF9803002438B5044617
:102350000830FFF7D9FE04F11C052846FFF7F4FE0C
:10236000FFF732FF208E134B00F0010210F0040F34
:1023700018BF42F002029A8494F83420941E022C72
:102380000FD89C8C44F060049C84188508465A85BC
:10239000FFF724FF2846FFF759FFBDE83840FFF755
:1023A00081BF802A01D0052AEFD19C8C44F04004E3
:1023B000EAE700BF980300240A4A538883B1013B2F
:1023C00011889BB221F00200012B108001D95380AB
:1023D000704721F00601002341F002015380118073
:1023E000704700BF98030024044A138813F00400C8
:1023F0001EBF23F0040301201380704798030024BC
:10240000044A138813F002001EBF23F002030120C8
:10241000138070479803002473B5144C05460E468C
:10242000684604F10801FEF782FF009B04F15402A4
:1024300004F15001581B019B63EB0603C4E912032E
:10244000C00940EA436024F019F804F15C0204F189
:102450005801D4E912309B0943EA806024F00EF859
:10246000238843F00803238002B070BD9803002442
:10247000024B1888C0F3C000704700BF98030024C7
:102480002DE9F341284C0190236D6169606D83FB58
:102490000156A768AD0F45EA860580FB076CB60FAD
:1024A00046EA8C0635446567D4E9036585FB03CEAF
:1024B0004FEA9C7C4CEA8E0C86FB00E84FEA9E7E3D
:1024C0004EEA880EF444C4F878C085FB005C81FBBA
:1024D0000010AD0F890F45EA8C0586FB036C83FB6A
:1024E000073741EA8001B60F04F188009B0F46EAE6
:1024F0008C0643EA8703AD1BC91AE56704F1A00502
:10250000C4F8801004F17401FEF7B6FE04F1740102
:102510002846019AFEF7A3FC294604F1B00002B058
:10252000BDE8F041FEF7A8BE980300244C4B996D1E
:10253000DA69F0B481FB0206DD6D9C698AB0800F18
:1025400040EA860085FB046782FB052581FB0414B5
:10255000B60F920F890F42EA850241EA840146EAEA
:102560008706521A196E3044C3F8CC201A6AC3F891
:10257000C800C3F8D020002969D05A6807AD9FED84
:10258000397A01A8521A04A9C433064607EE902AE4
:102590000C462F460022F8EE677ADFED336A9FED96
:1025A000336A67EE877A9FED327AC7EE275A93ED4A
:1025B000017A0132043392B2B8EEC77A032A27EEC9
:1025C000267AA7EC017A93ED037AB8EEC77A27EE64
:1025D000267AA6EC017A93ED067AB8EEC77A27EE52
:1025E000067AA4EC017AE2D10A46044600239FED64
:1025F000215AD2ED006A013394ED007AB5EC016AFC
:102600009BB2A6EEA77A032B36EE476AA6EE057AB2
:10261000E6EE256AA4EC017AE2EC016AE9D1164AF9
:1026200000239FED167AF0EC017A013367EE877A8A
:102630009BB2032BFDEEE77A17EE904AF1EC017A9C
:10264000FEEEC47A42F8044FC2ED037AEBD10C4A95
:10265000A2F1400102F10C000AB0F0BCFEF774BD1B
:1026600098030024BD3786356F12833A000080330B
:10267000CDCC4C3ECDCCCC3E6804002400007A4446
:1026800078040024024800F108013030FEF7F4BD60
:1026900098030024024B1888C0F30020704700BF45
:1026A00098030024024B1888C0F38020704700BFB5
:1026B00098030024014BD3E93001704798030024AC
:1026C000014BD3E92601704798030024034AD2E95D
:1026D0001232C01842EB0101FEF7D0BA9803002471
:1026E000014BD3E9100170479803002438B5224C00
:1026F000002549F6404304F108002566C4E9193372
:10270000C4E90055C4E91B55FEF795FB00220023E0
:10271000294604F13000A5622565C4E912234FF073
:1027200080431822E365C4E91535C4E90655C4E9B8
:10273000085524F0A1FA04F17400FEF77CFB18227E
:10274000294604F1880024F097FA04F1A000FEF76E
:1027500072FB1822294604F1B00024F08DFAC4E976
:102760003255C4E93455C4E93655C4E93855C4E98D
:102770003A55C4E93C5538BD9803002410B52DEDF9
:10278000068B90ED069A0446D0ED029A30EE496A27
:10279000D0ED058A90ED03AAD0ED007A86EE297A75
:1027A000F4EEC78AF1EE10FA3ED838EE8A8AB4EE1B
:1027B000478AF1EE10FA37FE088AB4EE678AF1EE26
:1027C00010FAD4ED046AB4EEC09AB5EE007A37FE82
:1027D000888AF6EE00AAF1EE10FA33D886EE260AC1
:1027E00030EE070A24F0B2FA70EE6A7A78EECA8AFE
:1027F000FBFE677A67EE8A7AB4EE678AF1EE10FA2A
:1028000037FE888AB4EE688AF1EE10FA48BFB0EE5F
:10281000688AB0EE490A84ED058AA9EE880ABDEC03
:10282000068B84ED060A10BD38EECA8AF1EE677A8F
:10283000B4EE478AF1EE10FA48BFB0EE478AF4EEE4
:10284000487ABCE779EE407A87EEA60A30EE070AAE
:1028500024F07CFA70EE6A7A78EE8A8AFBFE677A58
:102860006AEE677AF4EE487AF1EE10FA37FE888A5B
:10287000B4EE688AF1EE10FA38FE888AC9E7D0ED26
:10288000066AD0ED025A30EE660AD0ED057A90ED78
:10289000035A90ED007A80EE256AF4EEC67AF1EEE6
:1028A00010FA16D877EE857AF4EE467AF1EE10FA41
:1028B00076FE277AF4EE477AF1EE10FA77FE277A61
:1028C000E5EEA76AC0ED057AB0EE660AC0ED066ACD
:1028D000704777EEC57AB1EE477AF4EE467AF1EEBC
:1028E00010FA48BFF0EE467AB4EE677AE4E7D0ED2E
:1028F000027AB6EE007AC0ED010A67EEA00A80ED1A
:10290000000A67EEA07AC0ED030A67EE877AC0ED91
:10291000047A7047002380ED060A43617047002364
:1029200080ED020A43618361704720EE000A704720
:1029300000234FF4803203704260C0E90433C0E9E1
:1029400002337047064B82B0D3F838210243C3F8F4
:102950003821D3F8383103400193019B02B070470E
:1029600000440258064B82B0D3F840210243C3F81A
:102970004021D3F8403103400193019B02B07047DE
:1029800000440258064B82B0D3F848210243C3F8F2
:102990004821D3F8483103400193019B02B07047AE
:1029A00000440258064B82B0D3F850210243C3F8CA
:1029B0005021D3F8503103400193019B02B070477E
:1029C000004402580549072210B5C4B2C0F30420E0
:1029D0006358824023EA0203635010BD4C440258FE
:1029E00050E8003F43F0200340E80032002AF7D1CE
:1029F000704750E8003F43F0800340E80032002A6F
:102A0000F7D1704750E8003F23F0200340E8003240
:102A1000002AF7D1704750E8003F23F0400340E818
:102A20000032002AF7D1704750E8003F23F08003BE
:102A300040E80032002AF7D170470000034B5A5C8F
:102A4000835843F001038350704700BF40A602083B
:102A5000B1F5807F10B526D019D8102925D011D80E
:102A6000012924D0042914BF08230123134A183054
:102A7000134CD15CE45C04234258A34022EA0303D4
:102A8000435010BD402914BF08230323EEE7B1F5DE
:102A9000805F0ED0B1F5803F0DD0B1F5806F14BFCF
:102AA00008230523E2E70423E0E70223DEE700230F
:102AB000DCE70623DAE70723D8E700BF80AA02088D
:102AC000D4AA020830B58C09303001F01F011F254F
:102AD00004F00C04C2F384628D4003598A4023EA57
:102AE00005031343035130BD0023024A1380024AF9
:102AF00013807047186100241A6100240023024AE1
:102B00001380024A13807047145F0024165F00246C
:102B10000E4BB3F8012052BA0280B3F8032052BA28
:102B20004280B3F8052052BA8280B3F8072052BA27
:102B30000A80B3F8092052BAC280B3F80B2052BA07
:102B40000281B3F80D305BBA43817047C83400246A
:102B50000E4BB3F8012052BA0A80B3F8032052BAE0
:102B60000280B3F8052052BA4280B3F8072052BA67
:102B70008280B3F8092052BAC280B3F80B2052BA4F
:102B80000281B3F80D305BBA43817047C83400242A
:102B90000023024A1380024A13807047005C00241D
:102BA000025C0024094B002103EB400223F81010C3
:102BB000D180021D033003EB420203EBC00300206F
:102BC00091800021C3E90001704700BF581D002417
:102BD000044BB3F90030002B03DA034B4FF00052E3
:102BE0009A6170477013002400040258024B4FF69C
:102BF000FF721A80FFF7ECBF70130024014B002214
:102C00001A807047680C002402885140C9B20B0139
:102C1000DBB259400B0983EA122343EA012383EA1A
:102C2000C103038070470000034BB3F8E80108B903
:102C3000024B1888704700BFA4080024A81B00247A
:102C4000054BB3F8E801054B1B88184380B20038E8
:102C500018BF0120704700BFA4080024A81B00244F
:102C6000094B012110B59A68D980FB211170DA88CF
:102C70009968541CDC8000248C54DA889968541CB0
:102C8000DC80885410BD00BFF41E0024024B0121DB
:102C90009A68D98010707047F41E0024C1F31303A2
:102CA0003BB9C1F384610123C2698B401343C36103
:102CB000704791FAA1F1B1FA81F101F01F01F2E739
:102CC00008B50023C0F88830C367C0F88C30C0F85E
:102CD0008030C0F89030C0F88430C0F8A030C0F820
:102CE0009430C0F8A430C0F89830C0F8A830C0F8CC
:102CF0009C30074B98420AD10648FFF719FE064858
:102D0000FFF716FE0548BDE80840FFF711BE08BDF5
:102D1000C804002438060024600600248806002425
:102D200008B50648FFF7CCFF0548FEF79EFB1822C2
:102D300000210448BDE8084023F09EBFC8040024D9
:102D400088050024A820002408B50648FFF7B8FF2E
:102D50000548FEF78AFB182200210448BDE8084018
:102D600023F08ABFE0060024A0070024C02000242E
:102D70000148436AFFF734BE00100140024A138D38
:102D800043F01003138570470C1D0024417802782E
:102D900001F00701414B42EA012241785A808278D2
:102DA00002F03F02520142EAD10281789A80C27851
:102DB000920042EA9112017901F0010142EA812276
:102DC0000179DA80427902F00F02D20142EA51021F
:102DD00041791A81827902F07F02120142EA1112CE
:102DE00081795A81C279520042EAD112017A01F006
:102DF000030142EA4122017A9A81427A02F01F02DB
:102E0000920142EA9102417ADA81827AD20042EA60
:102E10005112017B1A8201F00701C27A42EA0122B3
:102E2000017B5A82427B02F03F02520142EAD10208
:102E30009A82417B827B920042EA9112C17B01F02F
:102E4000010142EA8122C17BDA82027C02F00F0298
:102E5000D20142EA5102017C1A83427C02F07F02D5
:102E6000120142EA1112417C5A83827C520042EAEA
:102E7000D112C17C01F0030142EA4122C17C9A8354
:102E8000027D02F01F02920142EA9102017DDA8383
:102E9000427DD20042EA51121A8470476C2000240D
:102EA000D1ED007AFEEEE97AC0ED1C7AD1ED017A1F
:102EB000FEEEE97AC0ED1D7AD1ED027AFEEEE97AF6
:102EC000C0ED1E7A70470000094B0322D3F82C1185
:102ED000013A03F5B47343F8781C53F8381C43F8EF
:102EE000741C53F8341C43F8701CEFD1704700BFBA
:102EF0001821002470B586B00D46034600F1100677
:102F000001AC1868083353F8041C2246B34203C2CC
:102F10001446F6D1002408350C268DF8144006FB23
:102F200004F301A8E958FDF7E3F910B920B206B09F
:102F300070BD0134E22CF2D14FF0FF30F7E7000012
:102F400038B50C4C0546627E482A0CD804F12401A1
:102F500023F0EEFE607E0021C0F149022844BDE866
:102F6000384023F089BE04F124014922BDE83840ED
:102F700023F0DEBEA81B002438B50C4C0546627E4B
:102F8000842A0CD804F1240123F0D2FE607E0021B3
:102F9000C0F185022844BDE8384023F06DBE04F13D
:102FA00024018522BDE8384023F0C2BEA81B0024BE
:102FB00038B50C4C0546627EFD2A0CD804F124017C
:102FC00023F0B6FE607E0021C0F1FE022844BDE879
:102FD000384023F051BE04F12401FE22BDE8384000
:102FE00023F0A6BEA81B002470B5114D04466A7ECE
:102FF000202A0CD805F1240123F09AFE687E0021D6
:10300000C0F121022044BDE8704023F035BE05F137
:103010002406034644353246083303CAAA4243F81D
:10302000080C43F8041C1646F5D112781A7070BDCE
:10303000A81B002438B5124D04466A7E222A0CD8FB
:1030400005F1240123F074FE687E0021C0F1230203
:103050002044BDE8384023F00FBE05F124020346AA
:1030600044351446083303CCAC4243F8080C43F80B
:10307000041C2246F5D12188A27819809A7038BDA7
:10308000A81B002470B5114D04466A7E292A0CD86D
:1030900005F1240123F04CFE687E0021C0F12A02D4
:1030A0002044BDE8704023F0E7BD05F12406034647
:1030B0004C353246083303CAAA4243F8080C43F899
:1030C000041C1646F5D112881A8070BDA81B002476
:1030D00038B5134D04466A7E162A0CD805F1240132
:1030E00023F026FE687E0021C0F117022044BDE8CF
:1030F000384023F0C1BD05F124020346343514469F
:10310000083303CCAC4243F8080C43F8041C2246B5
:10311000F5D120681860A188A27999809A7138BD8C
:10312000A81B002470B5114D04466A7E132A0CD8E2
:1031300005F1240123F0FCFD687E0021C0F114029A
:103140002044BDE8704023F097BD05F124060346F6
:1031500034353246083303CAAA4243F8080C43F810
:10316000041C1646F5D11068186070BDA81B002419
:103170002DE9F743914601F10A0204460D4600F19C
:103180000A06024412F8011D19B9013DEDB2012DE4
:10319000F8D1FD2265701FFA85F8671C22700022A5
:1031A000A270E2709A7A227101329A724FF6FF731E
:1031B000ADF80630BE4219D14646013E17F8011B54
:1031C0000DF10600B6B2FFF71FFD002EF5D14946FE
:1031D000FFF71AFDBDF80630611908F10C008B727B
:1031E00080B21B0ACB7203B0BDE8F08317F8011B55
:1031F0000DF10600FFF708FDDCE7CA0D1430C1F33E
:103200000451072302F004028B4010B58458234375
:10321000835010BD00F1080353E8003F23F06063C2
:1032200000F1080141E80032002AF3D1704700F1B3
:10323000080353E8003F23F0604300F1080141E830
:103240000032002AF3D170472DE9F0412C4C0023C5
:1032500017202C4E216A84F83931C1F3170184F804
:103260003A311A180132520856F83250C5F3170590
:10327000A94203D2501E9842F3D801E01346FAD86F
:1032800056F83320C2F31702914235D106EBC3053D
:103290001D484FEAC308EF783946FFF7B5FCA2890D
:1032A000B4F824319A4229D1627E2D79AA4206D2FD
:1032B00002F124000021AA1A204423F0DDFC06EBD1
:1032C00008035A79D10741BF9B791B1993F8243021
:1032D00084F83931930706D54644F379234493F8AB
:1032E000243084F83A31022384F83B7184F83C514D
:1032F00084F83831BDE8F0810323F9E70523F7E7C7
:10330000A81B002478B50208B41B0024F8B57B4C38
:103310000646E388B3F58C7F0FD300232371002387
:10332000E380F31CDBB2012B03D801232676E38074
:103330002371002084F83801C9E022790D2A00F2B7
:10334000D88001A151F822F01F3300088133000812
:10335000B9330008D5330008E5330008F733000817
:10336000093400081B3400083934000859340008B7
:103370007D340008A1340008AD340008DF340008B3
:10338000013301466076E3804FF6FF735C48A3810A
:10339000FFF73AFC237EB0B2FD2B05D10A230C3097
:1033A000238102236081C3E700230830638306235F
:1033B000608123810423BBE701330146A076504896
:1033C000E380FFF721FCF30742BF63890D3363817C
:1033D0000323ADE701330146E0764948E380FFF778
:1033E00013FCE7E70133014620774548E380FFF708
:1033F0000BFC05239CE70133014660774048E380DE
:10340000FFF702FC062393E701330146A0773C480F
:10341000E380FFF7F9FB07238AE7226A01330146BD
:1034200060F317023648E3802262FFF7EDFB237E4C
:10343000FD2B1FD108237BE7226A0133C2F317015A
:10344000E38001EB002161F3170201462C48226260
:10345000FFF7DAFB09236BE7226A0133C2F3170196
:10346000E38001EB004161F3170201462448226228
:10347000FFF7CAFB0A23237101205BE72789014676
:10348000DA1B013322449DB282F824001C48E580F7
:10349000FFF7BAFB637E3B449D42EDDB0B23EAE77B
:1034A0000133A4F82401E3800C23E4E7B4F82421D9
:1034B000013302EB0022A07EE38010F00100A4F8AB
:1034C000242105D00D232371012384F83831F8BD60
:1034D000E0802071FFF7B8FE94F83801F7E7013378
:1034E00062899BB29A42E380C6D80023E3802371AD
:1034F000F0E700202071E080A0601BE7A81B0024FB
:10350000B41B002405494B691A04DB4302F08042D6
:1035100003F4804313438B61704700BF00040258DB
:103520000D4BD3F83021110212D4D3F83021D2013F
:1035300010D4D3F8303113F4800F14BF03200420CB
:10354000054AD2F8303143F48033C2F83031704745
:103550000120F5E70320F3E700440258244B10B59F
:103560005B68244C23601DF02DFD234820F0B2FA47
:10357000224820F0AFFA224820F0ACFA214821F08E
:103580008DF9214821F08AF9204821F087F9204857
:1035900021F084F91F4821F081F91F4820F064FED2
:1035A0001E4820F061FE20F0E7FB4FF0E0220023F0
:1035B0001B491361536193610A6922F007020A6192
:1035C00072B64FF0FF319A00013302F16042082BCE
:1035D00002F56142C2F88010C2F88011F3D162B6E0
:1035E000034B1B6883F3088823689847FEE700BFF6
:1035F00000A0F01F300C0024000002580004025804
:1036000000080258001001400044004000480040FB
:10361000004C00400050004000300140003C0040A1
:1036200000440258028810B5531C84882340448803
:103630009C4217BF84680020A154038018BF01205A
:1036400010BD438802889A4209D08268D35C0B700F
:103650004388828801331340438001207047002053
:10366000704743880288D21A93B2120441BF8288FD
:1036700001329B189BB218467047028810B5531C44
:103680008488234044889C4217BF8468002024F823
:103690001210038018BF012010BD438802889A428F
:1036A0000AD0826832F813300B8043888288013355
:1036B00013404380012070470020704743880288F0
:1036C000D21A93B2120441BF828801329B189BB276
:1036D0001846704730B5302442F20F75A84212D810
:1036E0000C703021B0F57A7F14D21170302263282B
:1036F00016D81A703023092817D8039A303013705F
:10370000049B187030BDA0F51C5001341038E4B291
:1037100080B2E3E70131A0F57A70C9B280B2E1E787
:1037200001326438D2B280B2E1E701330A38DBB249
:1037300080B2E0E770B53024314D324EA84232D825
:103740000C703021304C314DA04230D811703022F5
:103750002F4988422FD21A7030232E4A90422ED8F9
:10376000049A137030232C4A90422FD8059A137074
:10377000302342F20F7290422ED8069A13703023F3
:10378000B0F57A7F2ED2079A1370302363282ED893
:10379000089A1370302309282DD8099A30301370F5
:1037A0000A9B187070BD01343044E4B2C6E70131A1
:1037B0002844C9B2C8E70132401AD2B2C9E701337E
:1037C000A0F57420DBB2A0F51070C7E70133A0F5B7
:1037D000C330DBB2A038C7E70133A0F51C50DBB221
:1037E0001038C8E70133A0F57A70DBB2C8E70133BF
:1037F0006438DBB2CAE701330A38DBB2CBE700BF7B
:10380000FFC99A3B003665C4FFE0F505001F0AFAC0
:10381000809698003F420F009F86010013B5002854
:103820000B460C46B6BF2D222022404203F8032B44
:1038300001F10502B8BF00B201920A1D80B20092E8
:103840008A1C0131FFF746FF0023A37102B010BDAF
:1038500000280B46B6BF2D222022404210B503F8A7
:10386000032B88B001F10A020C46069201F109020D
:10387000059201F108020492CA1D03928A1D029268
:103880004A1D01920A1D00928A1C0131FFF752FF66
:103890000023E37208B010BD0A22012330B514469C
:1038A000824207D95A1E0A2412B2150406D50022F4
:1038B000CA5430BD013362439BB2F1E7B0FBF4F56B
:1038C00004FB1500303088542846013AEDE700002B
:1038D00008B5124B0146984207D10120FFF742F884
:1038E0000F4B994219D1202007E00E4B984208D087
:1038F00003F58063984206D10420BDE80840FFF735
:1039000031B80220EAE7084B984201D10820F4E7D9
:10391000064B9842E4D11020EFE708BD00000258A2
:103920000014025800040258000C025800100258FB
:1039300008B5244B014698420CD10120FFF732F81C
:10394000214B99420FD11020FFF71CF81F4B9942D1
:1039500035D008BDB0F1804F0DD01D4B98420ED12F
:103960000220FFF70FF81B4B99420ED12020BDE833
:103970000840FFF707B80120FFF704F8E0E7164B0F
:1039800098420AD10420FEF7FDFF144B994210D152
:103990000220BDE80840FFF705B8114B9842CFD18F
:1039A0000820FEF7EFFF0F4B9942CFD14FF40030C4
:1039B000EFE70D4B9942F6D14FF48030E9E74FF431
:1039C0008020E6E700000140001000400048014070
:1039D00000040040001400400008004000040140C2
:1039E000000C004000440140004001402DE9F0433C
:1039F00087B00D46144680461422002101A81E46B9
:103A00009DF838709DF83C9023F036F900950B2C0A
:103A100007D8DFE804F007070A1214141416161664
:103A20001A1CFEE70323019301E002230493032EF3
:103A300011D8DFE806F0111320110123F6E7012366
:103A4000F1E7012301930393F1E70223EBE702235C
:103A500001930123F7E7FEE702230293102F0CD80E
:103A6000DFE807F02D2D0C11131517191B1D1F2151
:103A7000232527292B000123EFE7FEE701230593E8
:103A8000022301931DE00223F9E70323F7E7042350
:103A9000F5E70523F3E70623F1E70723EFE708231C
:103AA000EDE70923EBE70A23E9E70B23E7E70C231C
:103AB000E5E70D23E3E70E23E1E70F23DFE7002F20
:103AC000DED1B9F1000F02D04046FFF701FF053CFF
:103AD000042C07D8DFE804F00304060304002D04D7
:103AE000C8F818506946404620F06EF807B0BDE8A7
:103AF000F08313B54FF0010C0024CDE9004CFFF723
:103B000075FF02B010BD13B50124CDE900349DF856
:103B10001030FFF76BFF02B010BD000007B508239F
:103B200000224FF400710548CDE9003203230A2238
:103B3000FFF75CFF03B05DF804FB00BF0000025814
:103B400070B5002386B0164604460D46ADF8063023
:103B5000FFF7EEFE052E04D8DFE806F02E3236041D
:103B60003A43FEE7204B214A1B68B3FBF2F39BB2BA
:103B70000022013B01A92046ADF8043004920592D1
:103B8000CDE9022520F034FC236823F08003236074
:103B9000A36823F4A03323F00703A360636823F032
:103BA00070036360636823F470036360A36823F0A9
:103BB0008003A36006B070BD0B4B0D4A1B68D4E7B1
:103BC000094B0C4A1B68D0E7074B0B4A1B68CCE734
:103BD000054B074A1B68B3FBF2F303EB83035B005F
:103BE000C5E70123C4E700BFC401002480A8120177
:103BF00040420F0000127A008096980000224FF099
:103C0000FF31FFF79DBF10B50446FFF799FF23680A
:103C100043F00103236010BD00224FF0FF31FFF796
:103C2000F2BF00000C4BD3F8FC2022F08072C3F8E6
:103C3000FC20D3F8FC2042F08072C3F8FC20A3F5EE
:103C40005D431A6822F001021A601A6842F001020C
:103C50001A6000225A60704700ED00E0064B074AE8
:103C60001B68516810B5064CB3FBF4F35843536816
:103C70005B1A8342FBD310BDC4010024001000E096
:103C800040420F0008B50120FFF7E8FF034B402238
:103C900001209A61BDE80840FFF7E0BF0004025828
:103CA00008B50120FFF7DAFF044B4FF48002012032
:103CB0009A61BDE80840FFF7D1BF00BF0004025879
:103CC000154B5A68120C120442F001025A601A682D
:103CD00042F001021A609A6942F008029A619A69F8
:103CE00042F010029A611A6842F400721A605A692E
:103CF0009207FCD583F820005A69D107FCD593F8C8
:103D00003000054BC0B25A691207FCD51A6822F080
:103D100001021A60704700BF003C00402DE9F041ED
:103D200092B0354C8846561CADF802004422002162
:103D300001A822F0A1FF2368304F022123F00103E4
:103D40000025384623601FF089FD032138461FF007
:103D500085FD4FF4803301AA03210B933846284B8D
:103D60000996B6B201934023059503930DF1020322
:103D7000049502933E2306950A93CDE90755CDE9B4
:103D80000C55CDE90E55CDE910551FF03BFE1D4BEE
:103D900001AA022101934FF48063384606933D2324
:103DA000CDE902850A931FF02DFE38460221FEF769
:103DB00045FE0321FEF742FE63681B0C1B041E43F5
:103DC0006660236843F001032360A36943F008039E
:103DD000A361A36943F01003A361236843F4007354
:103DE0002360A36843F48043A360A36843F40043C3
:103DF000A36012B0BDE8F081003C0040000002402A
:103E0000203C0040303C00400B4B186810F4001080
:103E100011D0A3F5E2335A691207FCD51A680120C4
:103E200022F001021A609A6822F480429A609A682D
:103E300022F400429A6070470000024005289ABFB1
:103E4000000700F100504FF0E0407047044A08B509
:103E5000FFF7F4FF936823F0E0431843906008BD38
:103E6000003C004030B58DB000212822012502A879
:103E7000324C22F001FF324A3248D36A43F4003315
:103E8000D362FEF79FFD4FF40040FEF77BFD40211B
:103E90002D4803230622FFF72CFEFFF7F3FE07232E
:103EA0000A22082128480095FFF72DFE08230A2240
:103EB000202125480095FFF726FE07230322102125
:103EC00021480095FFF71FFE4FF000724FF08073FE
:103ED00002A92046CDE905234FF0E0434FF48002CC
:103EE00008930023CDE902324FF080620792072247
:103EF000CDE9093304920B9220F02CFAE3682846AE
:103F000023F46013E360E36823F08043E360E36835
:103F100043F00043E360A36823F4F073A360636895
:103F20001B0C1B046360FEF70DFD23682B4323600D
:103F3000236843F4007323600DB030BD003C0040A3
:103F400000440258040C000700040258094B1A6987
:103F500092070DD56FF002021A615A6B02F2DC5221
:103F60005A630122044B1A80044A13680133136018
:103F7000704700BF00400140CC2500245039002488
:103F800030B5194B0025194C89B01D80184B2046BF
:103F90001D60FFF733FE29461C2201A822F06CFEAB
:103FA00030236A46012100932046636A03F57A7341
:103FB000039320F081FA01212046FEF749FD0D4BC5
:103FC000F02283F874234FF48012DA606FF002035A
:103FD0002361E36843F00203E360236843F00103D5
:103FE000236009B030BD00BFCC2500240040014053
:103FF0005039002400E100E0254BDA69910610B445
:1040000024D51B689B0621D5140703D521490B68CD
:1040100001330B60500703D51F490B6801330B6058
:10402000910703D51D490B6801330B60184B1C4CDD
:10403000596A1C4823880088013380B2C3F30803FF
:10404000984203D0C9B21848C154238010481F2396
:104050001206036215D503681B0612D5134B144ACA
:104060001988138889B29BB299420DD01388013305
:10407000C3F30803138013880E4A9BB2D35CDBB2F0
:1040800083625DF8044B70475DF8044BFEF7CCBCCF
:10409000004C0040105D00240C5D0024085D0024ED
:1040A000165F0024145F0024145D00241A610024AC
:1040B00018610024185F00240A490B4A08B50B88D0
:1040C0001288013392B2C3F308039A4207D0074A19
:1040D000D05407480B80FEF78CFC012008BD00205F
:1040E000FCE700BF1A61002418610024185F002457
:1040F000004C004010B50C4640F08000FEF7FEFC7E
:10410000FFF7DAFF2046BDE81040FFF7D5BF10B536
:1041100004468B20FFF7D0FF2046BDE81040FFF794
:10412000CBBF00000548064972B602880B8892B2E0
:104130009BB262B69A42F7D1704700BF1A61002461
:10414000186100240848094A0188138889B29BB283
:104150009942F9D013880133C3F3080313801388FD
:10416000034A9BB2D05C7047165F0024145F0024A2
:10417000145D002470B588B00C4606461546002133
:104180002022684622F078FD231E6946064818BFA3
:104190000123019604941B03CDE902350C230593FA
:1041A00020F030FC08B070BD004C004010B5064C4B
:1041B000236823F001032360FFF7DCFF236843F04B
:1041C0000103236010BD00BF004C004000221146D7
:1041D000FFF7ECBF37B5384C03253848236823F088
:1041E00001032360FEF7EEFB3548FEF7EBFB4FF4CF
:1041F0000020FEF7C7FB4FF4806109230A223148F3
:104200000095FFF780FC09232A464FF400612D48F2
:104210000095FFF778FC00222B481146FFF7AAFF14
:104220006368204623F490436360A36823F02A0365
:10423000A360236823F000532360FEF7F8FFFEF726
:10424000E9FF224B102283F834234FF480125A6086
:10425000FEF7EAFB0021FEF7DEFB402323621C4B46
:1042600019801C4B1980FEF7CDFB1B4B19801B4B93
:1042700019801B4B19601B4B19601B4B196063683D
:1042800023F400636360A36823F00803A3606368FA
:1042900023F480436360A36823F02203A3602368B0
:1042A00043F001032360E3699A02FCD5E3695B02F2
:1042B000F9D503B030BD00BF004C00400803000733
:1042C000080000070008025880841E0000E100E09A
:1042D000186100241A610024145F0024165F002472
:1042E0000C5D0024085D0024105D002408B5FFF774
:1042F00071FF0348436ABDE80840FEF771BB00BF89
:10430000004C00401C4B10B4DC69A00611D51A68A3
:1043100091060ED519485A6A19490388098801334C
:1043200089B2C3F30903994203D0D2B21549CA54E2
:10433000038011481F232206036215D503681B065C
:1043400012D5114B114A1988138889B29BB2994230
:104350000DD013880133C3F30903138013880C4A6B
:104360009BB2D35CDBB283625DF8044B70475DF8AF
:10437000044BFEF759BB00BF00500040FA56002422
:10438000F8560024F8520024FE5A0024FC5A002457
:10439000FC5600240A490B4A08B50B8812880133E1
:1043A00092B2C3F309039A4207D0074AD054074890
:1043B0000B80FEF71EFB012008BD0020FCE700BFBC
:1043C000FE5A0024FC5A0024FC56002400500040F1
:1043D0000848094A0188138889B29BB29942F9D0EA
:1043E00013880133C3F3090313801388034A9BB274
:1043F000D05C7047FA560024F8560024F852002486
:1044000070B588B00C460646154600212022684645
:1044100022F032FC231E6946064818BF012301968C
:1044200004941B03CDE902350C23059320F0EAFA2E
:1044300008B070BD0050004010B5064C236823F052
:1044400001032360FFF7DCFF236843F001032360CF
:1044500010BD00BF0050004000221146FFF7ECBF26
:1044600037B5374C03253748236823F00103236011
:10447000FEF7A8FA3448FEF7A5FA4FF48010FEF7CD
:1044800081FA4FF4805109230A2230480095FFF742
:104490003AFB09232A4604212D480095FFF733FBF8
:1044A00000224FF4E1301146FFF7AAFF636820466F
:1044B00023F490436360A36823F02A03A360236876
:1044C00023F000532360FEF7B2FEFEF7A3FE214B5C
:1044D000F02283F835234FF400125A60FEF7A4FA55
:1044E0000021FEF798FA402323621B4B19801B4BD7
:1044F0001980FEF787FA1A4B19801A4B19806368E6
:1045000023F400636360A36823F00803A360636877
:1045100023F480436360A36823F02203A360A368AD
:1045200043F48053A360236843F001032360E369ED
:104530009A02FCD5E3695B02F9D503B030BD00BF38
:104540000050004008030007080000070008025858
:10455000000C025800E100E0FC5A0024FE5A00243E
:10456000F8560024FA56002408B5FFF779FF0348EF
:10457000436ABDE80840FEF733BA00BF0050004070
:104580001C4B10B4DC69A00611D51A6891060ED533
:1045900019485A6A194903880988013389B2C3F353
:1045A0000903994203D0D2B21549CA540380114875
:1045B0001F232206036215D503681B0612D5114B73
:1045C000114A1988138889B29BB299420DD0138879
:1045D0000133C3F30903138013880C4A9BB2D35CE5
:1045E000DBB283625DF8044B70475DF8044BFEF765
:1045F0001BBA00BF004400401E6500241C65002457
:104600001C61002422690024206900242065002404
:104610000A490B4A08B50B881288013392B2C3F3DA
:1046200009039A4207D0074AD05407480B80FEF787
:10463000E0F9012008BD0020FCE700BF226900244A
:104640002069002420650024004400400848094AED
:104650000188138889B29BB29942F9D0138801333B
:10466000C3F3090313801388034A9BB2D05C7047DD
:104670001E6500241C6500241C61002470B588B0F0
:104680000C460646154600212022684622F0F4FA20
:10469000231E6946064818BF0123019604941B0394
:1046A000CDE902350C23059320F0ACF908B070BDBC
:1046B0000044004010B5064C236823F0010323603A
:1046C000FFF7DCFF236843F00103236010BD00BF48
:1046D0000044004000221146FFF7ECBF37B5364CCE
:1046E00003253648236823F001032360FEF76AF9A7
:1046F0003348FEF767F94FF40030FEF743F9042121
:1047000008230A2200F1B0400095FFF7FCF90823C6
:104710002A462C4819460095FFF7F5F900224FF478
:10472000E1301146FFF7AAFF6368204623F4904367
:104730006360A36823F02A03A360236823F0005377
:104740002360FEF774FDFEF765FD1F4BF02283F832
:10475000262340215960FEF767F9FEF75CF92162D4
:104760001A4B002119801A4B1980FEF74BF9194B8F
:104770001980194B1980636823F400636360A36890
:1047800023F00803A360636823F480436360A36895
:1047900023F02203A360A36843F48053A36023683B
:1047A00043F001032360E3699A02FCD5E3695B02ED
:1047B000F9D503B030BD00BF004400400803000736
:1047C000080000070000025800E100E02069002412
:1047D000226900241C6500241E65002408B5FFF72B
:1047E0007DFF0348436ABDE80840FEF7F9B800BF03
:1047F0000044004038B505460C46FFF751FA45F035
:104800008000FFF75DFAFF20FFF75AFA2070FFF7EC
:1048100039FA012038BD38B505460C46FFF740FA95
:1048200005F07F00FFF74CFA2046FFF749FAFFF743
:1048300029FA012038BDF7B500270D461E4614465B
:104840001F70A2B10DF10701FFF7D4FF01280CD1B1
:10485000291B00FA04F29DF807300131013A8A4021
:104860001A400A41327003B0F0BD3846FBE7012020
:10487000F9E7F7B505460E461C461746EAB10DF1B5
:104880000701FFF7B7FF012815D1F11B00FA07F266
:1048900028460131013A8C408A409DF80710E4B265
:1048A00021EA020114402143FFF7B5FF431E58429D
:1048B000584103B0F0BD0020FBE70120F9E70123D8
:1048C00007216B201A46FFF7D4BF012303216A207A
:1048D0001A46FFF7CEBF0023012206216B20FFF707
:1048E000C8BF0346032202216B20FFF7C2BF014667
:1048F0001920FFF790BF01461920FFF77BBF034641
:10490000032202211A20FFF7B4BF0346032202212B
:104910001A20FFF790BF0346022204211B20FFF755
:10492000A8BF0346022204211B20FFF784BF0346D1
:10493000022204211C20FFF79CBF0346022204210F
:104940001C20FFF778BF10B5044600F007030322D0
:1049500002211A20FFF78DFFC4F301130222012167
:104960001B20BDE81040FFF784BF13B503220446A7
:104970000DF1060302211A20FFF75DFF0DF1070379
:10498000022201211B20FFF756FF9DF8063003F09D
:104990000703237002B010BD10B5044600F00703F2
:1049A000032202211D20FFF764FFC4F3001301223C
:1049B00003211D20BDE81040FFF75BBF13B50322A4
:1049C00004460DF1060302211D20FFF734FF0DF10F
:1049D0000703012203211D20FFF72DFF9DF807305B
:1049E0009DF806201B0102F0070203F01003134399
:1049F000237002B010BD000038B5164C002575209C
:104A000021462570FFF7F6FE012814D12378682B84
:104A100010D0702B11D0712B11D0732B11D0122B01
:104A200011D0422B11D0472B11D0A3F1DB025342FE
:104A30005341D80038BD2846FCE70520FAE702209C
:104A4000F8E70720F6E70320F4E70420F2E7062062
:104A5000F0E700BFC83400242DE9F04107460E46B8
:104A60000A2015461C469DF81880FFF7F7F83846CF
:104A7000FFF737FF3046FFF74EFF2846FFF73FFFAF
:104A80002046FFF754FF4046FFF731FFBDE8F041F5
:104A9000FFF721BFF7B50A2016461D460F46FFF760
:104AA000DDF80DF10700FFF73CFF9DF807400A20F5
:104AB000E11B18BF01214C00FFF7D0F80DF10700F2
:104AC000FFF723FF9DF807300A20B34218BF44F0D8
:104AD0000404FFF7C3F80DF10700FFF72EFF9DF860
:104AE00007300A20AB4218BF44F00804FFF7B6F8BD
:104AF0000DF10700FFF7FFFE9DF807209DF820301D
:104B00009A4218BF44F01004204603B0F0BD2DE9CE
:104B1000F84307460E460A2015461C469DF820908D
:104B20009DF82480FFF79AF83846FFF7DAFE304602
:104B3000FFF7F1FE2846FFF706FF2046FFF7F7FED6
:104B40004846FFF729FF4046FFF7D1FEBDE8F8438E
:104B5000FFF7C1BEF7B50A2016461D460F46FFF700
:104B60007DF80DF10700FFF7DCFE9DF807400A20F5
:104B7000E11B18BF01214C00FFF770F80DF1070091
:104B8000FFF7F3FE9DF807300A20B34218BF44F048
:104B90000404FFF763F80DF10700FFF7CEFE9DF860
:104BA00007300A20AB4218BF44F00804FFF756F85C
:104BB0000DF10700FFF79FFE9DF807209DF82430B8
:104BC0000A209A4218BF44F01004FFF747F80DF18D
:104BD0000700FFF7F3FE9DF807209DF820309A426A
:104BE00018BF44F02004204603B0F0BD73B50C4656
:104BF0000DF1070105461646FFF7FCFD9DF807304D
:104C0000284604EA0301314302B0BDE87040FFF7D3
:104C100002BE2DE9F04706468846112001211D46B7
:104C200014469DF820909DF824A004F00F049DF8F0
:104C30002870FFF7F0FD42F21070FFF70FF8002226
:104C4000C0214E20FFF7D2FF0A20FFF707F8052208
:104C5000F8211320FFF7CAFF0A20FEF7FFFF032207
:104C6000FC214C20FFF7C2FF40223F214D20FFF7DF
:104C7000BDFF0A20FEF7F2FF0F22C0214E20FFF7F2
:104C8000B5FF4FF47A70FEF7E9FF0A20FEF7E6FF62
:104C9000102144EA46124F2002F0EF02FFF7A6FF70
:104CA0000A20FEF7DBFF102144EA4812502002F0F0
:104CB000EF02FFF79BFF0A20FEF7D0FFF3214FEA38
:104CC0008A02512002F00C02FFF790FF0A20FEF743
:104CD000C5FF05F00F02FF21522042EA0912D2B2AD
:104CE000FFF784FF0A20FEF7B9FFE721FA005320FF
:104CF00002F01802BDE8F047FFF778BF2DE9FF4149
:104D0000002306460A2403800A20FEF7A7FFFFF7C8
:104D100073FE80B2308038B9013CA4B2002CF3D1CC
:104D2000002004B0BDE8F0810A2500240127DFF847
:104D30008C803388082B2FD807FA03F313F0A402D2
:104D400010D113F4A87F27D001230092022106225C
:104D50001846CDE90177FFF75CFF1848FEF77EFFA4
:104D60000320DEE70123002202210320CDE90044D5
:104D7000FFF7CDFE4046FEF771FF0123002202211E
:104D80000320CDE90044FFF7E5FE0028E8D0013D0F
:104D9000ADB2002DCDD1C3E70123002202210320B3
:104DA0000094FFF759FE4046FEF758FF012300220A
:104DB000022100940320FFF76DFEE6E7A0860100C4
:104DC0000388642213FB02F34FF4AA7293FBF2F3FD
:104DD00003F64563038070470388642213FB02F3E4
:104DE0004FF4AA7293FBF2F303F634030380704787
:104DF000038842F2107213FB02F34FF44F5293FBFD
:104E0000F2F303F6C4130380704710B586B00C4666
:104E10001422002101A821F02FFF0123694601A8D7
:104E20000493CDE902341CF03FFB00280CBF0420A2
:104E3000052006B010BD0A460146012008B51CF049
:104E40007DFA00280CBF0420052008BD08B5FFF737
:104E5000DCFF031F5842584108BD08B5FFF7EBFFC0
:104E6000031F5842584108BD2DE9F0470128334B34
:104E7000334D86B00F4633480EBF3D213C21AA4634
:104E8000144618BF1D46304A06BF9A4680469046D3
:104E900001911CF0B7F901992846FFF7D7FF30B907
:104EA00000241CF0D5F9204606B0BDE8F087002F9D
:104EB00005F110064FF00009AAEB050A08BF4FF4F0
:104EC000FF540F34C4F30F141FFA89F39C420FD818
:104ED0004FF0113302A9284602930023CDE9043391
:104EE0000393FFF7BAFF003818BF01208400D8E70A
:104EF0000AEB060C02A907EB091E002301227FB969
:104F000053F80C000860043351F8040B013018BF4B
:104F10000022102BF3D132B109F101091036D3E789
:104F20005EF80300EEE7B04506D902A93046FFF768
:104F300094FF0028F0D1B3E70324B2E7008007080C
:104F400000A00708FFBF0708FF9F070810B51CF067
:104F500059F93C210848FFF779FF58B13D2107482E
:104F6000FFF774FF003818BF012084001CF070F9AF
:104F7000204610BD0446F9E70080070800A0070896
:104F800030B5002341F6EF74064D9AB2914201D834
:104F9000042030BDA34203D05A5DC2540133F4E76C
:104FA0000320F6E71080070813B50A46044672B6D8
:104FB000019101460020FFF757FF62B60428019ACD
:104FC00005D172B601202146FFF74EFF62B602B04E
:104FD00010BD000038B5124B1C6803F50053B4F146
:104FE000113F1D6809D1B5F1113F17D000220120F2
:104FF0001146BDE83840FFF737BFB5F1113F03D187
:10500000002211461046F4E7FFF7A0FF042804D160
:105010002C4001340CBF0220012038BD0420FCE7E5
:105020000080070872B6084B5B6A99B262B6074AFD
:105030009BB2908891808842106884BF01301060D4
:1050400003EB0040704700BF00400140600C0024AB
:10505000034B00215A6A034B19609A80704700BFC6
:1050600000400140600C0024032808D8DFE800F06D
:1050700002080D120A4A136A23F420631362704770
:10508000074A136A23F0A003F8E7064A136A23F4D9
:105090002043F3E7024A136A23F00A03EEE700BF56
:1050A000000001400004014013B514461A460023D5
:1050B00000932346FEF727FD02B010BD1FB5002365
:1050C00000926A46CDE902334FF4803301931FF01A
:1050D00075FB05B05DF804FB10B50B4C02230422F0
:1050E0004FF400710948FFF7DFFF02224FF48051AF
:1050F0002046FFF7E3FF6FF010032361E36843F0FE
:105100001003E36010BD00BF000401400008025816
:1051100030B589B004460D461C22002101A821F0BB
:10512000ABFD30236A46294600932046636A03F5A7
:105130001C53103303931FF0BFF929462046FDF797
:1051400087FC09B030BD000010B50A4C05230022D1
:105150004FF400710848FFF7A7FF10212046FFF722
:10516000D7FF6FF004032361E36843F00403E360B7
:1051700010BD00BF000001400000025870B50D4690
:1051800003281AD8DFE800F0022B517C01294F4C8C
:1051900014D102234FF480614D481A46FFF784FF73
:1051A00000224FF480712046FFF788FF6FF008035C
:1051B0002361E36843F00803E36070BDE3684FF4E4
:1051C000806123F00803E3606FF008032361236A22
:1051D00023F48073236200231A463D484CE00129E2
:1051E0003A4C12D102234FF4007139481A46FFF7A6
:1051F0005BFF002210212046FFF760FF6FF00403E1
:105200002361E36843F00403D6E7E3684FF40071D9
:1052100023F00403E3606FF004032361236A23F0A7
:105220001003236200231A46D7E70129294C13D122
:10523000022304224FF400712748FFF735FF0022B4
:105240004FF480512046FFF739FF6FF010032361C0
:10525000E36843F01003AFE7E3684FF400711E48C2
:1052600023F01003E3606FF010032361236A23F43B
:105270008053236200231A46BDE87040FFF714BF35
:105280000129124C12D102234FF4807110481A46A2
:10529000FFF70AFF002229462046FFF70FFF6FF0B5
:1052A00002032361E36843F0020385E7E3684FF4F8
:1052B000807123F00203E3606FF002032361236A2D
:1052C00023F00103236200231A4686E70000014011
:1052D0000000025800040140000802582DE9F8437C
:1052E00000EB4009012604464FEA400806FA09F699
:1052F0000F461F4D21B92B681E4206D1BDE8F88329
:10530000012902D12B681E42F8D100212046FFF767
:1053100035FF72B6174901220B68A24023EA020347
:105320000B6062B607222B68A84440F2DC5102FAF7
:1053300009F2012C23EA02034FF0A702A8F8042087
:1053400005EB44022B6091810CD113F0805FD5D125
:10535000012FD3D11E43394620462E60BDE8F843C5
:10536000FFF70CBF022CF3D113F0807FEFE700BFF3
:10537000401E002418370024012801D1FFF7ACBEDD
:10538000074B4FF400710748DA6822F01002DA6028
:105390006FF010021A6100231A46FFF785BE00BFA6
:1053A0000004014000080258012801D1FFF7CCBEDB
:1053B000074B4FF400710748DA6822F00402DA6004
:1053C0006FF004021A6100231A46FFF76DBE00BF9A
:1053D000000001400000025808B50120FDF7C2FAA4
:1053E0001020FDF7BFFA0548FEF716FC044BE0223B
:1053F00083F81B234FF000621A6008BD00000140D3
:1054000000E100E008B50420FDF7ACFA0548FEF71E
:1054100003FC054BE02283F82E234FF480425A60B0
:1054200008BD00BF0004014000E100E0574B1A69CD
:1054300030B4950711D56FF002021A611A6A02F0B2
:105440000A02022A1A6A6BD022F00A02504942F07C
:1054500002021A625B6B9BB28B814C4B1A69540738
:1054600026D56FF004024B491A610A68900538D5B9
:10547000494C4A482188028889B292B291425CD84C
:105480009C6B44F6206240F28D6122449A6303884B
:105490009BB28B4203D9424B4FF400729A6103884E
:1054A0009BB2B3F5CF6F03D83D4B4FF000729A61BA
:1054B000364B1A69120712D56FF008021A611A6A80
:1054C000120A02F00A02022A1A6A1BD022F420628F
:1054D0002F4942F400721A62DB6B9BB20B8030BC26
:1054E00070471A6A120902F00A02022A1A6A37D0B1
:1054F00022F0A002264942F020021A629B6B9BB266
:105500008B80D5E722F42062224921481A62DB6BA6
:105510009BB243800B6843F0010330BC0B607047C3
:1055200022F00A021B491A481A625B6B9BB2C381C4
:105530000B6843F008030B608FE7194A516989052E
:105540001AD401889D6B15FA81F199634FF40071AB
:105550002388048813481B1B9BB203809161A7E733
:1055600022F0A0020A481A629B6B9BB2C3800B68B0
:1055700043F002030B609BE70A494FF00070098873
:105580009C6B14FA81F19963906191E700000140EE
:105590000837002418370024023700240437002479
:1055A0000000025806370024124B1A69D20612D5A1
:1055B0006FF010021A611A6A120B02F00A02022A34
:1055C0001A6A09D022F420420B4942F400521A62AE
:1055D0001B6C9BB20B81704722F42042074906489E
:1055E0001A621B6C9BB243810B6843F004030B608F
:1055F000704700BF0004014008370024183700241A
:10560000454B46491A68086812F0010230B517D0B8
:105610001A68434C22F001021A6025886288521BE6
:1056200040F2EA4592B2A2F27B34A4B2AC429FBFF0
:10563000A7248A8140F0040001228CBF00228C80C4
:105640001C68A50713D51C6840F2EA4524F0020443
:105650001C60334CB4F804E0B4F806C0ACEB0E0C9C
:105660001FFA8CFCACF27B34A4B2AC424CD91C685F
:1056700064072CD51C6840F2EA4524F004041C6041
:10568000274CB4F808E0B4F80AC0ACEB0E0C1FFAD3
:105690008CFCACF27B3E1FFA8EFEAE4517D8A722DB
:1056A00040F48070A1F810C00A811A6812070CD566
:1056B0001A6822F008021A60A289E3899B1A9BB239
:1056C000A3F27B3292B2AA4214D9086030BD1C68A2
:1056D000240716D51C6840F2EA4524F008041C6033
:1056E0000F4B9C89DB891B1B9BB2A3F27B34A4B2BA
:1056F000AC4206D8A72240F400604B824A81086081
:10570000E4E7002AE1D130BDA72240F02000A1F853
:105710000EC0CA800122AAE718370024401E0024C8
:1057200008370024CC490B68DB0140F1A581CB4848
:105730000388102B04D94AF65522934240F09C81ED
:1057400070B58AB072B6C64BC64A1B88526A9BB205
:105750001FFA82FC62B6C44C22889A4200F08A8109
:10576000C24A40F6853532F81360ACEB060C1FFADE
:105770008CFCAC4540F27E8123800488102C40F2E2
:105780007C8132F81350013B40F66D7C03F01F031F
:1057900032F81360B6B2AD1BADB26545ADF804503A
:1057A00000F28184A5F27A3440F2EC4EA4B2744542
:1057B00000F26081013B03F01F0332F81340A4B2F2
:1057C000361BB6B26645ADF8066000F27384A6F2E9
:1057D0007A35ADB2754500F24D81013B03F01F03F0
:1057E00032F81350ADB2641BA4B26445ADF8084062
:1057F00000F21F84A4F27A34A4B2744500F23A8114
:10580000013B03F01F0332F813E01FFA8EFEA5EBF5
:105810000E04A4B26445ADF80A4000F22C83A4F251
:105820007A3440F2EC45A4B2AC4200F22381013B51
:10583000644603F01F0332F813C01FFA8CFCAEEB72
:105840000C0E1FFA8EF6A642ADF80C6000F21A8319
:10585000A6F27A3E1FFA8EFEAE4500F20B81013BA6
:1058600003F01F0332F813E01FFA8EFEACEB0E0CB0
:105870001FFA8CFCA445ADF80EC000F20A83ACF20E
:105880007A36B6B2AE4200F2F580013B03F01F0358
:1058900032F81360B6B2AEEB060E1FFA8EFEA645C6
:1058A000ADF810E000F2A683AEF27A3C1FFA8CFC51
:1058B000AC4500F2DF80013B03F01F0332F813C058
:1058C0001FFA8CFCA6EB0C06B6B2A642ADF812602D
:1058D00000F29683A6F27A36B6B2AE4200F2CA80E1
:1058E000013B03F01F0332F81360B6B2ACEB0605C0
:1058F000ADB2A542ADF8145000F28883A5F27A3516
:1059000040F2EC44ADB2A54200F2B480013B40F657
:105910006D7503F01F0332F813C01FFA8CFCA6EB61
:105920000C06B6B2AE42ADF8166000F27583A6F270
:105930007A3E1FFA8EFEA64500F29C80013B03F0E2
:105940001F0332F813E01FFA8EFEACEB0E0C1FFAA9
:105950008CFCAC45ADF818C000F26483ACF27A362A
:10596000B6B2A64200F28680013B03F01F0332F874
:105970001360B6B2AEEB060E1FFA8EFEAE45ADF862
:105980001AE000F26F82AEF27A3C1FFA8CFCA4455A
:1059900070D8013B03F01F0332F813C01FFA8CFCD0
:1059A000A6EB0C06B6B2AE42ADF81C6000F248831E
:1059B000A6F27A36B6B2A6425CD8013B03F01F03CA
:1059C00032F81340A4B2ACEB040C1FFA8CFCAC45CB
:1059D000ADF81EC000F23A83ACF27A3C40F2EC4ED5
:1059E0001FFA8CFCF44545D8013BAC4603F01F037D
:1059F00032F81360B6B2A41BA4B2AC42ADF820409A
:105A000000F22A83A4F27A35ADB2754532D8013B53
:105A100003F01F0332F81350ADB2761BB6B26645E1
:105A2000ADF8226000F22183A6F27A34A4B2744564
:105A300020D8013B03F01F0332F81330EB1A9BB25E
:105A40006345ADF8243015D9094A1388102B00F0AE
:105A50002682102313800DE0401E0024E01F002446
:105A60004C39002400040140003700240C39002484
:105A7000E83400240AB070BD704732F813C01FFA32
:105A80008CFC002C00F05281013B40F2EC4603F00C
:105A90001F0332F813E01FFA8EFEACEB0E0C1FFA58
:105AA0008CFCADF804C0ACF27A3C1FFA8CFCB44517
:105AB000E0D8012C00F0DD81013B03F01F0332F838
:105AC00013C01FFA8CFCAEEB0C0E1FFA8EFEADF865
:105AD00006E0AEF27A3E1FFA8EFEB645CAD8022C18
