:020000040800F2
:10000000487900206D2E0008692E0008692E00082E
:10001000692E0008692E0008692E00080000000003
:10002000000000000000000000000000692E000831
:10003000692E000800000000692E0008E959000838
:10004000692E0008692E0008692E0008692E000834
:10005000692E0008692E0008692E0008692E000824
:10006000692E0008692E0008692E0008692E000814
:10007000692E0008692E0008692E0008692E000804
:10008000211700082D170008692E0008692E0008A6
:10009000EF5D0008692E0008692E0008692E00082F
:1000A000692E0008692E0008692E0008256C0008DA
:1000B000692E0008692E0008692E0008051700083F
:1000C00011170008692E0008692E0008692E000823
:1000D000692E000811800008692E00084D5A00089A
:1000E000692E0008692E0008692E0008692E000894
:1000F000692E0008692E0008DD6D0008692E0008D1
:10010000692E0008692E0008692E0008692E000873
:100110000D5E0008692E0008692E0008692E00088F
:10012000692E0008692E0008692E0008692E000853
:100130005FF808F10028B8BF4042704780FB0032EA
:1001400010499B0F43EA820383FB0112890F41EAA6
:1001500082010D4A10B50A4482FB0324910F0B4A19
:1001600041EA84010A4482FB0323910F084A41EAD1
:1001700083010A4482FB0002800F40EA820000F102
:10018000805010BD00D1249B80812A5F807EAACB45
:10019000C01BB6280A1E10B521DD00284FEA6001F9
:1001A0004FEA62040DDB0C1BE11702448907A0072C
:1001B00041EA9401D31724F03BFEBDE81040FFF75D
:1001C000BDBF0C44E117821A8907D317A00741EA83
:1001D000940124F02DFEFFF7B1FF404210BD23D063
:1001E00000284FEA60014FEA62030EDB1944CC1786
:1001F000821AA407D317880744EA910124F018FE55
:10020000FFF79CFFC0F18040E8E7C91ACC17024411
:10021000A407D317880744EA910124F009FEFFF7E9
:100220008DFF00F14040D9E7002803DCD6D04FF025
:100230004040D3E74FF08040D0E70000B0F1804F5E
:1002400070B5044667DAB0F1404F67DD80FB0020EF
:10025000920F42EA800233498017564201FB006345
:10026000A2FB01152B44890F41EA83012E4B0B445D
:1002700003FB00F5D91702FB0155A3FB02132B4426
:10028000890F41EA8301294B0B4403FB00F1DD1781
:1002900002FB0511A3FB023529449B0F43EA8103AE
:1002A000234D24491D4401FB0066A2FB01131E449B
:1002B000890F214B41EA86010B4403FB00F6D91755
:1002C00002FB0166A3FB02133344890F41EA830159
:1002D0001A4B0B445843D91702FB0100A3FB02320F
:1002E00010449A0F42EA8002154B02F100529D42DF
:1002F0000EDDE9178907D317A80741EA950124F015
:1003000097FD641084FB0004800F40EA840070BDF8
:10031000AD009200EBE74FF00050F8E74FF060407F
:10032000F5E700BF52EDEBFE60643B0EC060D4DE2B
:1003300060305F14548C43FC4045871D400990C6D3
:1003400013AE47014FF4C00380FB03321B0E43EA98
:100350000223C3F1A07383FB0032180E40EA02208F
:10036000C0F1F07070474310C3F1C0735A1082FBA4
:100370000321120E42EA012280FB0202000E40EA33
:100380000220C0F1C07080FB0303000E40EA03208E
:100390007047000070B580FB0034194D9B0F43EA95
:1003A000840383FB0554AD0F45EA8405154C2C44AA
:1003B00084FB0346A50F144C45EA86052C4484FBB8
:1003C0000345A40F44EA8504104E114D264483FBD7
:1003D0000554AD0F45EA84050E4C2C4484FB0343C1
:1003E000A50F0D4C45EA83052C4484FB0004800FC7
:1003F00040EA8400331A30440B60106070BD00BFC7
:100400009D2B16FF60DC780B00732BC8C03C412D80
:100410001CBB8CFC20B5311D00C7EAB873B5124B6C
:10042000C0F3815603EA002000F160400D461446F7
:10043000694601AAFFF7AEFFDDE90030022E0BD0BE
:10044000032E0DD0012E03D02B60206002B070BDB2
:1004500028605B422360F9E75B422B604042F4E78F
:1004600040422860F6E700BFC0FFFF3F08B524F018
:1004700069FA4FF04E5124F0B9FA22F0FDFF4FF027
:10048000974124F0B3FA24F08DFC08BDFFF7EEBFCE
:1004900010B5064C18B9012223681A8210BD044B0E
:1004A0001B681B68984720680A30F7E71C0D00207E
:1004B000400D002010B5064C18B9012223681A829D
:1004C00010BD044B1B689B68984720680C30F7E709
:1004D0001C0D0020400D002008B51F4B1968034675
:1004E00000201BB9022218460A8208BD1B4A108050
:1004F0000B7813F07F0312D1497A8B0644BF022395
:100500001370137848064CBF43F0010323F0010336
:100510001370134B1B681B6998471048E5E7012BC4
:1005200017D0022BE1D1497901F00F039B0003F1B1
:10053000804303F5B84309061B6805D503F0300373
:10054000102BE6D10123E3E703F44053B3F5805FBA
:10055000F7E71046C9E700BF1C0D00205007002038
:10056000400D00202DE9F843DFF88C80234FD8F8A8
:1005700000502C8AD4B92E7A042E17D120498B78BA
:10058000012B0FD11F4BD3F8502C1F4B92B21344A9
:100590005B001C6030238C703B80D8F800301E72EA
:1005A000BDE8F883102307263B80F6E7AA8AAB69EB
:1005B000944294BF04260226944228BF1446204643
:1005C00098478146002002F045FD224601464846F4
:1005D00022F07EFE2146002002F05CFD2B8A6A8A12
:1005E0001B1B2B82302314444FF440523B80074B9B
:1005F0006C821A80D1E700BF1C0D0020FA08002091
:10060000500700200050004002300020F808002071
:1006100010B50A4B0A491B684978DA7891420AD327
:100620009C7844B9998831B99A72064B1B685B680B
:100630009847204610BD0224FBE700BF1C0D002098
:100640000C010020400D002038B50E4A0E4D1268F6
:100650002B689269D978587990472B689A7A7AB141
:1006600070B91A7962B99C7854B9084B1B68DB6879
:1006700098472B685A79DA72DA781A73204638BDAF
:100680000224FBE73C0D00201C0D0020400D002043
:1006900070B52F4B1D682B7813F07F0305D16A7A54
:1006A00022F020026A72184670BD022B4DD16A8872
:1006B000002AF8D12A79002AF5D16979254E21F04E
:1006C0008000840004F1804404F5B8442268367840
:1006D00049B20029B4BF02F0300202F4405286420F
:1006E000E1D9002ADFD0AA7A002ADCD000292368C9
:1006F00011DA03F03003102B07D1C4B2204602F008
:1007000072FC3021204602F0F1FB134B1B685B6941
:1007100098470023C7E703F44053B3F5805FF4D153
:100720000E4D78B90E4B93F82C1002F0C3FC2368E1
:100730002B409BB283F4405343F4004343F08003C7
:100740002360E2E702F03CFCF1E70223ABE700BFE5
:100750001C0D00200C010020400D00208FBFFFFF6A
:100760008800002038B51D4B1D4D18682D78417943
:1007700021F08004A20002F1804202F5B842136821
:1007800049B20029B4BF03F0300303F44053A5423B
:1007900021D94488FCB9F3B1837AE3B11368002905
:1007A000B5BF23F4E04323F4804323F0400323F058
:1007B0007003B5BF9BB29BB283F0100383F48053E8
:1007C00043F4004343F080031360064B1B689B69AE
:1007D0009847002038BD0220FCE700BF1C0D002018
:1007E0000C010020400D002008B5064B1A68537A12
:1007F00043F020035372044B1B68DB6998470020C9
:1008000008BD00BF1C0D0020400D0020054B10B599
:100810001C68628A18B98B889B1A238210BD0868ED
:100820001044FBE71C0D002008B50B4B002093F88B
:100830002C1002F03FFC094B1B68187A082806D1DF
:100840004FF48052064B1A801022064B1A80A0F1FA
:1008500009035842584108BD880000201C0D0020A3
:10086000F8080020FA08002073B58F4C8F4B2668DB
:10087000D3F8502C337A092B19D08D4B92B21344F4
:100880005B001D886D0005F1804505F5C0452B789E
:1008900033706B787370A88802F040FC70802889F0
:1008A000266802F03BFCB080AA892368DA80012226
:1008B00023681A72DA885D78002A5FD11A7812F0FC
:1008C0007F0248D1092D03D1FFF7A2FE30BB12E011
:1008D000052D1ED193F90320002A03DA082322688C
:1008E0001372B3E09A78002AF8D19A88002AF5D1D9
:1008F0009B7A002BF2D16D4BD3F8502C6D4B92B2FA
:10090000134400225B001A6030226B4B1A800623CE
:10091000E5E7032D11D1DA78012A08D0674B284684
:100920001B685B699847032825D10923D7E79B8873
:10093000002BF3D1FFF758FFC8E7012DEED1DA788D
:10094000012AEBD19A88002AE8D15B7A9E06E5D588
:10095000FFF79EFEBAE7012A04D10B2DDED1FFF787
:1009600073FEB3E7022AD9D1012DF1D0032DD5D1E1
:10097000FFF7F8FEAAE70028BDD0AFE7062D13D198
:100980001A78550656D19B784C4A012B126803D130
:10099000D369002B4ED01AE0022B01D1136AF8E77D
:1009A000032B47D1536AF4E7002D54D1598800290D
:1009B00040D15A6822F47F42B2F5003F3AD11A780A
:1009C00012F07F0211D19B88002B33D13C4B0025C4
:1009D000226828465582936198474FF6FF71226836
:1009E000138A8B425AD109237AE7012A0AD1334A62
:1009F0005879126892699047E0B923689B7A002B76
:100A0000E4D117E0022A15D15A7902F00F018B00C8
:100A1000100603F180432B4803F5B8431B680078A8
:100A20004CBF03F0300303F44053884202D912F064
:100A3000700FE4D0214B22681B6850781B699847DF
:100A400003280546C9D1092223681A7202B0BDE8FD
:100A50007040FFF7E9BE082D04D11B785B06E9D191
:100A6000194BB4E70A2DE5D11A7802F07F02012A6A
:100A7000E0D19A7A002ADDD059880029DAD15A6863
:100A800022F47F42B2F5803FD4D10C4A58791268E3
:100A9000926990470028CDD10C4B98E7022D00D0E9
:100AA000B3B908231CE700BF1C0D00200050004014
:100AB0000430002002300020FA0800203C0D002005
:100AC000D90400080C01002091040008B5040008B6
:100AD00092F90010002920DAD4881349019409689A
:100AE000019D91F82C00AB42014605D9019B138270
:100AF0009182FFF737FDA9E7A342F9D2834203D2DF
:100B000000200A4B9870F3E7B3FBF0F400FB1433BA
:100B1000002BEDD10120054BF4E7032313724FF4B2
:100B20004052034B1A8091E73C0D002050070020F3
:100B3000F8080020F8B52C4E3468237A022B50D0E8
:100B4000042B4ED0032B01D0052B44D1A369B3B1A4
:100B5000258A0DB3A28A954228BF15462846984794
:100B6000238A07465B1B2382638A00202B4463820F
:100B700002F080FA2A460146384622F0B8FB238A62
:100B800053B100214FF44052184B08461A8002F02E
:100B900081FA3022164B1A80218AA38A32688B424E
:100BA00008D803231372137A32681372BDE8F84031
:100BB000FFF73ABE09B10523F4E7062313720D4B84
:100BC000D3F8500C0C4B80B203445B001960302109
:100BD000074B1980E7E7072B03D1084B1B68DB683D
:100BE00098470823E0E700BF1C0D0020F80800200C
:100BF000FA08002000500040023000203C0D002088
:100C000070B5002140F60F7548F280060A4B1C783B
:100C1000A14205D3094B40F08000C3F84C0C70BDD5
:100C20008A0002F1804202F5B84213682B400B4360
:100C3000334313600131EBE70C010020005000400A
:100C400010B5134C23681A7A022A01D0042A09D15C
:100C5000FFF788FC23681B7A22681372BDE81040F6
:100C6000FFF7E2BD062A10D15A78052A09D11A7871
:100C7000520606D1D878FFF7C3FF064B1B681B6AE4
:100C80009847054B1B689B6898470823E4E700BF1B
:100C90001C0D0020400D00203C0D0020704700007E
:100CA00038B54FF09D410446006823F09FFE24F0C4
:100CB00079F80E4D4FF09D41A860606823F096FED4
:100CC00024F070F84FF09D41E860A06823F08EFE9C
:100CD00024F068F840424FF09D412861E06823F01D
:100CE00085FE24F05FF84042686138BD5807002057
:100CF00070B5056804462946284624F03DF820BB17
:100D00001549284623F072FE24F04CF86668134D0E
:100D10003146A861304624F02FF8C0B90E4930465C
:100D200023F064FE24F03EF84042A468E8612146C6
:100D3000204624F021F860B90749204623F056FEEA
:100D400024F030F84042286270BD0020DEE7002029
:100D5000EBE70020F7E700BF00007A4458070020C7
:100D60000022034BDA841A8822F400521A8070475A
:100D70005807002049F64041184B30B55C68021B0B
:100D80008A4202D9996E914204D3196F144D411AC7
:100D9000A94206D949F6404118678A422CBF9A6693
:100DA000996649F63F418A4202D8596E914204D869
:100DB000D96E0B4D411AA94206D949F64041D86671
:100DC0008A4294BF5A6659661A881C6642F0040229
:100DD0001A8040F29A2258605A8030BD580700208D
:100DE000C81405002DE9F041D0F8008005464146C1
:100DF000404623F0C1FF10BB6F683946384623F0E8
:100E0000BBFF0446D8B9AD682946284623F0B4FF95
:100E1000B8B90021404623F07DFF70B1002138466B
:100E200023F078FF48B10021284623F073FFB0FA81
:100E300080F0400980B2BDE8F0810120FAE700208F
:100E4000F9E72046F7E70000114B1A88998C22F445
:100E5000A06292B211F0010F1A801CBF42F480729E
:100E60001A808A0704D518B11A8842F480621A8061
:100E70001A88480622F4C05292B248BF42F4006277
:100E80001A808A0642BF1A8842F480521A8070473C
:100E90005807002070B50446053004F115060D46CC
:100EA000FFF7FEFE3046FFF723FFFFF759FF62789A
:100EB000104B12F0010118BF01219007198548BF9E
:100EC000198D9A8444BF41F004011985510654BF1D
:100ED00001218021920648BF02222846598548BF39
:100EE0005A85FFF747FF3046FFF77CFFBDE87040AB
:100EF000FFF7AABF5807002070B50446083004F178
:100F00001C060D46FFF7CCFE3046FFF7F1FEFFF75B
:100F100027FF0022154B9A84218EC80748BF012065
:100F20008AB248BF9884520742BF9A8C42F00202AC
:100F30009A8494F83420901E02280FD8988C40F0A0
:100F400060009884284619855A85FFF713FF3046BC
:100F5000FFF748FFBDE87040FFF776BF802A01D059
:100F6000052AEFD1988C40F04000EAE758070020AE
:100F70000A4A538883B11188013B9BB221F00200D9
:100F8000012B108001D953807047002321F0060106
:100F900041F0020153801180704700BF58070020C4
:100FA000044A138813F004001EBF23F00403012039
:100FB0001380704758070020044A138813F002007A
:100FC0001EBF23F002030120138070475807002042
:100FD00073B505460E46134C684604F1080103F04C
:100FE000E3F9009B01985B1B60EB0600C4E912303B
:100FF000DB0904F1540204F1500143EA4060FFF7B9
:101000000DFAD4E912309B0943EA806004F15C02D6
:1010100004F15801FFF702FA238843F00803238004
:1010200002B070BD58070020024B1888C0F3C00002
:10103000704700BF580700202DE9F041284C0646B4
:10104000236D6169626D83FB0105A768800F40EA2B
:10105000850082FB075CAD0F45EA8C05284460677C
:10106000D4E9030585FB03CE4FEA9C7C4CEA8E0C49
:1010700080FB02E84FEA9E7E4EEA880EF444C4F8F4
:1010800078C085FB025CAD0F45EA8C0580FB030C44
:1010900081FB021283FB0737800F40EA8C00890F27
:1010A0009B0F41EA82012D1A43EA870304F174077A
:1010B000CB1AE567394604F1880004F1A005C4F8AD
:1010C000803003F014F939462846324602F0F8FE23
:1010D000294604F1B000BDE8F04103F008B900BFB3
:1010E000580700202DE9F04F5B4C8FB0A26DE369EB
:1010F000E56D82FB0316A069890F41EA860185FB35
:10110000006783FB053582FB00209B0F920F43EAAB
:10111000850342EA80029B1AC4F8CC30236AB60FDA
:1011200046EA8706C4F8D030236E3144C4F8C810AC
:10113000002B00F08780606805AEC01A23F0FEFB2C
:10114000464923F053FC01468046454823F002FD02
:1011500008AD0BAB9A4600932A46374600234FF062
:101160004E5BDFF800910190C83454F8040BCDE9D0
:10117000023223F0E7FB494623F038FC4AF8040B1F
:10118000A06823F0DFFB494623F030FC47F8040B4E
:10119000606923F0D7FB594623F028FC029B039A91
:1011A00001339BB2032B42F8040BDED1A946B246B1
:1011B0000024DFF8B4B0D9F80020DAF80070104647
:1011C0004146039223F012FC394623F007FB009BB3
:1011D0000146074653F8040B0134009323F0FCFA50
:1011E0005946029023F002FC394623F0F7FA029B9D
:1011F00001994AF8040B184623F0F8FB039AA4B2AD
:10120000114623F0EBFA032C49F8040BD3D1002448
:101210004FF09748154FDFF85890494656F8040BA1
:1012200023F0E4FB23F0BEFD414647F8040B55F8DC
:10123000040B23F0DBFB23F0B5FD0134A4B2032C37
:10124000B860EAD10B4AA2F1400102F10C000FB0E4
:10125000BDE8F04F02F0ADBF58070020BD3786351E
:10126000CDCC4C3E6F12833ACDCCCC3E2C08002026
:1012700000007A4438080020024800F108013030AC
:1012800003F035B858070020024B1888C0F300203F
:10129000704700BF58070020024B1888C0F3802019
:1012A000704700BF58070020014BD3E93001704759
:1012B00058070020014BD3E926017047580700204A
:1012C000034AD2E91232C01842EB010102F074BAAB
:1012D00058070020014BD3E9100170475807002040
:1012E00070B549F640430025214C182604F108004A
:1012F000C4E91933C4E90055C4E91B55256602F059
:10130000CBFD00220023C4E912234FF08043324674
:10131000294604F13000C4E91535E365C4E90655F2
:10132000C4E90855A562256523F0A4FF04F1740003
:1013300002F0B2FD3246294604F1880023F09AFFFC
:1013400004F1A00002F0A8FD3246294604F1B000E5
:1013500023F090FFC4E93255C4E93455C4E9365549
:10136000C4E93855C4E93A55C4E93C5570BD00BFDD
:1013700058070020084B10B553F8204001212046A3
:1013800002F0B0FB2046002102F0ACFB2046BDE895
:101390001040012102F08EBB08540208084B10B522
:1013A00053F820400121204602F09CFB20460021FA
:1013B00002F098FB2046BDE81040002102F07ABB05
:1013C00008540208F7B5124D044605EB8003870068
:1013D00098681B690121184302F060FB41F6034342
:1013E00005EB44050B4EADF806302B8B56F8240068
:1013F00001A9ADF804303E4402F026F8AB8BB0688A
:1014000001A9ADF8043002F01FF803B0F0BD00BF31
:10141000085402080000002040F2034373B504465C
:101420000C4E0D4D06EB4006ADF80630338B55F8EB
:10143000200001A9ADF8043005EB840402F004F8A3
:10144000B38BA06801A9ADF8043001F0FDFF02B034
:1014500070BD00BF0854020800000020F8B5184E07
:101460000D4606EB800601218700306A02F00AFB78
:1014700000234FF6FF72134CE907C4E903234FF032
:101480008002C4E905234FF44052E361C4E9092313
:10149000B36A236007D51023A3600B4B21463B445E
:1014A000186921F037FEAB0709D50023A360064B6E
:1014B00004493B449869BDE8F84021F02BBEF8BDD3
:1014C0000854020850080020000000200B4610B409
:1014D0000B491C685B6812F48042CB60094B18BF53
:1014E000202203EB80039B6A4C600B6010238B600F
:1014F000054B10BC03EB800000690A6221F00ABEB4
:101500005008002008540208000000200B4610B4C8
:101510000B491C685B6812F40042CB60094B18BF92
:10152000202203EB80039B6A4C600B6000238B60DE
:10153000054B10BC03EB800080690A6221F0EABD14
:10154000500800200854020800000020CA0738B5DF
:1015500004460D4605D5084B03EB8003186921F0BE
:101560005FFDAB0707D5044800EB8404A069BDE824
:10157000384021F055BD38BD000000202DE9F7436B
:10158000994601230F463F4D8DF807302E1896F8E7
:10159000303004468DF8043096F8323001A88DF8CA
:1015A000053096F8343090468DF8063021F0FAFD7B
:1015B000780217D496F8363001A88DF8043096F8E2
:1015C00038308DF8053096F83A308DF8063021F035
:1015D000E9FD2D4B03EB84031B6A998889B241F422
:1015E00080719980B9F1020F49D118F0010F21D013
:1015F0002B1993F83C2001A88DF8042093F83E2085
:1016000093F840308DF805208DF8063021F0CAFDA2
:101610001D4BB90503EB84031B691A6842F00202F3
:101620001A601A6842F008021A6042BF1A6842F053
:1016300004021A6018F0020F21D0254495F84230B8
:1016400001A88DF8043095F844308DF8053095F8F0
:1016500046308DF8063021F0A5FD0B4800EB8404E0
:10166000A3691A6842F002021A601A6842F008027E
:101670001A60FA0442BF1A6842F004021A6003B00A
:10168000BDE8F08308540208000000202DE9F7436C
:101690001F46002388461A4C8DF8053004EB0009DC
:1016A0008DF806308DF8073099F83030054601A8DE
:1016B00016468DF8043021F075FD18F4800F06D120
:1016C00099F8363001A88DF8043021F06BFD022F17
:1016D00013D1F20707D5631993F83C3001A88DF8B0
:1016E000043021F05FFDB30707D52C4494F8423055
:1016F00001A88DF8043021F055FD03B0BDE8F0835A
:1017000008540208014801F005B900BF2800002074
:1017100008B5024800F0E6FD002008BD28000020C2
:10172000014800F04FBE00BF28000020014800F033
:10173000D7BE00BF2800002070B5068C42EA031215
:1017400026F001063604360C0684048B154B24F073
:10175000F3042404058C240C14439842ADB2A4B2C3
:1017600012D003F5006398420ED0B0F1804F0BD039
:10177000A3F59833984207D003F58063984203D0CD
:1017800003F58063984208D125F0020341EA03057E
:1017900045F001050483058470BD25F00A050D435D
:1017A000F6E700BF002C014070B5048C120224F053
:1017B00010042404240C0484058B42EA033225F42B
:1017C0004075154B2D05048C2D0D0E0115439842C7
:1017D000A4B2B6B2ADB212D003F5006398420ED0F7
:1017E000B0F1804F0BD0A3F59833984207D003F5A2
:1017F0008063984203D003F58063984208D124F0B7
:10180000200446EA040141F010010583018470BD03
:1018100024F0A0042143F6E7002C0140224A03886B
:1018200090429BB212D002F5006290420ED0B0F10D
:10183000804F0BD0A2F59832904207D002F580621B
:10184000904203D002F58062904203D14A8823F08F
:1018500070031343154A904208D002F5806290420B
:101860001FBF23F44073CA889BB2134303808B8845
:1018700083850B8803850C4B98420FD003F50063DA
:1018800098420BD003F54063984207D003F580637C
:10189000984203D003F58063984201D10B7A038606
:1018A00001238382704700BF002C014000100040DC
:1018B000038C70B523F001031B041B0C0384038C01
:1018C0008488028B0D8822F073021204120C4E8859
:1018D0002A4323F002030D891B0435431B0C2B43C1
:1018E000144DA4B2A8429BB20FD005F50065A842E2
:1018F0000BD005F54065A84207D005F58065A842E4
:1019000003D005F58065A8420ED14D8923F0080368
:101910002B438D8823F00403CE892B438D8924F437
:10192000407435432C43A4B284800283CA888286E3
:10193000038470BD002C0140038C70B523F01003AC
:101940001B041B0C0384038C8488028B0D8822F4F7
:10195000E6421204120C42EA05224E880D8923F059
:1019600020031B0435431B0C43EA0513114DA4B29D
:10197000A84292B29BB203D005F50065A84213D1EC
:101980004D8923F0800343EA05134FF6BF751D40D0
:101990008B88CE8945EA03138D8924F4406435434E
:1019A00044EA85049BB2A4B284800283CA88028779
:1019B000038470BD002C0140038C70B523F4807348
:1019C0001B041B0C0384038C8288848B0D8824F0F9
:1019D00073042404240C4E882C4323F400730D89D3
:1019E0001B0435431B0C43EA0523114D92B2A84258
:1019F0009BB203D005F50065A84213D14D8923F4AD
:101A0000006343EA05234FF6FF351D408B88CE89DE
:101A100045EA03238D8922F44052354342EA0512F8
:101A20009BB292B28280CA8884838287038470BD0D
:101A3000002C0140038C70B523F480531B041B0C55
:101A40000384038C8488828B0D8822F4E64212047E
:101A5000120C42EA05224E880D8923F400531B0420
:101A600035431B0C43EA05330B4DA4B2A84292B296
:101A70009BB203D005F50065A84205D18D8924F4F9
:101A8000804444EA8514A4B284808283CA88A0F882
:101A90004020038470BD00BF002C0140038821B1A9
:101AA0009BB243F001030380704723F001031B0442
:101AB0001B0CF8E783899BB212B1194381817047EF
:101AC00023EA0101FAE7038B23F00C031B041B0C30
:101AD0000383038B9BB20B4303837047028B22F477
:101AE00040621204120C0283038B9BB243EA01236F
:101AF0009BB203837047838B23F00C031B041B0CE6
:101B00008383838B9BB20B4383837047828B22F446
:101B100040621204120C8283838B9BB243EA01233E
:101B20009BB2838370470000F8B50F4609880446CE
:101B30007D88BA883B8939B92946FFF7FDFDF988C8
:101B4000BDE8F840FFF7BFBF042907D12946FFF7DA
:101B50002BFEF988BDE8F840FFF7C0BF0829008CCC
:101B6000F98839D120F480700004000C2084A68B01
:101B7000208CB6B226F0F306164346EA0316354B20
:101B80002F029C4280B2BFB2B6B212D003F50063FE
:101B90009C420ED0B4F1804F0BD0A3F598339C42F9
:101BA00007D003F580639C4203D003F580639C4219
:101BB0000CD120F4007047EA000343F48073A6833D
:101BC00020462384BDE8F840FFF795BF20F420604D
:101BD000284340F48073F2E720F480500004000CA6
:101BE0002084A78B1E0327F440771A4B3F05208CD7
:101BF0003F0D46EA02264FEA053C3E439C4280B236
:101C00001FFA8CFCB6B212D003F500639C420ED0D2
:101C1000B4F1804F0BD0A3F598339C4207D003F565
:101C200080639C4203D003F580639C420CD120F476
:101C300000504CEA000343F48053A68320462384DB
:101C4000BDE8F840FFF762BF47F6FF5303402B4360
:101C5000F1E700BF002C0140808E80B27047008FFA
:101C600080B27047808F80B27047B0F8400080B279
:101C70007047808C80B27047038A828911EA030022
:101C800092B203D00A4214BF012000207047C9431A
:101C900089B20182704700230360436070472DE9D9
:101CA000F041D0F8088004460F46456800214046C0
:101CB00023F030F808B1256013E026682946304645
:101CC00023F032F878B13946404622F08FFE314693
:101CD00022F084FD2946064623F044F80028EAD184
:101CE0002660BDE8F0812946304623F03BF8002805
:101CF000F7D03946404622F079FE0146304622F0C0
:101D00006BFD2946064623F00FF8E7E7A0F52F7391
:101D1000B3F5C86F04D8054BA0F2DC5018837047A8
:101D200010B90122014BDA86704700BF80080020FD
:101D3000A0F52F73B3F5C86F04D8054BA0F2DC50A3
:101D40005883704710B90122014B1A87704700BFB2
:101D500080080020A0F52F73B3F5C86F04D8054B99
:101D6000A0F2DC509883704710B90122014B5A87CA
:101D7000704700BF800800200122034BDA864FF035
:101D800001129A63704700BF80080020003818BF16
:101D90000120014B5884704780080020003818BF8C
:101DA0000120014BD887704780080020014B013883
:101DB0009884704780080020A0F52F73B3F5C86F92
:101DC0000DD80D4BA0F2DC50D884A1F52F73B3F5DC
:101DD000C86F0BD8084BA1F2DC5119857047002859
:101DE000F3D147F6FF72044BDA84EEE719B947F6F0
:101DF000FF72014B1A8570478008002040F6FC03F3
:101E0000984228BF1846B0F52F7F38BF4FF42F7087
:101E1000014B9887704700BF8008002008B5054B2C
:101E2000B3F86430012B03D0FFF770FF012008BD29
:101E30000020FCE78008002008B5054BB3F86430AB
:101E4000012B03D0FFF774FF012008BD0020FCE741
:101E50008008002008B5054BB3F86430012B03D08F
:101E6000FFF778FF012008BD0020FCE78008002074
:101E7000094B10B5B3F864301446012B09D0FFF7B5
:101E800045FF0846FFF754FF2046FFF763FF012098
:101E900010BD0020FCE700BF8008002030B5084CD2
:101EA000B4F86450012D09D0C4E900010120C4E94F
:101EB0000223DDE90323C4E9042330BD0020FCE74D
:101EC00080080020F0B5194F1C46B7F864300E4664
:101ED000012B154685B027D04FF09D4122F086FD9D
:101EE00022F060FF4FF09D410090304622F07EFDD1
:101EF00022F058FF4FF09D410190284622F076FDD8
:101F000022F050FF40424FF09D410290204622F0C7
:101F10006DFD22F047FF404203906946384602F0CB
:101F2000E6F9012005B0F0BD0020FBE780080020A5
:101F3000054BB3F86420012A1DBF00F1FF30D883A0
:101F400001200020704700BF80080020044BB3F838
:101F50006420012A1ABFD88301200020704700BFE7
:101F600080080020064BB3F86420012A05D0003811
:101F700018BF01205884012070470020704700BF1F
:101F800080080020064BB3F86420012A05D00038F1
:101F900018BF0120D887012070470020704700BF7C
:101FA00080080020054BB3F86420012A1DBF00F112
:101FB000FF30988401200020704700BF8008002077
:101FC000044BB3F86420012A1ABF98840120002032
:101FD000704700BF8008002008B5054BB3F8643097
:101FE000012B03D0FFF7E8FE012008BD0020FCE72D
:101FF00080080020044BB3F86420012A1DBF5885D7
:10200000998501200020704780080020074BB3F815
:102010006420012A07D0032805D803EB40030139C7
:102020000120D98570470020704700BF800800203C
:1020300008B5054BB3F86430012B03D0FFF7DEFE83
:10204000012008BD0020FCE780080020044BB3F805
:102050006420012A1ABF188401200020704700BFA5
:102060008008002008B5054BB3F86430012B03D07D
:10207000FFF782FE012008BD0020FCE78008002059
:1020800030B5084CB4F86450012D09D060640120CB
:10209000A364039B21656365049BE265236630BDF1
:1020A0000020FCE78008002038B5094D094C29467E
:1020B00004F14000FFF7F3FD294604F14C00FFF75F
:1020C000EEFD294604F15800BDE83840FFF7E7BDB2
:1020D000A69BC43A8008002008B5154B18220021A1
:1020E000184623F0C7F84FF6FF7203460021C2835B
:1020F000DA854FF0FF328161818301626FF0004029
:102100001A639A860B4A5862DA6347F6FF70002218
:10211000C3F83610598718851A645A649A64DA64C9
:102120001A655A659A65DA651A66A3F8641008BDDF
:1021300080080020DC05FFFF80F30888704780F3EB
:10214000108870474FF0FF32826110220273FF2225
:10215000026103F089BA000070B5037B0446012BCD
:1021600005D0037B102B02D0037B002B61D120789C
:10217000314D55F82020138823F001031B041B0C5C
:102180001380FFF749F92078FFF708F9E378022B6D
:1021900003D161782078FFF7D9F92078FFF7EAF8C2
:1021A0002078FFF70FF92378E16955F823000388B9
:1021B0009BB243F00103038021F020F86269D00252
:1021C00007D5237855F823100B889BB243F04003C2
:1021D0000B80D107207812D555F820108B899BB23F
:1021E00043F001038B818B8923F0FE031B041B0C3E
:1021F0008B818B899EB202F0FE0333438B815300A7
:1022000007D555F820100B8823F480631B041B0CA2
:102210000B80E378022B02D16178FFF71FF9E37896
:10222000207862786169FFF7A9F901230020237300
:1022300070BD0120FCE700BF2000002010B5037B2B
:102240000446012B04D0037B102B01D0037B13BB6E
:102250002078FFF7E1F82078104B53F820201388FE
:1022600023F001031B041B0C1380FFF797F8E3789E
:10227000022B03D161782078FFF768F9E3782078A2
:1022800062786169FFF702FA00204FF0FF33207394
:102290002061A36110BD0120FCE700BF20000020E9
:1022A00003460D4A0D480E49DA61C2E900014FF0BC
:1022B000806191604FF480419181032159704FF406
:1022C0000071002059804FF0FF311873C3E90100FD
:1022D0001861586199617047E8080020A0860100E4
:1022E0000000FFBF10B583780478012B344B39D13F
:1022F00042685268002A35D1027B012A02D0027B53
:10230000062A2FD153F824204FF2FF039382C3787B
:10231000012B25D1938823F400731B041B0C93809D
:10232000938823F480631B041B0C93800623836132
:10233000138B9C0705D58369012B02D08369013378
:10234000F6D18369012B02D08369013303D1BDE843
:102350001040FFF7F7BE4FF0FF3383610123037393
:10236000002010BD53F824309A8A02F47062026192
:10237000102202734FF2FF029A820269D1050AD538
:102380001A886FEA42426FEA524292B21A801A8861
:10239000C2F30E021A80026992050AD51A886FEA02
:1023A00042426FEA524292B21A801A88C2F30E0277
:1023B0001A80036903690169204603F06FF9CFE7CA
:1023C000200000204FF0FF3370B43F4A8361037850
:1023D0003E4952F8235051F823402A6822425ED0E9
:1023E000002142684669516072044CD48278002A08
:1023F00049D1374A52F82320918821F40061090419
:10240000090C918005218161918A490705D4816970
:10241000012902D081690131F6D18169012902D0F7
:102420008169013102D170BCFFF78CBE4FF0FF31E2
:102430003602816118D4118889B241F4007111808B
:1024400006218161118B890705D58169012902D097
:1024500081690131F6D181690129E4D081690131B5
:10246000E1D04FF0FF3181611A4951F823603168A2
:1024700021F001013160918821F400710904090CF7
:10248000918001220273144A002052F82320144341
:10249000124A52F823301C436C6070BC70470E4ADD
:1024A000296852F823201142EDD10C4A296852F8CC
:1024B00023201142E7D010220273064A52F823105B
:1024C000426849685160DEE74800002078540208FD
:1024D00020000020100000207054020868540208F8
:1024E0004FF0FF3370B4374A83610378364952F8AE
:1024F000235051F823402A6822424ED0002182689E
:102500005160426916043CD48278002A39D12F4A9E
:1025100052F82320118889B241F40071118091880A
:1025200021F400610904090C918006218161118B5D
:10253000890705D58169012902D081690131F6D168
:102540008169012902D08169013102D170BCFFF794
:10255000F9BD4FF0FF3181611D4951F823603168A9
:1025600021F001013160918821F400710904090C06
:102570009180918821F480510904090C91800122F5
:102580000273144A002052F823201443124A52F8CE
:1025900023301C436C6070BC70470E4A296852F8A7
:1025A00023201142EDD10C4A296852F82320114210
:1025B000E7D010220273064A52F823108268496855
:1025C0005160DEE74800002060540208200000202F
:1025D0001800002058540208505402080A48836921
:1025E00053B94FF0FF33836110230373036953B969
:1025F000FF23036103F038B8836901331EBF836989
:1026000003F1FF33836170472800002038B5C37899
:102610000446012B05D0022B0ED01023037301209A
:1026200038BD0278244B53F8222093889BB243F4A0
:10263000806393800020F3E700781F4D55F8202039
:10264000938823F400731B041B0C938093889BB224
:1026500043F400639380237B062B01D0012914D11E
:1026600062696168FEF732FF227855F822108B8884
:1026700023F480531B041B0C8B80104B53F8222037
:10268000136843F001031360D4E7237B0A2B01D0C6
:102690000229CFD16269A168FEF738FFA3783BB960
:1026A000237855F8232093889BB243F4805393807A
:1026B0002278034BE2E700BF20000020100000203A
:1026C0001800002038B5037B04469A0748D4037BE2
:1026D000032B45D0037B052B42D0037B002B3FD03F
:1026E000037B102B3CD00223416903731D4D0378FB
:1026F00055F82320CB0118D406238361138B980748
:1027000005D5A369012B02D0A3690133F6D1A369D2
:10271000012B02D0A369013304D12046BDE8384023
:10272000FFF710BD4FF0FF33A361A37873B913888F
:102730009BB243F480731380CB0303D50121204661
:10274000FFF764FF032323731F23A3610020237873
:1027500055F8232093889BB243F40073938038BDCF
:102760000120FCE72000002038B5037B04469907D0
:1027700000F1CB80037B032B00F0C780037B052B8C
:1027800000F0C380037B002B00F0BF80037B102B85
:1027900000F0BB800223037343695D4D13F0807F1B
:1027A0001BD106228261027855F822100A8B92070B
:1027B00005D5A269012A02D0A2690132F6D1A26927
:1027C000012A02D0A269013204D12046BDE8384076
:1027D000FFF7B8BC4FF0FF32A261E278022A07D1BE
:1027E000A2685268012A02BF43F400136361E270D9
:1027F0006169CB0300F18280A378002B7ED123781E
:1028000055F823301A8892B242F480721A801F223F
:10281000A2619A8AD00705D4A269012A02D0A269CE
:102820000132F6D1A269012ACFD0A2690132CCD0FF
:102830004FF0FF32A261E2699289B2F5804F18D160
:10284000A268926802F0FE021A820422A2619A8AA9
:10285000920705D4A269012A02D0A2690132F6D1F9
:10286000A269012AB1D0A2690132AED04FF0FF3285
:10287000A2619A8A1A8B0322A2619A8A100605D451
:10288000A269012A02D0A2690132F6D1A269012A05
:102890009BD0A269013298D04FF0FF328903A26128
:1028A00017D4A268127B1A820322A2619A8A1206A6
:1028B00005D4A269012A02D0A2690132F6D1A36926
:1028C000012B82D0A36901333FF47FAF4FF0FF3378
:1028D000A36105232373237855F82320A37833B904
:1028E00013889BB243F4807313801F23A3610020DD
:1028F00093889BB243F40073938038BDE17802293A
:10290000E7D12046FFF782FEE3E70120F5E700BFAD
:1029100020000020002337B5784DADF8063003784D
:10292000044655F823309A8A02F0DF02ADF80620FB
:102930008278BAB9BDF80620D1071DD54FF0FF3215
:102940008261C2699289B2F5804F0BD1027B052A60
:102950000BD18268127A42F001021A820A23237391
:102960000423A361002003B030BD4268926802F0E6
:10297000FE021A820623F2E7BDF8062092076AD506
:10298000C078022802D04FF0FF3205E0227B062AF1
:1029900014D1626852680132A261227B0A2A12D1E4
:1029A000012810D1A268516869B91A8892B242F41C
:1029B00000721A809A8A1B8B2073D3E7227B0A2A23
:1029C000E1D1A268E6E7237B0A2B05D1012803D1D8
:1029D00002212046FFF71AFE237855F823309A8A01
:1029E0001A8B227B0A2A0ED1A2685268012A0AD1C8
:1029F0001A8822F480621204120C1A801A8892B289
:102A000042F400721A80227B062A1FD16269900369
:102A10001CD46268127B1A820322A2619A8A110670
:102A200005D4A269012A02D0A2690132F6D1A369B4
:102A3000012B02D0A369013305D1204603B0BDE8C4
:102A40003040FFF77FBB4FF0FF33A36103212046E7
:102A5000FFF7DCFD86E7BDF80620120650D5027BA5
:102A6000062A4DD1C278012A7FF47CAF42685168B2
:102A700061B11168087818825368013B536053684C
:102A8000002B3FF46FAF013111606BE7426912F424
:102A9000000101BF1A8892B242F400721A809A882B
:102AA00022F400721204120C9A809A8822F4806236
:102AB0001204120C9A8006228261A9B99A8A02F045
:102AC00084022AB1A269012A02D0A2690132F5D199
:102AD000A369012BB1D0A3690133AED04FF0FF330E
:102AE000A361012323733DE79A8A1506F0D5A269F5
:102AF000012AEDD0A2690132F6D1E9E720000020D9
:102B0000BDF8062050067FF52DAF227B0A2A7FF400
:102B100029AFE278012A7FF425AFA16848680A68E6
:102B2000022856D11B8A1370237855F82320138866
:102B300023F480631B041B0C138013889BB243F4A3
:102B400000731380A3685A68013A5A601A68013208
:102B50001A60A368596800297FF404AF237855F8F8
:102B600023309A8822F400721204120C9A809A88F8
:102B700022F480621204120C9A809A8A1A8A62697C
:102B8000910241BF22F4001262610222E270062229
:102B9000A2611A8B920705D5A269012A02D0A26907
:102BA0000132F6D1A269012A3FF447AFA26901328E
:102BB0003FF443AF4FF0FF32A2611A8892B242F461
:102BC00080621A801A8822F400621204120C1A80A1
:102BD00087E749681B8A0129137004D1A2685368EA
:102BE000013B5360B5E7A3681A6801321A605A685E
:102BF000013A5A60ADE700BF0023F7B5584D594F71
:102C0000ADF80630D5F8443C574A99B21B04118000
:102C100050D5138803F00F033B70002B6DD14BF69A
:102C2000BF76D5F8003C514C9BB22380238803F03B
:102C300030036380238803F440532380D5F8003C9D
:102C4000334083F4005383F0200343F4004343F004
:102C50008003C5F8003C138813F0100FD5F8003C32
:102C60002AD123F4E14323F070031B041B0CC5F8A5
:102C7000003CFDF7E5FFD5F8003C22883340D7043F
:102C8000228848BF83F480539604628848BF83F447
:102C90000053D506628848BF83F01003900648BFF2
:102CA00083F0200343F400432D4A43F080039BB29A
:102CB000C2F8003C03B0F0BD9BB2ADF80630BDF8E1
:102CC00006301A050AD5D5F8003C23F070031B0521
:102CD0001B0DC5F8003CFDF7C7FDCCE7BDF806307D
:102CE0001B048FD5D5F8003C23F070031B051B0D8A
:102CF000C5F8003CFDF71EFFBDE79B0003F18043D4
:102D000003F5B8431A6892B2ADF80620BDF8062064
:102D100011040BD51A6822F070021205120D1A6008
:102D20003B78134A013B52F823309847BDF80630F0
:102D30001A067FF567AF3B789B0003F1804303F5EC
:102D4000B8431A6822F4E14222F070021204120C15
:102D50001A603B78074A013B52F82330984751E705
:102D600000500040480D002044690020F808002071
:102D7000E802002004030020374B82B01A6842F0BA
:102D800001021A605968354A0A405A601A6822F0EE
:102D9000847222F480321A601A6822F480221A6047
:102DA0005A6822F4FE025A604FF41F029A60002211
:102DB000009201921A6842F480321A601A6802F492
:102DC00000320192009A01320092019A1AB9009AD7
:102DD000B2F5A06FF2D11A6812F4003218BF0122C6
:102DE0000192019A012A30D11D4A116841F0100167
:102DF0001160116821F003011160116841F00201B6
:102E000011605A685A605A685A605A6842F480627F
:102E10005A605A6822F47C125A605A6842F4E812E6
:102E20005A601A6842F080721A601A689201FCD5E2
:102E30005A6822F003025A605A6842F002025A604D
:102E40005A6802F00C02082AFAD14FF00062054BD2
:102E50009A6002B0704700BF001002400000FFF807
:102E60000020024000ED00E0FEE7000008B50E4B38
:102E70000E48DA1C121AC11E22F00302994288BFC2
:102E800000220B4922F0CEF90A480B494FF000020C
:102E90008842B8BF40F8042BFADBFFF76DFFBDE8AE
:102EA00008401EF05FBC00BF50070020000000205B
:102EB000BC9F02085007002048690020034B20F007
:102EC000070080B2C3F8500C704700BF00500040AC
:102ED000800000F1804000F5B840036823F4EC4323
:102EE00023F070030B439BB203607047800000F136
:102EF000804000F5B8400368CA0623F4E04323F09D
:102F000040039BB248BF83F010038A0648BF83F09A
:102F1000200343F4004343F08003036070478000C4
:102F200000F1804000F5B8400368CA0423F48043F0
:102F300023F070039BB248BF83F480538A0448BFD8
:102F400083F4005343F4004343F08003036070476D
:102F5000800000F1804000F5B840036823F4E043AE
:102F600023F040039BB283F0300343F4004343F06B
:102F7000800303607047800000F1804000F5B84096
:102F8000036823F4804323F070039BB283F440531F
:102F900043F4004343F0800303607047800000F176
:102FA000804000F5B840036823F4F8731B051B0D3F
:102FB00043F4004343F0800303607047FFF7EEBF24
:102FC000800000F1804000F5B84003685B0409D53B
:102FD000036823F0F0031B051B0D43F4404343F04B
:102FE000800303607047800000F1804000F5B84026
:102FF00003685B0609D5036823F0F0031B051B0D6E
:1030000043F4004343F0C00303607047074B490893
:10301000D3F8503C49009BB203EBC00000F10050D4
:1030200000F5405040000160704700BF0050004074
:10303000064B4908D3F8503C49009BB203EBC00053
:10304000034B03445B001960704700BF0050004011
:1030500004300020064BD3F8503C9BB203EBC00079
:1030600000F1005000F5405040000088704700BF5C
:1030700000500040054BD3F8503C9BB203EBC0001E
:10308000034B03445B001888704700BF00500040AA
:1030900004300020054BD3F8503C9BB203EBC0003A
:1030A000034B03445B001960704700BF00500040B1
:1030B000023000200E4B0F4AD3F8503C3E299BB201
:1030C00003EBC00002444FEA42020AD94B09C8068A
:1030D00004BF03F1FF339BB29B0243F40043136030
:1030E00070474B08C90748BF01339B02F7E700BF91
:1030F0000050004006300020064BD3F8503C9BB2F5
:1031000003EBC000044B03445B001868C0F30900E4
:10311000704700BF005000400630002040BA80B227
:103120007047002370B51E464D1C040FB0F1204FB0
:1031300034BF3034373401F8134005F813600133DD
:10314000DCB2A2424FEA0010EFD870BD114938B589
:10315000D1E900303C2B17D93C2500F13C023C3B27
:103160004A600B6001240C4B80B218442A460C7252
:10317000C02120F0ADF820462946FFF78BFF2046FE
:10318000BDE83840FFF7E4BE9DB203444B60002326
:103190000B60E7E7FC0800200509002007B50121C6
:1031A000082000F07BFC2023ADF8043041F20343FB
:1031B000044801A9ADF8063000F046F903B05DF807
:1031C00004FB00BF000C014008B5002000F00AFC21
:1031D000BDE8084001214FF4000000F06BBC14234F
:1031E00007B58DF8043002238DF805308DF80630D0
:1031F000012301A88DF807301FF0D4FF03B05DF85C
:1032000004FB0000202110B1024800F071B9014810
:1032100000F070B9000C01400A4B10B5D3F8E80774
:10322000D3F8EC47D3F8F037C0180AD00649082283
:10323000FFF777FF2046BDE8104004221031FFF76A
:1032400070BF10BD00F0FF1F6600002030B50B4AB4
:103250000144884200D130BDB2F80A32B2F80C42C3
:103260000133C3F30803A4B29C42F4D010F8015B0D
:10327000D41884F80E52A2F80A32EAE7FC080020BB
:10328000054B1A7A012A05D11A680AB91A727047D1
:10329000FFF75CBF704700BFFC0800200C4B1A7A98
:1032A000012A14D05A68D3F81014B2F5007F04BF75
:1032B00000225A605A688A4202D100221A7270476C
:1032C0008CBFC2F500728A1A1A60FFF73FBF7047C1
:1032D000FC080020074BD3F81024511CB1F5007FE7
:1032E0001A44507208BF0022C3F8101408BFC3F874
:1032F00010247047FC08002038B504464518AC423D
:1033000000D138BD14F8010BFFF7E4FFF7E7000028
:10331000054BB3F80A02B3F80C3280B29BB2C01A64
:1033200018BF0120704700BFFC0800200B4BB3F80A
:103330000A12B3F80C2289B292B29142F7D0B3F8D4
:103340000C220132C2F30802A3F80C22B3F80C22BB
:1033500092B2134493F80E02704700BFFC0800209D
:103360000022034BA3F80C22A3F80A22704700BFE7
:10337000FC0800200022054BA3F80C22C3E9002220
:10338000A3F80A22C3F81024704700BFFC080020ED
:1033900008B5264B984209D10121042000F096FB84
:1033A00000210420BDE8084000F090BB204B98426B
:1033B00006D10121082000F089FB00210820F1E757
:1033C0001C4B984206D10121102000F07FFB002108
:1033D0001020E7E7184B984206D10121202000F089
:1033E00075FB00212020DDE7144B984206D1012116
:1033F000402000F06BFB00214020D3E7104B9842A7
:1034000006D10121802000F061FB00218020C9E766
:103410000C4B984208D101214FF4807000F056FB0C
:1034200000214FF48070BDE708BD00BF00080140D7
:10343000000C014000100140001401400018014040
:10344000001C0140002001402DE9F041CB780F889D
:10345000DA0648BF8A7803F00F0548BF15430A789B
:10346000D2B100214FF0010C4FF00F0E02680CFAA0
:1034700001F636EA07040BD18C000EFA04F822EAB2
:10348000080205FA04F4282B42EA040225D1466119
:1034900001310829EBD10260FF2F1CD900214FF028
:1034A000010C4FF00F0E426801F108040CFA04F40D
:1034B00034EA07060BD18E000EFA06F822EA08025B
:1034C00005FA06F6282B42EA06020AD144610131C8
:1034D0000829E9D14260BDE8F081482B08BF0661A8
:1034E000D6E7482B08BF0461F1E7806880B27047D7
:1034F00001617047416170470AB1016170474161E4
:10350000704700000028164A30B500F44015B4BFDB
:10351000D3695368B5F5401F84B210D1556823F0C4
:10352000706325F07065556019B1420D1201944029
:1035300023430B4A0028B4BFD361536030BDC2029D
:103540004DBF0322420D1201C0F303454CBFAA40F8
:1035500004FA02F223EA020343F07063E4E700BFD7
:1035600000000140034B9B7A13B10522024B1A6005
:10357000704700BF200D0020180D00200422014BD1
:103580001A607047180D0020034B1A78202A04BFD8
:1035900000221A70704700BF100D00207047000015
:1035A000212810B508D1104B1B681B7803F07F034E
:1035B000212B16D0022013E02028FBD10A4B1B68D8
:1035C0001B7803F07F03212B084B1870F2D1084BB6
:1035D0000024054A20461268936154829847204689
:1035E00010BD044BF4E700BF1C0D0020100D00209F
:1035F000253600080D3600080346084621B9022B7F
:1036000034BF0846022070470220704720B90822C4
:10361000024B1B681A827047014870471C0D00203E
:1036200080000020FFF7F2BF10B50024FFF7F4FD83
:10363000044B1B689C7200F0A7F800F005FC024BDD
:103640001C6010BD1C0D0020180D002010B50024BA
:10365000324B334A1B68D2795C815A722046FFF79D
:103660002DFC4FF400712046FFF732FC102120465C
:10367000FFF73CFC40212046FFF7DAFC8021204682
:10368000FFF7C4FC2046FFF799FC264B204693F831
:103690003410FFF70FFD2046FFF76DFC2146012097
:1036A000FFF716FCC0210120FFF7B0FC202101200C
:1036B000FFF71CFC21460120FFF731FC4FF4C061ED
:1036C0000220FFF705FC4FF480710220FFF79EFCFB
:1036D00021460220FFF723FC20210220FFF706FCF1
:1036E00021460320FFF7F4FB4FF488710320FFF716
:1036F0009FFC40210320FFF7DDFC4FF440510320E5
:10370000FFF70DFC21460320FFF7F0FB2046FDF7F5
:1037100077FA0122044B1A6010BD00BF1C0D002077
:10372000DC54020880000020180D00200149FDF73C
:103730006DB800BFB80000200149FDF767B800BFB1
:10374000C0000020054B1B68DB78042B04D804491B
:1037500001EBC301FDF75AB8002070471C0D002093
:10376000C8000020074B1B681B7803F07F03212B48
:1037700006D100F0DF00022814BF022000207047AD
:10378000022070471C0D002008B50120FFF73AFD0C
:103790000122074B0020C3F8402C4FF4E0520549AA
:1037A000C3F8400CC3F8440C0A80C3F8402C08BD91
:1037B00000500040440D0020B0F1604041F1000194
:1037C00011F0004120F0404005D5013840F0404064
:1037D000013061EB0101002904DB10F1604041F18F
:1037E000FF31704710F1005041F100017047002B8C
:1037F000F0B507DA524263EB4303002805DA404292
:10380000002503E00028FBDA40420125A2FB004628
:10381000C717A3FB000103FB071102FB0766890022
:10382000A20F41EA907142EA86028000101841EB33
:10383000967115B1404261EB4101F0BD002BF0B52E
:1038400007DA524263EB4303002805DA40420026C0
:1038500003E00028FBDA40420126A2FB0051C41716
:1038600002FB041703FB04F12A0CDD1700FB051112
:10387000A3FB00031944090441EA104142EA07424C
:103880000004101841EB174116B1404261EB4101B1
:10389000F0BD002BF0B507DA524263EB430300287A
:1038A00005DA4042002603E00028FBDA4042012608
:1038B000A2FB0051C41702FB041703FB04F12A0EFC
:1038C000DD1700FB0511A3FB00031944090241EABF
:1038D000106142EA07220002101841EB176116B18D
:1038E000404261EB4101F0BD4FF4B472800A40EAFE
:1038F0008150A0FB0203891202FB01316423800A7C
:1039000040EA8150A0FB030340F38F20704708B5C5
:10391000FFF752FF4FF4B472800A40EA8150A0FBD7
:103920000203891202FB01316423800A40EA8150BC
:10393000A0FB030340F38F2008BD4FF4B472800A4C
:1039400040EA81508B12A0FB020102FB03114FF4ED
:103950007A72800A40EA8150A0FB0203891202FBBE
:103960000131800A40EA815070470000054B06494A
:103970001A1D1A6002221A73044A59621A621368E5
:10398000184700BF1C0D0020E80000208800002020
:103990000D4B1A6842F001021A6059680B4A0A403E
:1039A0005A601A6822F0847222F480321A601A680F
:1039B00022F480221A605A6822F4FE025A604FF400
:1039C0001F029A60704700BF001002400000FFF81D
:1039D000034A536823F0030303435360704700BF57
:1039E00000100240014BC3F8D8007047000042426B
:1039F000034A536823F4404303435360704700BFB6
:103A0000001002401B4A10B5536803F00C03082B4A
:103A10001FD0194B036053681849C3F30313CC5CE0
:103A20000368E34043605468C4F302240C5D23FA46
:103A300004F484605468C4F3C2240C5DE340C360A2
:103A40005268C2F3813211440A7CB3FBF2F3036182
:103A500010BD53685168C3F38343CC0303F10203E1
:103A600002D407494B43D5E751688903F9D4024989
:103A7000F8E700BF0010024000127A000E0100209B
:103A800000093D00044B5A6911B110435861704759
:103A900022EA0000FAE700BF00100240044B9A69D6
:103AA00011B110439861704722EA0000FAE700BFA5
:103AB00000100240044BDA6911B11043D86170471D
:103AC00022EA0000FAE700BF00100240044BDA6867
:103AD00011B11043D860704722EA0000FAE700BF36
:103AE00000100240044B1A6911B11043186170476D
:103AF00022EA0000FAE700BF001002404209012A52
:103B0000074B07D11B6800F01F0023FA00F000F0FC
:103B100001007047022A0CBF1B6A5B6AF3E700BF13
:103B200000100240024A536A43F0807353627047A8
:103B30000010024043680A7923F4702323F4807351
:103B400043EA02230A6810B5134343608468D1E94D
:103B500002231343084A224013434A7943EA4203AB
:103B600083600A7CC36A013A23F47003D2B243EA49
:103B70000253C36210BD00BFFDF7F1FF836819B1A6
:103B800043F001038360704723F00103FAE7836881
:103B900019B143F480738360704723F48073FAE7AC
:103BA000836843F00803836070478068C0F3C000F7
:103BB0007047836843F00403836070478068C0F3F4
:103BC00080007047836819B143F4A0038360704795
:103BD00023F4A003FAE7092970B51BD90726A1F140
:103BE0000A04C56804EB4404A64025EA060503FA66
:103BF00004F42C43C460062A18D8531E1F22446BB9
:103C000003EB83039A4024EA020401FA03F22243FD
:103C1000426370BD0724056901EB4106B44025EA03
:103C2000040503FA06F42C430461E4E70C2A0CD8DB
:103C30001F24073A036B02EB8202944023EA040339
:103C400001FA02F21A430263E3E71F240D3AC36A42
:103C500002EB8202944023EA040301FA02F21A43BF
:103C6000C262D6E7C06C80B27047000008B5214B35
:103C700098420BD101214FF48040FFF727FFBDE8A8
:103C8000084000214FF48040FFF720BF1A4B9842B4
:103C90000BD101214FF40030FFF724FF00214FF436
:103CA0000030BDE80840FFF71DBF144B984208D113
:103CB00001214FF48020FFF715FF00214FF48020F1
:103CC000EFE70F4B984208D101214FF40020FFF796
:103CD00009FF00214FF40020E3E70A4B984208D186
:103CE00001214FF48010FFF7FDFE00214FF48010FA
:103CF000D7E708BD003801400044004000480040BC
:103D0000004C00400050004030B50D460446038A88
:103D10008A899BB2C98823F440530B430382838969
:103D2000A98823F4B05323F00C031B041B0C0B4392
:103D3000298987B00B4369890B439BB28381838AAE
:103D40009BB223F440731343838201A8FFF75AFE0A
:103D5000DDE9033214498C4208BF13461922A189B8
:103D600053432A680D044CBF520092006421B3FBF8
:103D7000F2F3B3FBF1F001FB10330201A089000460
:103D80004BBFDB001B01323332334BBFB3FBF1F3CC
:103D9000B3FBF1F303F0070303F00F0313439BB2EC
:103DA000238107B030BD00BF003801400B8810B53B
:103DB0004C88028A23438C88C98892B223430B43E0
:103DC00022F4706213439BB2038210BD0023038070
:103DD00043808380C3807047838921B19BB243F4C1
:103DE00000538381704723F400531B041B0CF8E736
:103DF000012310B5C1F342149C4201F01F0103FAE4
:103E000001F105D10C3003683AB11943016010BDCE
:103E1000022C0CBF10301430F5E723EA0101F5E75E
:103E2000838A9BB212B119438182704723EA010150
:103E3000FAE7C94389B2018070470123090A8B4020
:103E4000DB439BB2038070474FF406420020044BD3
:103E50000449C3F8440C0A80C3F8402C704700BFE3
:103E600000500040440D002070B500F07F0528464A
:103E70000E46FFF741F904462846FFF7FBF82246B5
:103E8000014630461FF033FA204670BD0023C0E9DA
:103E90000233C0E9003370474FF0804303600023D2
:103EA000C0E90233436070470B6803604B685B42B4
:103EB00043608B685B428360CB685B42C360704742
:103EC00094462DE9F043D2F80CE09668D2F80490BD
:103ED0000D6812684F6885FB0252AD0F45EA8205F6
:103EE00087FB09238C68920F42EA8302AD1A84FB98
:103EF0000623D1F80C80920F42EA8302AD1A88FBA8
:103F00000E329B0F43EA8203ED1A0560DCF80030A5
:103F10000D6883FB0772BF0F47EA820785FB099292
:103F20004FEA997949EA82094F448EFB04924FEA9D
:103F3000997949EA82094F4488FB06924FEA9979B8
:103F400049EA8209A7EB090783FB0449A40F44EA65
:103F5000890485FB06694760DCF80470B60F46EA01
:103F60008906344487FB08694A68B60F46EA890621
:103F7000344482FB0E69B60F46EA8906A41B8460AE
:103F8000DCF8084083FB083885FB0E5E82FB0424C6
:103F90009B0FAD0F43EA880345EA8E05920F42EA74
:103FA00084022B4413448A6887FB0272BF0F47EADE
:103FB0008207DB1BC360BDE8F0832DE9F043944624
:103FC000D2F80C80946857680D681268D1F8049094
:103FD00085FB0252AD0F45EA820589FB07238E68F7
:103FE000920F42EA8302154486FB0423D1F80CE0C9
:103FF000920F42EA830215448EFB08329B0F43EA7C
:1040000082031D4405600B68DCF8005083FB0772D7
:10401000BF0F47EA820785FB09924FEA997949EA7F
:104020008209A7EB090788FB06924FEA997949EACA
:104030008209A7EB09078EFB04924FEA997949EAB6
:1040400082094F4483FB0449A40F44EA890485FB99
:1040500006694760DCF80470B60F46EA8906A41BBF
:1040600087FB0E694A68B60F46EA8906A41B82FBE5
:104070000869B60F46EA890634448460DCF80840D3
:1040800083FB083885FB0E5E82FB04249B0FAD0F7B
:1040900043EA880345EA8E05920F42EA84025B1BDD
:1040A0009B1A8A6887FB0272BF0F47EA82073B446C
:1040B000C360BDE8F08394462DE9F043D2F80CE0EC
:1040C0009668D2F804900D6812684F6885FB02521A
:1040D000AD0F45EA820587FB09238C68920F42EAFF
:1040E0008302154484FB0623D1F80C80920F42EA28
:1040F0008302154488FB0E329B0F43EA82031D4462
:104100000560DCF800300D6883FB0772BF0F47EADB
:10411000820785FB09924FEA997949EA8209A7EB60
:1041200009078EFB04924FEA997949EA8209A7EBC5
:10413000090788FB06924FEA997949EA82094F44B8
:1041400083FB0449A40F44EA890485FB06694760A0
:10415000DCF80470B60F46EA8906A41B87FB0869E1
:104160004A68B60F46EA8906A41B82FB0E69B60FA1
:1041700046EA890634448460DCF8084083FB08384A
:1041800085FB0E5E82FB04249B0FAD0F43EA880380
:1041900045EA8E05920F42EA84025B1B9B1A8A68ED
:1041A00087FB0272BF0F47EA82073B44C360BDE84A
:1041B000F0832DE9F74FD1E9007487FB04834FEAC0
:1041C000987848EA83088B68944683FB07E2C968BD
:1041D0004FEA9E7E4EEA820E81FB0772BF0F47EACE
:1041E000820783FB0452AD0F45EA820581FB04265A
:1041F000920F42EA86025200009283FB0326920F3E
:1042000042EA86025200019281FB03329B0F43EA8D
:10421000820381FB0112019E890F41EA8201C6F1EE
:10422000804ADCF80060AAEB410A8AFB066ADCE9F6
:1042300001926D00B60F46EA8A0605EB470A8AFB33
:1042400009AB4FEA9A7A4AEA8B0A5644DDF800A095
:104250005B00AAEB4E0A8AFB02AB4FEA9A7A4AEA63
:104260008B0A564484FB044A0660A60F46EA8A0677
:104270007600C6F18046A6EB410181FB0919DCF806
:104280000040A5EB470787FB047503EB480B4FEA9B
:10429000917A8BFB02B1BF0F4AEA890A47EA850788
:1042A0004FEA9B7B4BEA810B57445F444760A3EB8B
:1042B0004808DCF8043088FB03834FEA987141EA30
:1042C0008301009B03EB4E0E8EFB04E44FEA9E73CA
:1042D00043EA84031944019BF61A86FB0262B40F79
:1042E00044EA82042144816003B0BDE8F08F0B688A
:1042F0002DE9F04183FB0362B60F0546D1E9024088
:1043000046EA82064A6884FB00814FEA987848EAC8
:10431000810882FB0317890F41EA8701884484FBE7
:104320000271BF0F47EA810780FB031C890F41EA36
:104330008C017F1A80FB001C82FB0002800F40EA88
:10434000820084FB0332890F41EA8C019B0F43EA10
:104350008203314401F16041C01AFBF71BFF431097
:104360005B424FEAE07060EB4000C5E900304FEA85
:104370004800FBF763FF4310C017C5E9023084FB18
:104380000443A10F41EA83013144384601F1604101
:10439000FBF700FF43105B424FEAE07060EB400028
:1043A000C5E90430BDE8F0818A6870B5044682FB37
:1043B00002050B68800F40EA850083FB0356AD0FB2
:1043C00045EA860528444D68C96882FB052583FBBC
:1043D0000131920F9B0F43EA810342EA850200F10B
:1043E0006041D01AFBF7D6FE421052424FEAE0730A
:1043F00063EB4303C4E9002370BD2DE9F043894614
:1044000087B00546D1E90030DB09694601AA43EAD5
:104410004060FCF703F8D9E90230DB0943EA406069
:1044200003AA02A9FBF7FAFF019C039F029E84FBEB
:1044300007324FEA937886FB0443A40F44EA8304CF
:10444000009B48EA820883FB077286FB0363BF0F69
:10445000B60F47EA820746EA8306D9E9043053EAF1
:10446000000206D1C5E90084C5E9027607B0BDE8BF
:10447000F083DB0943EA406005AA04A9FBF7CEFFFD
:10448000DDE9043288FB0210890F41EA800186FBD6
:10449000030C800F40EA8C00091A296084FB02108B
:1044A000890F41EA800187FB030C800F40EA8C00F2
:1044B000091A696084FB0341A40F83FB083844EAAE
:1044C000810487FB027186FB0262BF0F9B0FB60F50
:1044D00047EA810743EA880346EA82063C443344BC
:1044E000AC60EB60C2E700F00700C0F10703042BEB
:1044F00010B500F1040428BF0423062C4FF001047A
:1045000098BF002004FA03F303F1FF3388BF033898
:104510000B40834004FA00F001381040184310BDEE
:104520000B4B1A8852BA02805A8852BA42809A8833
:1045300052BA8280DA8852BA0A801A8952BAC28084
:104540005A8952BA02819B895BBA4381704700BF86
:10455000500D00204FF08042044B198C1184598C6F
:10456000A2F820149A8C024B1A847047500D002038
:1045700000080040034A538C43F4885343F010036F
:1045800053847047500D0020044B5A8C42F00102B6
:104590005A841A8C42F488521A847047500D0020B5
:1045A000044B9A8C42F488529A841A8C42F010027E
:1045B0001A847047500D0020044B03EB81039B6C61
:1045C0005843000C00F5407080B27047500D002039
:1045D00000210A4B03EB400222F8E01C22F8DA1C0F
:1045E000021D03EB4202033003EBC00022F8DC1C87
:1045F0000023002240E93823704700BF481E0020F6
:10460000044AD368DB4303F4005343F000531361BF
:10461000704700BF000C0140044B33F9803C002B75
:10462000BEBF4FF48052024B5A617047481E0020B3
:10463000000C01404FF6FF72024B23F8802CFFF76D
:10464000EBBF00BF481E00200022024B23F87C2C49
:10465000704700BF481E00200288514081EA0111C6
:10466000C9B20B0983EA122343EA012383EAC10199
:1046700001807047034BB3F87A0308B9B3F8B0046C
:10468000704700BF481E0020054BB3F87A03B3F80B
:10469000B034184380B2003818BF0120704700BF03
:1046A000481E002001210D4B10B5A3F8FE15FB217B
:1046B000D3F800261170B3F8FE25D3F80016541C69
:1046C000A3F8FE4500248C54B3F8FE25D3F8001659
:1046D000541CA3F8FE45885410BD00BF481E00209E
:1046E0000121034BD3F80026A3F8FE151070704784
:1046F000481E0020002310B5C0F88830C367C0F8FA
:104700008C30C0F88030C0F89030C0F88430C0F8E9
:10471000A030C0F89430C0F8A430C0F89830C0F889
:10472000A830C0F89C30094B044698420CD1C030E8
:104730001EF02DFD04F1E8001EF029FD04F588703F
:10474000BDE810401EF023BD10BD00BF5024002066
:1047500010B5084C04F5C160FFF7CCFF04F5E86024
:104760001EF02EF804F5FE601822BDE8104000216E
:1047700020F080BD481E002010B5084C04F608004B
:10478000FFF7B8FF04F6C8001EF01AF804F6781018
:104790001822BDE81040002120F06CBD481E00200A
:1047A00010B5074C40F225512046FFF746FB204646
:1047B000BDE81040012240F22551FFF719BB00BFB0
:1047C0000048004010B5074C40F225512046FFF745
:1047D00034FB2046BDE81040012240F22551FFF78E
:1047E00007BB00BF004C004010B5074C40F22551FC
:1047F0002046FFF722FB2046BDE81040012240F290
:104800002551FFF7F5BA00BF00380140024AD38AAC
:1048100043F01003D3827047501D00204178027886
:104820004A4B01F0070142EA0122A3F8922982785B
:10483000417802F03F02520142EAD102A3F89429E2
:10484000C2788178920042EA9112017901F0010167
:1048500042EA8122A3F896294279017902F00F02F7
:10486000D20142EA5102A3F898298279417902F0F3
:104870007F02120142EA1112A3F89A29C2798179C2
:10488000520042EAD112017A01F0030142EA4122C8
:10489000A3F89C29427A017A02F01F02920142EAAF
:1048A0009102A3F89E29827A417AD20042EA5112FB
:1048B000017BA3F8A029C27A01F0070142EA012294
:1048C000A3F8A229427B017B02F03F02520142EA97
:1048D000D102A3F8A429417B827B920042EA911283
:1048E000C17B01F0010142EA8122A3F8A629027CE2
:1048F000C17B02F00F02D20142EA5102A3F8A829BB
:10490000427C017C02F07F02120142EA1112A3F8FC
:10491000AA29827C417C520042EAD112C17C01F07A
:10492000030142EA4122A3F8AC29027DC17C02F0D6
:104930001F02920142EA9102A3F8AE29427D017D55
:10494000D20042EA5112A3F8B0297047481E002055
:1049500038B50D4604464FF08C41286820F046F8E3
:1049600020F020FA4FF08C412067686820F03EF874
:1049700020F018FA4FF08C416067A86820F036F8F4
:1049800020F010FAA06738BD0322094BD3F82C1190
:10499000013AC3F8F010D3F8301103F5B47343F8BB
:1049A000741C53F8341C43F8701CEFD1704700BFDF
:1049B0001828002070B503460D4686B001AC00F102
:1049C0001006224618685968083303C2B3421446D9
:1049D000F7D100240C268DF81440083506FB04F3AB
:1049E00001A8E95820F05DFC10B920B206B070BDF6
:1049F0000134E22CF2D14FF0FF30F7E738B50C4D1F
:104A0000044695F8C92405F2D441482A0BD820F071
:104A100009FC95F8C9040021C0F149022044BDE811
:104A2000384020F027BC4922BDE8384020F0FABBCE
:104A3000481E002038B50C4D044695F8C92405F2EF
:104A4000D441842A0BD820F0EDFB95F8C90400214D
:104A5000C0F185022044BDE8384020F00BBC85221F
:104A6000BDE8384020F0DEBB481E002038B50C4DB4
:104A7000044695F8C92405F2D441FD2A0BD820F04C
:104A8000D1FB95F8C9040021C0F1FE022044BDE825
:104A9000384020F0EFBBFE22BDE8384020F0C2BB1A
:104AA000481E002070B5124D044695F8C924202AEE
:104AB0000DD805F2D44120F0B5FB95F8C9040021CA
:104AC000C0F121022044BDE8704020F0D3BB034672
:104AD00005F2D44605F2F445324603CAAA421860EC
:104AE0005960164603F10803F6D112781A7070BDAA
:104AF000481E002038B5134D044695F8C924222AD3
:104B00000DD805F2D44120F08DFB95F8C9040021A1
:104B1000C0F123022044BDE8384020F0ABBB03467F
:104B200005F2D44205F2F445144603CCAC421860B9
:104B30005960224603F10803F6D12188A278198032
:104B40009A7038BD481E002070B5124D044695F885
:104B5000C924292A0DD805F2D44120F063FB95F829
:104B6000C9040021C0F12A022044BDE8704020F0B1
:104B700081BB034605F2D44605F2FC45324603CA22
:104B8000AA4218605960164603F10803F6D112884C
:104B90001A8070BD481E002038B5144D044695F8A3
:104BA000C924162A0DD805F2D44120F03BFB95F814
:104BB000C9040021C0F117022044BDE8384020F0AC
:104BC00059BB034605F2D44205F2E445144603CC32
:104BD000AC4218605960224603F10803F6D1206800
:104BE0001860A188A27999809A7138BD481E00206A
:104BF00070B5124D044695F8C924132A0DD805F254
:104C0000D44120F00FFB95F8C9040021C0F1140233
:104C10002044BDE8704020F02DBB034605F2D44689
:104C200005F2E445324603CAAA42186059601646A6
:104C300003F10803F6D11068186070BD481E00200B
:104C40002DE9F74304460D4600F10A069146721815
:104C500012F8011D19B9013DEDB2012DF8D1FD2267
:104C6000227000226570A270E2709A7A1FFA85F8AD
:104C7000227101329A724FF6FF73671CADF806304D
:104C8000BE4219D14646013E17F8011B0DF1060040
:104C9000B6B2FFF7E1FC002EF5D14946FFF7DCFC88
:104CA000BDF806302C4408F10C00A37280B21B0A38
:104CB000E37203B0BDE8F08317F8011B0DF10600A5
:104CC000FFF7CAFCDCE700002DE9F84300231720BA
:104CD0002E4C2F4ED4F8D01484F8E93584F8EA35F8
:104CE000C1F317011A180132520856F83250C5F3B1
:104CF0001705A94203D2501E9842F3D801E013468B
:104D0000FAD856F83320C2F31702914237D106EB96
:104D1000C305EF78DFF87C90394609F10C004FEAC3
:104D2000C308FFF799FCB4F8BC24B4F8D4359A4210
:104D30002AD194F8C9242D79AA4206D202F124007E
:104D40000021AA1A484420F095FA06EB08035A7984
:104D5000D10741BF9B791B1993F8D43484F8E93506
:104D6000930706D54644F379234493F8D43484F862
:104D7000EA35022384F8EB7584F8EC5500E0032350
:104D800084F8E835BDE8F8830523F9E7481E0020DC
:104D9000DC760208F822002013B5964C0146B4F8E0
:104DA000B634B3F58C7F14D3002384F8B4340023D5
:104DB000A4F8B634CB1CDBB2012B06D8012384F84F
:104DC000C814A4F8B63484F8B434002084F8E80594
:104DD000EFE094F8B4240D2A00F2048101A050F809
:104DE00022F000BFAF4D00081D4E0008694E0008BC
:104DF0008F4E0008A14E0008B54E0008C94E0008AD
:104E0000DD4E0008014F0008254F00084F4F0008F5
:104E10007D4F00088B4F0008C94F00080133A4F8EC
:104E2000B6344FF6FF73744884F8C914A4F8BC3440
:104E30000191FFF711FC94F8C8340199FD2B89B258
:104E400007D10A230C31A4F8B834A4F8BA14022309
:104E5000B9E70023A4F8CA3406230831A4F8B8340B
:104E6000A4F8BA140423AEE701336348A4F8B634B7
:104E700084F8CA14FFF7F0FB94F8CA34DB0742BF8A
:104E8000B4F8BA340D33A4F8BA3403239BE70133E2
:104E9000594884F8CB14A4F8B634FFF7DDFBE1E7FA
:104EA00001335548A4F8B63484F8CC14FFF7D4FB8A
:104EB000052388E701335048A4F8B63484F8CD14AC
:104EC000FFF7CAFB06237EE701334B48A4F8B6344C
:104ED00084F8CE14FFF7C0FB072374E7D4F8D0247E
:104EE000013361F317024448A4F8B634C4F8D0245F
:104EF000FFF7B2FB94F8C834FD2B23D1082362E7F7
:104F0000D4F8D0240133C2F3170000EB012060F382
:104F100017023948A4F8B634C4F8D024FFF79CFB34
:104F2000092350E7D4F8D0240133C2F3170000EB73
:104F3000014060F317023048C4F8D024A4F8B63416
:104F4000FFF78AFB0A2384F8B43401203EE7B4F863
:104F5000B82429489A1A224482F8D4140133A4F8B8
:104F6000B634FFF779FBB4F8B83494F8C914B4F840
:104F7000B6240B449A42E8DB0B23E4E70133A4F8A0
:104F8000B634A4F8D4150C23DDE7B4F8D405013306
:104F900000EB0120A4F8D40594F8CA04A4F8B634B0
:104FA00010F0010007D00D2384F8B434012384F8F5
:104FB000E83502B010BDA4F8B60484F8B404FFF7D5
:104FC00083FE94F8E805F4E7B4F8BA2401339BB201
:104FD0009A42A4F8B634B8D80023A4F8B63484F8BA
:104FE000B434ECE7002084F8B404A4F8B604C4F8A0
:104FF000B804EBE6481E00200423002010B57B20F7
:10500000FEF77CFD78B97C20FEF778FD20B1032403
:10501000FEF788FD204610BD7A20FEF76FFD0028C0
:10502000F5D10424F4E70124F2E70000124D08B59D
:10503000124C6B681248C4F8083EFEF7A9F91148F3
:10504000FEF7A6F91048FEF7A3F91048FEF70EFE8A
:10505000FEF79EFC4FF0E023002018615861986134
:10506000FEF7B6FC0120FDF76AF82868FDF764F842
:10507000D4F8083E9847FEE700F0FF1F481E0020C6
:1050800000080140000C01400010014000380140C0
:10509000028810B58488531C234044889C4217BF63
:1050A00084680020A154038018BF012010BD4388EC
:1050B00002889A4209D08268D35C0B704388828848
:1050C000013313404380012070470020704703469E
:1050D00002884188521A90B2120441BF9B88013362
:1050E000C01880B27047028810B58488531C2340D2
:1050F00044889C4217BF8468002024F81210038063
:1051000018BF012010BD438802889A420AD08268E5
:1051100032F813300B804388828801331340438078
:105120000120704700207047034602884188521AC8
:1051300090B2120441BF9B880133C01880B27047FF
:1051400070B5302542F20F76049C0D70B04210D835
:1051500030211170B0F57A7F13D230221A70632893
:1051600016D830232370092818D8059B30301870C2
:1051700070BD0D78A0F51C50013510380D7080B24F
:10518000E4E71178A0F57A700131117080B2E1E79F
:105190001A78643801321A7080B2E0E723780A384E
:1051A0000133237080B2DEE72DE9F0474FF030087D
:1051B000DDE908ECDDE90A76DDE90C54DFF8E8907A
:1051C000DFF8E8A081F80080484530D83021DFF8CA
:1051D000E080DFF8E0901170404530D83022364949
:1051E0001A70884230D23023344A8EF80030904210
:1051F0002FD83023324A8CF80030904233D83023F5
:1052000042F20F723B70904236D830233370B0F5C3
:105210007A7F38D230232B7063283AD8302323701A
:1052200009283BD80E9B30301870BDE8F08791F804
:105230000080504408F1010881F80080C4E711782B
:10524000484401311170C7E71A78401A01321A70C8
:10525000C7E79EF80030A0F5742001338EF80030C7
:10526000A0F51070C3E79CF80030A0F5C3300133FF
:105270008CF80030A038C0E73B78A0F51C50013313
:105280003B701038BFE73378A0F57A700133337084
:10529000BDE72B78643801332B70BDE723780A38DB
:1052A00001332370BCE700BFFFC99A3B003665C4D9
:1052B000FFE0F505001F0AFA809698003F420F00B4
:1052C0009F86010013B50028B4BF2D2220220B4673
:1052D000B8BF404203F8032B01F10502B8BF00B28A
:1052E00001920A1D0C46009280B28A1C0131FFF720
:1052F00027FF0023A37102B010BD0028B4BF2D22E8
:1053000020220B4610B503F8032B88B001F10A02E6
:10531000069201F10902059201F10802049201F1DD
:105320000702039201F10602029201F105020192C5
:1053300001F104020C460092B8BF40428A1C0131C0
:10534000FFF732FF0023E37208B010BD0A2230B528
:1053500001231446824207D90A245A1E12B21504A8
:1053600006D50022CA5430BD013362439BB2F1E737
:10537000B0FBF4F504FB1500303088542846013AA0
:10538000EDE70000104B984203D101210420FEF705
:1053900085BB0E4B984206D003F58063984205D139
:1053A00001211020F3E701210820F0E7084B984283
:1053B00002D101212020EAE7064B984200D0704735
:1053C00001214020E3E700BF00080140000C01403C
:1053D0000014014000180140F7B5154600220446AC
:1053E0000E46ADF80620ADF804100B2D07D8DFE807
:1053F00005F00A0A07101212121414141618FEE708
:1054000028228DF80720032B0DD8DFE803F00D25A7
:10541000270D4822F5E71022F3E71422F1E71822BE
:10542000EFE71C22EDE7FEE70323284F8DF8063057
:10543000BC4215D101210420FEF730FBBC421DD136
:10544000B6F5004F26D101210846FEF727FB0121C2
:105450001F48FEF757F81DE00223E6E70123E4E7C3
:105460001C4B9C4206D003F580639C420BD101216A
:10547000102001E001210820FEF710FB154B9C4293
:1054800008D1082EDEE7144B9C420BD101212020CD
:10549000FEF704FB053D042D0FD8DFE805F00914E5
:1054A0000E0914000D4B9C42C8D101214020EFE7AA
:1054B000002231462046FEF71FF8204601A9FDF7DD
:1054C000C3FF03B0F0BD0122F3E700BF00080140B5
:1054D00000023000000C014000140140001801409F
:1054E0007FB50023CDE90133ADF80C30254B0446E0
:1054F00098420E4615460DD101214FF40060FEF78B
:10550000CDFA214B9C420FD101214FF40050FEF700
:10551000C5FA09E0B0F1804F0AD01C4B98420CD17B
:1055200001210220FEF7C6FA9DB1012D27D0FEE72A
:1055300001210846FEF7BEFAE3E7154B984202D177
:1055400001210420EEE7134B9842DAD10121082013
:10555000E8E7114B114A1B68B3FBF2F3013B9BB226
:105560000022204601A9ADF80A20ADF80620ADF8CA
:105570000860ADF80430FCF751F904B070BD0323A6
:10558000EEE700BF002C0140003401400004004061
:1055900000080040000C00405000002040420F0076
:1055A00010B50446FFF79CFF2046BDE810400121DE
:1055B000FCF774BA00224FF6FF71FFF7F1BF00004D
:1055C0000C4BD3F8FC2022F08072C3F8FC20D3F8F7
:1055D000FC2042F08072C3F8FC20A3F55D431A68FA
:1055E00022F001021A601A6842F001021A600022D9
:1055F0005A60704700ED00E0064B074A1B680749F8
:10560000B3FBF2F3434310B54C684A68121B9A424D
:10561000FBD310BD5000002040420F00001000E0FE
:1056200070B504460E461546FCF708FE2046FCF70A
:1056300037FE032363704FF4007309496380094AFE
:10564000E369C4E90165C3E900124FF080629A6022
:105650004FF4804220469A81FCF77EFD80B270BDF7
:1056600000350C000000FFBF0A4908B5B1F82C3E18
:1056700001F6346201339BB2A1F82C3ED1F8303EE2
:1056800005480133C1F8303E01F64461FFF7C8FF19
:10569000002008BD481E00202800002009490A48B3
:1056A000B1F82C3E01F6346201339BB2A1F82C3ED6
:1056B000D1F8303E01F64461013341F8143CFFF764
:1056C000AFBF00BF481E0020280000200349044847
:1056D00001F6346201F64461FFF7A2BF481E0020C4
:1056E00028000020034AD2F8303E0133C2F8303E91
:1056F000704700BF481E002073B5044600285BD1E8
:1057000001210820FEF7CAF94023ADF8043041F228
:1057100003435A4801A9ADF80630FDF795FE04236E
:105720008DF807308023554801A9ADF80430FDF706
:105730008BFE524D012240212846FDF7DDFE0A2056
:10574000FFF75AFF002240212846FDF7D5FE0A2028
:10575000FFF752FF092C2AD92846FDF7C6FE02069C
:1057600025D5012240214548FDF7C6FE0A20FFF756
:1057700043FF8024142301A940488DF80730ADF879
:105780000440FDF761FE0A20FFF736FF21460022A4
:105790003A48FDF7B1FE0A20FFF72EFF214601220D
:1057A0003648FDF7A9FE0124204602B070BD013441
:1057B000142CBFD10024F7E70128FBD101460820B3
:1057C000FEF76CF94FF48063ADF8043041F2034307
:1057D0002A4801A9ADF80630FDF736FE04238DF8FE
:1057E00007304FF40063254801A9ADF804300025C7
:1057F000FDF72AFE214E01224FF480613046FDF76D
:105800007BFE0A20FFF7F8FE00224FF4806130464D
:10581000FDF772FE0A20FFF7EFFE092D29D9304669
:10582000FDF763FE030524D501224FF48061134880
:10583000FDF762FE0A20FFF7DFFE4FF40065142338
:1058400001A90E488DF80730ADF80450FDF7FCFDB6
:105850000A20FFF7D1FE294600220848FDF74CFE3A
:105860000A20FFF7C9FE012229460448FDF744FE3D
:105870009AE70135142DBED19CE700BF000C014012
:1058800038B50446064D2B7B012B01D1002038BDD5
:105890000120FFF7B1FE002CF9D0013CF3E700BF77
:1058A0002800002010B5104C4000C4F83C0E0F48F2
:1058B000C4F8342EC4F8383EC4F8401EFCF754FF38
:1058C00030B10120D4F8303E0133C4F8303E10BD71
:1058D000BDF80830012BFAD142F21070FFF7D0FF6B
:1058E000003818BF0120F2E7481E002028000020E1
:1058F00010B5104C4000C4F84C0E0F48C4F8442EAC
:10590000C4F8483EC4F8501EFCF7DCFE30B101205C
:10591000D4F8303E0133C4F8303E10BDBDF8083035
:10592000012BFAD142F21070FFF7AAFF003818BF1E
:105930000120F2E7481E00202800002007B513468A
:10594000002200920A460146034890F8540EFFF7E1
:10595000A9FF03B05DF804FB481E002007B51346FD
:10596000012200920A460146034890F8540EFFF7C0
:1059700099FF03B05DF804FB481E002007B51346ED
:10598000012200920A460146034890F8540EFFF7A0
:10599000AFFF03B05DF804FB481E002008B50122EC
:1059A000FFF7DCFF30B10120034AD2F8303E01336B
:1059B000C2F8303E08BD00BF481E002007B50122D6
:1059C0008DF807100DF10701FFF7D8FF30B1012066
:1059D000044AD2F8303E0133C2F8303E03B05DF8DD
:1059E00004FB00BF481E00200122054BA3F8562EE1
:1059F000D3F8582E0132C3F8582EFCF7EFBD00BF84
:105A0000481E002000220D4B0D49A3F8562EC3F866
:105A1000582E0C4BF0201B68B3FBF1F340F2DC5125
:105A20004B434FF0E021013B4B61074B83F82300D0
:105A300007208A61086183F823207047481E0020F0
:105A400040420F005000002000ED00E0284B10B550
:105A50001A8890B2920628D59988264B10F0080F24
:105A600018BFD3F85C2E89B21CBF0132C3F85C2E7C
:105A7000440742BFD3F8602E0132C3F8602E82077C
:105A800042BFD3F8642E0132C3F8642EB3F8682EF7
:105A9000B3F86A4E0132D2B2A4B294421FBFC9B267
:105AA0009C1884F86C1EA3F8682E030617D5114BBA
:105AB000B3F86C1FB3F86E2F89B292B291420FD037
:105AC000B3F86E2F0132C2F30802A3F86E2FB3F8B9
:105AD0006E2F92B2134493F8703F054A938010BD25
