:020000040800F2
:1000000000C000205D000208450002084700020809
:10001000490002084B0002084D00020800000000E1
:100020000000000000000000000000004F00020877
:1000300051000208000000005300020855000208A9
:10004000A5000208A5000208A5000208A5000208F4
:10005000A5000208A5000208A5000208A5000208E4
:10006000A5000208A5000208A5000208A5000208D4
:10007000A5000208A5000208A5000208A5000208C4
:10008000A5000208A5000208A5000208A5000208B4
:10009000A5000208A5000208A5000208A5000208A4
:1000A000A5000208A5000208A5000208A500020894
:1000B000A1460008A5000208A5000208A500020844
:1000C000A5000208A5000208A5000208A500020874
:1000D000A5000208914A00082D4F0008696D00082C
:1000E000A5000208A5000208A5000208A500020854
:1000F000A5000208A50002086D5D0008A500020821
:10010000A5000208A5000208A5000208A500020833
:1001100049470008E94C0008A5000208A5000208AC
:10012000A5000208A5000208A5000208A500020813
:1001300000000000000000000000000000000000BF
:1001400000000000000000000000000000000000AF
:10015000000000000000000000000000000000009F
:10016000000000000000000000000000000000008F
:10017000000000000000000000000000000000007F
:10018000000000000000000000000000000000006F
:10019000000000000000000000000000000000005F
:1001A000000000000000000000000000000000004F
:1001B000000000000000000000000000000000003F
:1001C000000000000000000000000000000000002F
:1001D000000000000000000000000000000000001F
:0401E0005FF8E0F1F3
:1001E80010B5054C237833B9044B13B10448AFF369
:1001F80000800123237010BD2802002000000000A9
:10020800C824020808B5034B1BB103490348AFF3E0
:10021800008008BD000000002C020020C82402084D
:1002280010F8012B11F8013B012A28BF9A42F7D098
:10023800D01A7047034613F8012B002AFBD1181A6D
:100248000138704781F0004102E000BF83F00043AD
:1002580030B54FEA41044FEA430594EA050F08BF59
:1002680090EA020F1FBF54EA000C55EA020C7FEA1D
:10027800645C7FEA655C00F0E2804FEA5454D4EB9A
:100288005555B8BF6D420CDD2C4480EA020281EA64
:10029800030382EA000083EA010180EA020281EA9C
:1002A8000303362D88BF30BD11F0004F4FEA0131EE
:1002B8004FF4801C4CEA113102D0404261EB4101FD
:1002C80013F0004F4FEA03334CEA133302D0524283
:1002D80063EB430394EA050F00F0A780A4F101043F
:1002E800D5F1200E0DDB02FA0EFC22FA05F2801879
:1002F80041F1000103FA0EF2801843FA05F359415F
:100308000EE0A5F120050EF1200E012A03FA0EFCDD
:1003180028BF4CF0020C43FA05F3C01851EBE37107
:1003280001F0004507D54FF0000EDCF1000C7EEB24
:1003380000006EEB0101B1F5801F1BD3B1F5001F62
:100348000CD349085FEA30004FEA3C0C04F1010481
:100358004FEA445212F5800F80F09A80BCF1004FAA
:1003680008BF5FEA500C50F1000041EB045141EA2C
:10037800050130BD5FEA4C0C404141EB0101013CF5
:1003880028BFB1F5801FE9D291F0000F04BF0146E4
:100398000020B1FA81F308BF2033A3F10B03B3F1B6
:1003A80020020CDA0C3208DD02F1140CC2F10C0246
:1003B80001FA0CF021FA02F10CE002F11402D8BFA4
:1003C800C2F1200C01FA02F120FA0CFCDCBF41EA70
:1003D8000C019040E41AA2BF01EB0451294330BD3F
:1003E8006FEA04041F3C1CDA0C340EDC04F114041C
:1003F800C4F1200220FA04F001FA02F340EA0300F3
:1004080021FA04F345EA030130BDC4F10C04C4F138
:10041800200220FA02F001FA04F340EA0300294618
:1004280030BD21FA04F0294630BD94F0000F83F462
:10043800801306BF81F480110134013D4EE77FEA45
:10044800645C18BF7FEA655C29D094EA050F08BF91
:1004580090EA020F05D054EA000C04BF1946104672
:1004680030BD91EA030F1EBF0021002030BD5FEAB6
:10047800545C05D14000494128BF41F0004130BDDE
:1004880014F580043CBF01F5801130BD01F0004532
:1004980045F0FE4141F470014FF0000030BD7FEAA5
:1004A800645C1ABF194610467FEA655C1CBF0B46A0
:1004B800024650EA013406BF52EA033591EA030FB7
:1004C80041F4002130BD00BF90F0000F04BF0021AF
:1004D800704730B54FF4806404F132044FF00005E2
:1004E8004FF0000150E700BF90F0000F04BF00215B
:1004F800704730B54FF4806404F1320410F00045C1
:1005080048BF40424FF000013EE700BF42004FEABB
:10051800E2014FEA31014FEA02701FBF12F07F4338
:1005280093F07F4F81F06051704732F07F4208BFEF
:10053800704793F07F4F04BF41F40021704730B5F6
:100548004FF4607401F0004521F000411CE700BF42
:1005580050EA010208BF704730B54FF000050AE0C5
:1005680050EA010208BF704730B511F0004502D5C6
:10057800404261EB41014FF4806404F132045FEAC8
:10058800915C3FF4D8AE4FF003025FEADC0C18BF71
:1005980003325FEADC0C18BF033202EBDC02C2F163
:1005A800200300FA03FC20FA02F001FA03FE40EAF5
:1005B8000E0021FA02F11444BDE600BF70B54FF0F9
:1005C800FF0C4CF4E06C1CEA11541DBF1CEA1355D7
:1005D80094EA0C0F95EA0C0F00F0DEF82C4481EA3F
:1005E800030621EA4C5123EA4C5350EA013518BF5F
:1005F80052EA033541F4801143F4801338D0A0FB4C
:1006080002CE4FF00005E1FB02E506F00042E0FBF8
:1006180003E54FF00006E1FB03569CF0000F18BFFE
:100628004EF0010EA4F1FF04B6F5007F64F54074A6
:1006380004D25FEA4E0E6D4146EB060642EAC62139
:1006480041EA55514FEAC52040EA5E504FEACE2EA6
:10065800B4F1FD0C88BFBCF5E06F1ED8BEF1004FA9
:1006680008BF5FEA500E50F1000041EB045170BD25
:1006780006F0004646EA010140EA020081EA030169
:10068800B4EB5C04C2BFD4EB0C0541EA045170BD65
:1006980041F480114FF0000E013C00F3AB8014F1DF
:1006A800360FDEBF002001F0004170BDC4F1000428
:1006B800203C35DA0C341BDC04F11404C4F12005A9
:1006C80000FA05F320FA04F001FA05F240EA020004
:1006D80001F0004221F0004110EBD37021FA04F63A
:1006E80042EB06015EEA430E08BF20EAD37070BDF4
:1006F800C4F10C04C4F1200500FA04F320FA05F053
:1007080001FA04F240EA020001F0004110EBD37054
:1007180041F100015EEA430E08BF20EAD37070BDC4
:10072800C4F1200500FA05F24EEA020E20FA04F39D
:1007380001FA05F243EA020321FA04F001F000414C
:1007480021FA04F220EA020000EBD3705EEA430EBD
:1007580008BF20EAD37070BD94F0000F0FD101F0EC
:100768000046400041EB010111F4801F08BF013C25
:10077800F7D041EA060195F0000F18BF704703F063
:100788000046520043EB030313F4801F08BF013DEA
:10079800F7D043EA0603704794EA0C0F0CEA1355A6
:1007A80018BF95EA0C0F0CD050EA410618BF52EA60
:1007B8004306D1D181EA030101F000414FF0000066
:1007C80070BD50EA410606BF1046194652EA430674
:1007D80019D094EA0C0F02D150EA013613D195EAE8
:1007E8000C0F05D152EA03361CBF104619460AD130
:1007F80081EA030101F0004141F0FE4141F470013A
:100808004FF0000070BD41F0FE4141F4780170BD29
:1008180070B54FF0FF0C4CF4E06C1CEA11541DBF8E
:100828001CEA135594EA0C0F95EA0C0F00F0A7F890
:10083800A4EB050481EA030E52EA03354FEA0131BD
:1008480000F088804FEA03334FF0805545EA1313D0
:1008580043EA12634FEA022245EA111545EA106598
:100868004FEA00260EF000419D4208BF964244F12F
:10087800FD0404F5407402D25B084FEA3202B61A4E
:1008880065EB03055B084FEA32024FF480104FF422
:10089800002CB6EB020E75EB030E22BFB61A754696
:1008A80040EA0C005B084FEA3202B6EB020E75EB29
:1008B800030E22BFB61A754640EA5C005B084FEA91
:1008C8003202B6EB020E75EB030E22BFB61A75465E
:1008D80040EA9C005B084FEA3202B6EB020E75EB69
:1008E800030E22BFB61A754640EADC0055EA060E2A
:1008F80018D04FEA051545EA16754FEA06164FEA6D
:10090800C30343EA52734FEAC2025FEA1C1CC0D118
:1009180011F4801F0BD141EA00014FF000004FF0A5
:10092800004CB6E711F4801F04BF01430020B4F166
:10093800FD0C88BFBCF5E06F3FF6AFAEB5EB030C1E
:1009480004BFB6EB020C5FEA500C50F1000041EB1B
:10095800045170BD0EF0004E4EEA113114EB5C04E8
:10096800C2BFD4EB0C0541EA045170BD41F48011BB
:100978004FF0000E013C90E645EA060E8DE60CEAC3
:10098800135594EA0C0F08BF95EA0C0F3FF43BAFE0
:1009980094EA0C0F0AD150EA01347FF434AF95EA97
:1009A8000C0F7FF425AF104619462CE795EA0C0F7B
:1009B80006D152EA03353FF4FDAE1046194622E748
:1009C80050EA410618BF52EA43067FF4C5AE50EA22
:1009D80041047FF40DAF52EA43057FF4EBAE12E712
:1009E8004A0011D212F5001211D20DD56FF47873A6
:1009F800B3EB62520ED44FEAC12343F0004343EAFB
:100A0800505323FA02F070474FF00000704750EA45
:100A1800013002D14FF0FF3070474FF000007047AF
:100A280080F0004002E000BF81F0004142001FBF9B
:100A38005FEA410392EA030F7FEA226C7FEA236CA4
:100A48006AD04FEA1262D2EB1363C1BFD218414099
:100A580048404140B8BF5B42192B88BF704710F02F
:100A6800004F40F4000020F07F4018BF404211F0D2
:100A7800004F41F4000121F07F4118BF494292EA3A
:100A8800030F3FD0A2F1010241FA03FC10EB0C0066
:100A9800C3F1200301FA03F100F0004302D54942F3
:100AA80060EB4000B0F5000F13D3B0F1807F06D3A0
:100AB80040084FEA310102F10102FE2A51D2B1F198
:100AC800004F40EBC25008BF20F0010040EA03008D
:100AD8007047490040EB0000013A28BFB0F5000F0D
:100AE800EDD2B0FA80FCACF1080CB2EB0C0200FAC3
:100AF8000CF0AABF00EBC25052421843BCBFD04012
:100B08001843704792F0000F81F4000106BF80F48B
:100B180000000132013BB5E74FEA41037FEA226C4E
:100B280018BF7FEA236C21D092EA030F04D092F019
:100B3800000F08BF0846704790EA010F1CBF00204D
:100B4800704712F07F4F04D1400028BF40F00040AA
:100B5800704712F100723CBF00F50000704700F0CA
:100B6800004343F0FE4040F4000070477FEA2262F1
:100B780016BF08467FEA23630146420206BF5FEAC2
:100B8800412390EA010F40F4800070474FF00003C2
:100B980004E000BF10F0004348BF40425FEA000C89
:100BA80008BF704743F0964301464FF000001CE031
:100BB80050EA010208BF70474FF000030AE000BF87
:100BC80050EA010208BF704711F0004302D54042C5
:100BD80061EB41015FEA010C02BF84460146002037
:100BE80043F0B64308BFA3F18053A3F50003BCFA52
:100BF8008CF2083AA3EBC25310DB01FA02FC6344FF
:100C080000FA02FCC2F12002BCF1004F20FA02F205
:100C180043EB020008BF20F00100704702F12002F8
:100C280001FA02FCC2F1200250EA4C0021FA02F259
:100C380043EB020008BF20EADC7070474FF0FF0C5E
:100C48001CEAD0521EBF1CEAD15392EA0C0F93EA59
:100C58000C0F6FD01A4480EA010C400218BF5FEAFB
:100C680041211ED04FF0006343EA501043EA51116E
:100C7800A0FB01310CF00040B1F5000F3EBF490068
:100C880041EAD3715B0040EA010062F17F02FD2A6C
:100C98001DD8B3F1004F40EBC25008BF20F001004F
:100CA800704790F0000F0CF0004C08BF49024CEA66
:100CB800502040EA51207F3AC2BFD2F1FF0340EAF8
:100CC800C250704740F400004FF00003013A5DDC69
:100CD80012F1190FDCBF00F000407047C2F10002AA
:100CE800410021FA02F1C2F1200200FA02FC5FEA97
:100CF800310040F1000053EA4C0308BF20EADC70E1
:100D0800704792F0000F00F0004C02BF400010F452
:100D1800000F013AF9D040EA0C0093F0000F01F0FF
:100D2800004C02BF490011F4000F013BF9D041EA21
:100D38000C018FE70CEAD15392EA0C0F18BF93EA23
:100D48000C0F0AD030F0004C18BF31F0004CD8D14D
:100D580080EA010000F00040704790F0000F17BFD4
:100D680090F0004F084691F0000F91F0004F14D01A
:100D780092EA0C0F01D142020FD193EA0C0F03D172
:100D88004B0218BF084608D180EA010000F0004075
:100D980040F0FE4040F40000704740F0FE4040F450
:100DA800400070474FF0FF0C1CEAD0521EBF1CEAEF
:100DB800D15392EA0C0F93EA0C0F69D0A2EB03020D
:100DC80080EA010C49024FEA402037D04FF08053A7
:100DD80043EA111143EA10130CF000408B4238BF6C
:100DE8005B0042F17D024FF4000C8B4224BF5B1A7A
:100DF80040EA0C00B3EB510F24BFA3EB510340EAC8
:100E08005C00B3EB910F24BFA3EB910340EA9C0075
:100E1800B3EBD10F24BFA3EBD10340EADC001B01E5
:100E280018BF5FEA1C1CE0D1FD2A3FF650AF8B4289
:100E380040EBC25008BF20F0010070470CF0004C96
:100E48004CEA50207F32C2BFD2F1FF0340EAC250C1
:100E5800704740F400004FF00003013A37E792F082
:100E6800000F00F0004C02BF400010F4000F013AE0
:100E7800F9D040EA0C0093F0000F01F0004C02BFDB
:100E8800490011F4000F013BF9D041EA0C0195E744
:100E98000CEAD15392EA0C0F08D142027FF47DAFDD
:100EA80093EA0C0F7FF470AF084676E793EA0C0FCD
:100EB80004D14B023FF44CAF08466EE730F0004CCB
:100EC80018BF31F0004CCAD130F000427FF45CAF5B
:100ED80031F000437FF43CAF5FE700BF4FF0FF3CC9
:100EE80006E000BF4FF0010C02E000BF4FF0010C1C
:100EF8004DF804CD4FEA40024FEA41037FEA226CE5
:100F080018BF7FEA236C11D001B052EA530C18BF06
:100F180090EA010F58BFB2EB030088BFC81738BF6B
:100F28006FEAE17018BF40F0010070477FEA226C59
:100F380002D15FEA402C05D17FEA236CE4D15FEA55
:100F4800412CE1D05DF8040B704700BF8446084689
:100F58006146FFE70FB5FFF7C9FF002848BF10F14A
:100F6800000F0FBD4DF808EDFFF7F4FF0CBF01208F
:100F780000205DF808FB00BF4DF808EDFFF7EAFF19
:100F880034BF012000205DF808FB00BF4DF808EDD4
:100F9800FFF7E0FF94BF012000205DF808FB00BFC9
:100FA8004DF808EDFFF7D2FF94BF012000205DF84F
:100FB80008FB00BF4DF808EDFFF7C8FF34BF01205C
:100FC80000205DF808FB00BF4FEA40024FEA4103EA
:100FD8007FEA226C02D15FEA402C08D17FEA236CB9
:100FE80002D15FEA412C02D14FF0000070474FF068
:100FF800010070474FEA4002B2F1FE4F0FD34FF0A5
:101008009E03B3EB12620DD94FEA002343F000436D
:1010180010F0004F23FA02F018BF404270474FF01B
:101028000000704712F1610F01D1420205D110F0A2
:10103800004008BF6FF0004070474FF00000704755
:1010480042000ED2B2F1FE4F0BD34FF09E03B3EB2A
:10105800126209D44FEA002343F0004323FA02F056
:1010680070474FF00000704712F1610F01D1420242
:1010780002D14FF0FF3070474FF00000704700BFBB
:101088007BB972B90029BEBF00204FF0004106E0CD
:1010980008BF00281CBF6FF000414FF0FF3000F080
:1010A800D9B9ADF1080C6DE904CE002909DB002B94
:1010B8001ADB00F069F8DDF804E0DDE9022304B08A
:1010C8007047404261EB4101002B1BDB00F05CF8EC
:1010D800DDF804E0DDE9022304B0404261EB4101A0
:1010E800524263EB43037047524263EB430300F001
:1010F8004BF8DDF804E0DDE9022304B0404261EB7F
:1011080041017047524263EB430300F03DF8DDF8BC
:1011180004E0DDE9022304B0524263EB4303704765
:1011280010B500210446FFF727FF20B92046BDE887
:10113800104000F009B804F1004000F005F8404202
:1011480061EB410110BD00BFD0B5FFF7DFF9002208
:101158000B4B06460F46FFF731FAFFF741FC0446F2
:10116800FFF7B2F90022074BFFF728FA02460B46B1
:1011780030463946FFF76AF8FFF732FC2146D0BD02
:101188000000F03D0000F0412DE9F047089E0D46B3
:1011980004468E46002B4CD18A42944667D9B2FA4F
:1011A80082F353B102FA03FCC3F1200201FA03FEF1
:1011B80020FA02F242EA0E0E9C404FEA1C47BEFBA0
:1011C800F7F11FFA8CF507FB11EE01FB05F0220C75
:1011D80042EA0E4290420AD91CEB020201F1FF3E9C
:1011E80080F01981904240F2168102396244121A45
:1011F800B2FBF7F007FB102200FB05F5A4B244EAA6
:101208000244A5420AD91CEB040400F1FF3280F025
:101218000481A54240F201816444023840EA014059
:101228000021641B1EB1DC400023C6E90043BDE871
:10123800F0878B4208D9002E00F0EA800021C6E929
:1012480000050846BDE8F087B3FA83F1002948D1C4
:10125800AB4202D3824200F2F880841A65EB0302A3
:1012680001209646002EE2D0C6E9004EDFE702B91B
:10127800FFDEB2FA82F3002B40F08E80881A01213B
:10128800170C1FFA82FEB0FBF7F507FB1500220CBE
:1012980042EA00420EFB05F0904208D91CEB02021C
:1012A80005F1FF3802D2904200F2CC804546121A6E
:1012B800B2FBF7F007FB10220EFB00FEA4B244EAD3
:1012C8000244A64508D91CEB040400F1FF3202D2FF
:1012D800A64500F2B4801046A4EB0E0440EA05408F
:1012E800A0E7C1F120078B4022FA07FC4CEA030C67
:1012F80025FA07FA4FEA1C49BAFBF9F88D4020FA9B
:1013080007F309FB18AA1FFA8CFE2B4300FA01F514
:1013180008FB0EF01C0C44EA0A44A04202FA01F24F
:101328000BD91CEB040408F1FF3A80F08680A04238
:1013380040F28380A8F102086444241A98B2B4FBEE
:10134800F9F309FB134403FB0EFE40EA0444A645E7
:1013580008D91CEB040403F1FF306AD2A64568D90A
:10136800023B644443EA0840A0FB0293A4EB0E044A
:101378009C42C8469E4654D351D0002E67D0B5EB48
:10138800080364EB0E04CB4004FA07F71F43CC4074
:10139800C6E9007400214AE702FA03FCC3F1200001
:1013A800C1409D4024FA00F04FEA1C472843B1FB96
:1013B800F7F507FB15111FFA8CFE020C42EA0142F1
:1013C80005FB0EF1914204FA03F408D91CEB020262
:1013D80005F1FF382FD291422DD9023D6244521AAD
:1013E800B2FBF7F107FB112280B240EA024001FB91
:1013F8000EF2824208D91CEB000001F1FF3816D228
:10140800824214D902396044801A41EA05413AE718
:10141800314630460BE77146E9E61046FEE64D4593
:10142800ABD2B9EB020863EB0C0E0138A5E74146D5
:10143800EAE7034696E74546D1E7D0467DE76444A8
:10144800023849E7023D624431E708460AE7314677
:10145800EDE600BF704700BFB0F1604041F1000108
:1014680011F0004120F0404005D5013840F04040DF
:10147800013061EB0101002904DB10F1604041F10A
:10148800FF31704710F1005041F100017047002B07
:1014980070B507DA524263EB4303002805DA40428D
:1014A800002503E00028FBDA40420125A2FB0041A9
:1014B800C61702FB0612A3FB000103FB0611A40FCB
:1014C800890041EA907144EA82048000201841EBC7
:1014D800927115B1404261EB410170BD002B70B5AE
:1014E80007DA524263EB4303002805DA404200253D
:1014F80003E00028FBDA40420125A2FB0046C117A1
:1015080002FB01625943DE1700FB0611A3FB003002
:101518000144240C090441EA134144EA02441B042F
:10152800E01841EB124115B1404261EB410170BD39
:10153800002B70B507DA524263EB4303002805DA43
:101548004042002503E00028FBDA40420125A2FBC7
:101558000046C11702FB01625943DE1700FB061162
:10156800A3FB00300144240E090241EA136144EA56
:1015780002241B02E01841EB126115B1404261EBF5
:10158800410170BD4FF4B472800A40EA8150A0FB5B
:101598000203891202FB0133800A40EA8350642364
:1015A800A0FB030340F38F20704708B5FFF754FFF3
:1015B8004FF4B472800A40EA8150A0FB02038912FA
:1015C80002FB0133800A40EA83506423A0FB030333
:1015D80040F38F2008BD4FF4B472800A40EA81506E
:1015E800A0FB0203891202FB01334FF47A71800ACF
:1015F80040EA8350A0FB01029B1201FB0323800AEF
:1016080040EA835070470023C0E90233C0E9003341
:1016180070474FF0804303600023C0E90233436002
:1016280070470B6803604B685B4243608B685B42A2
:101638008360CB685B42C360704794462DE9F043F2
:101648000B68D2F80CE09668D2F8049012684F68DC
:1016580083FB02329B0F43EA820387FB09258C68D0
:10166800920F42EA85029B1A84FB0625D1F80C806A
:10167800920F42EA85029B1A88FB0E25920F42EAD6
:1016880085029B1A0360DCF800300D6883FB077243
:10169800BF0F47EA820785FB09924FEA997949EA21
:1016A80082094F448EFB0429920F42EA89021744AB
:1016B80088FB0629920F42EA890283FB0449A40F9A
:1016C80044EA890485FB0669BF1A4760DCF80470A0
:1016D800B60F46EA8906344487FB08694A68B60F9C
:1016E80046EA8906344482FB0E69B60F46EA890643
:1016F800A41B8460DCF8084083FB083885FB0E5E79
:1017080082FB04249B0FAD0F43EA880345EA8E054C
:10171800920F42EA84022B4413448A6887FB0272C0
:10172800BF0F47EA8207DB1BC360BDE8F0832DE9E2
:10173800F0430B68D2F80C80946857689446126896
:10174800D1F8049083FB02329B0F43EA820389FBA2
:1017580007258E68920F42EA8502134486FB04250A
:10176800D1F80CE0920F42EA850213448EFB08255B
:10177800920F42EA8502134403600B68DCF80050BC
:1017880083FB0772BF0F47EA820785FB09924FEA7E
:10179800997949EA8209A7EB090788FB0629920F7C
:1017A80042EA8902BF1A8EFB0429920F42EA890293
:1017B80083FB0449A40F44EA890485FB066917449E
:1017C8004760DCF80470B60F46EA8906A41B87FB5D
:1017D8000E694A68B60F46EA8906A41B82FB0869A7
:1017E800B60F46EA890634448460DCF8084083FB77
:1017F800083885FB0E5E82FB04249B0FAD0F43EA7D
:10180800880345EA8E05920F42EA84025B1B9B1A05
:101818008A6887FB0272BF0F47EA82073B44C360AE
:10182800BDE8F08394462DE9F0430B68D2F80CE04C
:101838009668D2F8049012684F6883FB02329B0FB7
:1018480043EA820387FB09258C68920F42EA8502E6
:10185800134484FB0625D1F80C80920F42EA8502D6
:10186800134488FB0E25920F42EA85021344036055
:10187800DCF800300D6883FB0772BF0F47EA820768
:1018880085FB09924FEA997949EA8209A7EB09078A
:101898008EFB0429920F42EA8902BF1A88FB0629A7
:1018A800920F42EA890283FB0449A40F44EA89049F
:1018B80085FB066917444760DCF80470B60F46EAF2
:1018C8008906A41B87FB08694A68B60F46EA890699
:1018D800A41B82FB0E69B60F46EA8906344484606D
:1018E800DCF8084083FB083885FB0E5E82FB042485
:1018F8009B0FAD0F43EA880345EA8E05920F42EA33
:1019080084025B1B9B1A8A6887FB0272BF0F47EA37
:1019180082073B44C360BDE8F0832DE9F74FD1E966
:10192800007487FB04834FEA987848EA83088B6839
:10193800944683FB07E2C9684FEA9E7E4EEA820E10
:1019480081FB0772BF0F47EA820783FB0452AD0F82
:1019580045EA820581FB0426920F42EA860252007C
:10196800009283FB0326920F42EA860252000192FC
:1019780081FB03329B0F43EA820381FB0112019E24
:10198800890FDCF800A041EA8201C6F18046A6EB87
:10199800410686FB0A6ADCE901926D00B60F46EA49
:1019A8008A0605EB470A8AFB09AB4FEA9A7A4AEAA4
:1019B8008B0A5644DDF800A0A5EB4705AAEB4E0AB2
:1019C8008AFB02AB4FEA9A7A4AEA8B0A56440660C7
:1019D80084FB0446A40F44EA86046400DCF8006033
:1019E800C4F18044A4EB410185FB065781FB09192A
:1019F800AD0F890F41EA89015B0045EA87050D446F
:101A080003EB480181FB0217890F41EA87010D4466
:101A18004560DCF80410A3EB480383FB01319B0FFE
:101A280043EA8103009901EB4E0181FB0616890FF9
:101A380041EA86010B440199641A84FB0242A40F0F
:101A480044EA82042344836003B0BDE8F08F0B6846
:101A58002DE9F04183FB0362B60F0546D1E9024048
:101A680046EA82064A6884FB00814FEA987848EA89
:101A7800810882FB0317890F41EA8701884484FBA8
:101A88000271BF0F47EA810780FB031C890F41EAF7
:101A98008C017F1A80FB001C82FB0002800F40EA49
:101AA800820084FB0332890F41EA8C019B0F43EAD1
:101AB8008203314401F16041C01A1FF019FC431040
:101AC8005B424FEAE07060EB4000C5E900304FEA46
:101AD80048001FF061FC4310C017C5E9023084FBC1
:101AE8000443A40F44EA83043119384601F16041E4
:101AF8001FF0FEFB43105B424FEAE07060EB4000D2
:101B0800C5E90430BDE8F0818A6870B5044682FBF7
:101B180002050B68800F40EA850083FB0356AD0F72
:101B280045EA860528444D68C96882FB052583FB7C
:101B38000131920F9B0F43EA810342EA850200F1CB
:101B48006041D01A1FF0D4FB421052424FEAE073B2
:101B580063EB4303C4E9002370BD2DE9F0438946D4
:101B680087B00546D1E90030DB09694601AA43EA96
:101B780040601FF001FDD9E90230DB0943EA40600B
:101B880003AA02A91FF0F8FC019C039F029E84FB94
:101B980007834FEA987848EA830886FB0443A40F32
:101BA80044EA8304009B83FB077286FB0363BF0F31
:101BB800B60F47EA820746EA8306D9E9043053EAB2
:101BC800000206D1C5E90084C5E9027607B0BDE880
:101BD800F083DB0943EA406005AA04A91FF0CCFCA6
:101BE800DDE9043288FB0210890F41EA800186FB97
:101BF800030C800F40EA8C00091A296084FB02104C
:101C0800890F41EA800187FB030C800F40EA8C00B2
:101C1800091A696084FB0341A40F83FB083844EA6E
:101C2800810487FB027186FB0262BF0F9B0FB60F10
:101C380047EA810743EA880346EA82063C4433447C
:101C4800AC60EB60C2E7F8B5242504464FF0807617
:101C58002A4600211FF06EFD2A460021651904F16D
:101C680034001FF067FD2846A66066652662FFF708
:101C7800D0FC95E80F00A66500250026002704F192
:101C8800680CC4E918678CE80F00C4E91F55A4F86C
:101C98007850C4F88450A4F8885004F18C00FFF7F9
:101CA800B2FCC4E92855C4E92A67A4F89C50F8BDD9
:101CB800F8B504460D46416DC06C890180011FF0DE
:101CC80017FB43105B424FEAE07060EB4000C5E948
:101CD8000030206D04F1240680011FF05DFB4310E5
:101CE800C0170022C5E90230002330462946C5E95D
:101CF800042304F16807FFF730FF96E80F0087E830
:101D08000F00236BA06A626A80FB0367E16AB60F63
:101D180046EA870682FB017CBF0F47EA8C07F61B61
:101D280046F35916A66181FB0316890F41EA86011D
:101D380082FB0006800F40EA8600014441F35911F6
:101D4800E16183FB03319B0F43EA810382FB02219C
:101D5800920F42EA8102134403F1604343F359139B
:101D68002362D5E90423C4E91823F8BD2DE9F34714
:101D780098460546D1E904309B1A60EB0800DB0958
:101D880016460F4601AA694643EA40601FF0F4FB75
:101D9800DDE90042D5E90B30D5E9091C84FB00E9EF
:101DA8004FEA9E7E4EEA890E82FB019A4FEA9979A4
:101DB80049EA8A09CE44C5F824E083FB04E94FEADE
:101DC8009E7E4EEA890E8CFB029A4FEA997949EA7F
:101DD8008A09CE44C5F828E083FB023E9B0F80FBAE
:101DE800020243EA8E038CFB04CE84FB01414FEAD6
:101DF8009C7C800FA40F4CEA8E0C40EA820044EAD7
:101E08008104A3EB0C03001BEB622863C7E9046899
:101E1800C5E9186802B0BDE8F08700002DE9F04F69
:101E280098461B8A044613F01003894692468DB0E3
:101E380003D0B0F8783013B1013BA4F87830B4F887
:101E48007830A4F89C30002B4CD123682364636855
:101E58006364A368A364D4E9103787FB07723F0E55
:101E680047EA022783FB03321B0E43EA02231F447F
:101E7800A36C234D83FB03321B0E43EA02231F444A
:101E880027EAE77738461FF0ADFB4FF4803102466A
:101E9800C31783460020FFF7F3F80646206CA16CB1
:101EA80086FB0003000E40EA0320636CE06486FBB7
:101EB800033286FB0161360E46EA0126D8F8001087
:101EC8001B0E43EA0223A942236504F10802666552
:101ED800C4F8A0B016DC494620460DB0BDE8F04F66
:101EE800FFF7E6BEE26F23689B1A2364D4F88020CC
:101EF80063689B1A6364D4F88420A3689B1AA9E7D3
:101F0800B81E0500256A85FB031C090E41EA0C2151
:101F1800D4F81CC08CFB06CE4FEA1C6C4CEA0E2C85
:101F2800A1EB0C01D4F818C002918CFB066E360E9A
:101F380046EA0E2685FB005E2D0E45EA0E25751B2A
:101F4800E6698CFB03C386FB0060360E46EA002672
:101F58004FEA1C6CB8F812004CEA032CA6EB0C03F1
:101F680001280395049340F0C18185FB05502D0E8F
:101F780045EA002581FB0110090E41EA00210020F5
:101F88000D4483FB03311B0E43EA01231D4485FBEB
:101F980007572D0E45EA0725261F56F8043FB16955
:101FA800B24283FB01314FEA136343EA0123184429
:101FB800F3D100F17F4001921FF06AF980FB000124
:101FC800030ED8F8200043EA012380FB0303000E28
:101FD80040EA032028441FF005FB06460020019A2A
:101FE80004F1140552F8043FD168954283FB01318E
:101FF8004FEA136343EA01231844F3D11FF048F969
:1020080005460BF17F401FF043F9D8F81830984285
:10201800C0F2678144F28813D8F81C209A4240F332
:102028006381D8F82410AB1B83FB01311B0E43EAF4
:1020380001231E44F1170906D317300641EA162179
:10204800FFF71EF8C0F18070B0F1807FA8BF4FF095
:10205800807020EAE070A56D8542D4BFD8F82820AA
:10206800B64A431B83FB02321B0E43EA02231D447C
:102078004FF0C073A56585FB03532D0E45EA032574
:10208800B8F81030B4F8782013F0020F18BF4FF0EA
:102098008075002A18BF4FF08075E268C4F8A45014
:1020A80005922269069262690792DA0700F14A816D
:1020B800D8E90223C4E92A230022059B05A9636302
:1020C800069BA363079BE3630B6801325B1083FBEA
:1020D8000A3092B21B0E43EA0023032A41F8043B5C
:1020E800F2D1059DA76A069B87FB051CE26A890F4A
:1020F80041EA8C0182FB03CE079E206B4FEA9C7C51
:102108004CEA8E0C4942A1EB0C0180FB06CE4FEA4B
:102118009C7C4CEA8E0CA1EB0C0186FB02CE08914C
:10212800616A4FEA9C7C4CEA8E0C81FB05EA4FEA17
:102138009E7E4EEA8A0EF44480FB03EA4FEA9E7EB6
:102148004EEA8A0EACEB0E0CCDF824C081FB03CE10
:102158004FEA9C7C4CEA8E0C86FB07EA4FEA9E7E8F
:1021680081FB061683FB07374EEA8A0EACEB0E0C92
:1021780080FB050E82FB05259B0F890F41EA86012E
:1021880043EA8703920F0B4442EA85029B1A04F143
:1021980020050B932B46800F40EA8E0060440A907E
:1021A80008A904F1300653F8042F51F8040B9E4295
:1021B80002441A60F7D1B8F810309B060DD5B4F870
:1021C800882052B12B4653F8041F986E9E42014452
:1021D8001960F8D1013AA4F888202A46002052F85C
:1021E800043F9B1183FB03311B0E43EA01239642F4
:1021F8001844F4D11FF054F955F8043F80FB03321A
:102208001B0E43EA0223AE422B60F5D104F12402EF
:10221800ACCA83FB0701800F40EA810082FB0516E8
:10222800890F41EA8601401A85FB0761B60F46EA25
:10223800810682FB031C890F41EA8C0106EB010C25
:1022480082FB026EB60F46EA8E0687FB071E890FD1
:1022580041EA8E0131444FEA4C0801F160414CF3E8
:10226800591CC4F81CC041F3591C82FB0727C4F849
:1022780020C085FB033C40F3591E9B0F920F43EA95
:102288008C03C4F818E042EA8702490040009F1A0C
:102298001FF02EF843105B424FEAE07060EB4000FD
:1022A800C9E9003040461FF077F84310C017C9E964
:1022B800023085FB05329B0F43EA8203F11838464A
:1022C80001F160411FF014F843105B424FEAE070DF
:1022D80060EB4000C9E90430C4E918300DB0BDE82E
:1022E800F08F4FF08070B6E60020B4E6D8F81420DE
:1022F800134B9A421FDD0BF17F401EF0C9FFD8F83F
:102308001420A0F52335A5F55775E917A2F5233252
:10231800A2F557720906280641EA1521D317FEF7D8
:10232800AFFEC0F18075B5F1807FA8BF4FF0807512
:1023380025EAE575A4E64FF08075A1E6333333004E
:10234800E4D00200D8F80020B2F1C45F50DDD8F81C
:102358000420354B9A427FF7ABAED31700204FF4D9
:102368008031FEF78DFED8E90232D4E918560746C7
:10237800581B8B4662EB0601FFF76EF800252B4EC3
:102388000A46864275EB01010346BCBF33462A461E
:102398004FF0FF31264804F12006834272EB010515
:1023A800BCBF03460A461B0C43EA024341F622120D
:1023B80002FB03F104F1140505A855F8043F02686F
:1023C80081FB033C1B0E43EA0C2303FB0BFC4FEA87
:1023D800E37E07FB0ECCA3FB07E39C444FEA1E6396
:1023E80043EA0C231A44AE4240F8042BE5D15FE6D9
:1023F800E9170906280641EA1521D317FEF740FE1A
:10240800002102AE05AD56F8043B2A6880FB03376D
:1024180001311B0E43EA072389B21A44032945F800
:10242800042BF0D193E700BF98991900408EE30878
:10243800C0711CF70B680E4A10B583FB02341B0EE3
:1024480043EA0423C3674B6883FB02341B0E43EA49
:102458000423C0F880308B6883FB02321B0E43EAEA
:102468000223C0F884303223A0F8783010BD00BFB2
:1024780087181A0000230360436070472DE9F04174
:10248800D0F8088004460F46456800214046FEF70C
:1024980069FD08B1256013E0266829463046FEF735
:1024A8006BFD78B139464046FEF7C8FB3146FEF76A
:1024B800BDFA29460646FEF77DFD0028EAD12660CA
:1024C800BDE8F08129463046FEF774FD0028F7D0B4
:1024D80039464046FEF7B2FB01463046FEF7A4FAFD
:1024E80029460646FEF748FDE7E70000A0F52F73EA
:1024F800B3F5C86F04D8054BA0F2DC5018837047B9
:1025080010B90122014BDA86704700BF480200204B
:10251800A0F52F73B3F5C86F04D8054BA0F2DC50B3
:102528005883704710B90122014B1A87704700BFC2
:1025380048020020A0F52F73B3F5C86F04D8054BE7
:10254800A0F2DC509883704710B90122014B5A87DA
:10255800704700BF480200200122034BDA864FF083
:1025680001129A63704700BF48020020003818BF64
:102578000120014B5884704748020020003818BFDA
:102588000120014BD887704748020020014B0138D1
:102598009884704748020020A0F52F73B3F5C86FE0
:1025A8000DD80D4BA0F2DC50D884A1F52F73B3F5EC
:1025B800C86F0BD8084BA1F2DC5119857047002869
:1025C800F3D147F6FF72044BDA84EEE719B947F600
:1025D800FF72014B1A8570474802002040F6FC0341
:1025E800984228BF1846B0F52F7F38BF4FF42F7098
:1025F800014B9887704700BF4802002008B5054B7B
:10260800B3F86430012B03D0FFF770FF012008BD39
:102618000020FCE74802002008B5054BB3F86430F9
:10262800012B03D0FFF774FF012008BD0020FCE751
:102638004802002008B5054BB3F86430012B03D0DD
:10264800FFF778FF012008BD0020FCE748020020C2
:10265800094B10B5B3F864301446012B09D0FFF7C5
:1026680045FF0846FFF754FF2046FFF763FF0120A8
:1026780010BD0020FCE700BF4802002030B5084C20
:10268800B4F86450012D09D0C4E900010120C4E95F
:102698000223DDE90323C4E9042330BD0020FCE75D
:1026A80048020020F0B5194F1C46B7F864300E46B2
:1026B800012B154685B027D04FF09D41FEF7BEFA95
:1026C800FEF798FC4FF09D4100903046FEF7B6FAB1
:1026D800FEF790FC4FF09D4101902846FEF7AEFAB8
:1026E800FEF788FC40424FF09D4102902046FEF7DD
:1026F800A5FAFEF77FFC4042039069463846FFF78B
:10270800A6F9012005B0F0BD0020FBE74802002033
:10271800054BB3F86420012A1DBF00F1FF30D883B0
:1027280001200020704700BF48020020044BB3F886
:102738006420012A1ABFD88301200020704700BFF7
:1027480048020020064BB3F86420012A05D000385F
:1027580018BF01205884012070470020704700BF2F
:1027680048020020064BB3F86420012A05D000383F
:1027780018BF0120D887012070470020704700BF8C
:1027880048020020054BB3F86420012A1DBF00F160
:10279800FF30988401200020704700BF48020020C5
:1027A800044BB3F86420012A1ABF98840120002042
:1027B800704700BF4802002008B5054BB3F86430E5
:1027C800012B03D0FFF7E8FE012008BD0020FCE73D
:1027D80048020020044BB3F86420012A1DBF588525
:1027E800998501200020704748020020074BB3F864
:1027F8006420012A07D0032805D803EB40030139D8
:102808000120D98570470020704700BF480200208A
:1028180008B5054BB3F86430012B03D0FFF7DEFE93
:10282800012008BD0020FCE748020020044BB3F853
:102838006420012A1ABF188401200020704700BFB5
:102848004802002008B5054BB3F86430012B03D0CB
:10285800FFF782FE012008BD0020FCE748020020A7
:1028680030B5084CB4F86450012D09D060640120DB
:10287800A364039B21656365049BE265236630BD01
:102888000020FCE74802002038B5094D094C2946CC
:1028980004F14000FFF7F2FD294604F14C00FFF770
:1028A800EDFD294604F15800BDE83840FFF7E6BDC4
:1028B800A69BC43A4802002008B5154B18220021EF
:1028C80018461EF037FF4FF6FF7203460021C283F9
:1028D800DA854FF0FF328161818301626FF0004039
:1028E8001A639A860B4A5862DA6347F6FF70002229
:1028F800C3F83610598718851A645A649A64DA64DA
:102908001A655A659A65DA651A66A3F8641008BDEF
:1029180048020020DC05FFFF38B54FF09D41044612
:102928000068FEF78BF9FEF765FB0E4D4FF09D41F1
:10293800A8606068FEF782F9FEF75CFB4FF09D41E6
:10294800E860A068FEF77AF9FEF754FB40424FF0C2
:102958009D412861E068FEF771F9FEF74BFB4042A4
:10296800686138BDB002002070B505680446294684
:102978002846FEF729FB20BB15492846FEF75EF9D5
:10298800FEF738FB6668134D3146A8613046FEF7FE
:102998001BFBC0B90E493046FEF750F9FEF72AFB7B
:1029A8004042A468E86121462046FEF70DFB60B965
:1029B80007492046FEF742F9FEF71CFB4042286211
:1029C80070BD0020DEE70020EBE70020F7E700BF3E
:1029D80000007A44B00200200022034BDA841A88EF
:1029E80022F400521A807047B002002049F6404194
:1029F800184B30B55C68021B8A4202D9996E914225
:102A080004D3196F144D411AA94206D949F6404119
:102A180018678A422CBF9A66996649F63F418A42EE
:102A280002D8596E914204D8D96E0B4D411AA94269
:102A380006D949F64041D8668A4294BF5A66596613
:102A48001A881C6642F004021A8040F29A225860E2
:102A58005A8030BDB0020020C81405002DE9F041AD
:102A6800D0F80080054641464046FEF7ADFA10BB57
:102A78006F6839463846FEF7A7FA0446D8B9AD68F4
:102A880029462846FEF7A0FAB8B900214046FEF7C5
:102A980069FA70B100213846FEF764FA48B100219E
:102AA8002846FEF75FFAB0FA80F0400980B2BDE828
:102AB800F0810120FAE70020F9E72046F7E7000057
:102AC800114B1A88998C22F4A06292B211F0010F6E
:102AD8001A801CBF42F480721A808A0704D518B184
:102AE8001A8842F480621A801A88480622F4C05272
:102AF80092B248BF42F400621A808A0642BF1A881E
:102B080042F480521A807047B002002070B5044623
:102B1800053004F115060D46FFF7FEFE3046FFF7B7
:102B280023FFFFF759FF63780E4A03F001019C0762
:102B38004ABF41F004011185118513F0400F14BFFD
:102B48008021012113F0200F18BF0221284651854A
:102B58009384FFF74BFF3046FFF780FFBDE87040D6
:102B6800FFF7AEBFB002002070B50446083004F18C
:102B78001C060D46FFF7D0FE3046FFF7F5FEFFF7BF
:102B88002BFF218E124B01F0010211F0040F18BF28
:102B980042F002029A8494F83420901E02280FD83A
:102BA800988C40F060009884284619855A85FFF76C
:102BB8001DFF3046FFF752FFBDE87040FFF780BFAA
:102BC800802A01D0052AEFD1988C40F04000EAE72E
:102BD800B00200200A4A538883B11188013B9BB296
:102BE80021F00200012B108001D953807047002387
:102BF80021F0060141F0020153801180704700BFA7
:102C0800B0020020044A138813F004001EBF23F00A
:102C18000403012013807047B0020020044A13887F
:102C280013F002001EBF23F0020301201380704737
:102C3800B002002073B505460E46134C684604F1F1
:102C48000801FEF761FF009B01985B1B60EB060023
:102C5800C4E91230DB0904F1540204F1500143EADB
:102C680040601EF089FCD4E912309B0943EA806079
:102C780004F15C0204F158011EF07EFC238843F045
:102C88000803238002B070BDB0020020024B1888F0
:102C9800C0F3C000704700BFB00200202DE9F0412A
:102CA800284C0646236D6169626D83FB0105A768A0
:102CB800800F40EA850082FB075CAD0F45EA8C0572
:102CC80028446067D4E9030585FB03CE4FEA9C7C62
:102CD8004CEA8E0C80FB02E84FEA9E7E4EEA880E94
:102CE800F444C4F878C085FB025CAD0F81FB021286
:102CF80045EA8C0580FB030C83FB0737800F890F9F
:102D08009B0F40EA8C0043EA870341EA8201C91A13
:102D18002D1A04F17407E567C4F8801004F18800DF
:102D2800394604F1A005FEF792FE39462846324698
:102D3800FEF783FC294604F1B000BDE8F041FEF738
:102D480086BE00BFB00200202DE9F04F5B4C8FB06B
:102D5800A26DE369E56D82FB0316A069890F41EA5C
:102D6800860185FB006783FB053582FB00209B0FEE
:102D7800920F43EA850342EA80029B1AC4F8CC30DA
:102D8800236AB60F46EA8706C4F8D030236E31446A
:102D9800C4F8C810002B00F08780606805AEC01A20
:102DA800FDF7F4FE4649FDF749FF014680464548D0
:102DB800FDF7F8FF08AD0BAB9A4600932A46374655
:102DC80000234FF04E5BDFF800910190C43454F8B3
:102DD800040FCDE90232FDF7DDFE4946FDF72EFF6F
:102DE8004AF8040BE068FDF7D5FE4946FDF726FFD3
:102DF80047F8040BA069FDF7CDFE5946FDF71EFF05
:102E0800029B039A01339BB2032B42F8040BDED1D9
:102E1800A946B2460024DFF8B4B0D9F80020DAF8A1
:102E28000070104641460392FDF708FF3946FDF74A
:102E3800FDFD009B0146074653F8040B013400933F
:102E4800FDF7F2FD59460290FDF7F8FE3946FDF709
:102E5800EDFD029B01994AF8040B1846FDF7EEFEBA
:102E6800039AA4B21146FDF7E1FD032C49F8040BBF
:102E7800D3D100244FF09748154FDFF858904946B2
:102E880056F8040BFDF7DAFEFEF7B4F8414647F8AA
:102E9800040F55F8040BFDF7D1FEFEF7ABF801342B
:102EA800A4B2032CF860EAD10B4AA2F1400102F166
:102EB8000C000FB0BDE8F04FFEF72FBDB0020020A8
:102EC800BD378635CDCC4C3E6F12833ACDCCCC3E47
:102ED8008003002000007A4490030020024800F19B
:102EE80008013030FEF7B3BDB0020020024B18884D
:102EF800C0F30020704700BFB0020020024B1888C2
:102F0800C0F38020704700BFB0020020014BD3E916
:102F180030017047B0020020014BD3E92601704709
:102F2800B0020020034AD2E91232C01842EB010174
:102F3800FEF792BAB0020020014BD3E910017047A6
:102F4800B002002070B549F640430025214C1826F0
:102F580004F10800C4E91933C4E90055C4E91B5554
:102F68002566FEF756FB00220023C4E912234FF022
:102F780080433246294604F13000C4E91535E3653B
:102F8800C4E90655C4E90855A56225651EF0D2FBBB
:102F980004F17400FEF73DFB3246294604F188002F
:102FA8001EF0C8FB04F1A000FEF733FB32462946A9
:102FB80004F1B0001EF0BEFBC4E93255C4E9345533
:102FC800C4E93655C4E93855C4E93A55C4E93C550D
:102FD80070BD00BFB00200202DE9F74F89460546B5
:102FE800D0F818A0D0F8148051464846FDF71CFDCB
:102FF800AB68019019460093FDF7D4FE01460646DA
:103008004046FDF7C3FFEF68D5F800B03946002801
:1030180046D04046FDF70AFD31460446FDF7CAFF93
:1030280000B1344659462046FDF7C4FF00B15C465E
:10303800494650462E69FDF7A9FF00283FD0314682
:103048000198FDF7AFFE4FF07A51FDF7EFFC1EF047
:10305800DBFB4FF07C51FDF7E7FC1EF09DFC394689
:10306800FDF7ECFD064601462046FDF7A3FF00B13B
:10307800344639464046FDF7D7FC06460146204609
:10308800FDF77AFF00B13446214600986C61FDF7E0
:10309800D5FD5146FDF7CAFCA86103B0BDE8F08F25
:1030A8004046FDF7C1FC0BF10043314604469B4600
:1030B800FDF762FF00B1344621465846B4E7494659
:1030C8005046FDF7B1FC3146FDF76CFE4FF07A51E2
:1030D800FDF7ACFC1EF098FB4FF07C51FDF7A4FC0B
:1030E8001EF05AFC3946FDF7A9FD00F100462146BD
:1030F8003046FDF75FFF00B1344639464046FDF7DC
:1031080095FC064601462046FDF754FFBAE72DE92F
:10311800F0470546D5F81880D5F808900846414686
:10312800FDF782FC4946FDF73DFE6C6901460646FF
:103138002046FDF72BFFD5F80CA02F685146C8B1E3
:103148002046FDF773FC31460446FDF733FF00B116
:10315800344639462046FDF72DFF00B13C4621464E
:1031680048466C61FDF76AFD4146FDF75FFCA861C2
:10317800BDE8F0872046FDF757FC3146044607F1C5
:103188000047FDF7F9FE00B1344621463846E2E72C
:1031980038B5856842600446016011462846FDF747
:1031A8004DFD0146E0602846FDF748FD4FF07C5193
:1031B800FDF744FD206138BD0023816143617047FC
:1031C8000023816043618361704708B50146FDF7BC
:1031D80035FD08BD00234FF48032C0E90433C0E94F
:1031E8000233037042607047054B82B05A6902434C
:1031F8005A615B6903400193019B02B0704700BFAD
:1032080000100240054B82B0DA690243DA61DB69DB
:1032180003400193019B02B0704700BF00100240B9
:10322800054B82B09A6902439A619B6903400193F6
:10323800019B02B0704700BF00100240036923F4ED
:1032480090430361436923F02A034361704700F107
:103258000C0353E8003F43F0200300F10C0141E860
:103268000032002AF3D1704700F10C0353E8003F05
:1032780043F0800300F10C0141E80032002AF3D149
:10328800704700F10C0353E8003F23F0200300F1DE
:103298000C0141E80032002AF3D1704700F10C0319
:1032A80053E8003F23F0400300F10C0141E80032ED
:1032B800002AF3D1704700F10C0353E8003F23F0D4
:1032C800800300F10C0141E80032002AF3D1704775
:1032D800044B0B4413F8012C835843F0010383502B
:1032E800704700BFA2460208402910B51DD013D868
:1032F80004291CD010291CD0012914BF062300233F
:103308000E4A0F4CD15CE45C042318304258A340A9
:1033180022EA0303435010BDB1F5807F0BD0B1F50D
:10332800806F14BF06230523EAE70323E8E7012398
:10333800E6E70223E4E70423E2E700BFA45D02080E
:10334800FD5D0208034B1B881BB1034A13689B03EE
:10335800FCD570470C1D0020000402400023024ADF
:103368001380024A13807047EC430020EE4300208C
:103378000E4BB3F8012052BA0280B3F8032052BAB8
:103388004280B3F8052052BA8280B3F8072052BAB7
:103398000A80B3F8092052BAC280B3F80B2052BA97
:1033A8000281B3F80D305BBA43817047A02A002030
:1033B8000E4BB3F8012052BA0A80B3F8032052BA70
:1033C8000280B3F8052052BA4280B3F8072052BAF7
:1033D8008280B3F8092052BAC280B3F80B2052BADF
:1033E8000281B3F80D305BBA43817047A02A0020F0
:1033F8000021094B03EB4002D180021D23F8101075
:1034080003EB4202033003EBC0039180002000214C
:10341800C3E90001704700BF001A0020044BB3F94C
:103428000030002BBEBF4FF48042024B5A617047F8
:1034380018100020000C01404FF6FF72014B1A8053
:10344800FFF7ECBF181000200022014B1A807047CC
:10345800100B002002885140C9B20B01DBB2594061
:103468000B0983EA122343EA012383EAC103038099
:1034780070470000034BB3F8E80108B9024B1888FD
:10348800704700BFBC07002050180020054BB3F858
:10349800E801054B1B88184380B2003818BF01208B
:1034A800704700BFBC070020501800200121094BBD
:1034B80010B5D980FB219A681170DA889968541C74
:1034C800DC8000248C54DA889968541CDC80885489
:1034D80010BD00BF941B00200121024B9A68D980BF
:1034E80010707047941B00204FF4407330B593FA66
:1034F800A3F3B3FA83F31F2501F44074DC402C30A6
:1035080050F8243001F01F018D4002F01F0223EA19
:1035180005038A40134340F8243030BD08B5002322
:10352800C0F88830C367C0F88C30C0F88030C0F865
:103538009030C0F88430C0F8A030C0F89430C0F89B
:10354800A430C0F89830C0F8A830C0F89C30074BB9
:1035580098420AD10648FFF73DFE0648FFF73AFEB3
:10356800BDE808400448FFF735BE08BDE003002069
:103578005005002078050020A005002008B5064861
:10358800FFF7CCFF0548FEF75EFBBDE808401822B0
:10359800002103481EF0CEB8E0030020A00400205C
:1035A800481D002008B50648FFF7B8FF0548FEF794
:1035B8004AFBBDE808401822002103481EF0BAB8AB
:1035C800F8050020B8060020601D00206FF02003D9
:1035D800024803604368FFF73ABE00BF0048004056
:1035E800024A138D43F0100313857047B419002065
:1035F80041780278424B01F0070142EA01225A80E1
:103608008278417802F03F02520142EAD1029A8060
:10361800C2788178920042EA9112017901F00101A1
:1036280042EA8122DA804279017902F00F02D2015E
:1036380042EA51021A818279417902F07F0212012D
:1036480042EA11125A81C2798179520042EAD112B2
:10365800017A01F0030142EA41229A81427A017A11
:1036680002F01F02920142EA9102DA81827A417ADB
:10367800D20042EA5112017B1A82C27A01F0070194
:1036880042EA01225A82427B017B02F03F02520148
:1036980042EAD1029A82417B827B920042EA9112ED
:1036A800C17B01F0010142EA8122DA82027CC17BFE
:1036B80002F00F02D20142EA51021A83427C017CD5
:1036C80002F07F02120142EA11125A83827C417C85
:1036D800520042EAD112C17C01F0030142EA4122C0
:1036E8009A83027DC17C02F01F02920142EA910294
:1036F800DA83427D017DD20042EA51121A84704772
:103708000E1D002038B50D4604464FF08C41286840
:10371800FDF794FAFDF76EFC4FF08C41206768685E
:10372800FDF78CFAFDF766FC4FF08C416067A868DE
:10373800FDF784FAFDF75EFCA06738BD0322094B4C
:10374800D3F82C11013AC3F8F010D3F8301103F56F
:10375800B47343F8741C53F8341C43F8701CEFD14D
:10376800704700BFB81D002070B503460D4686B0EF
:1037780001AC00F11006224618685968083303C2E4
:10378800B3421446F7D100240C268DF814400835AE
:1037980006FB04F301A8E958FCF742FD10B920B272
:1037A80006B070BD0134E22CF2D14FF0FF30F7E7DC
:1037B80038B50C4C0546627E482A0CD804F1240121
:1037C8001EF014F8607E0021C0F149022844BDE8CB
:1037D80038401DF0AFBF04F124014922BDE838404C
:1037E8001EF004B85018002038B50C4C0546627E0F
:1037F800842A0CD804F124011DF0F8FF607E002112
:10380800C0F185022844BDE838401DF093BF04F19B
:1038180024018522BDE838401DF0E8BF501800207B
:1038280038B50C4C0546627EFD2A0CD804F12401FB
:103838001DF0DCFF607E0021C0F1FE022844BDE8D7
:1038480038401DF077BF04F12401FE22BDE838405E
:103858001DF0CCBF5018002070B5114D04466A7E8B
:10386800202A0CD805F124011DF0C0FF687E002134
:10387800C0F121022044BDE870401DF05BBF034643
:1038880005F124064435324603CAAA421860596035
:10389800164603F10803F6D112781A7070BD00BFFE
:1038A8005018002038B5124D04466A7E222A0CD8DA
:1038B80005F124011DF09AFF687E0021C0F1230262
:1038C8002044BDE838401DF035BF034605F1240209
:1038D8004435144603CCAC4218605960224603F1C3
:1038E8000803F6D12188A27819809A7038BD00BFE4
:1038F8005018002070B5114D04466A7E292A0CD84C
:1039080005F124011DF072FF687E0021C0F12A0232
:103918002044BDE870401DF00DBF034605F12406A4
:103928004C35324603CAAA4218605960164603F15C
:103938000803F6D112881A8070BD00BF5018002005
:1039480038B5134D04466A7E162A0CD805F12401B1
:103958001DF04CFF687E0021C0F117022044BDE82D
:1039680038401DF0E7BE034605F1240234351446FD
:1039780003CCAC4218605960224603F10803F6D123
:1039880020681860A188A27999809A7138BD00BF13
:103998005018002070B5114D04466A7E132A0CD8C1
:1039A80005F124011DF022FF687E0021C0F11402F8
:1039B8002044BDE870401DF0BDBE034605F1240655
:1039C8003435324603CAAA4218605960164603F1D4
:1039D8000803F6D11068186070BD00BF50180020A9
:1039E8002DE9F74304460D46914601F10A0200F11C
:1039F8000A06024412F8011D19B9013DEDB2012D64
:103A0800F8D1FD22227000226570A270E2709A7AC5
:103A18001FFA85F8227101329A724FF6FF73671CFC
:103A2800ADF80630BE4219D14646013E17F8011BD3
:103A38000DF10600B6B2FFF70DFD002EF5D149468F
:103A4800FFF708FDBDF806302C4408F10C00A372FE
:103A580080B21B0AE37203B0BDE8F08317F8011BBC
:103A68000DF10600FFF7F6FCDCE74FF0007370B5C8
:103A780093FAA3F3B3FA83F301F00074DC400C303B
:103A88004FF0F87250F8245001F0F87192FAA2F34E
:103A9800B3FA83F392FAA2F20726B2FA82F221FA73
:103AA80003F306FA03F3D14025EA03038E403343B8
:103AB80040F8243070BD000040280FD8102813D0DB
:103AC800012814BF0622002208480949805C0A22FE
:103AD8000B6A824023EA02030B627047B0F5807FCD
:103AE80014BF06220422EFE70222EDE7F65D020882
:103AF80000340140064B034413F8013C03F18043B2
:103B080003F501331A6822F001021A60704700BFFA
:103B1800A2460208002317202DE9F0412B4C2C4E19
:103B2800216A84F8393184F83A31C1F317011A1837
:103B38000132520856F83250C5F31705A94203D28C
:103B4800501E9842F3D801E01346FAD856F83320AD
:103B5800C2F31702914235D106EBC305EF781D4831
:103B680039464FEAC308FFF775FCA289B4F8243137
:103B78009A4229D1627E2D79AA4206D202F1240006
:103B88000021AA1A20441DF0D5FD06EB08035A7936
:103B9800D10741BF9B791B1993F8243084F8393138
:103BA800930706D54644F379234493F8243084F8E0
:103BB8003A31022384F83B7184F83C5184F8383157
:103BC800BDE8F0810323F9E70523F7E75018002043
:103BD8009C6802085C180020F8B57B4C0646E38810
:103BE800B3F58C7F0FD3002323710023E380F31CEC
:103BF800DBB2012B03D801232676E3802371002052
:103C080084F83801C9E022790D2A00F2D88001A190
:103C180051F822F0F33B0008553C00088D3C0008A1
:103C2800A93C0008B93C0008CB3C0008DD3C000872
:103C3800EF3C00080D3D00082D3D0008513D0008EF
:103C4800753D0008813D0008B33D00080133E3805D
:103C58004FF6FF73014660765C48A381FFF7FAFBD5
:103C6800237EB0B2FD2B05D10A230C30238160815D
:103C78000223C3E70023638306230830238160817E
:103C88000423BBE701330146A0765048E380FFF7E1
:103C9800E1FBF30742BF63890D3363810323ADE77B
:103CA8000146E07601334948E380FFF7D3FBE7E7B5
:103CB8000133014620774548E380FFF7CBFB052316
:103CC8009CE70133014660774048E380FFF7C2FB79
:103CD800062393E701330146A0773C48E380FFF7CA
:103CE800B9FB07238AE7226A013360F3170201460A
:103CF8003648E3802262FFF7ADFB237EFD2B1FD100
:103D080008237BE7226A0133C2F3170101EB002184
:103D180061F3170201462D48E3802262FFF79AFB00
:103D280009236BE7226A0133C2F3170101EB004153
:103D380061F31702014625482262E380FFF78AFBF8
:103D48000A23237101205BE727890146DA1B2244F5
:103D580001339DB282F824001C48E580FFF77AFB06
:103D6800637E3B449D42EDDB0B23EAE70133E380AE
:103D7800A4F824010C23E4E7B4F82421013302EB6E
:103D88000022A07EA4F8242110F00100E38005D0D1
:103D98000D232371012384F83831F8BDE0802071A8
:103DA800FFF7B8FE94F83801F7E7628901339BB250
:103DB8009A42E380C6D80023E3802371F0E700200D
:103DC8002071E080A0601BE7501800205C180020DC
:103DD8000549CB681A04DB4302F0004203F40043B0
:103DE80013430B61704700BF000C01400A4B5A6A2D
:103DF80011010DD45A6AD2000CD45A6A12F0806F9D
:103E080014BF032004205A6A42F080725A62704735
:103E18000120F8E70320F6E700100240244B10B514
:103E28005B68244C23601CF03BF923481CF01CFE03
:103E380022481CF019FE22481CF016FE21481DF0ED
:103E48007DF921481DF07AF920481DF077F92048BE
:103E58001DF074F91F481DF071F91F481CF078FF18
:103E68001E481CF075FF1CF0E9FE4FF0E02200230D
:103E78001B491361536193614A6822F003024A6047
:103E880072B64FF0FF319A0002F16042013302F539
:103E98006142082BC2F88010C2F88011F3D162B6D3
:103EA800034B1B6883F3088823689847FEE700BF25
:103EB80000F0FF1FD80A002000080140000C014054
:103EC8000010014000380140004400400048004014
:103ED800004C00400050004000300140003C0040D1
:103EE80000100240028810B58488531C234044887F
:103EF8009C4217BF84680020A154038018BF01208A
:103F080010BD438802889A4209D08268D35C0B703E
:103F18004388828801331340438001207047002082
:103F28007047034602884188521A90B2120441BF72
:103F38009B880133C01880B27047028810B5848806
:103F4800531C234044889C4217BF8468002024F8EF
:103F58001210038018BF012010BD438802889A42BE
:103F68000AD0826832F813300B8043888288013384
:103F780013404380012070470020704703460288A1
:103F88004188521A90B2120441BF9B880133C0186D
:103F980080B2704730B5302442F20F75A84212D86B
:103FA8000C703021B0F57A7F14D21170302263285A
:103FB80016D81A703023092817D8039A303013708E
:103FC800049B187030BDA0F51C5001341038E4B2C1
:103FD80080B2E3E70131A0F57A70C9B280B2E1E7B7
:103FE80001326438D2B280B2E1E701330A38DBB279
:103FF80080B2E0E770B53024314D324EA84232D855
:104008000C703021304C314DA04230D81170302224
:104018002F4988422FD21A7030232E4A90422ED828
:10402800049A137030232C4A90422FD8059A1370A3
:10403800302342F20F7290422ED8069A1370302322
:10404800B0F57A7F2ED2079A1370302363282ED8C2
:10405800089A1370302309282DD8099A3030137024
:104068000A9B187070BD0134E4B23044C6E70131D0
:10407800C9B22844C8E70132D2B2401AC9E70133AD
:10408800A0F57420DBB2A0F51070C7E70133A0F5E6
:10409800C330DBB2A038C7E70133A0F51C50DBB250
:1040A8001038C8E70133DBB2A0F57A70C8E70133EE
:1040B800DBB26438CAE70133DBB20A38CBE700BFAA
:1040C800FFC99A3B003665C4FFE0F505001F0AFAF0
:1040D800809698003F420F009F86010013B5002884
:1040E800B4BF2D2220220B46B8BF404203F8032B51
:1040F80001F10502B8BF00B201920A1D0C460092F8
:1041080080B28A1C0131FFF745FF0023A37102B07A
:1041180010BD0028B4BF2D2220220B4610B503F88D
:10412800032B88B001F10A02069201F109020592F7
:1041380001F10802049201F10702039201F106025B
:10414800029201F10502019201F104020C4600926B
:10415800B8BF40428A1C0131FFF74CFF0023E372CD
:1041680008B010BD0A2230B501231446824207D98F
:104178000A245A1E12B2150406D50022CA5430BDAC
:10418800013362439BB2F1E7B0FBF4F504FB150081
:10419800303088542846013AEDE70120FFF740B84F
:1041A8000D4B984202D10420FFF73AB80B4B9842C6
:1041B80005D003F58063984203D11020F4E7082066
:1041C800F2E7074B984201D12020EDE7054B9842D2
:1041D80000D070474020E7E700080140000C01408C
:1041E800001401400018014008B51B4B01469842D5
:1041F80008D14FF40060FFF713F8184B99420AD121
:10420800102024E0B0F1804F0AD0154B98420BD112
:104218000220FEF7F7FF134B99420BD1202016E03E
:104228000120FEF7EFFFE8E70F4B98420BD104207F
:10423800FEF7E8FF0D4B99420DD1BDE808404FF459
:104248000050FEF7EDBF0A4B9842D6D10820BDE8D2
:104258000840FEF7D7BF08BD002C01400010004001
:1042680000040040001400400008004000340140F1
:10427800000C00402DE9F0410C46154686B0074673
:104288001022002102A81E469DF834801DF052FA23
:1042980001940B2D07D8DFE805F00E0E070A141459
:1042A800141616161B1DFEE70823029303E00823C5
:1042B800029301230593032E0ED8DFE806F01E2093
:1042C8000E1E0123F1E70123029304230493F2E76E
:1042D8000923EAE70923F7E7FEE701230393B8F187
:1042E800000F02D03846FFF75BFF053D042D0BD8C1
:1042F800DFE805F007110A0711000323EEE70223A0
:10430800ECE7C4F30F247C61384601A91CF010FCCB
:1043180006B0BDE8F081C4F30F243C61F4E713B59F
:104328004FF0010C0024CDE9004CFFF7A3FF02B0C9
:1043380010BD13B50124CDE900349DF81030FFF706
:1043480099FF02B010BD000007B5082300220549F7
:10435800CDE90032044803230A22FFF78BFF03B09C
:104368005DF804FB04000404000C014070B5002350
:10437800164686B004460D46ADF80630FFF734FF02
:10438800042E04D8DFE806F02A2E04323B00FEE7AC
:104398001C4B1D4A1B68B3FBF2F39BB20022013B86
:1043A800204601A9ADF80430CDE902250492059212
:1043B8001CF030FD236823F080032360A36823F4F6
:1043C800804323F00703A360636823F070036360EE
:1043D800A36823F08003A36006B070BD094B0B4AA5
:1043E8001B68D8E7074B0A4A1B68D4E7054B074AFE
:1043F8001B68B3FBF2F303EB83035B00CDE70123F8
:10440800CCE700BFC401002080A8120140420F0081
:1044180000127A0000224FF0FF31FFF7A7BF10B556
:104428000446FFF7A3FF236843F00103236010BD90
:1044380000224FF0FF31FFF7F2BF00000C4BD3F81A
:10444800FC2022F08072C3F8FC20D3F8FC2042F054
:104458008072C3F8FC20A3F55D431A6822F00102BC
:104468001A601A6842F001021A6000225A60704706
:1044780000ED00E0064B074A1B680749B3FBF2F35F
:10448800434310B54C684A68121B9A42FBD310BDCF
:10449800C401002040420F00001000E0034B1873D5
:1044A8009A68D207FCD5187B704700BF003C0040D3
:1044B80070B5204C8CB00E46ADF8060001212046A0
:1044C80015461CF027FA022120461CF023FA142274
:1044D80000210DEB02001DF02DF9174B02AA0293E3
:1044E8004FF480530B9310230221049320460DF1BF
:1044F8000603013503930A951CF086FA0023CDE9DB
:104508000363802302AA0121204607931CF07CFA4A
:1045180020460121FEF7DCFE0221FEF7D9FE074BFB
:104528005A6842F001025A605A680A435A600CB04D
:1045380070BD00BF000402400C3C0040003C00403D
:1045480008B50B4B186810F0020010D0A3F5E4333F
:104558005A68012022F001025A605A6822F00202C9
:104568005A60FFF7C7FA0220FFF7C4FA012008BD16
:1045780000040240431E062B9ABFC00008383820AA
:104588007047000008B5FFF7F5FF034A136823F0EA
:1045980038030343136008BD003C004070B58CB07D
:1045A8002822002102A81DF0C5F8FFF7F6FD4FF4F8
:1045B8000040FEF727FE324A324C5368204623F06B
:1045C800E06343F0007353602F4903230622FFF78B
:1045D800A6FE4FF400432361032406230A2240F673
:1045E80008012A480094FFF7A4FE06230A2242F293
:1045F800200126480094FFF79CFE2246062341F23C
:10460800100122480094FFF794FE30234FF4827281
:104618000893002302250126CDE90232CDE90933AA
:104628004FF4007204930723194C02A920460792FD
:104638000B93CDE905561CF0BDFB6368304623F0AB
:10464800010363606368314623F002036360FFF788
:1046580051FA2846FFF74EFA0E481CF05BF9294636
:104668000C481CF057F92846FEF7BEFD236843F0B6
:1046780040032360A3689B07FCD5E3680CB070BDBA
:10468800000001400008014080008004000C014047
:10469800003C0040000402404FF080431A69920732
:1046A8000DD56FF002021A615A6B02F2DC525A639E
:1046B8000122034B1A80034A1368013313607047C1
:1046C8006C220020282F002010B50024194B88B038
:1046D8001C80194B4FF080401C60FFF79BFE214661
:1046E8001C2201A81DF026F830234FF080440093C7
:1046F800636A6A4603F57A730121204603931CF026
:10470800D5FB01212046FEF7EFFDF0220B4B83F885
:104718001C234FF080521A606FF002032361E36894
:1047280043F00203E360236843F00103236008B009
:1047380010BD00BF6C220020282F002000E100E0FF
:10474800264B30B41A6812F0200F02F0080424D067
:10475800DB689D0621D51CB121490B6801330B602C
:10476800500748BF1F49204D48BF0B681F4844BF2A
:1047780001330B60910741BF1D490B6801330B6082
:10478800164B59682B8800880133DBB280B29842F7
:104798001FBF1848C9B2C1542B800CB10F4B5B68BE
:1047A800120616D50D48C3681B0612D5124B134ABC
:1047B8001988138889B29BB299420CD013880133A7
:1047C800C3F30803138013880D4A9BB2D35CDBB292
:1047D800436030BC704730BCFEF76DBD004C0040F4
:1047E800E8420020E4420020EE430020EC43002091
:1047F800E0420020EC420020F2450020F045002075
:10480800F04300200A490B4A08B50B881288013387
:10481800C3F3080392B29A4207D0074AD054074814
:104828000B80FEF721FD012008BD0020FCE700BF3A
:10483800F2450020F0450020F0430020004C0040E5
:104848000548064972B602880B8892B29BB262B6D6
:104858009A42F7D1704700BFF2450020F04500208A
:1048680070B5154C8AB005460E46204605211CF049
:1048780051F81422002103A81CF05CFF0F4B6A4674
:1048880000934FF44053CDE908631023CDE9015359
:1048980080230521204605931CF0B6F80122084B19
:1048A80005211A8020466FF04002064B1A600AB0B4
:1048B800BDE87040FEF70CBD00040240044C004007
:1048C8000C1D0020004C00400848094A0188138844
:1048D80089B29BB29942F9D013880133DBB21380B5
:1048E8001388044A9BB2D05C704700BFEE43002097
:1048F800EC430020EC420020002300B589B0CDE94C
:104908000633CB1A18BF01231B03CDE902320C234F
:1049180001900491034801A905931CF05FFC09B0BC
:104928005DF804FB004C004010B5064CE36823F426
:104938000053E360FFF7E0FFE36843F40053E360EC
:1049480010BD00BF004C004000221146FFF7ECBF2D
:1049580037B5384C0325E368374923F40053E3603F
:10496800FFF71BFC4FF40020FEF74CFC00F18040E1
:1049780000230A22A0F5DE200095FFF7DAFC0023C9
:104988002A462E492E480095FFF7D3FC00222D48D1
:104998001146FFF7B1FF10222046FEF74FFC2A4BC5
:1049A80083F834234FF480125A60FEF784FCFEF734
:1049B80075FC6FF0400323600024244B1C80244BBB
:1049C8001C80FEF75EFC6FF020030360214B022081
:1049D8001C80214B4FF040211C80204B1C60204B39
:1049E8001C60204B1C60FEF7FFFB01F6144353E8E4
:1049F800003F43F0800301F6144040E80032002AEB
:104A0800F3D1194B1A800B4B1A6922F400621A6110
:104A18005A6922F008025A611A6922F480421A611E
:104A28005A6922F022025A61DA6842F40052DA60C6
:104A380003B030BD004C0040040004040800080422
:104A48000010014080841E0000E100E0F0450020D5
:104A5800F2450020EC430020EE430020E442002011
:104A6800E0420020E84200200C1D002008B5FFF7B6
:104A78006FFF6FF02003034803604368BDE80840F8
:104A8800FEF7E5BB004C00401C4B10B41A689406B6
:104A980011D5D96888060ED5194C1A485968238843
:104AA80000880133C3F3080380B298421FBF164839
:104AB800C9B2C1542380110744BF104B5B6812066A
:104AC80016D50E48C3681B0612D5104B104A198814
:104AD800138889B29BB299420CD013880133C3F36F
:104AE8000803138013880B4A9BB2D35CDBB2436084
:104AF80010BC704710BCFEF7DEBB00BF0038014099
:104B0800F6470020F4470020F4450020FA49002029
:104B1800F8490020F84700200A490B4A08B50B88D5
:104B280012880133C3F3080392B29A4207D0074AA6
:104B3800D05407480B80FEF797FB012008BD0020E2
:104B4800FCE700BFFA490020F8490020F847002098
:104B58000038014038B504464518AC4200D138BD8C
:104B680014F8010BFFF7D8FFF7E700000848094AD7
:104B78000188138889B29BB29942F9D0138801330E
:104B8800C3F3080313801388034A9BB2D05C7047B1
:104B9800F6470020F4470020F4450020002300B524
:104BA80089B0CDE90633CB1A18BF01231B03CDE921
:104BB80002320C2301900491034801A905931CF0CB
:104BC8000DFB09B05DF804FB0038014010B5064C38
:104BD800E36823F40053E360FFF7E0FFE36843F47E
:104BE8000053E36010BD00BF0038014000221146A9
:104BF800FFF7ECBF73B50325294C2A4EE3682A4911
:104C080023F40053E360FFF7C8FA4FF48040FEF73F
:104C180007FB304608230A220095FFF78AFB082382
:104C28002A46304621490095FFF783FB00224FF4BE
:104C3800E1301146FFF7B2FFF0222046FEF7FEFAF8
:104C48001B4B83F8252320225A60FEF734FBFEF71E
:104C580025FB6FF0400323600024164B1C80164B85
:104C68001C80FEF70EFB6FF020030360134B1C80C3
:104C7800134B1C80036923F400630361436923F029
:104C880008034361036923F480430361436923F004
:104C980022034361C36843F40053C36002B070BD8C
:104CA8000038014000080140020002040400040426
:104CB80000E100E0F8490020FA490020F44700200C
:104CC800F647002008B5FFF795FF6FF0200303486B
:104CD80003604368BDE80840FEF7B9BA00380140F0
:104CE8001C4B10B41A68940611D5D96888060ED5DD
:104CF800194C1A485968238800880133C3F30803FC
:104D080080B298421FBF1648C9B2C1542380110708
:104D180044BF104B5B68120616D50E48C3681B06C5
:104D280012D5104B104A1988138889B29BB2994240
:104D38000CD013880133C3F30803138013880B4A7C
:104D48009BB2D35CDBB2436010BC704710BCFEF76B
:104D5800B2BA00BF00500040D23E0020D03E002032
:104D6800D03C0020D6400020D4400020D43E002073
:104D78000A490B4A08B50B8812880133C3F30803A4
:104D880092B29A4207D0074AD05407480B80FEF7E0
:104D98006BFA012008BD0020FCE700BFD6400020C8
:104DA800D4400020D43E0020005000400848094A62
:104DB8000188138889B29BB29942F9D013880133CC
:104DC800C3F3080313801388034A9BB2D05C70476F
:104DD800D23E0020D03E0020D03C0020002300B569
:104DE80089B0CDE90633CB1A18BF01231B03CDE9DF
:104DF80002320C2301900491034801A905931CF089
:104E0800EDF909B05DF804FB0050004010B5064C00
:104E1800E36823F40053E360FFF7E0FFE36843F43B
:104E28000053E36010BD00BF00500040002211464F
:104E3800FFF7ECBF37B52C4C0325E3682B4923F467
:104E48000053E360FFF7A9F94FF48010FEF7DAF991
:104E580000F1804000230A220095A0F56F20FFF79B
:104E680068FA00232A4640F2044121480095FFF7DA
:104E780060FA00224FF4E1301146FFF7AFFFF0224D
:104E88002046FEF7DBF91B4B83F835234FF400125D
:104E98005A60FEF710FAFEF701FA6FF0400323603C
:104EA8000024154B1C80154B1C80FEF7EAF96FF0A7
:104EB80020030360124B1C80124B1C80036923F4EF
:104EC80000630361436923F008034361036923F422
:104ED80080430361436923F022034361C36843F4B9
:104EE8000053C36003B030BD0050004010001004F0
:104EF8000014014000E100E0D4400020D64000202A
:104F0800D03E0020D23E002008B5FFF793FF6FF097
:104F18002003034803604368BDE80840FEF797B9DB
:104F2800005000401C4B10B41A68940611D5D9687B
:104F380088060ED5194C1A48596823880088013309
:104F4800C3F3080380B298421FBF1648C9B2C154C0
:104F58002380110744BF104B5B68120616D50E4814
:104F6800C3681B0612D5104B104A1988138889B2DA
:104F78009BB299420CD013880133C3F30803138002
:104F880013880B4A9BB2D35CDBB2436010BC7047FA
:104F980010BCFEF790B900BF00440040FE4B002053
:104FA800FC4B0020FC490020024E0020004E00204F
:104FB800004C00200A490B4A08B50B8812880133B7
:104FC800C3F3080392B29A4207D0074AD05407485D
:104FD8000B80FEF749F9012008BD0020FCE700BF5F
:104FE800024E0020004E0020004C002000440040EB
:104FF8000848094A0188138889B29BB29942F9D0B6
:1050080013880133C3F3080313801388034A9BB240
:10501800D05C7047FE4B0020FC4B0020FC49002070
:10502800002300B589B0CDE90633CB1A18BF012398
:105038001B03CDE902320C2301900491034801A916
:1050480005931CF0CBF809B05DF804FB0044004060
:1050580010B5064CE36823F40053E360FFF7E0FF64
:10506800E36843F40053E36010BD00BF0044004010
:1050780000221146FFF7ECBF73B503252A4C2B4ECF
:10508800E36840F2044123F40053E360FFF785F836
:105098004FF40030FEF7B6F8304608230A22009590
:1050A800FFF747F908232A46304640F608010095DD
:1050B800FFF73FF900224FF4E1301146FFF7B0FF48
:1050C800F0222046FEF7BAF8194B83F8262340222F
:1050D8005A60FEF7F0F8FEF7E1F86FF0400323603E
:1050E8000024144B1C80144B1C80FEF7CAF86FF088
:1050F80020030360114B1C80114B1C80036923F4AF
:1051080000630361436923F008034361036923F4DF
:1051180080430361436923F022034361C36843F476
:105128000053C36002B070BD004400400008014055
:1051380000E100E0004E0020024E0020FC4B002061
:10514800FE4B002008B5FFF797FF6FF020030348D8
:1051580003604368BDE80840FEF779B800440040A2
:1051680038B54FF40045064C40F080006561FFF704
:1051780095F9FF20FFF792F908700120256138BDE5
:105188000008014038B54FF40045064C00F07F0098
:105198006561FFF783F90846FFF780F9012025616B
:1051A80038BD00BF00080140F7B500270D461E4670
:1051B80014461F70A2B10DF10701FFF7D1FF0128B6
:1051C8000CD1291B00FA04F201319DF80730013A8D
:1051D8008A401A400A41327003B0F0BD3846FBE7F6
:1051E8000120F9E7F7B505460E461C461746EAB111
:1051F8000DF10701FFF7B4FF012815D100FA07F2F6
:10520800F11B0131013A8A408C409DF80710E4B245
:1052180021EA0201144028462143FFF7B3FF431E49
:105228005842584103B0F0BD0020FBE70120F9E7E0
:10523800012307211A466B20FFF7D4BF012303215E
:105248001A466A20FFF7CEBF0023012206216B20F1
:10525800FFF7C8BF0346032202216B20FFF7C2BF36
:1052680001461920FFF78EBF01461920FFF778BFC6
:105278000346032202211A20FFF7B4BF0346032284
:1052880002211A20FFF790BF0346022204211B20A7
:10529800FFF7A8BF0346022204211B20FFF784BFA3
:1052A8000346022204211C20FFF79CBF034602226A
:1052B80004211C20FFF778BF10B5044600F007034F
:1052C800032202211A20FFF78DFFC4F301130222E3
:1052D800BDE8104001211B20FFF784BF13B503224E
:1052E80004460DF1060302211A20FFF75DFF0DF1B8
:1052F8000703022201211B20FFF756FF9DF8063005
:1053080003F00703237002B010BD10B5044600F087
:105318000703032202211D20FFF764FFC4F30013D3
:105328000122BDE8104003211D20FFF75BBF13B524
:10533800032204460DF1060302211D20FFF734FF66
:105348000DF10703012203211D20FFF72DFF9DF812
:1053580007309DF806201B0102F0070203F0100336
:105368001343237002B010BD10B5002414497520F2
:105378000C70FFF7F5FE012814D10B78682B10D0BC
:10538800702B11D0712B11D0732B11D0122B11D07F
:10539800422B11D0472B11D0A3F1DB0253425341CA
:1053A800D80010BD2046FCE70520FAE70220F8E700
:1053B8000720F6E70320F4E70420F2E70620F0E7E9
:1053C800A02A00202DE9F04107460E4615461C4646
:1053D8000A209DF81880FFF74DF83846FFF73AFF86
:1053E8003046FFF751FF2846FFF742FF2046FFF7F8
:1053F80057FF4046FFF734FFBDE8F041FFF724BFF1
:10540800F7B50F460A2016461D46FFF733F80DF18B
:105418000700FFF73FFF9DF807400A20E41B18BF6D
:105428000124FFF727F80DF10700FFF727FF9DF884
:1054380007306400B3424FF00A0018BF44F0040478
:10544800FFF718F80DF10700FFF730FF9DF8073058
:105458000A20AB4218BF44F00804FFF70BF80DF11F
:105468000700FFF701FF9DF807209DF820309A42BA
:1054780018BF44F01004204603B0F0BD2DE9F843EE
:1054880007460E4615461C460A209DF820909DF8B2
:105498002480FEF7EFFF3846FFF7DCFE3046FFF7C3
:1054A800F3FE2846FFF708FF2046FFF7F9FE4846B7
:1054B800FFF72BFF4046FFF7D3FEBDE8F843FFF7A1
:1054C800C3BEF7B50F460A2016461D46FEF7D2FFA3
:1054D8000DF10700FFF7DEFE9DF807400A20E41BE8
:1054E80018BF0124FEF7C6FF0DF10700FFF7F6FE0F
:1054F8009DF807306400B3424FF00A0018BF44F02B
:105508000404FEF7B7FF0DF10700FFF7CFFE9DF883
:1055180007300A20AB4218BF44F00804FEF7AAFF80
:105528000DF10700FFF7A0FE9DF807209DF8243035
:105538000A209A4218BF44F01004FEF79BFF0DF1B1
:105548000700FFF7F4FE9DF807209DF820309A42E7
:1055580018BF44F02004204603B0F0BD73B50546DB
:105568000C4616460DF10701FFF7FAFD28469DF88F
:10557800073004EA0301314302B0BDE87040FFF789
:1055880001BE2DE9F0471446064688461D4601210E
:1055980011209DF820909DF824A09DF82870FFF711
:1055A800F1FD42F21070FEF765FF0022C0214E2087
:1055B800FFF7D4FF0A20FEF75DFF0522F82113202C
:1055C800FFF7CCFF0A20FEF755FF0322FC214C20F1
:1055D800FFF7C4FF40223F214D20FFF7BFFF0A20FD
:1055E800FEF748FF0F22C0214E20FFF7B7FF4FF408
:1055F8007A70FEF73FFF04F00F040A20FEF73AFF27
:1056080044EA4612102102F0EF024F20FFF7A6FFEE
:105618000A20FEF72FFF44EA4812102102F0EF0299
:105628005020FFF79BFF0A20FEF724FF4FEA8A026B
:10563800F32102F00C025120FFF790FF0A20FEF739
:1056480019FF05F00F0242EA0912FF21D2B25220D7
:10565800FFF784FF0A20FEF70DFFFA00E721BDE8F7
:10566800F047532002F01802FFF778BF2DE9FF41F9
:10567800002306460A2403800A20FEF7FBFEFFF7F4
:1056880073FE80B2308038B9013CA4B2002CF3D14B
:10569800002004B0BDE8F0810A2500240127DFF8C6
:1056A8008C803388082B2FD807FA03F313F0A40251
:1056B80010D113F4A87F27D00123009218460622A0
:1056C8000221CDE90177FFF75CFF1848FEF7D2FE0B
:1056D8000320DEE70123002202210320CDE9004454
:1056E800FFF7CCFE4046FEF7C5FE0123002202214B
:1056F8000320CDE90044FFF7E4FE0028E8D0013D8F
:10570800ADB2002DCDD1C3E7012300220221032031
:105718000094FFF757FE4046FEF7ACFE0123002237
:10572800022100940320FFF76BFEE6E7A086010044
:105738006422B0F9003053434FF4AA7293FBF2F39A
:1057480003F64563038070476422B0F90030534381
:105758004FF4AA7293FBF2F303F634030380704705
:1057680042F21072B0F9003053434FF44F5293FB9A
:10577800F2F303F6C4130380704700002DE9F843E1
:1057880081464CF250300E4617461D461AF07AFDF7
:1057980088BBB9F1010F06D0B9F1020F0CBF4FF069
:1057A80002094FF004094FF00008144A136943F046
:1057B800010313614FEA0814C4F12002A4F1200385
:1057C80005FA02F227FA04F4144325FA03F31C43FA
:1057D800A4B24CF2503026F818401AF053FD28B9FC
:1057E80008F101085FFA88F39945E3D8034A136979
:1057F80023F001031361BDE8F88300BF00200240D5
:105808007FB501230022CDE9040301A902A8CDE94F
:1058180002231AF073FD00280CBF0420052007B0EE
:105828005DF804FB0A4608B5014600230220FFF78D
:10583800A5FF00280CBF0420052008BD08B5FFF708
:10584800DFFF031F5842584108BD08B5FFF7EAFFBC
:10585800031F5842584108BD2DE9F047264B274DF4
:1058680001280FBFFB26FA26AA461D460F461446F6
:105878002349244A06BF89469A4691461AF0E6FC0F
:1058880031462846FFF7DAFF28B900241AF0F0FC61
:105898002046BDE8F087002F08BF4FF4FC644FF0A6
:1058A80000080334C4F38F0405F11006AAEB050AB7
:1058B8001FFA88F39C4209D84FF011312846FFF7A8
:1058C800C4FF041E18BF0124A400DFE73FB95AF83B
:1058D80006104B1C06D108F101080436E8E757F812
:1058E8002810F6E74E4505D23046FFF7AEFF0028F0
:1058F800F1D1CAE70324C9E700D0070800D8070890
:10590800FFDF0708FFD7070810B51AF09FFCFA2138
:105918000848FFF793FF044638B1FB210648FFF714
:105928008DFF041E18BF0124A4001AF0A1FC204614
:1059380010BD00BF00D0070800D8070830B5002305
:1059480040F2EF74064D9AB2914201D8042030BD5E
:10595800A34203D05A5DC2540133F4E70320F6E7AB
:1059680010D0070838B504460D4672B60A460146F7
:105978000020FFF771FF62B6042806D172B6012035
:105988002A462146FFF768FF62B638BD38B5124B84
:105998001C68D3F80058B4F1113F09D1B5F1113F93
:1059A80017D0002201201146BDE83840FFF754BF48
:1059B800B5F1113F03D1002211461046F4E7FFF775
:1059C800A3FF042804D12C4001340CBF022001207D
:1059D80038BD0420FCE700BF00D0070872B64FF0BE
:1059E80080435B6A99B262B6054A9BB290889180FF
:1059F8008842106884BF0130106003EB0040704794
:105A0800080B00204FF0804300215A6A014B1960AF
:105A18009A807047080B002013B514461A460023D5
:105A280000932346FEF785FC02B010BD1FB5002386
:105A3800CDE902334FF4803300926A4601931BF09C
:105A48000DFB05B05DF804FB10B50A4C02230522D6
:105A580044F240010848FFF7DFFF022201212046F7
:105A6800FFF7E4FF6FF002032361E36843F00203EA
:105A7800E36010BD003401400010014030B589B02A
:105A880004460D461C22002101A81BF053FE3023BA
:105A98000093636A6A4603F51C531033294620466F
:105AA80003931BF003FA29462046FDF71DFC09B0B5
:105AB80030BD000010B50A4C0523002209490A48E8
:105AC800FFF7AAFF4FF480512046FFF7D7FF6FF08A
