:020000040800F2
:10000000008000209D3B0008753B0008773B0008FE
:10001000793B00087B3B00087D3B000800000000A6
:100020000000000000000000000000007F3B00080E
:10003000813B000800000000833B0008853B00086E
:10004000ED3B0008ED3B0008ED3B0008ED3B0008F0
:10005000ED3B0008ED3B000805200008ED3B0008E3
:10006000ED3B0008ED3B0008ED3B0008ED3B0008D0
:10007000AD200008ED3B0008ED3B0008ED3B00081B
:10008000ED3B000800000000ED3B0008ED3B0008E0
:10009000ED3B0008ED3B0008ED3B0008ED3B0008A0
:1000A000ED3B0008ED3B0008ED3B0008ED3B000890
:1000B000ED3B00086D150008090D0008ED3B000838
:1000C000ED3B0008ED3B0008ED3B0008ED3B000870
:1000D000ED3B0008F90A0008ED3B0008ED3B000885
:1000E000ED3B0008ED3B0008ED3B0008ED3B000850
:1000F000ED3B0008ED3B0008ED3B00080000000070
:1001000000000000ED3B000800000000ED3B00088F
:10011000ED3B000800000000ED3B0008ED3B00084F
:10012000ED3B0008ED3B0008ED3B0008ED3B00080F
:10013000ED3B00080000000000000000ED3B00085F
:10014000ED3B0008ED3B000800000000000000004F
:10015000000000000000000000000000000000009F
:10016000000000000000000000000000ED3B00085F
:10017000ED3B00080000000000000000000000004F
:1001800000000000ED3B000800000000000000003F
:10019000000000000000000000000000000000005F
:1001A0000000000000000000ED3B0008ED3B0008EF
:1001B000ED3B0008ED3B0008ED3B000800000000AF
:1001C00000000000ED3B00080000000000000000FF
:0801D000ED3B0008ED3B0008C7
:1001D80010B5054C237833B9044B13B10448AFF379
:1001E80000800123237010BD3000002000000000B3
:1001F8005055000808B5034B1BB103490348AFF33A
:10020800008008BD000000003400002050550008A0
:10021800034613F8012B002AFBD1181A013870473E
:10022800054B9A6C02439A649B6C82B0034001931D
:10023800019B02B0704700BF00100240054BDA6C0A
:100248000243DA64DB6C82B003400193019B02B085
:10025800704700BF00100240054B9A6D02439A6533
:100268009B6D82B003400193019B02B0704700BFB1
:1002780000100240054B1A6E02431A661B6E82B0CC
:1002880003400193019B02B0704700BF0010024079
:10029800402910B50FD8012914BF09220022094BA3
:1002A800094C995CA45C183004224358A24023EA04
:1002B8000203435010BDB1F5805F14BF0922062226
:1002C800EDE700BFC1570008CB5700080E4BB3F845
:1002D800012052BA0280B3F8032052BA4280B3F820
:1002E800052052BA8280B3F8072052BA0A80B3F8C0
:1002F800092052BAC280B3F80B2052BA0281B3F86F
:100308000D305BBA43817047840100200E4BB3F86F
:10031800012052BA0A80B3F8032052BA0280B3F817
:10032800052052BA4280B3F8072052BA8280B3F847
:10033800092052BAC280B3F80B2052BA0281B3F82E
:100348000D305BBA4381704784010020F0B5134C2F
:1003580085B006460D466846611805F0E7F8304650
:100368000123002202F110076F4414F8011B17F84B
:10037800107C1F4218BF41F0800100F8011B811B4F
:1003880089B25B008D429BB201D805B0F0BD802BCD
:1003980002BF013292B20123E4E700BFC601002088
:1003A8000A4B0B4A1B680B49A2FB03239B0C03EB6C
:1003B80083025200084B486802F5FA72A3FB023226
:1003C80092094B681B1A9A42FBD870470400002018
:1003D80083DE1B43001000E0D34D621008B5FFF721
:1003E800DFFF4FF0904310229A6208BD054B1B5C5B
:1003F80003F1804303F500331A6822F001021A6002
:10040800704700BFB4570008054B1B5C03F18043DD
:1004180003F500331A6842F001021A60704700BF02
:10042800B4570008074B084A5B6A02F5006353E8B3
:10043800003F43F0200302F5006040E80031002946
:10044800F3D17047003801400030014038B5044608
:10045800FFF7DEFE002283B26BB9EAB983B2013B33
:10046800202091B2994216DA655C302D02F1010222
:1004780011D16054F5E7013B9BB2E15C2E2908BF1E
:100488001A46E9E7655C302D03F1010303D1605496
:1004980099B29142F6DB38BD013A2020F8E703090A
:1004A8009F2800F00F0094BF3033373309280B70B2
:1004B80094BF30303730002348708B70704713B5C5
:1004C80002460C46C0B201A9FFF7E9FF2146100A0F
:1004D800FFF7E5FF9DF80430A3709DF80530E37041
:1004E8009DF80630237102B010BD13B50A460446C4
:1004F80001A9C0B2FFF7D3FF9DF8043093719DF8AE
:100508000530D371C4F30720FFF7C9FF9DF8043005
:1005180013719DF805305371C4F30740FFF7BFFF0F
:100528009DF8043093709DF80530D370200EFFF7C6
:10053800B6FF9DF8043013709DF805305370002302
:10054800137202B010BD2DE9F041069C0E46002141
:100558002170317875295ED17578632D0BD10178BA
:10056800B778682F1BD1632D21460CD1BDE8F04127
:100578000078FFF794BF692D01D10188F0E76C2D51
:1005880044D10168ECE7692D04D1BDE8F041008849
:10059800FFF795BFBDE8F0410068FFF7A6BF2B2F16
:1005A8005AD1A9B32770012017469DB212FA83FECB
:1005B8004FF03008AEEB070C1CF4004F4ED1002B67
:1005C800C5F10005C8BF002503FA85F5002BD4BF87
:1005D800D718171C2DB2BBB20DB101352DB24FF093
:1005E8000A0E98423FD30023A3547A21304604F0E0
:1005F80051FF58B1B3782B2B55D1601CFFF726FF5C
:100608002046FFF705FE012383423FD3BDE8F08172
:1006180020202070C7E77329F8D1717863290DD19C
:1006280090F90010B0782B2814D100290FDA2D206A
:10063800207001200029B8BF4942B5E7692902D1D5
:10064800B0F90010EEE76C29E0D10168EAE708BFCD
:100658002020EDE70020EDE70020A5E7013FBFB22D
:1006680004F80780A6E75F1EBBB214FA87FCD71A06
:10067800AF4209D0B1FBFEF80EFB18173037FFB2B6
:1006880041468CF80070ACE72E27FAE7E25C202A96
:1006980006D02344227803F8012C20232370B5E7E1
:1006A80001339BB2B0E72046FFF7D0FE2046FFF7A4
:1006B800AFFD01238342A9D2E25C202AE9D10133AC
:1006C8009BB2F7E7B0F1904F08B5014607D101207A
:1006D800FFF7B4FD114B99420BD1202014E0104BC9
:1006E80098420BD003F58063984209D10420FFF7A4
:1006F800A5FD0C4B994210D1402005E00220E7E708
:10070800094B984204D10820BDE80840FFF796BD80
:10071800064B9842DED11020F6E708BD00140048C9
:100728000004004800180048000C00480010004869
:1007380008B5224B984201460BD14FF40060FFF7F1
:1007480099FD1F4B99420DD1BDE808402020FFF7C5
:1007580083BDB0F1804F0ED01A4B98420FD10220C2
:10076800FFF77AFD184B99420FD14FF40050BDE8BE
:100778000840FFF77FBD0120FFF76EFDE1E7134B4F
:10078800984208D10420FFF767FD114B99420CD11C
:100798004FF48030EBE70F4B9842D2D11020FFF78F
:1007A8005BFD0D4B994206D008BD0C4B9942F8D120
:1007B8004FF40030DBE74FF48020D8E7002C0140ED
:1007C80000140040000400400034014000080040CC
:1007D8000040014000100040004801400044014032
:1007E80008B501460420FFF71BFD074B994204D1C9
:1007F8000120BDE80840FFF713BD044B994201D121
:100808000220F6E708BD00BF0000024000040240D5
:100818002DE9F04387B00E46054614460021142200
:1008280001A89DF838809DF83C901F4604F02AFEE8
:1008380000960B2C07D8DFE804F007070A121414F7
:10084800141616161A1CFEE70323019301E002236F
:100858000493032F11D8DFE807F0111321110123A6
:10086800F6E70123F1E7012301930393F1E702235C
:10087800EBE7022301930123F7E7FEE70223029344
:10088800B8F1100F0CD8DFE808F02D2D0C11131556
:1008980017191B1D1F21232527292B000123EEE7EC
:1008A800FEE701230593022301931EE00223F9E7E3
:1008B8000323F7E70423F5E70523F3E70623F1E726
:1008C8000723EFE70823EDE70923EBE70A23E9E726
:1008D8000B23E7E70C23E5E70D23E3E70E23E1E726
:1008E8000F23DFE7B8F1000FDDD1032C0FD8144B2D
:1008F8009D4208D1102E01D0402E04D1114A936890
:1009080043F480439360B9F1000F0FD002E0B9F1CE
:10091800000F02D02846FFF7D5FE053C042C05D869
:10092800DFE804F0030B04030B00AE6269462846B7
:1009380004F006F907B0BDE8F083AE61F6E700BF42
:10094800000400480070004013B54FF0010C00246B
:10095800CDE9004CFFF75CFF02B010BD07B54FF0C2
:1009680090400422002382611146CDE9003302231E
:10097800FFF74EFF03B05DF804FB000070B586B0CA
:100988000023164604460D46ADF80630FFF7D0FEA4
:10099800042E04D8DFE806F0303404384100FEE7BE
:1009A8001F4B204A1B68B3FBF2F39BB20022013BAA
:1009B80001A92046ADF80430CDE90225049205923C
:1009C80004F0C0FA236823F080032360A36823F4AB
:1009D800A03323F00703A360636823F0007323F0B8
:1009E80070036360636823F470036360A36823F093
:1009F8008003A36006B070BD094B0B4A1B68D2E7A1
:100A0800074B0A4A1B68CEE7054B074A1B68B3FB2E
:100A1800F2F303EB83035B00C7E70123C6E700BFDC
:100A28000400002080A8120140420F008096980020
:100A38000022FFF7A3BF00224FF0FF31FFF79EBF50
:100A480010B50446FFF79AFF236843F001032360BB
:100A580010BD00000C4BD3F8FC2022F08072C3F8C4
:100A6800FC20D3F8FC2042F08072C3F8FC20A3F5E8
:100A78005D431A6822F001021A601A6842F0010206
:100A88001A6000225A60704700ED00E0064A074BE2
:100A980051681B6810B5064CB3FBF4F35843536810
:100AA8005B1A8342FBD310BD001000E00400002055
:100AB80040420F0072B6064B5B6A9BB262B6054AAB
:100AC80091889380994282BF116801311160704703
:100AD8000008004084000020034B5A6A034B0021A1
:100AE80019609A80704700BF000800408400002009
:100AF8000C4BDA69910611D51A6892060ED50A4888
:100B08000A495A6A038809880133C3F3080389B27A
:100B180099421FBF0649D2B2CA540380014B1F2213
:100B28001A62704700380140C6050020C40500203D
:100B3800C4030020034BDA695206FCD598620120F1
:100B4800704700BF0038014008B5411E11F8010F79
:100B580000B908BDFFF7EEFFF8E70000024AD369C5
:100B68005B06FCD5704700BF003801400848094AB9
:100B78000188138889B29BB29942F9D0138801334E
:100B8800C3F3080313801388034A9BB2D05C7047F1
:100B9800C6050020C4050020C403002070B588B035
:100BA8000C460646154600212022684604F06AFCD9
:100BB800231E18BF01231B03CDE9023569460C2308
:100BC800034801960494059304F0EEFB08B070BD49
:100BD8000038014073B5404C236823F001032360BB
:100BE8004FF4804008250126FFF744FB4FF40071BD
:100BF80003230A224FF09040CDE90056FFF708FE84
:100C080003231A464FF480614FF09040CDE9005617
:100C1800FFF7FEFD002211463048FFF7BFFF63686B
:100C28002F4A23F490436360A36823F02A03A36048
:100C3800236823F00053236002F6080353E8003FBB
:100C480023F0604302F6080040E800310029F3D1A0
:100C580002F6080353E8003F23F0606302F6080039
:100C680040E800310029F3D11E4B202283F82523C8
:100C78005A601B4901F5006353E8003F23F0200345
:100C880001F5006040E80032002AF3D1164B1A80C3
:100C9800164B1A80104B5A6822F400625A609A6800
:100CA80022F008029A605A6822F480425A609A68D0
:100CB80022F022029A609A6842F480529A601A6876
:100CC80042F001021A60DA699102FCD5DA6952022F
:100CD800F9D502B070BD00BF0038014080841E0005
:100CE8000030014000E100E0C4050020C6050020F6
:100CF80008B5FFF76FFFBDE80840FFF793BB00009A
:100D0800094B1A6992070DD56FF002021A615A6BE6
:100D180002F57A725A63054B01221A80044A136855
:100D280001331360704700BF0008004056010020DF
:100D38006802002030B5194B194C00251D80194B4D
:100D480089B020461D60FFF776FE29461C2201A8BF
:100D580004F098FB30230093636A6A4603F57A73BC
:100D680001212046039304F049F901212046FFF7A9
:100D78008FFA0D4BF02283F81E234FF080421A6041
:100D88006FF002032361E36843F00203E360236822
:100D980043F00103236009B030BD00BF56010020B5
:100DA800000800406802002000E100E07FB5012350
:100DB800CDE90413002201A902A8CDE9022303F01A
:100DC800BBF800280CBF0420052007B05DF804FB21
:100DD800014608B5002003F019F800280CBF0420CC
:100DE800052008BD08B5FFF7E1FF031F5842584129
:100DF80008BD08B5FFF7ECFF031F5842584108BD6E
:100E08002DE9F3472A4B2B4D012814462A482B4A33
:100E18000E4617BFAA463D213C211D46019106BF3B
:100E28009A468046904602F0ABFF01992846FFF7A4
:100E3800D9FF30B9002402F0B5FF204602B0BDE862
:100E4800F087002E08BF4FF4FC64073424F0070431
:100E580005F11007B1463444AAEB050AA1450BD1A8
:100E68004FF011324FF0FF332846FFF7C2FF00382A
:100E780018BF01208400DEE76EB90AEB0703D3E947
:100E88000023B3F1FF3F08BFB2F1FF3F06D1083797
:100E980009F10809E2E7D9E90023F2E7B84505D9DD
:100EA8003846FFF7A6FF0028F1D1C3E70324C2E7BD
:100EB80000E0010800E80108FFEF0108FFE701086A
:100EC80010B502F05DFF09483C21FFF78BFF58B1D0
:100ED80007483D21FFF786FF003818BF012084002E
:100EE80002F060FF204610BD0446F9E700E0010863
:100EF80000E8010830B5084D002340F2EF749AB2BB
:100F0800914201D8042030BDA34203D05A5DC25497
:100F18000133F4E70320F6E710E0010813B50A46A9
:100F2800044672B6019101460020FFF769FF62B6D8
:100F38000428019A05D172B601202146FFF760FF07
:100F480062B602B010BD000038B5124B1C68D3F869
:100F58000058B4F1113F09D1B5F1113F17D0002263
:100F680011460120BDE83840FFF74ABFB5F1113FEF
:100F780003D1002211461046F4E7FFF7A1FF042829
:100F880004D12C4001340CBF0220012038BD0420BC
:100F9800FCE700BF00E00108034B18739A68D2070A
:100FA800FCD5187B704700BF0030014006289ABF67
:100FB800014B185C38207047BA570008044A08B536
:100FC800FFF7F4FF136823F038031843106008BDD7
:100FD8000030014070B58CB02822002102A804F02E
:100FE80051FA4FF48050FFF745F9102103230622E8
:100FF8004FF09040FFF7A8FC4FF0904001250624E1
:10100800102383610A22CDE9004503232021FFF73D
:10101800FFFBCDE9004503230A2280214FF09040D1
:10102800FFF7F6FB03231A46CDE9004540214FF0B0
:101038009040FFF7EDFB3823214C08934FF4827260
:101048000023CDE902324FF400720226CDE90933BC
:10105800079207234FF4E06202A9204604920B93FB
:10106800CDE9056503F034FF636823F0100363607E
:10107800636823F008036360636823F00103636017
:10108800636823F0020363602846FFF7AFF9304630
:10109800FFF7ACF929460B4803F04CFB31460948E9
:1010A80003F048FB0748FFF79BFB236843F0400326
:1010B8002360A3689B07FCD5E3680CB070BD00BF34
:1010C800003001400000024038B505460C46FFF7E5
:1010D80085F945F08000FFF75FFFFF20FFF75CFF11
:1010E8004FF09043102220709A61012038BD38B526
:1010F80005460C46FFF772F905F07F00FFF74CFF35
:101108002046FFF749FF4FF0904310229A610120D3
:1011180038BDF7B500270D461E461F701446A2B10C
:101128000DF10701FFF7D0FF01280CD1291B00FAA8
:1011380004F201319DF80730013A8A401A400A4109
:10114800327003B0F0BD3846FBE70120F9E7F7B588
:1011580005460E461C461746EAB10DF10701FFF792
:10116800B3FF012815D100FA07F2F11B0131013A4A
:101178008A408C409DF80710E4B221EA020114402D
:1011880021432846FFF7B3FF431E5842584103B096
:10119800F0BD0020FBE70120F9E701231A460721EB
:1011A8006B20FFF7D4BF01231A4603216A20FFF7FB
:1011B800CEBF0023012206216B20FFF7C8BF0346DC
:1011C800032202216B20FFF7C2BF01461920FFF757
:1011D8008EBF01461920FFF777BF0346032202217D
:1011E8001A20FFF7B4BF0346032202211A20FFF793
:1011F80090BF0346022204211B20FFF7A8BF034625
:10120800022204211B20FFF784BF03460222042187
:101218001C20FFF79CBF0346022204211C20FFF775
:1012280078BF10B500F007030446032202211A20F4
:10123800FFF78DFFC4F301130222BDE8104001211E
:101248001B20FFF784BF13B5032204460DF10603E4
:1012580002211A20FFF75DFF0DF107030222012189
:101268001B20FFF756FF9DF8063003F00703237095
:1012780002B010BD10B500F0070304460322022196
:101288001D20FFF764FFC4F300130122BDE81040DE
:1012980003211D20FFF75BBF13B5032204460DF1A0
:1012A800060302211D20FFF734FF0DF10703012279
:1012B80003211D20FFF72DFF9DF807309DF806201C
:1012C8001B0102F0070203F010031343237002B05E
:1012D80010BD000038B5164C002521467520257034
:1012E800FFF7F2FE012814D12378682B10D0702B59
:1012F80011D0712B11D0732B11D0122B11D0422B7E
:1013080011D0472B11D0A3F1DB0253425341D8002F
:1013180038BD2846FCE70520FAE70220F8E7072051
:10132800F6E70320F4E70420F2E70620F0E700BF21
:10133800840100202DE9F04107460A200E46154693
:101348001C469DF81880FFF7A1FB3846FFF737FFCA
:101358003046FFF74EFF2846FFF73FFF2046FFF7CE
:1013680054FF4046FFF731FFBDE8F041FFF721BFCA
:10137800F7B50A2016461D460F46FFF787FB0DF105
:101388000700FFF73CFF9DF80740E11B18BF01214C
:101398000A204C00FFF77AFB0DF10700FFF723FF47
:1013A8009DF807300A20B34218BF44F00404FFF741
:1013B8006DFB0DF10700FFF72EFF9DF807300A209F
:1013C800AB4218BF44F00804FFF760FB0DF10700BB
:1013D800FFF7FFFE9DF807209DF820309A4218BFBE
:1013E80044F01004204603B0F0BD2DE9F843074649
:1013F8000A200E4615461C469DF820909DF824802C
:10140800FFF744FB3846FFF7DAFE3046FFF7F1FEF8
:101418002846FFF706FF2046FFF7F7FE4846FFF786
:1014280029FF4046FFF7D1FEBDE8F843FFF7C1BEEC
:10143800F7B50A2016461D460F46FFF727FB0DF1A4
:101448000700FFF7DCFE9DF80740E11B18BF0121EC
:101458000A204C00FFF71AFB0DF10700FFF7F3FE17
:101468009DF807300A20B34218BF44F00404FFF780
:101478000DFB0DF10700FFF7CEFE9DF807300A209F
:10148800AB4218BF44F00804FFF700FB0DF107005A
:10149800FFF79FFE9DF807209DF824300A209A4206
:1014A80018BF44F01004FFF7F1FA0DF10700FFF739
:1014B800F3FE9DF807209DF820309A4218BF44F0AB
:1014C8002004204603B0F0BD73B50C460DF10701AA
:1014D80005461646FFF7F8FD9DF8073004EA0301B4
:1014E8003143284602B0BDE87040FFF700BE0388CC
:1014F800642213FB02F34FF4AA7293FBF2F303F690
:101508004563038070470388642213FB02F34FF49A
:10151800AA7293FBF2F303F634030380704703883F
:1015280042F2107213FB02F34FF44F5293FBF2F3A3
:1015380003F6C41303807047084BDA6892070CD48B
:10154800074A012111805A6A10325A636FF0020269
:101558001A61DA6842F00202DA607047000400405B
:1015680020020020314A13699B0710B525D56FF07A
:10157800020313612E4B1B88516B11FA83F35363DB
:101588002C4B198889B2002945D01988013189B2B4
:101598001980198889B2022910D84FF09043042283
:1015A8009A62254A1388013303F03F031380138896
:1015B800224A9BB2D35C224A138010BD198889B293
:1015C8000A290FD81E4B1A8812F0010F4FF09042CB
:1015D8004FF0040114BF916191621A88C2F34E0260
:1015E8001A80EAE7198889B20B294FF090414FF029
:1015F8000400886109D1134A11880F4A128889B2F8
:1016080092B29142D9D00122EAE7D16821F00201D1
:10161800D1600022E4E74FF0904004248461D06850
:1016280020F00200D0601980C7E700BF0004004026
:101638001C02002020020020640200202202002058
:10164800620200206602002009490A4A08B50B8890
:101658001288013303F03F0392B29A4206D0064A39
:10166800D0540B80FFF768FF012008BD0020FCE77D
:1016780066020020640200202202002038B50446D9
:101688004518AC4200D138BD14F8010BFFF7DCFF58
:10169800F7E70000B0F5614F0E4A0F4B0CD0B0F5DC
:1016A800E13F11D0B0F5165F0ED172B640F212418B
:1016B800118040F21B6204E072B6AE2111804FF433
:1016C80082721A8062B6704772B6572111806E22F4
:1016D800F7E700BF1C0200201E020020012807B502
:1016E80004D103B05DF804EBFFF738B90023CDE966
:1016F80000330122022304214FF09040FFF788F8BD
:1017080003B05DF804FB000010B5164C88B0204605
:1017180001224FF0FF31FFF793F92022002168469C
:1017280003F0B0FE6A460121204603F067FC012160
:101738002046FEF7ADFD6FF0020323610A4B30220D
:1017480083F81D234FF000521A604FF4E130FFF781
:10175800A1FF064A00231380054A1380054A138017
:1017680008B010BD0004004000E100E06402002061
:1017780066020020200200201F4B10B51F4C5B683A
:10178800236002F031FA4FF0904003F079F91C48D9
:1017980003F076F91B4803F073F91B4803F0C2FD08
:1017A8001A4803F0BFFD1A4803F0BCFD03F0C2FA63
:1017B8004FF0E022002317491361536193618A684F
:1017C80022F0030242F001028A6072B64FF0FF3144
:1017D8009A0002F1604202F561420133082BC2F817
:1017E8008010C2F88011F3D162B6034B1B6883F3F3
:1017F800088823689847FEE70000FF1F8000002044
:101808000004004800080048003801400044004037
:10181800004800400010024007B508230022CDE927
:1018280000324FF4007103230A224FF09040FEF774
:10183800EFFF012003B05DF804EBFFF727B907B508
:101848000120FFF78BF9FFF721F90023CDE90033D9
:1018580003231A464FF400714FF09040FEF7D8FF6B
:1018680003B05DF804FBF8B5044600F10E07002547
:1018780014F8016B3046FFF75DF9A74285EA0605C3
:10188800F6D108466940FFF755F9BDE8F840C8B2F7
:10189800FFF750B9F8B5002406462546E3B28B4257
:1018A80004D32846BDE8F840FFF744B9375D384609
:1018B800FFF740F97D400134F0E70000094AFF21B5
:1018C80000239180084913609160084A3F21918064
:1018D800074913609160074A012191801380538062
:1018E800704700BF6C0300206C020020B803002082
:1018F80078030020AA00002008B5074B00221A61CF
:10190800C3E90022C3E902229A82FFF7F1F9BDE890
:101918000840FFF7D3BF00BF8C0000200D490E48D8
:10192800CA6808B522F4E0620C4B1204120C134387
:10193800CB60042200230821FFF706F8FFF78AF896
:10194800FFF7DAFFFFF77BFFFFF7C6F8BDE80840AF
:10195800FFF7F0B900ED00E0000400480003FA05C5
:10196800064A138843B1064B51885B6A5B1A9BB2DF
:10197800642B84BF00231380704700BF140200202B
:1019880000080040034B00221A805A809A80DA80AF
:10199800704700BF1402002070B52F4B9B78013BA5
:1019A80086B0032B55D8DFE803F00211314AFFF760
:1019B80033FF2A4B1C782046FFF7BCF8284B1978D0
:1019C8000846FFF7B7F884EA010018E0FFF724FF9C
:1019D8001022002101A803F055FD224901A803F0B7
:1019E8009DFD102401A9002511F8016B013C30462A
:1019F800A4B2FFF79FF87540002CF5D12846FFF7F1
:101A080099F8FFF71CFF012006B070BDFFF704FF2F
:101A18001022002101A803F035FD134901A803F0A5
:101A28007DFD102401A9002511F8016B013C304609
:101A3800A4B2FFF77FF87540002CF5D1DEE7FFF779
:101A4800EBFE0A4B1C7819882046FFF773F8090A41
:101A5800B6E70020D8E700BF580100208201002027
:101A6800A40000208C550008965500084C01002061
:101A780007B503230022009202211846FFF75AFCFB
:101A880003B05DF804FB07B503230022009202218E
:101A98001846FFF76DFC03B05DF804FB07B510238B
:101AA8000022CDE90032032302211846FFF79DFCEE
:101AB80003B05DF804FB07B510230022CDE900321E
:101AC800032302211846FFF7B3FC03B05DF804FBBB
:101AD80008B510213720FFF70AFB0220FEF7D6FFD2
:101AE80001213820FFF703FBBDE808400220FEF77C
:101AF800CDBF08B50022F8217620FFF7E5FC0022CB
:101B0800C0214E20FFF7E0FCBDE808400122E82193
:101B18001120FFF7D9BC08B50A20FEF7B7FF052248
:101B2800F8211320FFF7D0FC0A20FEF7AFFF0322AD
:101B3800FC214C20FFF7C8FC0322F8211420FFF7F2
:101B4800C3FC60228F216420FFF7BEFC082280219D
:101B58006520FFF7B9FC40223F214D20FFF7B4FC78
:101B68000A20FEF793FF0F22C0214E20FFF7ACFC9E
:101B78004FF47A70FEF78AFF0A20FEF787FF2322C8
:101B880010214F20FFF7A0FC0A20FEF77FFFBDE8D9
:101B98000840032210215020FFF796BC13B50A20F5
:101BA800FEF774FF0DF107011320FFF78DFA9DF87A
:101BB80007400A20053C18BF0124FEF767FF0DF116
:101BC80007014C20FFF780FA9DF807300A20332BD5
:101BD80018BF44F00204FEF759FF0DF107014E202B
:101BE800FFF772FA9DF807300A200F2B18BF44F050
:101BF8000404FEF74BFF0DF107014F20FFF764FACD
:101C08009DF807300A20232B18BF44F00804FEF77C
:101C18003DFF0DF107015020FFF756FA9DF80730F8
:101C2800032B18BF44F01004204602B010BD08B5BD
:101C38000022F8217620FFF747FCC0214E20002221
:101C4800FFF742FCBDE8084001211120FFF74FBA19
:101C580010B505220446C0211320FFF735FCB32236
:101C68000C214C20FFF730FC0322C0211420FFF781
:101C78002BFC60228F216420FFF726FC082280219C
:101C88006520FFF721FC00228C216220FFF71CFC55
:101C9800012C19D10422F0214D20FFF715FC224612
:101CA800F8217620FFF710FC0A20FEF7EFFE042249
:101CB800F9217B20FFF708FC76200022F821FFF7A6
:101CC80003FC0A20FEF7E2FE40223F214D20FFF7E9
:101CD800FBFB0F22C0214E20FFF7F6FB4FF47A7072
:101CE800FEF7D4FE232210214F20FFF7EDFBBDE8BD
:101CF8001040032210215020FFF7E6BB13B50A203D
:101D0800FEF7C4FE0DF107011320FFF7DDF99DF87A
:101D180007400A20053C18BF0124FEF7B7FE0DF165
:101D280007014C20FFF7D0F99DF807300A20B32BA4
:101D380018BF44F00204FEF7A9FE0DF107014E207A
:101D4800FFF7C2F99DF807300A200F2B18BF44F09F
:101D58000404FEF79BFE0DF107014F20FFF7B4F9CD
:101D68009DF807300A20232B18BF44F00804FEF71B
:101D78008DFE0DF107015020FFF7A6F99DF80730F9
:101D8800032B18BF44F01004204602B010BD000019
:101D9800024A00231380024A138070476001002022
:101DA8005C010020054A00231380D38013815380EF
:101DB800538193809381024A137070474C0000202E
:101DC8005A00002010B5054B054800243022214652
:101DD8001C8003F057FB034B1C8010BD5E010020E4
:101DE800B4000020B0000020764B1B889A1E012A00
:101DF800F0B57AD87448754C0568C168B4F9002004
:101E08008669C56074236B436FF0340707FB0133A1
:101E18009200476A4662002B02EB4601B8BF3F3387
:101E28004668B4F90250826139440269D0F81CC08E
:101E3800066101EBA311742373436FF0340707FBAA
:101E48000233AD00876A0160002905EB4C02B8BF78
:101E5800FF31002B8668C561B8BF3F333A4402EBB7
:101E6800A312B4F904504369C0F828C07424D0F808
:101E780020C042606FF03407744307FB0344002A14
:101E8800C76A46614FEA8505B8BFFF3205EB4C03C8
:101E9800002CB8BF3F343B4403EBA4138360002BF2
:101EA800B8BFFF3309121212C0F82CC005621B120A
:101EB80047F6FF75464C4748A942A8BF2946A142A4
:101EC800B8BF2146AA42A8BF2A46A242B8BF2246A6
:101ED800AB42A8BF2B46A342B8BF234609B212B2F1
:101EE8001BB20180428083800AE0012B5ED13A4A0E
:101EF800138801339BB2072B138002D90023138068
:101F0800F0BD002BFCD03048304B8569B3F9002078
:101F18000468C668C4606900970001EB8201426AE0
:101F28008761114404EB4402921BC669B3F902406D
:101F3800456248BF033201EBA2017200A70002EB21
:101F48008402846A4568016002EB040C02698662B7
:101F5800002905EB4504B8BF0731A41A066AC76112
:101F680048BF03340CEBA402B3F9044005617300C5
:101F780003EB8403A700C46A8568426003EB040C82
:101F88004369C662002A05EB4504B8BF0732E41A64
:101F980048BF03340CEBA4038360002BB8BF07339E
:101FA800C910D21007624561DB1081E7074BB3F90E
:101FB8000010B3F90220B3F90430890092009B00A5
:101FC80076E700BF5E010020B40000207001002009
:101FD8000080FFFF62010020B000002008B5FFF775
:101FE800F1FE054B0022DA801A801A815A805A8144
:101FF8009A809A8108BD00BF62010020234B30B54A
:1020080001255D61224B234C1B88053B022B34BF05
:102018009D23BB238DB02370FEF7E0F92846FEF719
:10202800E5F90220FEF7E2F90021142204A803F0E2
:1020380029FA194B01934FF480530B930F230993FB
:102048001023CDE90243154C0B2301AA0221204697
:102058000A9302F017FC00230393114B0293802389
:1020680001AA069329460A2320460A9302F00AFC8D
:102078002846FEF7C9F90220FEF7C6F92023636057
:10208800E3690343E3610DB030BD00BF00040140C4
:102098005C010020A40100200C3001400000024037
:1020A8008401002008B51D4BDA6922F00202DA61CA
:1020B80020225A604FF0904310229A61184B1B88D7
:1020C800042B1BD01749053B012BA1F10C001ED88E
:1020D800FEF71CF90846FFF722FAFFF785FE124AB9
:1020E800124BB2F90610D980B2F908101981B2F969
:1020F8000A10B2F90C2059819A8108BD0949A1F149
:102108000C00FEF7E3F80846FFF7FDF9E5E7FEF7F0
:10211800DDF80846FFF7EBF9DFE700BF00000240F3
:102128005C0100207C010020700100206201002079
:1021380008B502F0DFFB0E494023C1F88030BFF339
:102148004F8FBFF36F8F0B4B01225A6103F57C430E
:10215800DA6922F00202DA614FF48052C1F8802075
:10216800BFF34F8FBFF36F8F20225A6008BD00BFA7
:1021780000E100E0000401401FB51F4800230222CF
:102188000121FEF7E1FB1D498A680F2322F00F02A7
:1021980093FAA3F3B3FA83F3012403F01F0304FAB9
:1021A80003F313438B6001A80194ADF80C408DF83C
:1021B8000E4002F0B9FB124AB02382F80633114BE5
:1021C8005C6140231360702382F80C330E4B20218E
:1021D80059604FF480501060DA6942F00202DA6107
:1021E8005960A3F550435A6822435A605A6842F02E
:1021F80002025A6004B010BD00040048000001400B
:1022080000E100E000040140000002400248002311
:1022180005222021FEF798BB0004004830B50B23A7
:102228008BB0174C17480025CDE900350A222B46FC
:102238002021FEF7EDFA2046042241F2BF41FEF7C5
:102248009DFB2946182204A803F01CF901216023EC
:10225800CDE9023102AA4FF426632046059302F025
:10226800CDFE01212046FEF713F8636C43F40043CA
:102278006364236843F0010323600BB030BD00BFE3
:10228800004801400004004802482422FF2103F0CE
:10229800F9B800BF5C00002008B524210248FEF709
:1022A8003DFE80B208BD00BF5C00002008B52421B7
:1022B8000248FEF71FFE80B208BD00BF5C00002088
:1022C800094B4FF4005201211A81DA809A800022CA
:1022D800DA819A815A819A825A821A82DA82198319
:1022E80059835A80704700BF5C000020094BDA8A86
:1022F800022A03D90C2A1CBF0022DA821A8BFF2A71
:1023080084BF01221A835A8BFF2A84BF01225A8371
:10231800704700BF5C00002010B5FFF7B5FFFEF75F
:1023280013FE04280CD0FFF7AFFFFEF70DFE0428BC
:1023380003D1FFF7BBFF042806D0FFF7A5FF03E092
:10234800FFF7B4FF0428EED1114C2388362B13D0A5
:10235800FFF7B6FF2388202B12D1FFF7A7FF002332
:102368006380E3820123238336230A490A482380B2
:1023780003F0D4F8FFF790FFBDE81040FFF7B6BFB1
:10238800213B142BF0D8FFF791FF01236383EBE780
:102398005C000020A2550008780000200E4BB0F920
:1023A80000209A80B0F90220DA80B0F904201A815E
:1023B800B0F906205A81B0F908209A81B0F90A20AC
:1023C800DA81B0F90C201A82B0F90E205A82B0F9DD
:1023D80010209A82FFF760BF5C00002030B589B0FA
:1023E8001822002102A8012403F04CF8602343F6C8
:1023F8007F614FF08040CDE90034FEF719FB6A4653
:102408004FF480514FF0804002F0F8FD4FF48051B6
:102418004FF080401B4DFDF73BFFFFF775F9234652
:10242800224608214FF09040FEF78EFA23462246B6
:1024380008214FF09040FEF787FA284643F67F615F
:10244800FEF7F6FA6A462146284602F0D7FD2146ED
:102458002846FDF71DFF234622464FF480714FF0B2
:102468009040FEF771FA4FF08042136823431360DF
:102478006B6C43F400436B642B6823432B6009B0F7
:1024880030BD00BF002C014007B501230722CDE96C
:1024980000234FF480710A224FF09040FEF7B8F9FC
:1024A80003B05DF804FB07B501230222CDE9002340
:1024B80008210A224FF09040FEF7AAF903B05DF810
:1024C80004FB0123062208214FF09040FEF73CBA96
:1024D80001231A4608214FF09040FEF735BA012330
:1024E800052208214FF09040FEF72EBA70B54FF044
:1024F8008042314C00230F29E3812382A382A381E8
:102508006381E380A38005460E46D36319D80A2960
:1025180003D8A1F10803012B15D80020FFF7DEF836
:102528000023102D238311D8072D33D9A5F10803D3
:10253800082B2FD8DFE803F00C0C2E0C0C0C280C01
:102548002B006429E9D0FFF7C3FFE9E7642D21D107
:102558004FF4E130FFF79EF8FEF700FA174A002320
:102568001380174A1380012323830D2E15D80A2EB2
:1025780015D90023102D63831AD013D80B3D022DD3
:1025880012D80123638370BD4FF41650E2E7FFF7BA
:1025980098FFEAE7FFF787FFE7E7642EE9D0FFF740
:1025A80097FFE6E7642DECD0BDE87040FFF797BFD2
:1025B800BDE87040FFF785BFE400002064020020FA
:1025C80066020020084B0022FF21DA811A829A82D3
:1025D800D98259809A80DA801A815A819A811A831D
:1025E8005A83FFF7FBBE00BFE40000201FB54B4B2A
:1025F8005A880E2A5CD15A89002A59D0198B002989
:1026080056D0153A112A53D8DFE802F009102330C2
:10261800525252525252555B66717E838583404BAB
:10262800D8681B8A0190ADF808300EE09B8973B119
:10263800013BDBB2072B28BF07233A4A019220331C
:102648008DF80830FF238DF8093006212DE0072387
:10265800F3E79B8943B1013BDBB2072B28BF072374
:10266800304A01923033EBE70723F9E79B89FBB146
:102678009B03A3F57F5364220E3BB3FBF2F32A4A74
:102688000192C3F303328DF80820C3F303228DF8B7
:102698000920C3F3031203F00F038DF80B30FF2357
:1026A8008DF80A208DF80C30092101A8FEF7E6FF05
:1026B80005B05DF804FB1A4BD3F812000190DB8AD1
:1026C800B1E79B8933B1013BDBB2072B28BF072356
:1026D800164AB3E70723FBE79B8933B1013BDBB21B
:1026E800072B28BF0723114ABBE70723FBE79B8972
:1026F800002BDDD0C3EB0343A3F57F436422CD3B1E
:10270800B3FBF2F30A4ABBE70A4B186801909B88AF
:1027180089E7094BF9E7094BF7E700BFE400002018
:1027280068550008810104078101044781010408F4
:1027380081010448A7550008AE550008B5550008A2
:10274800024B0022DA811A829A827047E400002044
:102758000B4B1A8B72B95B88052B06D0102B0AD04D
:102768004FF0804340F2DC5203E04FF080434FF4D7
:102778007A72DA6370474FF0904308229A61704783
:10278800E4000020064B5A8B4AB95B88102B4FF0A7
:1027980008024FF0904301D19A6170479A627047DE
:1027A800E40000201FB59A4CE38A62889A420DD053
:1027B800FF2B01D1FFF768FEE18A6088FFF796FEDC
:1027C800FFF7C6FFFFF7DEFF6388E3826388053BF8
:1027D8000B2B00F23381DFE813F0AD0028000C006A
:1027E8005200760031018D008D008D00D7008D00DC
:1027F800F100E3886BB1228B618B0A4392B242B934
:1028080003EB83035B0003F2DE334FF080429BB29D
:10281800D36323893BB103EB83035B007D4A03F257
:10282800DE339BB2536304B010BDA388002BF0D0F5
:10283800228B618B0A4392B2002AEAD1032B13D070
:10284800042B1AD0012B40F02681E3813223A38286
:10285800A52323824FF0904308229A614FF08043CA
:102868004FF4E162DA63D4E70223E381A5232382EC
:1028780040F214524FF08043F4E70323F5E7A388AE
:10288800002BC6D00022E281228B002AC1D0032B64
:102898000CD0042B0CD0012BBBD15F4B18689B8844
:1028A8000190ADF80830062101A820E05B4BF5E760
:1028B8005B4B18689A889B790190ADF808208DF8D1
:1028C8000A300721F0E7A1880029A2D00023E3817C
:1028D800238B002B9DD0032904D0042999D1514B77
:1028E8000193E1E7504B019304210DEB0100FEF742
:1028F800C5FE8EE7A388002B8BD00022E281228BB5
:10290800002A86D0032B0AD0042B0AD0012B80D1B1
:10291800464A5168106801AB03C30821C4E7444A1A
:10292800F7E7444A51681068127A01AB03C30921DA
:102938001A70B9E7A388002B3FF46BAF228B618B29
:102948000A4392B2002A7FF464AF012B0ED0033BF6
:10295800012B7FF65EAFFFF7F3FE4FF0904308229E
:102968009A624FF080434FF47A727BE7E381322317
:10297800A382A52323824FF0904308229A614FF047
:1029880080434FF4FA626DE7A388002B3FF441AF10
:102998000022E281228B002A3FF43BAF032B08D0B0
:1029A800042B7FF436AF244BD3F81E0001905B8CC8
:1029B80077E7214B986901909B8B72E7A388002BDE
:1029C8003FF427AF228B618B0A4392B2002A7FF42F
:1029D80020AF032B0BD0042B12D0012B4FF09041CA
:1029E80010D1E3816423A38208238B6211E70223B9
:1029F800E381642323824FF0904308229A6208E718
:102A08000323F5E7FFF79CFE08238B618B6100E742
:102A1800E4000020002C0140BC550008C355000804
:102A2800CA550008CC0104CCCC010398D255000843
:102A3800DB550008E455000868550008A388002BFA
:102A48003FF4E7AE228B618B0A4392B2002A7FF4EF
:102A5800E0AE032B11D0042B16D0012B1BD1E38140
:102A68003223A382A52323824FF0904308229A6140
:102A78004FF0804340F29E72F4E60223E38140F275
:102A88001A424FF08043EDE60323E3814FF0804381
:102A980040F2DC52E6E6FFF753FE4FF0904308227F
:102AA8009A62F3E70D4908B5CB89B3B10B8A0BB12C
:102AB800013B0B82088A012801D1FFF749FE8B8A66
:102AC8000BB1013B8B828B8A012B03D1BDE80840F7
:102AD800FFF758BE184308BFC88108BDE4000020AE
:102AE8000123402170B51C480322FDF72DFF1B4B25
:102AF8001B49DB8A012B01D10B8070BD022B01D150
:102B08000223F9E70C2BF7D0012313480B8040224E
:102B180000230469013A640648BF013392B248BFF2
:102B28009BB2002AF5D1302BE7D80F2BE8D90D4EF0
:102B3800094C48F6B800FDF7A9FFB6F90050002D7A
:102B4800BCBF0823A36148F6B800FDF79FFF002D1E
:102B5800EFDA0823A362ECE7000400485C000020D9
:102B6800800100200000002008B5FFF7D5FBFFF723
:102B7800B7FFFEF72FFA0C4A138843F4004343F0DB
:102B8800100306201380FEF719FAFFF70BF9074B1D
:102B980000211980FFF7FCF8054B1980FFF736FB79
:102BA800BDE80840FFF70EBD4C0100204E01002093
:102BB800C401002010B5204B1C8886B054B9FEF71C
:102BC800EBFE1E4B9B78762B13D005D82F2B1AD0F3
:102BD800302B2AD006B010BD772BFBD1FEF71CFE98
:102BE80017481221FEF756FE06B0BDE81040FEF762
:102BF80026BE04220DEB02001221FDF7A7FB01A857
:102C0800FFF7CCFBE6E70F4B1B8B002BE2D00D2127
:102C1800022201A8FDF79AFB9DF804100C29D9D8C7
:102C28000DF10500FEF72AFDD4E78DF80440FEF704
:102C3800F3FD112101A8D5E7A800002058010020C4
:102C480060000020E4000020114B1B8810B4DBB9A1
:102C5800104B5B78072B17D10F4A104B14781C8048
:102C680064065078917805D55DF8044B58819981B0
:102C7800FFF7BCBC99805DF8044BD1781279588075
:102C8800D9801A81FFF78EBD5DF8044B704700BFED
:102C9800A800002058010020C6010020E400002000
:102CA800194B1B881B0610B52DD572B6174B184A41
:102CB80003F10C01104653F8044B42F8044B8B42C5
:102CC800F9D11B88138062B6124C0D232370124B66
:102CD8001B88022B14D1028847F6BF731A4492B29C
:102CE8004FF67D718A4209D842881A4492B28A42C4
:102CF80004D8828813449BB28B4201D905232370E0
:102D0800064B01221A8010BD8201002062010020BA
:102D18004C0000205A0000205C0100204E010020D9
:102D280008B5074B1B881B0603D5064B1B88012BD0
:102D380004D0FFF737F8044B01221A70072008BDAA
:102D4800820100204E0100205A00002008B5044BE3
:102D580004481978FEF787FD034B00221A8008BD46
:102D68005A0000204C0000204E01002070B5954C00
:102D7800228822F4FE4111298BB21DD8092B21D9B2
:102D88000B3B062B20D8DFE813F030009600BC0080
:102D9800C800D800FC004801A3F500430B3BC2F370
:102DA8000E01062B0FD8DFE813F01C008500AC00DD
:102DB800B800C400EB00280103F5FF41763189B261
:102DC8000729E9D970BD2180FFF7B2F9FFF706F9A5
:102DD8000620FEF7DDFFFEF7F1F848F20B0323802B
:102DE800F0E7794B218000221A80FEF773FA774DBD
:102DF800774B80B218802B8823F4797323F0030370
:102E08009BB22B8000284BD00828724E09D801228B
:102E1800824012F0A40F37D112F4A07F0CD10428FD
:102E280027D043F002022A80328BD2B143F4817357
:102E38002B800122684B13E043F006022A80728B34
:102E480032B143F4017343F002032B80FFF7E6F934
:102E5800328B2B882AB143F480732B805E4B03227C
:102E68001A802B885D4A03F00703138048F20C038D
:102E7800B5E743F005022A80328B002AF1D043F4EB
:102E8800827343F00103E8E743F004022A80328B9F
:102E9800002AE6D043F482732B8002224E4BDFE7F0
:102EA800494A138801339BB21380192B8AD948F2F7
:102EB800020394E72180464D2B88062B01D0082B6E
:102EC80011D1FEF7B4FE2A88454B082A03D022F018
:102ED8000202042A0FD100229A800F221A805A80F7
:102EE80048F203037BE7042B02D1FEF702FEEAE770
:102EF800FEF753F9E7E700229A800F221A800D2285
:102F0800EDE7C2F30E022280FEF753F9344B00229C
:102F18009A8001221A800E22E1E7C2F30E02228073
:102F2800FEF741F92E4B00229A8001221A800F22C7
:102F3800D5E7254B218000221A80254B1B88062BBC
:102F480008D0023B062B18D8DFE803F01417111439
:102F5800171404001D4B1888C0F34020FEF778FEB4
:102F68001F4B00229A8064221A801022B7E7FEF7CE
:102F7800D2FDF5E7FEF792FDF2E7FEF779FDEFE700
:102F88002180134B1B88062B08D0023B062B16D832
:102F9800DFE803F012150F1215120400FEF7AEFE5B
:102FA80010BB104A138843F08003138048F21103C2
:102FB80015E7FEF7F3FDF3E7FEF77DFDF0E7FEF713
:102FC80062FDEDE7A4000020C40100204C010020B0
:102FD800600100205C0000205E0100205C010020F0
:102FE8005001002082010020144A0F2323801388F7
:102FF80001339BB213800A2B58E7114B21801B88A1
:10300800082B05D023F00203042B01D0FEF760FD46
:10301800FFF7B2F80120FDF7D1FF0A4B1B8813F028
:103028008002094B4FF496711BBF00229A809A8048
:10303800198012BF01221980022250E7C401002022
:1030480060010020820100205001002030B58BB0C3
:1030580005AD1C46ADF80E0013460DF10E000A46EC
:1030680000950549FDF76FFA2846FDF76DFD2046E6
:10307800FDF76AFD0BB030BDEE55000830B58BB0DA
:1030880005AD03901C4603A8134600950A4605495A
:10309800FDF759FA2846FDF757FD2046FDF754FD80
:1030A8000BB030BDF3550008024B00221A609A801D
:1030B800704700BF0001002008B5FDF757FD054A1D
:1030C8009388D11801339BB2382B28BF38238871D5
:1030D800938008BD000100200A2801D03B2807D1B1
:1030E800044B9A881A4400219171998001207047F5
:1030F8000020704700010020034A04480023938001
:10310800034A1360FDF720BD08020020F8550008A7
:103118000001002070B50546FDF77AF8094E024611
:103128002946B01D02F0C3F9044640B92846FDF708
:103138000BFD0548FDF708FDB471012070BD0020A6
:10314800FCE700BF00010020B356000810B507488F
:10315800FDF7FAFC0648FDF7F7FC0648064BC06881
:10316800BDE8104000220E21FFF788BFFB5500087C
:103178000B5600088C000020B356000870B53C4878
:103188003C4C3D4D3D4EFDF7DFFC3D48FDF7DCFC7A
:103198002B46B4F9000000220521FFF757FF3948F4
:1031A800FDF7D2FC2B46B4F9160000220521FFF7E3
:1031B8004DFF3548FDF7C8FCB4F90400334600223A
:1031C8000821FFF743FFB4F906003346002208211F
:1031D800FFF73CFF2B46B4F9080000220821FFF74F
:1031E80035FF2A48FDF7B0FCB4F90A00334600223F
:1031F8000821FFF72BFFB4F90C0033460022082101
:10320800FFF724FF2B46B4F90E0000220821FFF730
:103218001DFF1F48FDF798FCB4F910003346002243
:103228000821FFF713FFB4F91200334600220821E2
:10323800FFF70CFF2B46B4F9140000220821FFF712
:1032480005FF1448FDF780FC2B46B4F9180000224E
:103258000521FFF7FBFE1048FDF776FCB4F91A00CC
:103268002B460022BDE870400521FFF7EFBE00BFE6
:10327800115600085C000020B35600084E5600089E
:103288002E560008375600084256000852560008C5
:103298005E5600086A5600087B5600082DE9F84F6C
:1032A800DFF81893FEF7B8FA9848FDF74DFC984BED
:1032B8001B88022B1AD00C2B1AD0012B02D195484F
:1032C800FDF742FC4846FDF73FFC9348FDF73CFC00
:1032D8004846FDF739FC914B1B88013B072B56D814
:1032E800DFE803F0084B554F49514D538C48E7E749
:1032F8008C48E5E78C488D4FDFF8C482FDF724FC45
:10330800FFF7D2FEFFF7F8FE4FF6FF733B80884BBE
:10331800082200259A622E46B8F800309BB2002B8E
:10332800FAD0844CDFF89CB200230136A8F80030AC
:103338002660814ABBF802A0BAF1000F40F0448130
:103348007E4B1988138889B29BB2994200F03C8160
:10335800FFF7B2FEFFF7C0FE774A0028EAD07848A8
:10336800FFF7D8FEB8B1774BA3F800A0764B01223F
:103378001A80BDE8F88F7548BDE77548BBE7754802
:10338800B9E77548B7E77548B5E77548B3E77548CD
:10339800B1E7C725C0E77448FFF7BCFE002881D114
:1033A8007248FFF7B7FE18B1FFF7D0FEFFF7A4FE8B
:1033B8006F48FFF7AFFE20B10123E3802381FFF7B9
:1033C8009BFE6C48FFF7A6FE28B10223E380012389
:1033D8002381FFF791FE6848FFF79CFE28B103237D
:1033E800E38001232381FFF787FE6448FFF792FEFD
:1033F80028B10423E38001232381FFF77DFE604881
:10340800FFF788FE18B1FEF751FFFFF775FE5D481C
:10341800FFF780FE18B1FEF73FFFFFF76DFE5A4831
:10342800FFF778FE18B1FFF7A9FEFFF765FE5748CA
:10343800FFF770FE18B1FEF743FFFFF75DFE544833
:10344800FFF768FE20B1534B0122DA82FFF754FEE2
:103458005148FFF75FFE20B14E4B0222DA82FFF798
:103468004BFE4E48FFF756FE20B14A4B0C22DA823B
:10347800FFF742FE4A48FFF74DFE20B1454B0022B8
:10348800DA82FFF739FE4748FFF744FE20B1414B87
:1034980001221A83FFF730FE4348FFF73BFE20B1B5
:1034A8003C4B00221A83FFF727FE4048FFF732FE05
:1034B80020B1384B01225A83FFF71EFE3C48FFF724
:1034C80029FE20B1334B00225A83FFF715FE3948F5
:1034D800FFF720FE58B12F4B4FF400521A81DA80C3
:1034E8009A800022DA819A815A81FFF705FE3248D4
:1034F800FFF710FE00283FF41CAF264B00229A82EB
:103508005A821A82FFF7F8FD13E700BF89560008B0
:10351800800100201C5700089B560008600100200D
:10352800245700082C570008A25600080000002065
:103538000004004808020020C4050020C605002039
:10354800FF560008A8000020A6000020AC5600087E
:10355800B6560008C0560008CA560008D5560008D6
:10356800E1560008ED560008025700080A570008FF
:10357800165700081E570008265700082E5700083F
:10358800365700083F570008455700084E570008AF
:10359800575700085C000020615700086B57000867
:1035A800755700087B570008865700089157000890
:1035B8009B570008A5570008AC570008B3560008E9
:1035C8005601002000010020002D3FF4E2AE013D2D
:1035D800ADB2002D7FF4A0AEB7F90030002BBFF6D6
:1035E8009BAE05494B691A04DB4302F4002203F041
:1035F800080313438B618FE60004004810F0800F26
:1036080070B5744C08D00022D02822800CD1724B9F
:103618001A80724B01220DE02388052B0BD8DFE8B6
:1036280003F00A456889A3BF902805D16A4B1A8020
:103638006A4B04221A8070BD69490D8800F00F0397
:10364800AB4200F070000AD16649FF2630280870A6
:103658004B708E7014D010D8B8B11028E6D0072B54
:1036680019D1604AFF21402810705370917012D10F
:10367800012323800623A38015E05028C7D0EEE756
:10368800554B1A80554B0522D4E702232380564B0D
:103698005B6A6380CFE77028CDD1524A9D42537050
:1036A800C9D1042323800023E380F0E7E3884F4A4D
:1036B800D054A08801339BB28342E380E7D31346FA
:1036C8000022114695B2A8420ED8434B00221A8018
:1036D800424A0320108029B101221A80444AD36843
:1036E8000133D3600023D1E713F8015B013269404D
:1036F800E8E73C4B3028987003D00ED8042807D848
:1037080040B1354A00231380344A02211180BDE7B5
:103718002F280BD0002323808DE7762802D0772826
:10372800EFD0F7E7032323801723A4E7032323809D
:103738001023A0E7E3882D4AD054A08801339BB218
:103748008342E380A3D313460022114695B28542F3
:1037580005D3214B00221A800220204ABAE713F829
:10376800015B01326940F1E7E388042B08D8DFE800
:1037780003F0030D0F111300512803D105222280F5
:10378800013391E74628FBD00022F8E74C28FAE7F6
:103798004128F8E75328F6E74828F5D1FDF7ECFF6C
:1037A800E388042B08D8DFE803F003090B0D0F00AA
:1037B800512801D000232380E388E1E74D28F8E76A
:1037C8004F28F6E74428F4E74528F3D1FFF766FDCC
:1037D800F0E700BF14020020A8000020A600002087
:1037E800800100205801002000080040C601002088
:1037F8008C0000202DE98848DFF87882944C954F9A
:10380800954EDFF87492954DDFF870A2FEF786F8B2
:10381800B8F90030924A002BBCBF0823A3620023EA
:103828001380904A3380A9F800302B807B803B803E
:10383800BB801380FFF798F9FEF7A4F84FF4004314
:1038480033804FF6FF73A8F800300823A362A36102
:10385800DFF82CB2844B1A88BBF8003092B29BB2C6
:103868009A4203D0FDF782F9FFF7C8FEFEF778F811
:103878002B889BB2013B062B1BD8DFE803F004071B
:103888000C0F1214480000232B80B8E7FFF792F9B9
:1038980000232B800DE0FFF7D7F9F9E7FFF700FACF
:1038A800F6E7FDF7B9FF0023A9F80030FFF738FA6B
:1038B8002880BAF800309BB2002BCBD00023AAF89E
:1038C8000030FDF7F7F8B8F90000002838DD67493F
:1038D8000B8801339BB2B0F5FA7F0B8057D1644A4D
:1038E800B2F800C0BCF10C0F51D8012202FA0CF258
:1038F80012F4825F39D112F0240C15D112F0120F94
:1039080045D0B3F5FA7F07D10823A36118E0FFF784
:103918001DFAFDF794FFBBE7B3F57A7F10D3A1F842
:1039280000C00823A3620BE0B3F5FA7FECD0B3F52F
:103938002F7FF6D0B3F5487FE6D0B3F57A7F23D250
:103948003288531E012B0DD922F4FE4148F2110092
:1039580081428BB206D8190426D4032B6AD04FD8DB
:10396800002B56D0FFF79EF872E7B3F5FA7FCBD05D
:10397800B3F5167FD5D0B3F52F7FC5D0B3F5487F03
:10398800CFD0B3F5617FD7E700230B80C9E7834227
:10399800D6DB00230B8063691A04DB4302F40022A0
:1039A80003F008031343B0E7A3F50043112BD9D85C
:1039B80001A151F823F000BF153A0008233A000886
:1039C800333A00083D3A00086D3900086D3900089F
:1039D8006D3900086D3900086D3900086D39000827
:1039E8000F3A00080F3A00080F3A00080F3A00088B
:1039F8000F3A00080F3A00080F3A00080F3A00087B
:103A08000A3B072BAED8FFF7B1F9ABE73223A8F88A
:103A1800003048F20A033380A4E7C2F30E02328072
:103A28004FF4FA73A8F800309CE7C2F30E02328014
:103A38006423F7E7BB883A8801339BB29A42BB807C
:103A480090D27B886FEA43436FEA5343E3E700BFB2
:103A58000004004850010020A4000020A600002017
:103A6800820100204C010020C60500207E010020B4
:103A78008001002000000020A8000020560100203E
:103A8800C405002010B594B03822002106A801F022
:103A9800F9FC1422002101A801F0F4FC002000F038
:103AA800B5FA01224FF4A023CDE90623032402230B
:103AB8000621552206A8CDE90D34CDE90F12CDE92E
:103AC8001133139300F0FCFA08B172B6FEE7042133
:103AD800CDE903000F2305900DEB0100CDE901347A
:103AE80000F034FD08B172B6FEE714B010BD000056
:103AF80007B5104A136823F48063136000F0B0F828
:103B0800FFF7C0FF0C4BDA6C42F02002DA64DA6C83
:103B180002F020020192019ADA6C42F00102DA64A2
:103B2800DB6C03F001030093009B03B05DF804EB2A
:103B3800FFF760BE00200240001002400A4B1A6ED8
:103B480042F001021A661A6E82B002F00102009277
:103B5800009A9A6D42F080529A659B6D03F08053EB
:103B68000193019B02B0704700100240FEE7FEE798
:103B7800FEE7FEE7FEE770477047704700F080B841
:103B8800034AD2F8883043F47003C2F8883070478B
:103B980000ED00E00D4885460D480E490E4A002309
:103BA80002E0D458C4500433C4188C42F9D30B4AE9
:103BB8000B4C002301E013600432A242FBD3FFF751
:103BC800DFFF01F087FCFFF793FFFEE7008000208E
:103BD80000000020300000202C5800083000002091
:103BE800CC050020FEE7704710B5094B4FF0FF32B7
:103BF80000249A639C631A641C649A629C62DA6269
:103C0800DC621A631C63FFF7EEFF204610BD00BF9D
:103C18000010024038B50F4B1A6805460AB9012052
:103C280038BD4FF47A73B3FBF2F30B4A1068B0FB5C
:103C3800F3F000F07BF804460028F0D10F2DEED801
:103C4800024629464FF0FF3000F03EF8034B20466D
:103C58001D60E5E708000020040000200C0000209B
:103C680010B5032000F01EF80F20FFF7D3FF04461D
:103C780018B9FFF763FF204610BD0124FBE70000D9
:103C8800034A0449136809680B441360704700BF6E
:103C9800C805002008000020014B1868704700BFC5
:103CA800C80500200749CA6822F4E062030212042A
:103CB80003F4E063120C134343F0BF6343F400338F
:103CC800CB60704700ED00E0164B30B5DC68C4F3FC
:103CD8000224C4F10703251D042B28BF0423062D45
:103CE8004FF0FF358CBF033C002405FA03F321EAAB
:103CF8000303A54022EA0502A340002843EA020381
:103D0800ACBF00F16040084A4FEA0313B8BF00F0A7
:103D18000F00DBB2AABF00F56140135480F80033EE
:103D280030BD00BF00ED00E014ED00E00138B0F157
:103D3800807F0BD24FF0E023054A5861F02182F8CA
:103D480023100020072298611A61704701207047EC
:103D580000ED00E0094A536943F4802310B553612C
:103D6800EFF3108272B60023CC58C4500433B3F575
:103D7800807FF9D182F3108810BD00BF0020024077
:103D8800064B5A69002ABFBF054A9A6002F1883279
:103D98009A60BABF5869C00F0020704700200240DF
:103DA80023016745044B5A6942F000425A61586939
:103DB800C043C00F704700BF0020024070B50646E0
:103DC800FFF76AFF0F4C05462369DB030BD4236911
:103DD8004CF2FA3213400DD00B494A681A434A6034
:103DE8000120236170BDFFF757FF401BB042EBD99C
:103DF8000320F7E7206910F00100F3D001222261C7
:103E08001846EFE700200240100000202DE9F04797
:103E18001D4E99463378012B05460F46904631D002
:103E28004FF0010A4FF47A7086F800A0FFF7C6FF3A
:103E38000446B8B97060CDB9144A536943EA0A0315
:103E48005361C7F80080BFF36F8FC7F804905446DA
:103E58004FF47A70FFF7B2FF24B10C4A536923EA92
:103E68000403536100233370BDE8F0876B1E012BF8
:103E7800EED841463846FFF76DFFAB1E5D425D4107
:103E8800AC04E5E70220EFE7100000200020024024
:103E9800064B10F0010F1EBF5A6942F004025A6126
:103EA8005A6942F480325A61704700BF00200240CC
:103EB800084B5A69C00022F4FC7200F4FF601043FA
:103EC80058615A6942F002025A615A6942F48032D2
:103ED8005A617047002002401548037FDAB203F0A8
:103EE800FD03012B10D1134B196821F400711960DF
:103EF800196841F400611960196821F400611960BA
:103F0800196841F400711960931E012B0CD8094BF4
:103F18001A6842F480521A601A6822F480521A60B1
:103F28001A6842F480621A6000230377704700BF62
:103F380010000020002002402DE9F843314D2B7875
:103F4800012B064688465AD001274FF47A702F7005
:103F5800FFF734FF044610BB2B4B68601A6812F455
:103F6800007F1A6820D0510506D51A6822F48062AD
:103F78001A6003232B7700E02F773368012B1DD1BC
:103F88007068FFF785FF4FF47A70FFF717FF1E4A36
:103F9800536923F0040304465361FFF79DFF002390
:103FA8002B702046BDE8F883520505D51A6822F41F
:103FB80080621A600223DDE72877DEE74FF0FF33DF
:103FC800C8F80030B768DFF84090D6E902321344E9
:103FD800BB42E2D971683846FFF76AFF4FF47A703E
:103FE800FFF7ECFED9F8143023F4FD73C9F8143048
:103FF80018B1C8F800700446CFE70137E5E7022496
:10400800CFE700BF1000002000200240294B1A68AB
:1040180030BB02F4C062B2F5806FD3F8802022F47E
:104028008072C3F880201AD11A6822F4C06242F460
:1040380000721A60204A126832214A431F49B2FBB3
:10404800F1F201325969490500D522B95B69580571
:1040580003D400207047013AF4E703207047704703
:10406800B0F5007F1FD102F4C062B2F5806FD3F8BB
:10407800802042F48072C3F88020EAD11A6822F4C2
:10408800C06242F400721A600B4A126832214A4335
:104098000A49B2FBF1F2013259694905D6D5002A1D
:1040A800D4D0013AF8E722F4C06242F480621A6080
:1040B800CFE700BF007000400400002040420F001E
:1040C8002DE9F341044640B30368DF0714D423689D
:1040D8009E075BD423681E0700F1A48023685D0750
:1040E80000F1CB8023689B0600F13281E06900284B
:1040F80040F06081002028E0A14DAB68EA6803F039
:104108000C030C2B0BD102F00303032B09D12B68F2
:104118009D03DCD56368002BD9D1012015E0082B5D
:10412800F4E76368B3F5803F12D12B6843F480331A
:104138002B60FFF7B1FD06462B689803C7D4FFF73D
:10414800ABFD801B6428F7D9032002B0BDE8F081DD
:10415800B3F5A02F04D12B6843F480232B60E4E748
:104168002A6822F480322A602A6822F480222A608F
:10417800002BDED1FFF790FD06462B689903A6D5E4
:10418800FFF78AFD801B6428F7D9DDE77C4DAB6813
:10419800EA6803F00C030C2B17D102F00303022B7F
:1041A80015D12B685A0502D5E368002BB5D06B688A
:1041B800226923F0FE4343EA02636B60714B18687F
:1041C800FFF728FD002885D0A7E7042BE8E7E36878
:1041D800BBB12B6843F480732B60FFF75DFD064687
:1041E8002B685B0507D56B68226923F0FE4343EA19
:1041F80002636B606EE7FFF74FFD801B0228EFD963
:10420800A2E72B6823F480732B60FFF745FD064671
:104218002B685F057FF55EAFFFF73EFD801B022828
:10422800F6D991E76369564D9BB1D5F8943043F0C0
:104238000103C5F89430FFF72FFD0646D5F89430F2
:1042480098073FF54BAFFFF727FD801B0228F5D9EC
:104258007AE7D5F8943023F00103C5F89430FFF7D6
:104268001BFD0646D5F8943099077FF537AFFFF761
:1042780013FD801B0228F5D966E7414DAB6DDA00C6
:1042880027D4AB6D43F08053AB65AB6D03F080531F
:104298000193019B01273C4E3368DB051BD5A368BE
:1042A800012B29D1D5F8903043F00103C5F890309F
:1042B800FFF7F2FC41F288380646D5F890309907A6
:1042C80040D5002F3FF40EAFAB6D23F08053AB65A4
:1042D80008E70027DFE7336843F480733360FFF7AC
:1042E800DBFC80463368D805D9D4FFF7D5FCA0EBB2
:1042F80008000228F6D927E7052B06D1D5F8903013
:1043080043F00403C5F89030CCE7D5F8902022F0AC
:104318000102C5F89020D5F8902022F00402C5F8D3
:104328009020002BC4D1FFF7B7FC41F2883806462D
:10433800D5F890309A07C4D5FFF7AEFC801B4045EE
:10434800F6D901E7FFF7A8FC801B4045B5D9FBE685
:10435800A3690B4DD3B1D5F8983043F00103C5F8E4
:104368009830FFF799FC0646D5F898309F073FF537
:10437800BDAEFFF791FC801B0228F5D9E4E600BF2B
:10438800001002400C00002000700040D5F8983062
:1043980023F00103C5F89830FFF77EFC0646D5F8F0
:1043A800983098077FF5A2AEFFF776FC801B0228AD
:1043B800F5D9C9E6484DAB6803F00C030C2B57D070
:1043C8002B68022823F080732B603AD1FFF764FC36
:1043D80006462B6899012ED4EA68404B1340226A9E
:1043E8001343A26A43EA0223E26A43EAC263626AA7
:1043F800013A43EA0213226B5208013A43EA425354
:10440800626B5208013A43EA4263EB602B6843F05F
:1044180080732B60EB6843F08073EB60FFF73CFC24
:1044280004462B689A013FF565AEFFF735FC001B83
:104438000228F6D988E6FFF72FFC801B0228C8D986
:1044480082E6EB6823F00303EB60EB6823F08873E4
:1044580023F48033EB60FFF71FFC04462B689B01B5
:104468007FF548AEFFF718FC001B0228F6D96BE66B
:1044780001283FF46AAEEB68226A03F00301914217
:104488007FF44BAE616A03F0F0020139B2EB011F11
:104498007FF443AEA16A03F4FE42B2EB012F7FF42E
:1044A8003CAEE16A03F07842B2EBC16F7FF435AEFF
:1044B800226B520803F4C001013AB1EB425F7FF46A
:1044C8002CAE626B520803F0C063013AB3EB426F43
:1044D8003FF410AE21E600BF001002400C809F019F
:1044E800174B9A6802F00C02042A23D09A6802F04B
:1044F8000C02082A20D09A6802F00C020C2A1DD15E
:10450800D968DA68D868DB6801F00301C3F341634E
:104518000329C2F30312C0F3062003F101030CBF01
:10452800084909495B000132B1FBF2F25043B0FB84
:10453800F3F07047044870470248704700207047FE
:104548000010024000366E010024F4002DE9F84303
:104558000E46054610B90120BDE8F8836D4A136878
:1045680003F00F038B4245D3296811F001084CD1A1
:104578002A68910740F1A780674B12F0040F1EBF0D
:10458800996841F4E0619960120741BF9A6822F482
:104598007C5242F4E0629A609A68A96822F0F002BC
:1045A8000A439A605B4C236803F00F03B34200F29E
:1045B80093802A68584C12F0040F40F0A380130728
:1045C80006D5A3682A6923F4605343EAC203A360AB
:1045D800FFF786FFA368514AC3F30313D35C03F0C4
:1045E8001F03D8404E4B18604E4B1868BDE8F8437F
:1045F800FFF710BB136823F00F030B431360136816
:1046080003F00F038B42A6D1AEE76F68424C032F2D
:10461800236849D19B019ED5E368E26803F0030350
:10462800032BE3680CBF40484048C2F30312C3F3AE
:1046380006230132B0FBF2F25343E268C2F341624F
:1046480001325200B3FBF2F3394A93421AD84FF0C1
:104658000008A36823F003033B43A360FFF71CFB98
:1046680041F288390746A3686A6803F00C03B3EB84
:10467800820F3FF47DAFFFF70FFBC01B4845F2D90F
:10468800032069E7A36813F0F00F04D08807DED58C
:10469800AB68002BDBD1A36823F0F00343F0800361
:1046A800A3604FF08008D4E7022F09D113F4003F2C
:1046B8003FF451AFFFF714FF1D4B9842C7D9EAE703
:1046C80013F4806FF4E7B8F1800F01BF124A9368C2
:1046D80023F0F003936065E7236823F00F03334367
:1046E8002360FFF7D9FA41F288380746236803F0B8
:1046F8000F03B3423FF45DAFFFF7CEFAC01B40454E
:10470800F4D9BDE7A368E96823F4E0630B43A36029
:1047180055E700BF0020024000100240D5570008AE
:10472800040000200C00002000366E010024F40074
:1047380000B4C40411F5803F444B02461DD1984291
:104748000BD103F580539A6A42F001029A629A6A81
:1047580022F001029A62002070473D4B984272D1C4
:10476800D3F8282C42F00202C3F8282CD3F8282CBE
:1047780022F00202C3F8282CEDE798421DD111BBA4
:10478800344B186820F00100186000201860586049
:104798009860D860304B83EA922301EBC3039B00F7
:1047A80003F1804303F50233186820F0FF00186016
:1047B800002932D101235360CDE7254B98422AD1F5
:1047C80029B90833DDE7012905D1244BD9E70129A7
:1047D80005D1234BD5E7022905D1224BD1E7022980
:1047E80005D1214BCDE7032905D1204BC9E7032982
:1047F80005D11F4BC5E7042907D11E4BC1E71E4B46
:104808001E48042918BF0346BBE71D4B1B48052952
:1048180018BF0346B5E7194BB3E70139042912D885
:10482800DFE801F00305080B0E001023C3E74FF47F
:104838008073C0E74FF48053BDE74FF48033BAE785
:104848004FF48013B7E70120704700BF0000024013
:104858000004024008000240800010001C000240D2
:104868001C04024030000240300402404400024070
:104878004404024058000240580402406C040240BC
:104888006C000240194BF0B55E5CD2E902373B433D
:10489800176985593B4357693B4397693B43D76938
:1048A8003B43976A25F4FF453B4325F070053418D0
:1048B8002B4383515368E3601368A3606368156AE8
:1048C800526A1B0C1B042B436360094B83EA902339
:1048D80001EBC301890001F1804101F5023100209B
:1048E8000B6823F0FF0313430B60F0BDED5700087E
:1048F80080001000094B0A4A1A600020094A5860D3
:104908009860D86018615A6134221A627822586215
:104918009862D86218635A63704700BF0004014068
:104928000000841FFFFF7D0030B5D0E9003201464A
:10493800007A002800F08780002B62D0487A01288E
:104948003FD0022847D0002849D1484C656825EA5D
:104958000305656025681D4325608C7A6CB1022CBF
:104968003FD0032C46D0012C48D1404CE56825EABD
:104978000305E560A5682B43A3600AB34B7A012BB6
:1049880041D0022B48D0002B4AD103F1804303F5D4
:1049980082335C6A24EA02045C621C6A14431C6267
:1049A8008B7A6BB1022B3ED0032B45D0012B47D11C
:1049B8002E4BD96A21EA0201D962996A0A439A629E
:1049C80030BD2A48046824EA0304046044681C4390
:1049D80044600020C1E7254804681C43F5E701202E
:1049E800BBE7224CA56825EA0305A560E5682B43CB
:1049F800E360C2E71D4CA5681D43F6E740F00200DE
:104A0800BBE71846B9E7194B1C6A24EA02041C6282
:104A18005C6A14435C62C3E7144B1C6A1443F6E7F0
:104A280040F00400BCE7114B996A21EA020199623F
:104A3800D96A0A43DA62C3E70C4B996A1143F6E76D
:104A480040F00500BCE709490C6824EA03040C603F
:104A58004C6824EA03034B600B6A23EA02030B62E7
:104A68004B6A23EA02034B62AAE700BF0004014035
:104A7800024AD36A1843D062704700BF0010024050
:104A8800B0F1904F08B509D10120FFF7F1FF254A91
:104A9800D36A23F00103D362002008BD224B984259
:104AA80007D10220FFF7E4FF1E4AD36A23F002036E
:104AB800F1E71E4B984207D10420FFF7D9FF194AA6
:104AC800D36A23F00403E6E7194B984207D108207C
:104AD800FFF7CEFF134AD36A23F00803DBE7154B31
:104AE800984207D11020FFF7C3FF0E4AD36A23F07C
:104AF8001003D0E7104B984207D12020FFF7B8FFEA
:104B0800084AD36A23F02003C5E70C4B984207D123
:104B18004020FFF7ADFF034AD36A23F04003BAE70A
:104B28000120BAE7001002400004004800080048CD
:104B3800000C004800100048001400480018004805
:104B48002DE9F04F02460D6895FAA5F44FF0010ED5
:104B5800B4FA84F403274FF00F0C6FEA050835FA0E
:104B680004F001D1BDE8F08F0EFA04F32B4067D0B2
:104B78004868461E012E1ED8966893FAA3F9B9FA1A
:104B880089F94FEA490907FA09F926EA090993FA5E
:104B9800A3FA8E68BAFA8AFA4FEA4A0A06FA0AF6B5
:104BA80046EA09069660566808EA0609CE686E4322
:104BB80049EA06065660D66893FAA3F9B9FA89F95C
:104BC8004FEA490907FA09F926EA090993FAA3FA03
:104BD8000E69BAFA8AFA4FEA4A0A06FA0AF646EA61
:104BE80009060228D66018D1FF2BD1F814A029D8BD
:104BF800D2F8209093FAA3F6B6FA86F6B6000CFA25
:104C080006F629EA060993FAA3F6B6FA86F6B60076
:104C18000AFA06F646EA09061662166893FAA3F92E
:104C2800B9FA89F94FEA490907FA09F926EA09069A
:104C380093FAA3F3B3FA83F35B0098403043106010
:104C480001348CE7D2F824901E0A96FAA6FBBBFA28
:104C58008BFB4FEA8B0B0CFA0BFB29EA0B0996FA34
:104C6800A6F6B6FA86F6B6000AFA06FA4AEA090677
:104C78005662D2E7024B1868C0F38020704700BF25
:104C880000100240024BD3F89000C0F34000704778
:104C980000100240024B1868C0F34060704700BF24
:104CA80000100240044B054A9B68C3F30313D35C0E
:104CB80003F01F03D840704700100240D557000882
:104CC800044B054A9B68C3F30223D35C03F01F031C
:104CD800D840704700100240E5570008124B9A6808
:104CE80002F00C02082A1BD00C2A1BD1DA680F48E4
:104CF8000F4902F00302032A08BF0146D868DA68A0
:104D0800DB68C3F34163C0F30620C2F30312013327
:104D1800484301325B00B0FBF2F0B0FBF3F07047A0
:104D280002487047024870470010024000366E0182
:104D38000024F400164A08B5136843F4807313601E
:104D4800FFF798FF0028FBD0536823F0FE4343F099
:104D58008043536001239360936803F00C03042B92
:104D6800FAD14FF4807313601360FFF793FF0028A4
:104D7800FBD14FF4805140F23B73D16090611362D4
:104D8800D2F8943043F40003C2F8943008BD00BF51
:104D980000100240032810B52DD12D4C2D4AD4F80F
:104DA800883003F0030343F44033934209D0B3F14E
:104DB800031F0CD0013A934210D1BDE81040FFF711
:104DC8008DBFFFF757FF002840D1002010BDFFF727
:104DD80059FF003818BF0120C003F7E7FFF77EFF2F
:104DE800FFF760FFA3681C4AC3F3C223D35C03F038
:104DF8001F03D840EAE70C2817D1154B174AD3F8F8
:104E0800883003F00C0343F440239342D9D0B3F124
:104E18000C1FDCD0043A9342CFD0FFF75FFFFFF7B7
:104E280041FFBDE81040FFF74BBF3028CDD1084BFC
:104E38000B4AD3F8883003F0300343F4401393420D
:104E4800BFD0B3F1301FC2D0103AE4E70548BDE740
:104E58000010024002000300E557000808000C009B
:104E6800200030000024F400C02808B501D000203C
:104E780008BD144B144AD3F8883003F0C00343F438
:104E88004003934209D0B3F1C01F0CD0403A93427B
:104E980010D1BDE80840FFF721BFFFF7EBFE00285F
:104EA800E5D00A48E4E7FFF7EDFE003818BF012017
:104EB800C003DDE7FFF712FFFFF7F4FEBDE8084087
:104EC800FFF7FEBE001002408000C0000024F4007E
:104ED80003685B0670B502462DD4D1E9003633432A
:104EE800CE68056848690C6A33430E6933438E6996
:104EF80003433343CE6925F47F45334325F0BF058B
:104F080023432B43136053688D6823F4706323F0A5
:104F1800040345EA10401843B5F5006F50603EBFE2
:104F2800536843F480535360B4F5005F01D18B8C10
:104F38001361002000E00120D36923F40063D361EA
:104F480070BD00002B4A036890420ED0B0F1804F2C
:104F58000BD0A2F59432904207D002F580629042BD
:104F680003D002F59632904215D14A6823F07003B7
:104F78001343204A904219D0B0F1804F16D0A2F5C1
:104F88009432904212D002F5806290420ED002F51F
:104F9800963290420AD0184A904207D002F58062B1
:104FA800904203D002F58062904203D1CA6823F48C
:104FB8004073134303608B68C3620B8883620D4B95
:104FC80098420FD003F5006398420BD003F5406375
:104FD800984207D003F58063984203D003F58063B5
:104FE800984201D10B690363436943F001034361AC
:104FF80000207047002C014000400140B1F5805F5F
:1050080030B500F011810AD8102900F08680B1F57A
:10501800807F00F0C68001293DD0012030BDB1F568
:10502800803F00F04781B1F5801FF6D1036A14680C
:1050380023F480130362036A016D21F0807121F467
:10504800E04141EA0424116923F4001343EA0153BF
:10505800516823F4801343EA0153954988420FD0DD
:1050680001F5006188420BD001F54061884207D004
:1050780001F58061884203D001F58061884206D13C
:105088004168956921F4802141EA85214160D2680F
:105098000465C2643EE0036A156823F001030362F5
:1050A800036A4168846924F4803424F073042C432F
:1050B800156923F002032B43556823F001032B43A2
:1050C8007B4DA8420FD005F50065A8420BD005F529
:1050D8004065A84207D005F58065A84203D005F5CC
:1050E8008065A84212D1556923F0080343EA850375
:1050F800956823F0040343EA8503956921F48071D8
:105108002943D56921F4007141EA4501D26841601B
:10511800846142630362002080E7036A156823F014
:1051280010030362036A4168846924F0807424F4DC
:10513800E64444EA0524156923F0200343EA0513ED
:10514800556823F0100343EA0513594DA8420FD0C0
:1051580005F50065A8420BD005F54065A84207D0C3
:1051680005F58065A84203D005F58065A84213D1EE
:10517800556923F0800343EA8513956823F04003BB
:1051880043EA8513956921F4806141EA8501D5696F
:1051980021F4006141EAC501D268416084618263FB
:1051A800B8E7036A156823F480730362036A4168E9
:1051B800C46924F4803424F073042C43156923F45F
:1051C800007343EA0523556823F4807343EA0523F3
:1051D800374DA8420FD005F50065A8420BD005F55C
:1051E8004065A84207D005F58065A84203D005F5BB
:1051F8008065A84213D1556923F4006343EA8523E7
:10520800956823F4806343EA8523956921F48051E6
:1052180041EA0511D56921F4005141EA4511D268E6
:105228004160C461C26375E7036A156823F480535B
:105238000362036A4168C46924F0807424F4E64474
:1052480044EA0524156923F4005343EA05335568F5
:1052580023F4805343EA0533154DA8420FD005F5D2
:105268000065A8420BD005F54065A84207D005F5B2
:105278008065A84203D005F58065A84213D1556919
:1052880023F4004343EA8533956823F4804343EAD3
:105298008533956921F4804141EA8511D56921F466
:1052A800004141EAC511D2684160C461026431E736
:1052B800002C0140036A146823F480330362036AF4
:1052C800016D21F4803121F070010C43116923F440
:1052D800003343EA0143516823F4803343EA01432E
:1052E8000F4988420FD001F5006188420BD001F5C3
:1052F8004061884207D001F58061884203D001F5FA
:105308008061884206D14168956921F4803141EA7B
:10531800052141600465D268816C8264FAE600BFA9
:10532800002C01401C4B98420BD103F558431A6CD2
:1053380042F480421A641A6C22F480421A640020F3
:105348007047164B98420AD103F5E6339A6B42F43C
:1053580000329A639A6B22F400329A63EFE7104B9B
:10536800984209D103F5E4339A6B42F480229A6398
:105378009A6B22F48022F0E70A4B984209D103F590
:10538800E2339A6B42F400229A639A6B22F4002269
:10539800E3E70120704700BF0038014000440040A7
:1053A80000480040004C004038B50368DB0704465D
:1053B8000D4659D42A69AB68016813436A691343D7
:1053C800EA691343294A0A40134303604368EA68B9
:1053D80023F44053134343608368AA6923F440735A
:1053E80013438360224B984220D10320FFF7D2FC5D
:1053F8002B6840B36A6832B30B2B15D81D4951F896
:105408002330E969B0FBF3F0B1F5004F4FEA5203DE
:1054180025D103EB4003B3FBF2F34FF6F0721A40C9
:10542800C3F342031343E36000200DE0124B98429C
:1054380001D10C20DAE7114B984201D13020D5E791
:105448000F4B984207D00120E26A2B8822F00F0206
:105458001343E36238BDC020FFF706FDC8E70344E5
:10546800B3FBF2F39BB2DEE70120F3E7F369FFEF4A
:1054780000380140F457000800440040004800404C
:10548800004C004002440346934200D1704703F8A1
:10549800011BF9E7C9B2034610F8012B1AB18A4279
:1054A800F9D118467047002918BF0023F9E710B54D
:1054B8006AB10139841810F8012B11F8013F9A429A
:1054C80003D1A04201D0002AF5D1D01A10BD104650
:1054D800FCE7000070B50D4D0D4C641BA4100026B0
:1054E800A64209D10B4D0C4C00F02EF8641BA410F9
:1054F8000026A64205D170BD55F8043B98470136F1
:10550800EEE755F8043B98470136F2E724580008BF
:10551800245800082458000828580008034611F8A1
:10552800012B03F8012B002AF9D170470A44914254
:1055380000F1FF3300D1704710B511F8014B03F8A3
:10554800014F9142F9D110BDF8B500BFF8BC08BCB5
:105558009E467047F8B500BFF8BC08BC9E46704729
:105568002D00002000002E000030000081010407FB
:1055780000FF8101040800FF8101040002FF81018E
:10558800040003FF76302E353665206C6C007634C7
:105598002E7820473433314B4200656E64580081C1
:1055A80001043803FF008101043802FF008101046F
:1055B8001801FF0073686F6F740D007265636F6E7A
:1055C8000D007265636F66660D00736875747465A7
:1055D800720A00766964656F6F6E0A0076696465A1
:1055E8006F6F66660A0073692B7A00736C2B7A00FA
:1055F8003E20004E5420427573204572726F7273BC
:105608000D0A006372633A2000506172616D65741F
:105618006572732073746F72656420696E205365B8
:105628007475700D0A004C61796F75743A20004DDD
:105638006F64756C6549643A200041636353636124
:105648006C653A202000202C20004163635A657263
:105658006F3A202020004779726F5363616C653A76
:1056680020004170706C7941636346696C7465729F
:105678003A20004170706C79457874436C6B3A201D
:10568800000D0A48656C6C6F2C204920616D20491B
:105698004D550076302E353665004D50553630580C
:1056A800300D0A004D5055363530300D0A004D503A
:1056B80055393235300D0A004D5055393235350DD2
:1056C8000A0049434D34323630350D0A0049434DFE
:1056D8003432363838500D0A0049434D34323638A2
:1056E80038560D0A00756E6B6E6F776E204D5055EB
:1056F8002F49434D0D0A0040510052455354415221
:1057080054006E746275736572726F72730073748D
:105718007265616D310073747265616D3200737406
:105728007265616D330073747265616D3400726502
:105738007472696576650073746F72650067657465
:10574800736574757000636C72736574757000733B
:1057580065746964696D7531007365746964696D30
:105768007532007365746964696D753300636C72B2
:1057780069640073657461636366696C7400636C63
:105788007261636366696C740073657465787463C9
:105798006C6B00636C72657874636C6B00636C721D
:1057A80061636300636C726779726F00081C304430
:1057B800586C101018202830380000000004040429
:1057C8000438380000080000000800000800000045
:1057D8000000000000010203040607080900000099
:1057E8000001020304081C3044586C00010000004A
:1057F800020000000400000006000000080000008D
:105808000A0000000C00000010000000200000004A
:0C581800400000008000000000010000C3
:04582400FD0100087A
:04582800D90100089A
:10582C00FFFF00000024F400010000001000000045
:10583C00000000000000000000000000000000005C
:10584C00010000000000000000000000000000004B
:0400000508003B9D17
:00000001FF
