:020000040800F2
:10000000005000206D5F0008555F0008575F000832
:10001000595F00085B5F00085D5F0008000000009A
:100020000000000000000000000000005F5F00080A
:10003000615F000800000000635F0008655F000862
:10004000B55F0008B55F0008B55F0008B55F000840
:10005000B55F0008B55F0008B55F0008B55F000830
:10006000B55F0008B55F0008B55F0008B55F000820
:10007000B55F0008B55F0008B55F0008B55F000810
:10008000B55F0008B55F0008B55F0008B55F000800
:10009000B55F0008B55F0008B55F0008B55F0008F0
:1000A000B55F0008B55F0008B55F0008E5120008FD
:1000B000B55F0008B55F0008B55F0008B55F0008D0
:1000C000B55F0008B55F0008B55F0008B55F0008C0
:1000D000B55F000815110008B55F0008B55F00089E
:1000E000B55F0008B55F0008B55F000800000000BC
:1000F0000000000000000000000000000000000000
:0C01000000000000000000005FF808F1A3
:10010C0010B5054C237833B9044B13B10448AFF345
:10011C0000800123237010BDC000002000000000EF
:10012C00347D000808B5034B1BB103490348AFF3FA
:10013C00008008BD00000000C4000020347D0008D1
:10014C00034613F8012B002AFBD1181A013870470B
:10015C0080F0004002E000BF81F0004142001FBF70
:10016C005FEA410392EA030F7FEA226C7FEA236C79
:10017C006AD04FEA1262D2EB1363C1BFD21841406E
:10018C0048404140B8BF5B42192B88BF704710F004
:10019C00004F40F4000020F07F4018BF404211F0A7
:1001AC00004F41F4000121F07F4118BF494292EA0F
:1001BC00030F3FD0A2F1010241FA03FC10EB0C003B
:1001CC00C3F1200301FA03F100F0004302D54942C8
:1001DC0060EB4000B0F5000F13D3B0F1807F06D375
:1001EC0040084FEA310102F10102FE2A51D2B1F16D
:1001FC00004F40EBC25008BF20F0010040EA030062
:10020C007047490040EB0000013A28BFB0F5000FE1
:10021C00EDD2B0FA80FCACF1080CB2EB0C0200FA97
:10022C000CF0AABF00EBC25052421843BCBFD040E6
:10023C001843704792F0000F81F4000106BF80F460
:10024C0000000132013BB5E74FEA41037FEA226C23
:10025C0018BF7FEA236C21D092EA030F04D092F0EE
:10026C00000F08BF0846704790EA010F1CBF002022
:10027C00704712F07F4F04D1400028BF40F000407F
:10028C00704712F100723CBF00F50000704700F09F
:10029C00004343F0FE4040F4000070477FEA2262C6
:1002AC0016BF08467FEA23630146420206BF5FEA97
:1002BC00412390EA010F40F4800070474FF0000397
:1002CC0004E000BF10F0004348BF40425FEA000C5E
:1002DC0008BF704743F0964301464FF000001CE006
:1002EC0050EA010208BF70474FF000030AE000BF5C
:1002FC0050EA010208BF704711F0004302D540429A
:10030C0061EB41015FEA010C02BF8446014600200B
:10031C0043F0B64308BFA3F18053A3F50003BCFA26
:10032C008CF2083AA3EBC25310DB01FA02FC6344D3
:10033C0000FA02FCC2F12002BCF1004F20FA02F2DA
:10034C0043EB020008BF20F00100704702F12002CD
:10035C0001FA02FCC2F1200250EA4C0021FA02F22E
:10036C0043EB020008BF20EADC7070474FF0FF0C33
:10037C001CEAD0521EBF1CEAD15392EA0C0F93EA2E
:10038C000C0F6FD01A4480EA010C400218BF5FEAD0
:10039C0041211ED04FF0006343EA501043EA511143
:1003AC00A0FB01310CF00040B1F5000F3EBF49003D
:1003BC0041EAD3715B0040EA010062F17F02FD2A41
:1003CC001DD8B3F1004F40EBC25008BF20F0010024
:1003DC00704790F0000F0CF0004C08BF49024CEA3B
:1003EC00502040EA51207F3AC2BFD2F1FF0340EACD
:1003FC00C250704740F400004FF00003013A5DDC3E
:10040C0012F1190FDCBF00F000407047C2F100027E
:10041C00410021FA02F1C2F1200200FA02FC5FEA6B
:10042C00310040F1000053EA4C0308BF20EADC70B5
:10043C00704792F0000F00F0004C02BF400010F427
:10044C00000F013AF9D040EA0C0093F0000F01F0D4
:10045C00004C02BF490011F4000F013BF9D041EAF6
:10046C000C018FE70CEAD15392EA0C0F18BF93EAF8
:10047C000C0F0AD030F0004C18BF31F0004CD8D122
:10048C0080EA010000F00040704790F0000F17BFA9
:10049C0090F0004F084691F0000F91F0004F14D0EF
:1004AC0092EA0C0F01D142020FD193EA0C0F03D147
:1004BC004B0218BF084608D180EA010000F000404A
:1004CC0040F0FE4040F40000704740F0FE4040F425
:1004DC00400070474FF0FF0C1CEAD0521EBF1CEAC4
:1004EC00D15392EA0C0F93EA0C0F69D0A2EB0302E2
:1004FC0080EA010C49024FEA402037D04FF080537C
:10050C0043EA111143EA10130CF000408B4238BF40
:10051C005B0042F17D024FF4000C8B4224BF5B1A4E
:10052C0040EA0C00B3EB510F24BFA3EB510340EA9C
:10053C005C00B3EB910F24BFA3EB910340EA9C004A
:10054C00B3EBD10F24BFA3EBD10340EADC001B01BA
:10055C0018BF5FEA1C1CE0D1FD2A3FF650AF8B425E
:10056C0040EBC25008BF20F0010070470CF0004C6B
:10057C004CEA50207F32C2BFD2F1FF0340EAC25096
:10058C00704740F400004FF00003013A37E792F057
:10059C00000F00F0004C02BF400010F4000F013AB5
:1005AC00F9D040EA0C0093F0000F01F0004C02BFB0
:1005BC00490011F4000F013BF9D041EA0C0195E719
:1005CC000CEAD15392EA0C0F08D142027FF47DAFB2
:1005DC0093EA0C0F7FF470AF084676E793EA0C0FA2
:1005EC0004D14B023FF44CAF08466EE730F0004CA0
:1005FC0018BF31F0004CCAD130F000427FF45CAF30
:10060C0031F000437FF43CAF5FE700BF4FF0FF3C9D
:10061C0006E000BF4FF0010C02E000BF4FF0010CF0
:10062C004DF804CD4FEA40024FEA41037FEA226CB9
:10063C0018BF7FEA236C11D001B052EA530C18BFDB
:10064C0090EA010F58BFB2EB030088BFC81738BF40
:10065C006FEAE17018BF40F0010070477FEA226C2E
:10066C0002D15FEA402C05D17FEA236CE4D15FEA2A
:10067C00412CE1D05DF8040B704700BF844608465E
:10068C006146FFE70FB5FFF7C9FF002848BF10F11F
:10069C00000F0FBD4DF808EDFFF7F4FF0CBF012064
:1006AC0000205DF808FB00BF4DF808EDFFF7EAFFEE
:1006BC0034BF012000205DF808FB00BF4DF808EDA9
:1006CC00FFF7E0FF94BF012000205DF808FB00BF9E
:1006DC004DF808EDFFF7D2FF94BF012000205DF824
:1006EC0008FB00BF4DF808EDFFF7C8FF34BF012031
:1006FC0000205DF808FB00BF4FEA4002B2F1FE4F4C
:10070C000FD34FF09E03B3EB12620DD94FEA0023C7
:10071C0043F0004310F0004F23FA02F018BF4042A0
:10072C0070474FF00000704712F1610F01D1420287
:10073C0005D110F0004008BF6FF0004070474FF03B
:10074C00000070477BB972B90029BEBF00204FF082
:10075C00004106E008BF00281CBF6FF000414FF0BD
:10076C00FF3000F0A5B9ADF1080C6DE904CE0029FD
:10077C0009DB002B1ADB00F035F8DDF804E0DDE9CD
:10078C00022304B07047404261EB4101002B1BDB9C
:10079C0000F028F8DDF804E0DDE9022304B0404263
:1007AC0061EB4101524263EB43037047524263EBEE
:1007BC00430300F017F8DDF804E0DDE9022304B090
:1007CC00404261EB41017047524263EB430300F03E
:1007DC0009F8DDF804E0DDE9022304B0524263EBD2
:1007EC00430370472DE9F047089E0D4604468E469C
:1007FC00002B4CD18A42944667D9B2FA82F353B19A
:10080C0002FA03FCC3F1200201FA03FE20FA02F201
:10081C0042EA0E0E9C404FEA1C47BEFBF7F11FFA52
:10082C008CF507FB11EE01FB05F0220C42EA0E429F
:10083C0090420AD91CEB020201F1FF3E80F01981B3
:10084C00904240F2168102396244121AB2FBF7F060
:10085C0007FB102200FB05F5A4B244EA0244A542B2
:10086C000AD91CEB040400F1FF3280F00481A5428C
:10087C0040F201816444023840EA01400021641BCB
:10088C001EB1DC400023C6E90043BDE8F0878B4273
:10089C0008D9002E00F0EA800021C6E900050846C0
:1008AC00BDE8F087B3FA83F1002948D1AB4202D3FB
:1008BC00824200F2F880841A65EB0302012096460E
:1008CC00002EE2D0C6E9004EDFE702B9FFDEB2FA35
:1008DC0082F3002B40F08E80881A0121170C1FFA2E
:1008EC0082FEB0FBF7F507FB1500220C42EA004232
:1008FC000EFB05F0904208D91CEB020205F1FF3803
:10090C0002D2904200F2CC804546121AB2FBF7F0AC
:10091C0007FB10220EFB00FEA4B244EA0244A645DB
:10092C0008D91CEB040400F1FF3202D2A64500F2F8
:10093C00B4801046A4EB0E0440EA0540A0E7C1F1D8
:10094C0020078B4022FA07FC4CEA030C25FA07FA25
:10095C004FEA1C49BAFBF9F88D4020FA07F309FB62
:10096C0018AA1FFA8CFE2B4300FA01F508FB0EF0B7
:10097C001C0C44EA0A44A04202FA01F20BD91CEB0B
:10098C00040408F1FF3A80F08680A04240F2838094
:10099C00A8F102086444241A98B2B4FBF9F309FBD9
:1009AC00134403FB0EFE40EA0444A64508D91CEB95
:1009BC00040403F1FF306AD2A64568D9023B6444B3
:1009CC0043EA0840A0FB0293A4EB0E049C42C846E9
:1009DC009E4654D351D0002E67D0B5EB080364EB80
:1009EC000E04CB4004FA07F71F43CC40C6E9007451
:1009FC0000214AE702FA03FCC3F12000C1409D40EC
:100A0C0024FA00F04FEA1C472843B1FBF7F507FB2B
:100A1C0015111FFA8CFE020C42EA014205FB0EF185
:100A2C00914204FA03F408D91CEB020205F1FF38D9
:100A3C002FD291422DD9023D6244521AB2FBF7F1EA
:100A4C0007FB112280B240EA024001FB0EF2824207
:100A5C0008D91CEB000001F1FF3816D2824214D9E0
:100A6C0002396044801A41EA05413AE73146304682
:100A7C000BE77146E9E61046FEE64D45ABD2B9EB05
:100A8C00020863EB0C0E0138A5E74146EAE7034682
:100A9C0096E74546D1E7D0467DE76444023849E7FE
:100AAC00023D624431E708460AE73146EDE600BFF5
:100ABC00704700BF054B82B0DA690243DA61DB692B
:100ACC0003400193019B02B0704700BF001002402D
:100ADC00054B82B09A6902439A619B69034001936A
:100AEC00019B02B0704700BF00100240402910B5B6
:100AFC000FD8012914BF06220022094B094C995C1E
:100B0C00A45C042218304358A24023EA0203435049
:100B1C0010BDB1F5807F14BF06220422EDE700BFA3
:100B2C002D830008348300080B4B0C4A1B6830B42F
:100B3C00A2FB03239B0C00FB03F2094D02F5FA7296
:100B4C00A5FB0252074992094C684B681B1B934248
:100B5C00FBD330BC704700BF6400002083DE1B4316
:100B6C00D34D6210001000E0044B1888044B80B287
:100B7C001B889BB2C01A18BF01207047BA270020EF
:100B8C00B82700204FF08042044B19881162598815
:100B9C00C2F820149A88024B1A6270472611002062
:100BAC00000800406FF02002084B1A605B68084A8E
:100BBC0002F60C0353E8003F43F0200302F60C004E
:100BCC0040E800310029F3D1704700BF00380140E4
:100BDC000030014038B50446FFF7B2FA002283B268
:100BEC0063B9DAB983B22020013B91B2994214DA8D
:100BFC00655C0132302D10D16054F6E7013B9BB29D
:100C0C00E15C2E2908BF1A46EAE7655C0133302DFA
:100C1C0003D1605499B29142F7DB38BD2020013AE0
:100C2C00F8E710B53024632807D80C703021092858
:100C3C0008D830301170187010BD01346438E4B22B
:100C4C00C0B2F0E701310A38C9B2C0B2EFE710B553
:100C5C008B1C4A1C0C46FFF7E4FF0023E37010BD0D
:100C6C0003099F2894BF303337330B70002300F0F7
:100C7C000F00092894BF3030373048708B707047A4
:100C8C0013B502460C46C0B201A9FFF7E9FF214695
:100C9C00100AFFF7E5FF9DF80430A3709DF80530AE
:100CAC00E3709DF80630237102B010BD0A4613B5EF
:100CBC00044601A9C0B2FFF7D3FF9DF80430C4F37A
:100CCC00072093719DF80530D371FFF7C9FF9DF88C
:100CDC000430C4F3074013719DF805305371FFF7CE
:100CEC00BFFF9DF80430200E93709DF80530D37033
:100CFC00FFF7B6FF9DF8043013709DF80530537064
:100D0C000023137202B010BD2DE9F0410E460021F4
:100D1C00069C2170317875295DD17578632D0BD1C6
:100D2C000178B778682F1BD1632D21460CD1BDE813
:100D3C00F0410078FFF794BF692D01D10188F0E7ED
:100D4C006C2D43D10168ECE7692D04D1BDE8F0416D
:100D5C000088FFF795BF0068BDE8F041FFF7A6BF1C
:100D6C002B2F59D1A1B32770012017464FF0300813
:100D7C009DB202EB050EAEEB070C1CF4004F4DD1EF
:100D8C00002BC5F10005C8BF0025002BD4BFD71818
:100D9C00171C1D442DB2BBB20DB101352DB24FF055
:100DAC000A0C98423FD300237A213046A35406F014
:100DBC0097F958B1B3782B2B55D1601CFFF70AFF6C
:100DCC002046FFF7BDF9012383423FD3BDE8F081F4
:100DDC0020202070C8E77329F8D1717863290DD1D0
:100DEC0090F90010B0782B2814D100290FDA2D209F
:100DFC00207001200029B8BF4942B6E7692902D109
:100E0C00B0F90010EEE76C29E0D10168EAE708BF01
:100E1C002020EDE70020EDE70020A6E7013FBFB260
:100E2C0004F80780A7E7013B9BB2D71AAF4204EB4B
:100E3C00030809D0B1FBFCFE0CFB1E1771463037C2
:100E4C00FFB288F80070ACE72E27FAE7E25C202AA4
:100E5C0006D02278234403F8012C20232370B5E715
:100E6C0001339BB2B0E72046FFF7B4FE2046FFF7F4
:100E7C0067F901238342A9D2E25C202AE9D101332C
:100E8C009BB2F7E70120FFF723BE00000D4B984201
:100E9C0002D10420FFF71CBE0B4B984205D003F582
:100EAC008063984203D11020F4E70820F2E7074B47
:100EBC00984201D12020EDE7054B984200D07047B5
:100ECC004020E7E700080140000C014000140140FD
:100EDC00001801400B4B984203D14FF40060FFF710
:100EEC00F7BDB0F1804F04D0074B984204D10220DB
:100EFC0000E00120FFF7DEBD044B984201D1042035
:100F0C00F8E77047002C0140000400400008004046
:100F1C002DE9F0410C46154686B0074610220021FB
:100F2C0002A81E469DF8348006F0D2F801940B2DD1
:100F3C0007D8DFE805F00E0E070A1414141616165F
:100F4C001B1DFEE70823029303E0082302930123F1
:100F5C000593032E0ED8DFE806F01E200E1E01238B
:100F6C00F1E70123029304230493F2E70923EAE750
:100F7C000923F7E7FEE701230393B8F1000F02D032
:100F8C003846FFF783FF053D042D0BD8DFE805F04D
:100F9C0007110A0711000323EEE70223ECE7C4F361
:100FAC000F247C61384601A905F0D8FC06B0BDE8D9
:100FBC00F081C4F30F243C61F4E7000030B500234A
:100FCC00154687B00446ADF80630FFF783FF042DB5
:100FDC0004D8DFE805F02A2E04323B00FEE71C4B58
:100FEC001C4A1B68B3FBF2F39BB20022013BCDE918
:100FFC000221204601A9ADF804300492059205F0B7
:10100C00E9FD236823F080032360A36823F4804365
:10101C0023F00703A360636823F070036360A36885
:10102C0023F08003A36007B030BD094B0A4A1B684C
:10103C00D8E7074B094A1B68D4E7054B064A1B68DF
:10104C00B3FBF2F303EB83035B00CDE70123CCE7A7
:10105C006400002080A8120140420F0000127A00A8
:10106C0000224FF0FF31FFF7A9BF00000C4BD3F863
:10107C00FC2022F08072C3F8FC20D3F8FC2042F054
:10108C008072C3F8FC20A3F55D431A6822F00102BC
:10109C001A601A6842F001021A6000225A60704706
:1010AC0000ED00E0064B074A1B680749B3FBF2F35F
:1010BC00434310B54C684A68121B9A42FBD310BDCF
:1010CC006400002040420F00001000E072B6064B96
:1010DC005B6A9BB262B6054A91889380994282BF43
:1010EC001168013111607047002C01401C01002077
:1010FC000021034B5A6A034B19609A80704700BF5A
:10110C00002C01401C0100200D4B10B51868810605
:10111C0011D5DA6892060ED50A4C0B495A68238809
:10112C0009880133C3F3080389B299421FBF0749E9
:10113C00D2B2CA542380030744BF014B5B6810BD75
:10114C0000380140BA270020B8270020B82500201D
:10115C00034B1A685206FCD558600120704700BF3B
:10116C000038014008B5411E11F8010F00B908BD47
:10117C00FFF7EEFFF8E70000024A13685B06FCD5A8
:10118C00704700BF003801400848094A018813889D
:10119C0089B29BB29942F9D013880133C3F3080387
:1011AC0013801388034A9BB2D05C7047BA27002087
:1011BC00B8270020B8250020002300B589B0CDE960
:1011CC000633CB1A18BF01231B03CDE902320C23C3
:1011DC0001900491034801A9059305F02DFE09B077
:1011EC005DF804FB0038014073B52E4C0825E3680C
:1011FC00012623F40053E360FFF744FE4FF48040D4
:10120C00FFF766FC00F1804003230A22264900F513
:10121C004840CDE90056FFF77BFE032323491A46CD
:10122C002348CDE90056FFF773FE002221481146F2
:10123C00FFF7C2FF102223691F4923F49043236157
:10124C00636923F02A0363611C4B83F82523202256
:10125C005A6001F60C0353E8003F23F0200301F61B
:10126C000C0040E80032002AF3D16FF02003236019
:10127C00134B1A80134B1A80236923F400632361E8
:10128C00636923F008036361236923F480432361BA
:10129C00636923F022036361E36843F40053E36062
:1012AC0002B070BD003801400200020404000404C6
:1012BC000008014080841E000030014000E100E085
:1012CC00B8270020BA27002008B5FFF78DFFBDE82E
:1012DC000840FFF767BC0000094B1A6992070DD54F
:1012EC006FF002021A615A6B02F57A725A6301228C
:1012FC00044B1A80044A136801331360704700BF13
:10130C00002C0140A82100205C24002030B50025D1
:10131C00184B194C1D80194B89B020461D60FFF7E6
:10132C009FFE29461C2201A805F0D2FE3023009313
:10133C00636A6A4603F57A7301212046039305F02C
:10134C0081FC01212046FFF7D1FBF0220C4B83F8E6
:10135C001B234FF000621A606FF002032361E368F5
:10136C0043F00203E360236843F00103236009B0F8
:10137C0030BD00BFA8210020002C01405C240020BF
:10138C0000E100E02DE9F84381464CF250300E4666
:10139C0017461D4604F0FCFE88BBB9F1010F06D0C0
:1013AC00B9F1020F0CBF4FF002094FF004094FF0D6
:1013BC000008144A136943F0010313614FEA08143F
:1013CC00C4F12002A4F1200305FA02F227FA04F476
:1013DC00144325FA03F31C43A4B24CF2503026F804
:1013EC00184004F0D5FE28B908F101085FFA88F31B
:1013FC009945E3D8034A136923F001031361BDE84F
:10140C00F88300BF002002407FB501230022CDE904
:10141C00040301A902A8CDE9022304F0F5FE00287B
:10142C000CBF0420052007B05DF804FB0A4608B584
:10143C00014600230220FFF7A5FF00280CBF042063
:10144C00052008BD08B5FFF7DFFF031F58425841C0
:10145C0008BD08B5FFF7EAFF031F5842584108BD05
:10146C002DE9F047264B274D01280FBF3D263C2682
:10147C00AA461D460F4614462349244A06BF8946F0
:10148C009A46914604F068FE31462846FFF7DAFF8B
:10149C0028B9002404F072FE2046BDE8F087002F26
:1014AC0008BF4FF478744FF000080334C4F38F0472
:1014BC0005F11006AAEB050A1FFA88F39C4209D81D
:1014CC004FF011312846FFF7C4FF041E18BF01244A
:1014DC00A400DFE73FB95AF806104B1C06D108F1FF
:1014EC0001080436E8E757F82810F6E74E4505D210
:1014FC003046FFF7AEFF0028F1D1CAE70324C9E755
:10150C0000F0000800F40008FFF70008FFF30008E3
:10151C0010B504F021FE3C210848FFF793FF044668
:10152C0038B13D210648FFF78DFF041E18BF01247A
:10153C00A40004F023FE204610BD00BF00F00008FC
:10154C0000F4000830B5002340F2EF34064D9AB297
:10155C00914201D8042030BDA34203D05A5DC2543D
:10156C000133F4E70320F6E710F0000838B5044621
:10157C000D4672B60A4601460020FFF771FF62B6AF
:10158C00042806D172B601202A462146FFF768FFCF
:10159C0062B638BD38B5124B1C68D3F80054B4F1A0
:1015AC00113F09D1B5F1113F17D00022012011468E
:1015BC00BDE83840FFF754BFB5F1113F03D100220D
:1015CC0011461046F4E7FFF7A3FF042804D12C4082
:1015DC0001340CBF0220012038BD0420FCE700BF01
:1015EC0000F00008034BD8609A68D207FCD5D86885
:1015FC0080B2704700300140431E062B94BFC000E0
:10160C003820704708B5FFF7F7FF034A136823F03B
:10161C0038030343136008BD00300140164B1A68B1
:10162C0022F040021A60032803D8DFE800F003150B
:10163C001D21FEE71A6822F002021A601A6822F0D5
:10164C0001021A600C4B1A6842F040021A609A6848
:10165C009207FCD5DB6870471A6822F002021A6008
:10166C001A6842F00102ECE71A6842F00202E4E761
:10167C001A6842F00202F2E700300140F0B5002493
:10168C0001258DB0294E2822002102A805F020FD4D
:10169C00FFF7F8FB4FF48050FFF71AFA24490323A5
:1016AC0006223046CDE90045FFF732FC06274FF401
:1016BC0080730A22336142F22001032330460195E4
:1016CC000097FFF725FC03230A2248F280013046DD
:1016DC00CDE90075FFF71CFC032344F240011A46C8
:1016EC003046CDE90075FFF713FC382308934FF40F
:1016FC00827303934FF4007307934FF400630493C6
:10170C000723CDE90545CDE909440294094C02A90A
:10171C0020460B9305F031FA236843F04003236015
:10172C00A3689B07FCD5E3680DB0F0BD0008014031
:10173C000100010400300140154D08B5154C6B68D3
:10174C00236004F033FC144805F0B8F8134805F096
:10175C00B5F8134805F0B2F8124805F03BFB05F05C
:10176C0083F94FF0E02300221A615A619A6102F169
:10177C00804202F50432536823F0030353600123C3
:10178C0083F310882B6883F3088823689847FEE757
:10179C0000F0FF1F1801002000080140000C014060
:1017AC00001001400038014010B588B004461C22DE
:1017BC00002101A805F08CFC60236A4603944FF4C9
:1017CC008051124C4FF08040009305F03BFA4FF4DF
:1017DC0080514FF08040FFF789F96A464FF48071D1
:1017EC00204605F02FFA20464FF48071FFF77EF962
:1017FC006A464FF48051204605F024FA4FF480518C
:10180C002046FFF773F908B010BD00BF000400407C
:10181C002DE9F0418AB00646FFF734FB0420FFF7B0
:10182C0057F90820FFF754F9092203230024CDE9C6
:10183C00012340F608030F4629486946CDE90344C5
:10184C00009305F08BF840F203336946254800936A
:10185C0005F084F8142221460DEB020005F038FC4B
:10186C0020234FF080450120CDE9063605A9FFF76E
:10187C0021F94FF0804005F0ADF92B68DFF8688056
:10188C0023F080032B60AB68184C03EA0803AB60B1
:10189C006B68022023F070036B60AB6805A923F022
:1018AC008003AB60FFF706F9204605F093F9236837
:1018BC00384623F080032360A36803EA0803A3607F
:1018CC00636823F070036360A36823F08003A36054
:1018DC00EE62E662FFF768FF0AB0BDE8F08100BF78
:1018EC0000080140000C0140F8BFFFFF000400405D
:1018FC000022024B9A805A801A80704726110020D1
:10190C0008B5FFF785FF4FF08042136843F00103E1
:10191C001360D2F8003443F00103C2F80034D2F85B
:10192C00003843F00103C2F8003808BD11480188A3
:10193C00C2888389B0F8EC0F30B94FF08040016455
:10194C000D49CA630B64704701EB4100C1EBC00148
:10195C004FF0804089B2016402EB4201C2EBC1023C
:10196C00054992B2CA6303EB4302C3EBC2039BB2B9
:10197C00E8E700BF34010020000400404FF0804233
:10198C0038B51049136A0B800F4B1C6A4C800F4CF6
:10199C00256A8D80002111621962216268B148F6B6
:1019AC000A210120D162D962094BA3F8EC0FFFF791
:1019BC00BDFFBDE83840FFF7E5B840F20A61D162DF
:1019CC00D962F1E726110020000400400008004015
:1019DC0034010020F8B500240B4D0C4F0C4E204662
:1019EC00FEF770FC3946FEF7C1FC05F0CFFB314623
:1019FC00FEF7BCFCFEF780FE0134B4F57C7F45F8A5
:101A0C00040FECD1F8BD00BF50010020DE40CC3BF0
:101A1C00008038481A49B0F57C7F488224BFA0F575
:101A2C007C7080B200F108020B8B51F822205A43D3
:101A3C00120C02F540720A8000F5A87292B2B2F54F
:101A4C007C7F24BFA0F5287082B202F1080051F807
:101A5C0020005843000C00F54070C88002F5A870B7
:101A6C0080B2B0F57C7F24BFA2F5287290B208300A
:101A7C0051F8202053431B0C03F540738B817047A6
:101A8C003401002008B5FFF733FF0F4AB2F8EE1F00
:101A9C0021F007039BB2C906A2F8EE3F10D5B2F8AD
:101AAC00E41F02290CD8094943F001030888A2F865
:101ABC00EE3F40F480500880488840F488504880BD
:101ACC00BDE80840FFF75EB8340100202611002065
:101ADC00064AB2F8EE3F20B143F01003A2F8EE3FF5
:101AEC00704723F010039BB2F8E700BF34010020CD
:101AFC00003818BF012008B5064BB3F8EE3FC3F30E
:101B0C000013984204D0FFF7E3FF0122024B1A8026
:101B1C0008BD00BF3401002024110020054BB3F890
:101B2C00E42F82421FBF0122A3F8E40F024B1A805C
:101B3C00704700BF3401002024110020064BD3F85D
:101B4C00E42FB2F1011F03D1B3F8E83F012B01D010
:101B5C00FFF714BF704700BF34010020003818BFD6
:101B6C000120044BB3F8EC3F834201D0FFF7E6BFF2
:101B7C00704700BF3401002008B5FFF7B9FE4FF0E5
:101B8C0003104FF003220E4B4FF44071C3E90022B7
:101B9C00C3E90222C3F8E40F00220320C3F8122089
:101BAC00DA829A619A83C3F8E80FC3F8EC2F198292
:101BBC000122BDE8084040F20A60FFF7A1BE00BF59
:101BCC003401002010B504466420FFF76BFAA368BB
:101BDC0043F00403A360A3685B07FCD410BDF7B506
:101BEC00044618464FF4407393FAA3F3B3FA83F305
:101BFC001F2601F44075DD4004F12C0757F8253001
:101C0C0001F01F018E4023EA060302F01F0606FABC
:101C1C0001F10B4347F825304FF0007393FAA3F30F
:101C2C00B3FA83F302F00076DE4004F10C014FF0BE
:101C3C00F87551F8263002F0F87295FAA5F4B4FA5A
:101C4C0084F495FAA5F50727B5FA85F522FA04F47C
:101C5C0007FA04F4EA40974023EA04033B4341F8B3
:101C6C002630012200230899CDE900320323FFF727
:101C7C004FF903B0F0BD0000024B18804FF47A709E
:101C8C00FFF710BA240100200A4A10B553891488B2
:101C9C0091899BB2022C89B2938092BFD3895B1835
:101CAC00C3F580539BB213810023D18053800380F2
:101CBC00012010BD2401002030B5142200258BB06A
:101CCC00244C29460DEB0200CDE90355029505F095
:101CDC00FFF9204604F066FD1F4A03A9536823F45C
:101CEC00404343F400435360FFF7CCF84FF40070CB
:101CFC00FEF7EEFE2046CDE9035504F0A7FD02A940
:101D0C002046029504F032FD4FF46023CDE90535F1
:101D1C00022305A92046CDE90835079504F0ABFD53
:101D2C0042F220034FF400710C4A204600930C4BF6
:101D3C00FFF755FFA368204643F00103A360FFF7AC
:101D4C0041FF6420FFF7AEF9A36843F4A003A3603E
:101D5C000BB030BD00240140001002400500F00221
:101D6C000008014008B5FFF789FC0320FFF756FC7B
:101D7C00BDE808400220FFF745BC000070B54FF4E9
:101D8C0080764FF0960E174D174A6E61174C1268FD
:101D9C00174BA4FB0242920C0EFB02F202F5FA72F4
:101DAC00A3FB023213498446486892094B681B1AFC
:101DBC009A42FBD800231048C3608368DB07FCD52C
:101DCC000C49C46848684B681B1A9342FBD34FF408
:101DDC008072044BC4F38D041A610120ACF80040EE
:101DEC0070BD00BF000801406400002083DE1B436F
:101DFC00D34D6210001000E000300140F8B54FF4F4
:101E0C0080760446124D96206E610F46FEF78CFECE
:101E1C00200200F5804000F47F40FFF7E3FB9620A2
:101E2C00FEF782FE40F2EE202E61FEF77DFE96203C
:101E3C006E61FEF779FE0020FFF7D4FB0446962076
:101E4C00240AFEF771FE2E6101203C80F8BD00BF14
:101E5C0000080140F8B54FF480770D460446134E48
:101E6C0096207761FEF760FEA5F5004303EB042096
:101E7C0080B2FFF7B7FB9620FEF756FE44F62060C3
:101E8C003761FFF70FF996207761FEF74DFE0020C2
:101E9C00FFF7A8FB04469620FEF746FEC4F30F207E
:101EAC00431B584237615841F8BD00BF0008014040
:101EBC0037B504460D461B200DF10601FFF79EFFBA
:101ECC00BDF8063013F00C0FC3F3C0120CBF012386
:101EDC0000232A80238003B030BD66210E20FFF73B
:101EEC00B9BF08B5FFF7CAFBBDE808400220FFF7F1
:101EFC0089BB000070B54FF480764FF0960E244DE0
:101F0C00244B6E61244C1B68244AA4FB03439B0C9A
:101F1C000EFB03F303F5FA73A2FB0323204984465B
:101F2C0048689B094A68121A9342FBD847F6FD721F
:101F3C001C48C2608268D207FCD54FF48074144AE6
:101F4C001749C068146148684A68121A9342FBD852
:101F5C004FF480740E4A1248546149684268521A10
:101F6C009342FBD84FF440430E4AD3609368DB078F
:101F7C00FCD54FF48074D3680549C3F30D0283F488
:101F8C0080430C61C3F38030ACF8002070BD00BFFF
:101F9C00000801406400002083DE1B43D34D621017
:101FAC00001000E000300140034610F400620EBF48
:101FBC00642040F24C404FF47A7213F4806F08BFE7
:101FCC0010469A0544BF0A3080B2DA0548BF01308A
:101FDC00DBB248BF80B20B80704700BF70B54FF4C6
:101FEC0080764FF0960E244D244B6E61244C1B686A
:101FFC00244AA4FB03439B0C0EFB03F303F5FA7377
:10200C00A2FB03232049844648689B094A68121A9C
:10201C009342FBD84FF6FF721C48C2608268D2070D
:10202C00FCD54FF48074144A1749C0681461486891
:10203C004A68121A9342FBD84FF480740E4A124825
:10204C00546149684268521A9342FBD84FF440439A
:10205C000E4AD3609368DB07FCD54FF48074D368C9
:10206C000549C3F30D0283F480430C61C3F3803044
:10207C00ACF8002070BD00BF0008014064000020D7
:10208C0083DE1B43D34D6210001000E00030014092
:10209C004FF4807CF0B49626334F344BC7F814C001
:1020AC00334D1B68334AA5FB03539B0C06FB03F310
:1020BC0003F5FA73A2FB03232F4C9B096568626836
:1020CC00521B9342FBD847F6FD722C4DEA60AA686E
:1020DC00D407FCD54FF48076234A274CED68166163
:1020EC0065686268521B9342FBD84FF480751E4A98
:1020FC0055616468204D6A68121B9342FBD847F601
:10210C00FE721E4CE260A268D207FCD54FF48076BA
:10211C00E268154D184CC2F30D0202802E61606806
:10212C006268121A9342FBD84FF480700E4A124D1B
:10213C00506160686A68121A9342FBD84FF44043AE
:10214C000E4AD3609368DB07FCD54FF48074D068DB
:10215C00054AC0F30D0380F480401461C0F3803055
:10216C000B80F0BC704700BF0008014064000020E9
:10217C0083DE1B43D34D6210001000E000300140A1
:10218C00F0B44FF48077234E234B7761234D1B68BB
:10219C00234AA5FB03539B0C03EB83135B0003F552
:1021AC00FA73A2FB032300011E4CA0F5FF407F38FD
:1021BC0085B260689B096268121A9342FBD81A4C6C
:1021CC00E560A268D507FCD51648E2684468426809
:1021DC00121B9342FBD84FF6FF70134AD0609068E5
:1021EC00C007FCD54FF6FF74D5680F480D80D4603E
:1021FC008268D207FCD50B49C0684C684A68121B30
:10220C009342FBD8F0BC4FF48072024BC0F3803089
:10221C001A617047000801406400002083DE1B43F4
:10222C00D34D6210001000E0003001404FF4807C70
:10223C00F0B445F20105274F274BC7F814C0274EC1
:10224C001B68274AA6FB03639B0CC3EB031C4FEADA
:10225C00CC0C0CF5FA7CA2FB0C2C224C05EB0015DB
:10226C006068ADB24FEA9C1C6268121A9445FBD8A8
:10227C001D4AD5609068C007FCD51B48D468D16056
:10228C008268D207FCD5962404FB03F3144A03F5A9
:10229C00FA73A2FB03231349C06848689B094A6878
:1022AC00121A9342FBD84FF6FF730F49CB608B6821
:1022BC00DB07FCD50B4AC868516853685B1A9C4510
:1022CC00FBD8F0BC4FF48072024BC0F380301A6123
:1022DC00704700BF000801406400002083DE1B43F0
:1022EC00D34D6210001000E000300140024610F4A3
:1022FC0080530EBF4FF47A7042F6F82042F21073FE
:10230C0012F4006F08BF1846130644BF00F16403B3
:10231C0098B2510644BF00F10A0398B2930644BF29
:10232C00013080B2704700BF40F24C4301B202460C
:10233C000029ABBF184600234FF47A73642012F4C3
:10234C00804F18BF1846910458BF0A30D3045CBFA5
:10235C00013080B2704700BFF0B44FF48077224E4A
:10236C00224B7761224D1B68224AA5FB03539B0C21
:10237C0003EB83135B0003F5FA73A2FB03231E4CE0
:10238C009B0965686268521B9342FBD848F20102B4
:10239C001A4DEA60AA68D607FCD5174CEA6865683E
:1023AC006268521B9342FBD84FF6FF74134AD460F9
:1023BC009468E407FCD54FF6FF74D6680F4D068081
:1023CC00D460AA68D207FCD5E8680B4C6568088015
:1023DC006268521B9342FBD8F0BC4FF48072024BE4
:1023EC00C0F380301A61704700080140640000207F
:1023FC0083DE1B43D34D6210001000E0003001401F
:10240C0038B50546FFF7A8FF2A880C4612F4805110
:10241C000EBF4FF47A7342F6F82342F2107112F4A5
:10242C00006F08BF0B46110644BF64339BB25106C4
:10243C0044BF0A339BB2920644BF01339BB22B803C
:10244C00B4F9003040F24C42002BB4BF00254FF4DD
:10245C007A752188ACBF1346642311F4804F18BFE2
:10246C002B468D0458BF0A33CA045CBF01339BB2A0
:10247C00238038BD4FF4807CF0B46426214F224B6E
:10248C00C7F814C0214D1B68214AA5FB03539B0CB4
:10249C0006FB03F303F5FA73A2FB03231D4C9B0904
:1024AC0065686268521B9342FBD848F202121A4DBF
:1024BC00EA60AA68D607FCD5164CEA6865686268BB
:1024CC00521B9342FBD84FF6FF74134AD4609468A6
:1024DC00E407FCD54FF6FF75D6680F4C0680D56027
:1024EC00A268D207FCD5E2680A4844680A804268B0
:1024FC00121B9342FBD8F0BC4FF48072014B0120AD
:10250C001A617047000801406400002083DE1B4301
:10251C00D34D6210001000E00030014070B54FF454
:10252C0080764FF0640E1E4D1E4B6E611E4C1B6868
:10253C001E4AA4FB03439B0C0EFB03F303F5FA7337
:10254C00A2FB03231A49844648689B094A68121A5D
:10255C009342FBD848F220021648C2608268D10729
:10256C00FCD51349C26848684A68121A9342FBD8D2
:10257C004FF6FF720F4CE260A268D207FCD50C49F3
:10258C00E46848684A68121A9342FBD84FF4807288
:10259C00034B44F30E041A610120ACF8004070BDEB
:1025AC00000801406400002083DE1B43D34D621001
:1025BC00001000E00030014030B5FF230024A142A0
:1025CC0002DCD843C0B230BD025D534008225DB27C
:1025DC00013A5B00DBB2002D92B2B8BF83F01D0351
:1025EC00002AF4D10134EAE738B505460824204620
:1025FC0001342946A4B2FFF7C3FD102C05F10205E6
:10260C00F5D138BD30B585B06A46811E00F10E0398
:10261C00104631F8024F0232250A994202F8025C48
:10262C0002F8014CF5D10F21FFF7C6FF9DF80E30D3
:10263C0040EA032080B205B030BD000008B5084B5D
:10264C001A782AB901224FF496601A70FEF72AFD07
:10265C00BDE808404FF480610720FFF7E7BD00BFDD
:10266C00BC270020F0B5322087B0FEF71BFDFFF72A
:10267C00E5FF3220FEF716FD01A8FFF7B5FF44F287
:10268C0001010620FFF7D2FD214ABDF80E50BDF81E
:10269C001040BDF80470BDF80660BDF8123014404F
:1026AC0025F00F05134027F00F0726F00F0645F015
:1026BC000B0544F0200443F48073BFB2B6B2ADB244
:1026CC00A4B201A8ADF81230ADF80470ADF80660F4
:1026DC00ADF80E50ADF81040FFF794FF01460F20F7
:1026EC00FFF7A4FD39460820FFF7A0FD314609206D
:1026FC00FFF79CFD29460D20FFF798FD21460E2083
:10270C00FFF794FD3220FEF7CDFC07B0F0BD00BF03
:10271C0000FEFFFF08B5FEF7B1FFBDE8084003203F
:10272C00FEF770BF0288034610B492B9D3E90102D8
:10273C0092FBF0FCDC68A1EB0C010A44111B91FB31
:10274C00F0F1214491FBF0F0C3E9022100B210BC7E
:10275C0070474268002401FB02F2084611461C80B7
:10276C00C3E9022110BC7047012AB8BF01221F4BDC
:10277C0073B55A6001220024914206460D461A8018
:10278C00448312D1FFF7C6FFFFF76CFF0DF1060172
:10279C0001A8FFF735FEBDF80430BDF8062003F0A4
:1027AC000803134316D000200EE08B1E042BFAD81E
:1027BC00DFE803F003130C161A00FFF792FB0DF180
:1027CC000600FFF797FB28B902B070BDFFF7CAFAF5
:1027DC00FFF783FB01207583F6E7FFF76DFAF9E746
:1027EC000220FFF749FAF5E70320FAE7B0210020B1
:1027FC00002310B5838283800360438B0446012B36
:10280C0006D11430FFF78AFEB4F914305B0015E0E2
:10281C00023B042B2BD8DFE803F0031713313100F4
:10282C001430FFF7DBFBB4F91430B3F5005FA4BF31
:10283C00A3F58043A382B4F914309B00A38016E067
:10284C001430FFF79BFAEEE70E4BD96C4FF4A573DF
:10285C00A1F5006109B28182090159434FF4B473A7
:10286C0091FBF3F1084809B2FFF75CFFA080B4F9C3
:10287C000420130223602282A36010BD1430FFF7E2
:10288C0003FAC1E700240140B02100200023838219
:10289C00838003600382836070470000438B70B5B4
:1028AC00B0F904600568012B04460682856006D1E8
:1028BC001430FFF733FEB4F914305B0015E0023B23
:1028CC00042B2BD8DFE803F0031713333300143039
:1028DC00FFF784FBB4F91430B3F5005FA4BFA3F584
:1028EC008043A382B4F914309B00A38016E014300B
:1028FC00FFF744FAEEE7104BD96C4FF4A573A1F532
:10290C00006109B28182090159434FF4B47391FB00
:10291C00F3F10A4809B2FFF705FFA080B4F90420CF
:10292C0013022360921B5B1B6282E36070BD143048
:10293C00FFF7AAF9BFE700BF00240140B021002037
:10294C00B0F90030002B0BD04FF08072BCBF5B4253
:10295C001BB292FBF3F38B4203DD002903DB4160D6
:10296C007047C91AF7E71944F7E700000B4610B592
:10297C00044682B06946184601AA04F0F3FA40F204
:10298C00E220019B174A009983FB02329B0F43EA1A
:10299C0082034A105242D21AA3EB610384FB011C3E
:1029AC00890F41EA8C0183FB043C82FB04249B0FBE
:1029BC00920F43EA8C0342EA840200FB01F100FB14
:1029CC0003F300FB02F2091407481B14121401F55F
:1029DC00407103F5407302F540720180C38082811F
:1029EC0002B010BDC0F56C373401002010B50446A0
:1029FC0013480B468842B8BF08466168B4F90040DA
:102A0C00B0F5803FA8BF4FF480300A44002C02FB85
:102A1C0004F10DDD002B07DB01F58001FFF7A6FFAC
:102A2C00BDE81040FEF782BFA1F580014042F5E7FA
:102A3C00002B02DBA1F58001F0E701F58001F5E741
:102A4C000000FFFF07B5082300220749CDE900323B
:102A5C00064803230A22FEF75BFA012003B05DF857
:102A6C0004EBFEF71FBB00BF02000204000801408C
:102A7C0007B50120FEF780FBFEF714FB0023CDE920
:102A8C000033032303491A460348FEF741FA03B007
:102A9C005DF804FB0200020400080140F8B50024B4
:102AAC0006462546E3B28B4204D32846BDE8F840DF
:102ABC00FEF74EBB375D01343846FEF749FB7D40CF
:102ACC00F0E738B5054604782046FEF741FB6D78F3
:102ADC002846FEF73DFB6C400846FEF739FB81EAC1
:102AEC000400BDE83840FEF733BB0000FF21094A63
:102AFC00002391800849136091603F21074A91801F
:102B0C000749136091600121064A9180138053801C
:102B1C00704700BF6025002060240020AC250020F9
:102B2C006C2500204A110020002208B5064B1A61C2
:102B3C00C3E90022C3E902229A82FEF7C5FBBDE875
:102B4C000840FFF7D3BF00BF2C11002007B5104978
:102B5C00104BCA68104822F4E0621204120C1343A2
:102B6C00CB600122002340F20221CDE90032042285
:102B7C00FEF7CEF9FEF77AFAFFF7D6FFFFF778FFEC
:102B8C00FEF7B6FA03B05DF804EBFEF7BFBB00BF6F
:102B9C0000ED00E00003FA0500080140064A138826
:102BAC0043B1064B51885B6A5B1A9BB2642B84BFA2
:102BBC0000231380704700BF34240020002C0140F8
:102BCC000022034B1A805A809A80DA80704700BF2B
:102BDC003424002070B52F4B86B09B78013B032B1F
:102BEC0055D8DFE803F00211314AFFF72BFF2A4BCF
:102BFC001C782046FEF7ACFA284B19780846FEF7ED
:102C0C00A7FA84EA010018E010240025FFF71AFF48
:102C1C001022002101A804F05BFA214901A804F05C
:102C2C00A9FA01A911F8016B013C3046A4B2FEF7D8
:102C3C008FFA7540002CF5D12846FEF789FAFFF77C
:102C4C0017FF012006B070BD10240025FFF7FAFE17
:102C5C001022002101A804F03BFA124901A804F04B
:102C6C0089FA01A911F8016B013C3046A4B2FEF7B8
:102C7C006FFA7540002CF5D1DEE7FFF7E3FE0A4B47
:102C8C001C7819882046FEF763FA090AB6E700207B
:102C9C00D8E700BFAA210020C22100204411002047
:102CAC00F57D0008FF7D0008A02100201622FF21E1
:102CBC00014804F00DBA00BF00010020162108B530
:102CCC000248FEF753FC80B208BD00BF0001002093
:102CDC00162108B50248FEF735FC80B208BD00BFCE
:102CEC000001002000220721034B5A809980DA80D2
:102CFC001A815A819A81704700010020094B5A8829
:102D0C00043A92B2022A84BF00225A805A89062AB7
:102D1C0084BF00225A819A893F2A84BF00229A815B
:102D2C00704700BF0001002010B5FFF7BFFFFEF792
:102D3C0031FC04280CD0FFF7B9FFFEF72BFC04285C
:102D4C0003D1FFF7C5FF042806D0FFF7AFFF03E060
:102D5C00FFF7BEFF0428EED1124C2388272B0ED090
:102D6C00FFF7C0FF2388202B0DD8FFF7BBFF2723CD
:102D7C000D490E48238004F0FDF9FFF79FFFBDE8D5
:102D8C001040FFF7BBBF212B05D1FFF7A1FF00239C
:102D9C006381A381EBE7262BE9D8FFF799FF00238A
:102DAC00F7E700BF000100200C7E00080E01002098
:102DBC00F7B5012500242B46032241F210013748B8
:102DCC00CDE90045FEF7A4F82B4640F2044103225E
:102DDC00CDE900453148FEF79BF8314B31495B8812
:102DEC00042B02D10B8003B0F0BD052B01D10523C0
:102DFC00F8E7062B01D10623F4E704230B804023CC
:102E0C002246264CA068013BC60648BF01329BB245
:102E1C0048BF92B2002BF5D1302A14D80F2A35D9DD
:102E2C000225214F48F6B800FEF73CF9B7F90060CF
:102E3C0048F6B800002EB8BF2561FEF733F9002E16
:102E4C00F0DA6561EEE701204022A568013A6D07D2
:102E5C0048BF013392B248BF9BB2002AF5D1302B48
:102E6C0019D80F2B14D902250F4F48F6B800FEF7CE
:102E7C0019F9B7F9006048F6B800002EB8BF256103
:102E8C00FEF710F9002EF0DA6561EEE71846DBE785
:102E9C000028A8D0AFE70028A5D1A8E7000801407A
:102EAC0000010020C02100206000002038B5FFF791
:102EBC003BFFFFF77DFF234B234C5A6A234B618961
:102ECC001A804FF48052224B1A804A1E052A07D8CA
:102EDC00DFE802F0032C2F32353541F201021A8063
:102EEC00A2891C48FFF740FC20B11B4A138843F011
:102EFC008003138000251748FFF77AFC1748A38836
:102F0C0045600380D4F80610FFF71AFDFEF734FE77
:102F1C00FEF760FD124B28461D83FEF7D9FD0320FA
:102F2C00FEF7FCFDBDE83840FEF7ACBD41F20202F5
:102F3C00D5E741F20302D2E741F20402CFE741F2B6
:102F4C000702CCE7002C01400001002048220020A1
:102F5C00A0210020DC000020C2210020F80000206D
:102F6C003401002008B50C4A0C4B12885B6A9B1A82
:102F7C0042F210729BB293420CD90020FEF7B8FDBE
:102F8C00074B1A88012A05D100221A80BDE8084097
:102F9C00FEF778BD08BD00BF48220020002C014080
:102FAC002411002008B5044B1B881B0602D50348CE
:102FBC00FFF774FC142008BDC2210020DC000020A7
:102FCC00054BB3F8EE3F13F0100F0CBF96224FF4E5
:102FDC00FA72024B1A807047340100206000002006
:102FEC0008B50A4B1B8883B9FFF7F4FD68B9084B89
:102FFC009B78752B09D1FFF725FD06210548FFF7B6
:10300C004DFDBDE80840FFF733BD08BD4811002059
:10301C00AA21002004010020F8B5504B1F88002F76
:10302C004ED14F4E4F4D30782F8000F04000FEF7C0
:10303C0095FD307800F01000FEF75AFD4A4B1A88C7
:10304C003378042A3DD113F0010F14BF3846032006
:10305C00FEF764FD7278B478F378570004F07F00C3
:10306C00E401D90104F47E5402F07F029B0303F4C3
:10307C00FE1301F4607114431C4408431B0D03D070
:10308C006FEA04346FEA143433789B0657D5374B08
:10309C00374E1B8813F0800F44D03046FFF7FEFBF1
:1030AC00214632683348FFF7A1FC2B88012B03D152
:1030BC0000232B80FEF7E6FC2F4B5A6A2F4B1A800D
:1030CC00F8BD052A0BD113F0020F14BF38460320AC
:1030DC00FEF724FD32797479B3795700BEE7062ADE
:1030EC001CD113F0040F14BF38460320FEF716FD55
:1030FC00347AF379727A04F07F00E401D1015F0035
:10310C0004F47E5403F07F03920302F4FE1201F4E4
:10311C0060711C4314440843120DB0E73C464FF455
:10312C00FC70B1E7134A3368516820460B44B2F97E
:10313C0000105943FFF71AFCFEF7F8FBB5E7FA2F1E
:10314C003B4628BFFA23B0F57C7F0D4A28BFA0F57B
:10315C007C7080B21383FEF75DFCEDE74811002014
:10316C00C421002024110020C0210020C2210020F5
:10317C00DC000020F8000020002C01404822002038
:10318C0034010020034B1B881B0602D50248FFF7B5
:10319C0085BB7047C2210020DC00002008B5094B1C
:1031AC001B881B0608D5084B9A88084B1A800523E8
:1031BC00074A0720137008BD0348FFF767FB01237C
:1031CC00F6E700BFC2210020DC00002030240020E4
:1031DC0032240020024B03481978FFF772BC00BF61
:1031EC00322400203024002030B51C468BB005ADB5
:1031FC001346ADF80E000A460DF10E000549009578
:10320C00FDF782FD2846FDF7ADFF2046FDF7AAFF2E
:10321C000BB030BD117E000830B51C468BB005AD2F
:10322C00134603900A4603A805490095FDF76CFD6B
:10323C002846FDF797FF2046FDF794FF0BB030BDF5
:10324C00167E0008074AD08838B1138933B9013883
:10325C0080B21081B0FA80F040097047013B98B2FF
:10326C00F7E700BF60230020024A93880133938064
:10327C00704700BF602300200022024B5A601A8165
:10328C00704700BF602300200022024B1A609A8016
:10329C00704700BF5011002008B5FDF775FF054AB7
:1032AC009388D11801339BB2382B28BF38238871EF
:1032BC00938008BD501100200A2801D03B2807D16B
:1032CC000021044B01209A8899801A44917170470F
:1032DC0000207047501100200023034A03489380BC
:1032EC00034A1360FDF73EBF602300201B7E0008DD
:1032FC005011002008B5FFF7BFFF0022034B044814
:10330C001A60BDE80840FDF72DBF00BF501100202A
:10331C001B7E000870B50546FCF712FF094E0246ED
:10332C002946B01D03F0E9FE044640B92846FDF7D6
:10333C0019FF0548FDF716FF0120B47170BD002080
:10334C00FCE700BF50110020B07E00082DE9F843C7
:10335C0006460F46FCF7F4FEDFF84880024608F1FB
:10336C00060905463146484603F0C7FE0446B0B987
:10337C0009EB050003F01CFE05B23D803046FDF75D
:10338C00F1FE0948FDF7EEFE284622460721074BC1
:10339C00FFF72AFF012088F80640BDE8F8830020DB
:1033AC00FBE700BF50110020F87E0008B07E00083B
:1033BC002DE9F84306460F46FCF7C2FEDFF84880BD
:1033CC00024608F1060905463146484603F095FECB
:1033DC000446B0B909EB050003F0EEFD0546386074
:1033EC003046FDF7BFFE0948FDF7BCFE28462246D5
:1033FC000A21074BFFF710FF012088F80640BDE8B3
:10340C00F8830020FBE700BF50110020F87E000875
:10341C00B07E000810B50748FDF7A4FE0648FDF77E
:10342C00A1FEBDE81040054800220E21044BC068E7
:10343C00FFF7F2BE1E7E00082E7E00082C11002025
:10344C00B07E000810B52E482E4CFDF78BFE2E4892
:10345C00FDF788FE002205212C4BB4F90000FFF784
:10346C00C3FE2B48FDF77EFE00220521274BB4F945
:10347C000200FFF7B9FE2748FDF774FE264B002229
:10348C000521B4F90A00FFF7AFFE6389062B34D887
:10349C00DFE803F00427292D2B2F31001F48FDF7FF
:1034AC0061FE1F48FDF75EFE00220A21174BB4F99E
:1034BC000400FFF799FE1B48FDF754FE00220A2179
:1034CC00124BD4F80600FFF7A7FE1748FDF74AFE8B
:1034DC00B4F90C000022BDE8104005210B4BFFF79E
:1034EC0083BE1248DBE71248D9E71248D7E71248E7
:1034FC00D5E71248D3E71248D1E71248CFE700BF0F
:10350C00347E000800010020517E0008B07E0008C7
:10351C005A7E0008657E0008747E0008787E0008DC
:10352C00D87E0008E97E0008FA7E00087F7E00083D
:10353C008E7E00089C7E0008A87E0008B37E0008E2
:10354C00C07E0008CE7E00080023C161C0E90133B3
:10355C00C0E90333C0E905330360704710B5891A1D
:10356C00B1F5004F38DAC1F5FF437F331B0C1B0458
:10357C0019440368016181FB03341B0C43EA0443C7
:10358C008468C36084B181FB0414090C41EA0441D2
:10359C00B1F5803FA8BF4FF48031124CA142B8BFA7
:1035AC00214641611944C160416899B1C369D31A7C
:1035BC00B3F5004F13DAC3F5FF447F34240C240415
:1035CC002344836181FB0313090C41EA0341C36863
:1035DC005B1AC360C26110BDA1F58031C0E7A3F5D1
:1035EC008033E5E70000FFFF044B054A4FF48041B0
:1035FC001A600022C3E90112704700BF9822002014
:10360C004022002008B5044B99685860FFF7AEF9CA
:10361C00BDE80840FEF78AB99822002008B5054B92
:10362C00014698605868FFF7A1F9BDE80840FEF71D
:10363C007DB900BF9822002008B5054B9A68811807
:10364C0058689960FFF792F9BDE80840FEF76EB92B
:10365C009822002008B50848FDF784FD074B00228E
:10366C0018680A21064BB0F90000FFF7D5FDBDE83C
:10367C0008400448FDF776BD027F00089822002020
:10368C00C87F0008B07E000808B50848FDF76AFD41
:10369C00074B002218680A21064B4068FFF7BCFD57
:1036AC00BDE808400448FDF75DBD00BF107F000871
:1036BC0098220020C87F0008B07E000870B5002555
:1036CC004FF48040FFF79EFF104B114E114C9B683E
:1036DC0030462360C4E90155FFF7E0F83368C4E9CC
:1036EC000555C4E903354FF48043C4E90935C4E9F1
:1036FC000B35094BC4E90755C4E90E35C4E910353F
:10370C006563A364A4F84C50256570BD9822002015
:10371C0024220020A42200203075D08A08B54FF452
:10372C008040FFF76FFF034B1868BDE80840FFF7B8
:10373C0075BF00BFA42200202DE9F041204C80462B
:10374C0020480F4615461E46002223460A210068D3
:10375C00FFF762FD08211C4B0022986823460841A4
:10376C00FFF75AFD1948234600220821B0F904003E
:10377C00FFF752FD2346404600220821FFF734FD97
:10378C002346002208213846FFF72EFD3046FEF76F
:10379C00CBFD23460022052100B2FFF725FD28466C
:1037AC00FEF7A4FD23460022062100B2FFF71CFD04
:1037BC000748FDF7D7FCBDE8F041C820FDF772BC07
:1037CC00C87F0008602300209822002024220020BB
:1037DC00B07E000873B5204C064620480D462346A3
:1037EC0000220A210068FFF717FD08211C4B00225C
:1037FC00986823460841FFF70FFD1A48234600221C
:10380C000821B0F90400FFF707FD234630B200226F
:10381C000821FFF7E9FC0022234610460821FFF798
:10382C00E3FC0DF106012846FEF7BEFB2346002201
:10383C00052100B2FFF7D8FC234600220521BDF973
:10384C000600FFF7D1FC0848FDF78CFCC820FDF7FB
:10385C0029FC02B070BD00BFC87F000860230020A7
:10386C009822002024220020B07E000870B51F4C46
:10387C0006461F480D46234600220A210068FFF722
:10388C00CBFC08211B4B0022986823460841FFF70C
:10389C00C3FC1948234600220821B0F90400FFF7A5
:1038AC00BBFC0022B01A23464FF0080118BF0120C0
:1038BC00FFF79AFC0022A81A18BF01202346082102
:1038CC00FFF792FC0022234610460821FFF78CFCE0
:1038DC000022234610460821FFF786FC0748FDF717
:1038EC0041FCBDE87040C820FDF7DCBBC87F000878
:1038FC00602300209822002024220020B07E0008A3
:10390C002DE9F0411D4C80461D480F4616461D46BC
:10391C00002223460A210068FFF77EFC0821194B80
:10392C000022986823460841FFF776FC1648234688
:10393C0000220821B0F90400FFF76EFC2346404634
:10394C0000220821FFF750FC2346384600220821AC
:10395C00FFF74AFC2346304600220821FFF744FCBF
:10396C002346284600220821FFF73EFC0748FDF7B6
:10397C00F9FBBDE8F041C820FDF794BBC87F0008F7
:10398C00602300209822002024220020B07E000812
:10399C00F7B5874C44F28910FFF74EFE6368854DEE
:1039AC0003F58343093328466360FEF777FF2A68E3
:1039BC00E368D31AB3F5000F65DB03F17F43E260D4
:1039CC00A2681A446B8BA260012B62D16420FDF7B4
:1039DC0069FB0DF102016846FEF7BEFCBDF8006004
:1039EC003046FEF783FCBDF8027005463846FEF7FC
:1039FC009BFC0543ADB215B1236D013323656420E7
:103A0C00FDF750FB0DF1060101A8FEF733FDBDF9E2
:103A1C0004502369BDF906102B442361B4F914300A
:103A2C00AB42B4F91630C8BFA582AB42A369B8BF8C
:103A3C00E5820B44A361B4F91C308B42B4F91E30FF
:103A4C00C8BFA1838B42B4F84C30B8BFE1830133BB
:103A5C00A4F84C30FFF7F6FB20B13B463246284623
:103A6C00FFF76AFE236DB3F5806F09D8636803F125
:103A7C002053B3F1A04F40F28C8043F239032365FD
:103A8C00012003B0F0BD13F5000FB8BF03F1807334
:103A9C0095E7022B3FD16420FDF704FB01A90DF142
:103AAC000200FEF7F5FA0546BDF802600DF10601BD
:103ABC003046FEF779FA15B9236D01332365BDF84D
:103ACC000450236AA26A2B442362B4F924309D4229
:103ADC00B4F92630B8BFA5849D42BDF80630C8BFE6
:103AEC00E5841A44A262B4F92C209342B4F92E2036
:103AFC00B8BFA3859342C8BFE385B4F84C300133FB
:103B0C00A4F84C30FFF79EFB0028ABD0314628467A
:103B1C00FFF760FEA6E7042B20D16420FDF7C2FA64
:103B2C000DF1060101A8FEF7C3F9238EBDF8045070
:103B3C00BDF80610AB42638E38BF25868B42B4F8B5
:103B4C004C3038BF61860133A4F84C30FFF77AFB58
:103B5C00002887D02846FFF789FE83E7053B012B19
:103B6C0013D8154B9D88D988B4F84C300133A4F880
:103B7C004C30FFF767FB00283FF474AF0AB2002308
:103B8C00114628B2FFF7BCFE6CE7236D01332365A9
:103B9C0068E76FF07E42A36803F1FF1303F57F43E0
:103BAC00934202D3FFF7BAFD6AE7002069E700BF32
:103BBC00A4220020242200202401002038B5854BAB
:103BCC00854C5B8B012B3DD18448FDF7CBFA002251
:103BDC000821834BB4F91400FFF71EFB00220821C7
:103BEC007F4BB4F91600FFF717FB2569B4F94C00AD
:103BFC00002208217A4B95FBF0F0FFF70DFB79487A
:103C0C00FDF7B0FA46F2A810FDF74CFA7648FDF72E
:103C1C00A9FA00220821724BB4F91C00FFF7FCFA38
:103C2C00B4F91E00002208216D4BFFF7F5FAB4F928
:103C3C004C00A5690022082195FBF0F0684BFFF7BA
:103C4C00EBFA55E0022B36D16848FDF78BFA0022CF
:103C5C000821634BB4F92400FFF7DEFA0022082197
:103C6C005F4BB4F92600FFF7D7FA256AB4F94C007C
:103C7C00002208215A4B95FBF0F0FFF7CDFA59487A
:103C8C00FDF770FA46F2A810FDF70CFA5848FDF74C
:103C9C0069FA00220821524BB4F92C00FFF7BCFA48
:103CAC00B4F92E00002208214D4BFFF7B5FAB4F9F8
:103CBC004C00A56ABEE7042B2FD14E48FDF752FAF3
:103CCC0000220821464BB4F93000FFF78DFA454825
:103CDC00FDF748FA46F2A810FDF7E4F94648FDF75F
:103CEC0041FA002208213E4BB4F93000FFF77CFA70
:103CFC003C48FDF737FA46F2A810FDF7D3F93F48D8
:103D0C00FDF730FA206D364B00220821FFF784FABC
:103D1C00BDE838403348FDF725BA053B012BEED8FA
:103D2C003748FDF71FFA002208212D4BB4F9380053
:103D3C00FFF772FA00220821294BB4F93A00FFF779
:103D4C006BFA656BB4F94C0000220821244B95FBEF
:103D5C00F0F0FFF761FA2348FDF704FA46F2A810D9
:103D6C00FDF7A0F92748FDF7FDF9002208211C4BAF
:103D7C00B4F94000FFF750FA00220821184BB4F9AF
:103D8C004200FFF749FAE56BB4F94C000022082118
:103D9C00134B95FBF0F0FFF73FFA1248FDF7E2F9F1
:103DAC0046F2A810FDF77EF91748FDF7DBF9002263
:103DBC0008210B4BB4F94800FFF72EFAB4F94A006E
:103DCC0000220821064BFFF727FAB4F94C00656C6A
:103DDC0030E700BF24220020A4220020177F000817
:103DEC00C87F0008B07E00081F7F0008277F0008EE
:103DFC002E7F0008357F00083C7F00085B7F0008A1
:103E0C00437F00084B7F0008537F000838B5094BEF
:103E1C00094C9B684FF480402360FFF7F3FB0023B1
:103E2C00064DC4E901332846FEF738FD2B68E360E4
:103E3C0038BD00BF982200205023002024220020EF
:103E4C0010B5094C4FF48040FFF7DCFB2068FFF7FE
:103E5C00E5FB064BA1681A68636803F5000393FB46
:103E6C00F1F3138010BD00BF5023002098220020D6
:103E7C0038B5174C44F28910FFF7DEFB6368154D1B
:103E8C0003F58343093328466360FEF707FD2A6870
:103E9C00E368D31AB3F5000F11DB03F17F43E26043
:103EAC00A26813446FF07E42A36003F1FF1303F585
:103EBC007F43934209D3FFF7C3FF012038BD13F5AD
:103ECC00000FB8BF03F18073E9E70020F6E700BFED
:103EDC00502300202422002070B50D46FFF792FBE2
:103EEC000323114C114E25600025E380104B304606
:103EFC009B68E560A360FEF7D1FC33680022236168
:103F0C004FF6FF73A3800023C4E90F55C4E90623C1
:103F1C00C4E90823C4E90A23C4E90C23C4E91255F3
:103F2C00A563656470BD00BF00230020242200201F
:103F3C009822002008B54FF48040FFF763FB054B37
:103F4C00996B5B6C1944044B49101868BDE8084028
:103F5C00FEF7F6BC0023002098220020214810B563
:103F6C0000220A21204B0068FFF756F908211F4C4C
:103F7C000022E0681C4B0841FFF74EF9082120692C
:103F8C00194B08410022FFF747F9D4E90303C01A83
:103F9C00B0F5000F1FDB00F17F4008210022084123
:103FAC00114BFFF739F9B4F90400002208210E4B2C
:103FBC00FFF71AF90022082110460B4BFFF714F9F2
:103FCC00002208211046084BFFF70EF9BDE81040FF
:103FDC000748FDF7C7B810F5000FB8BF00F18070A7
:103FEC00DBE700BF60230020C87F0008002300200F
:103FFC00B07E000838B5114DA868E8B1104B1B68AD
:10400C00B3F900402B685C43002CB8BF6442002815
:10401C0006DDA042B4BF0020001BA860FFF7FEFA2B
:10402C00A868002807DA63429842CCBF0020001928
:10403C00A860FFF7F3FA012038BD00BF0023002071
:10404C00982200202DE9F041FFF7D4FF064618B165
:10405C0000263046BDE8F081544C2268E368002A03
:10406C001344E3602ADDB3F1807F0CDBA388E060AE
:10407C00591CB4F9060009B28842A18003DC5242F3
:10408C0022600233A3804A4BE0681B68494DB3F9A8
:10409C0000305843FFF7C2FA2846FEF7FFFBD4F86E
:1040AC0000802B68B8F1000F23610FDAB4F90420FB
:1040BC00002A0BDAFFF73EFF0126CAE7002BE2DAF3
:1040CC0003F18073E360A388013BDBE7B4F9047070
:1040DC00002F03DBB4F90620BA420ADC00220023CD
:1040EC00C4E90623C4E90823C4E90A23C4E90C2360
:1040FC00AFE7E568ED1AB5F5000F36DB05F17F4546
:10410C00D4E90601281841EBE571D4E90A23013200
:10411C0043F10003C4E90601C4E90A23FCF712FBCE
:10412C00B8F1000F27DDA063BFB1D4E90C232F1A1F
:10413C0048BF471BD4E90801381841EBE77101323D
:10414C0043F10003C4E90C23C4E90801FCF7FAFAB3
:10415C00236CE0639F4200DD2764FFF773F80028AF
:10416C003FF476AFFFF7FAFE73E715F5000FB8BF13
:10417C0005F18075C4E72F1A48BF471B6064D4E96A
:10418C000801381841EBE771D4E90C23013243F1F3
:10419C000003C4E90C23C4E90801FCF7D3FAE36C6F
:1041AC00A0649F42C8BFE764D7E700BF002300208C
:1041BC009822002024220020F8B53B48FCF7D2FFBF
:1041CC004FF47A72394C3A4D23680A2102FB03F002
:1041DC0000135043374B03220013FFF71DF83648EA
:1041EC00FCF7C0FF2B46A06B00220A21FFF714F846
:1041FC00324E2B46E06B00220A21FFF70DF82B46BE
:10420C0000220A21206CFFF707F83046FCF7AAFFC2
:10421C0046F2A810FCF746FF2948FCF7A3FF2B46F3
:10422C00606C00220A21FEF7F7FF2B46A06C0022DF
:10423C000A21FEF7F1FF2B4600220A21E06CFEF763
:10424C00EBFF3046FCF78EFF46F2A810FCF72AFF76
:10425C001C48FCF787FF636CA06B002218440A21F2
:10426C002B464010FEF7D8FFA76B606C2B46002244
:10427C000A21381AFEF7D0FF3046FCF773FF46F2DE
:10428C00A810FCF70FFF1048FCF76CFF0F4B002237
:10429C0018680A212B464068FEF7BEFF3046BDE881
:1042AC00F840FCF75FBF00BF657F000800230020CB
:1042BC00C87F00086E7F0008737F0008B07E00087E
:1042CC007E7F0008897F0008107F0008982200205C
:1042DC00002805DD3228A8BF3220024B58607047F9
:1042EC001920FAE7F823002070B51F4CD4E90056CA
:1042FC003046FBF7E7FF4FF08F41FCF737F8FCF740
:10430C00FBF900231A46C5E901332860C4E90233DE
:10431C00164923610133B3F5007F4A6041F8082B3D
:10432C00F8D113490025C4E90513124B1248B3F90F
:10433C000430A283E383002BB8BF7F3323F07F03C9
:10434C0023844FF6FF73C4E90A556384C4E90C5502
:10435C00A584FCF707FF2A463046BDE870400421CF
:10436C00064BFEF759BF00BFF8230020A011002018
:10437C008000010024220020947F0008B07E0008F9
:10438C0038B51A481A4C1B4D234600220A210068E6
:10439C00FEF742FF2346A86A00220821FEF73CFFE5
:1043AC002346286B00220821FEF736FF2346E86AD5
:1043BC0000220821FEF730FF2346686B00220821FB
:1043CC00FEF72AFF2346B5F9220000220821FEF74A
:1043DC0023FFB5F92400234600220821FEF71CFF19
:1043EC00BDE838400448FCF7BDBE00BF6023002088
:1043FC00C87F0008F8230020B07E00082DE9F041AA
:10440C00994C658B012D65D0022D03D0002D45D024
:10441C0001255CE00022B4F91810B4F91660934839
:10442C0093B28B4202F10102C0F2DC8000231F46E2
:10443C001846DFF838C2A3609AB2914200F3DF80CD
:10444C0007B1A06000239E461E461D46A268DFF8F9
:10445C001C8202EBD2725210A260E36098B28142CD
:10446C0000F3DC80BEF1000F00D0E6600023E068B2
:10447C009E4690FBF5F01E461D46DFF8F081E0608D
:10448C0023619AB2914200F3DC80BEF1000F00D0A0
:10449C002661236993FBF5F32361B9E7B4F9206036
:1044AC0016B90123638312E0714F2036384636B2B9
:1044BC002684FEF7F3F920683146B7F90420FFF79C
:1044CC004DF86C4BC1683A681868FEF78FFA2846AD
:1044DC00BDE8F081A58B002D6FD0013DADB2632DF1
:1044EC002168634EA58354D8236BB6F90420C968A0
:1044FC001A44E36A22630B44616BE362013161632A
:10450C00002D46D192FBF1F293FBF1F32263B4F947
:10451C002220B4F91400002AB4F92410E36216DB4B
:10452C00B4F91670974212DD504A0028D5BF02EB41
:10453C00C10252F831005168C018D6BFC91842F8F0
:10454C0031005160FEF77EFE08B1FFF719FF238C96
:10455C00B4F91410A28A002913442384A38C2EDDF1
:10456C00B4F9181001331BB29942A3840DDC00235B
:10457C00A384638CB4F91600591C09B28842618477
:10458C0003DC52420233A28263840023C4E90B335E
:10459C006363B4F920503648A562FEF77FF92946CB
:1045AC002068B6F90420FEF7D9FF324BC168326897
:1045BC001868FEF71BFA002589E7C7258FE7013B32
:1045CC001BB2002BA384E0DA238B013BA384638C06
:1045DC00013B1BB2002B6384D7DA638B5242A2825D
:1045EC0001335FE750F8335095FBF6F540F8335044
:1045FC0000EBC3035D6895FBF6F55D6010E75CF8B6
:10460C0032500CEBC20256680133AA1B48BF721B16
:10461C008242D4BF0246012710460DE758F830708D
:10462C0008EBC000D0F804C00133B7EB0C0048BF56
:10463C00ACEB07008242C2BF4FF0010E36180135B9
:10464C000CE758F8327008EBC202D2F804C0013300
:10465C00B7EB0C0248BFACEB07029042BEBF4FF069
:10466C00010EB61801350CE7F8230020A01100202C
:10467C00242200209822002038B5104D104C1148EF
:10468C00FCF770FD2B46A06800220821FEF7C4FD44
:10469C002B46E06800220821FEF7BEFD20690A4C7B
:1046AC002B4600220821FEF7B7FD2046FCF75AFDE9
:1046BC002046BDE83840FCF755BD00BFC87F000858
:1046CC00F82300209C7F0008B07E00082DE9F843F9
:1046DC000026DFF8B8802E4C2E4FB8F91830B5B242
:1046EC009D4204DBBDE8F8432B48FCF73BBD30B2E0
:1046FC00234600220821FEF777FDB8F91400684321
:10470C00B0F5004F3BDBA0F580302346002208219A
:10471C00FEF782FD07EBC50957F83500234600224A
:10472C000821FEF779FD234600220821D9F8040060
:10473C00FEF772FD57F83500D9F804300022184402
:10474C0000EBD070234608214010FEF765FD57F8AA
:10475C003550D9F80400234600220821281AFEF708
:10476C005BFD0022234610460821FEF755FD0A4842
:10477C00FCF7F8FC0948FCF795FC0136ADE710F5A1
:10478C00004FB8BF00F58030BFE700BFF823002012
:10479C00C87F0008A0110020B07E0008A086010090
:1047AC0000224FF48041114B4FF40040C3E900212B
:1047BC004FF44041C3E902014FF480311961A1F576
:1047CC00A0315961A1F580419961A1F58041D96170
:1047DC00A1F58041C3E91122C3E91322C3E91522D3
:1047EC00C3E917221962C3F8882070476C23002094
:1047FC0038B51C481C4C1D4D234600220A2100686C
:10480C00FEF70AFD2346B5F9040000220821FEF745
:10481C0003FD2346B5F9120000220821FEF7FCFC2B
:10482C00134B0222586C42F2107358430821234652
:10483C000014FEF7F1FC0022234610460821FEF777
:10484C00EBFC0022234610460821FEF7E5FC002273
:10485C00234610460821FEF7DFFCBDE8384005482A
:10486C00FCF780BC60230020C87F000824220020B5
:10487C006C230020B07E0008F8B5334C012023884F
:10488C000F2B4FEA530527D84AF6AA2200FA03F356
:10489C0013422BD145F2555213421DD004EB850324
:1048AC002A4F5E6838466664FDF7F8FF284B3A6875
:1048BC0018683146FEF79AF8FEF7C4FC08B1FFF70A
:1048CC0097FF608818B940F2F313638003E0013856
:1048DC0080B2608008B10020F8BD23881235013306
:1048EC00238044F82500C4F88800F5E7174E3046BD
:1048FC00FDF7D4FF164B32681868616CFEF776F83A
:10490C00FEF7A0FC08B1FFF773FF123554F8252011
:10491C00B6F9123060881344D4F8882044F8253056
:10492C000132C4F8882010B940F2CF73CDE70138BA
:10493C0080B260800028CED1B3FBF2F3218844F81A
:10494C00253001312180C7E76C2300202422002070
:10495C00982200202DE9F84F42F21078DFF8F8B1D8
:10496C007E4CDFF8FC915846FCF7FCFB4B46A06CE8
:10497C0000220821FEF750FC4B46E06C0022082177
:10498C00FEF74AFCDFF8DCA14B46206D0022082123
:10499C00FEF742FC4B4600220821606DFEF73CFC02
:1049AC005046FCF7DFFB46F2A810FCF77BFB6E4889
:1049BC00FCF7D8FBA06C4EF6602608FB00F06B4FA2
:1049CC0001223B4608210014FEF726FCE06C3B4616
:1049DC0008FB00F0012208210014FEF71DFC206DDD
:1049EC003B4608FB00F0012208210014FEF714FCE2
:1049FC00606D3B4608FB00F0012208210014FEF715
:104A0C000BFC5046FCF7AEFB46F2A810FCF74AFB39
:104A1C005748FCF7A7FBA06C564D70432B46002261
:104A2C0008210014FEF7F8FBE06C2B4670430022C3
:104A3C0008210014FEF7F0FB206D2B46704300227A
:104A4C0008210014FEF7E8FB606D2B467043002232
:104A5C0008210014FEF7E0FB5046FCF783FB46F2FE
:104A6C00A810FCF71FFB5846FCF77CFB4B46A06DCF
:104A7C0000220A21FEF7D0FB4B46E06D00220A21F2
:104A8C00FEF7CAFB4B46206E00220A21FEF7C4FB40
:104A9C004B4600220A21606EFEF7BEFB5046FCF727
:104AAC0061FB46F2A810FCF7FDFA2F48FCF75AFB05
:104ABC00A06D3B4608FB00F0012208210014FEF714
:104ACC00ABFBE06D3B4608FB00F001220821001413
:104ADC00FEF7A2FB206E3B4608FB00F001220821EA
:104AEC000014FEF799FB606E3B4608FB00F00122B8
:104AFC0008210014FEF790FB5046FCF733FB46F2FE
:104B0C00A810FCF7CFFA1A48FCF72CFBA06D2B462B
:104B1C007043002208210014FEF77EFBE06D2B464B
:104B2C007043002208210014FEF776FB206E2B4602
:104B3C007043002208210014FEF76EFB606E2B46BA
:104B4C007043002200140821FEF766FB5046BDE8B6
:104B5C00F84FFCF707BB00BFA47F00086C230020B4
:104B6C00C87F0008B07E0008AE7F0008B67F000842
:104B7C00BD7F0008C47F000870B50120FCF7B8FFAA
:104B8C000020FEF73FFD1348FCF7ECFA0024FCF77D
:104B9C0079FF4FF08F45104E2046FBF793FB3146C3
:104BAC00FBF7E4FB2946FBF7E1FBFBF7A5FDFEF762
:104BBC0029FD013444F62060FCF774FA652CEBD126
:104BCC004FF48040FEF71EFDBDE870400348FCF733
:104BDC00C9BA00BFCC7F00080AD7233CE17F00088C
:104BEC00274810B5274C00220A21274B0068FEF7F6
:104BFC0013FB00220821244BB4F90400FEF7F4FA4D
:104C0C0000220821204BB4F91200FEF7EDFA1E4BDE
:104C1C0000220821B4F91400FEF7E6FA638B053B79
:104C2C009BB2012B1AD8194C00220821164BB4F94F
:104C3C000400FEF7D9FA00220821134BB4F9060040
:104C4C00FEF7D2FA002208210F4BB4F90800FEF748
:104C5C00CBFABDE810400E48FCF784BA00220821BC
:104C6C001046094BFEF7C0FA002208211046064BED
:104C7C00FEF7BAFA002208211046034BE7E700BF03
:104C8C006023002024220020C87F0008240100207B
:104C9C00B07E000838B5144D2C88012C0CD0022C99
:104CAC001ED0FCB92046FCF723FFFCF7EBFE2B884B
:104CBC0001332B80204638BDFEF7C4FA20B10B48D7
:104CCC00FDF7ECFDFFF78CFFFBF74EFF04460028C9
:104CDC00F0D0FCF759FA2B88002401332B80E9E73C
:104CEC00FFF74AFF0124E5E7FC22002024220020E4
:104CFC004FF48032074B08481A60084A084912885A
:104D0C00052A084A08BF1146074A08BF0246C3E9EC
:104D1C00012170474C2200201100E0FFC02100202F
:104D2C0094AA2A00EFFF1F006C55D5FF08B5FBF7BE
:104D3C00C9FA0649FBF71AFB4FF08F41FBF716FB3C
:104D4C00FBF7DAFC024B186008BD00BF0AD7233C06
:104D5C004C2200204BF20B635843024B98604042AC
:104D6C00586070474C22002070B51F4C02281F4E13
:104D7C00A0812DD111B93368B3F90010A2681C4B76
:104D8C001C4D9A42D8BF01336268D8BFA3601A4B3E
:104D9C0028469A42A8BF03F1FF33E181A8BF6360A4
:104DAC00FDF77CFD2068FEF72DFC2A68B368012115
:104DBC00E36122620023E2624FF48032C4E90933DA
:104DCC00C4E90412C4E910332383A4F8483070BD3D
:104DDC00012807D1002908BF01210029B8BF494289
:104DEC0009B2CBE70021C9E74C2200209822002011
:104DFC00DB380E002422002025C7F1FF10B50E4C25
:104E0C00E069FEF70BFC4FF48040FEF7FBFBA38937
:104E1C000A4A022B06D0B4F84800236C116893FBA5
:104E2C00F0F30B80B4F84830616C106891FBF3F12F
:104E3C00BDE81040FDF784BD4C22002098220020D4
:104E4C002DE9F047554C2369002B71DD42F2C4006B
:104E5C00FEF7F2FB656A05F503550435504E6562A5
:104E6C003046FDF71BFD3268E36AD31AB3F5000F29
:104E7C0066DB03F17F43A16AA7680B44C4E90A32DD
:104E8C00A7F5E322A2F26E42934205DB226A1A4492
:104E9C002263E2692A446263D4F804C00CF5E3226D
:104EAC0002F26E42934205DC226A1A44A263E26962
:104EBC002A44E263A28A208B0AB301281DD9A68951
:104ECC00616B022ED4F83C90D4F830E0D4F83880E2
:104EDC003CD1B4F90E204944C64402FB1E11266C89
:104EEC001644520091FBF2F1626C26641144B4F842
:104EFC00482061640132A4F848200022A28229498A
:104F0C0003F5633202F237228A4232D80122E2825E
:104F1C00BB4201DA63452FDC23690130002BCCBF87
:104F2C004FF0FF330123236101232083636123E0CE
:104F3C001D48FEF781FB656AA5F50355043D8DE719
:104F4C0013F5000FB8BF03F1807394E7A1EB0902CE
:104F5C00AEEB080A012E92FBFAF2BCD1B4F90E604A
:104F6C00002EB8BF7642B6B2002AACBF32467242AF
:104F7C00B1E7E28A002ACBD1238B062B0BD944F262
:104F8C00881305F5035504359D4204D8FFF736FF09
:104F9C000120BDE8F0870020FBE700BF4C22002079
:104FAC00242200206E1C07003CDFFFFF421E92B241
:104FBC00102A08B51FD80123934040F25512134212
:104FCC000AD113F4AA3F16D001230E4A01301080E7
:104FDC0053800D4A938008BD0C4B5B8B5A1E012AE3
:104FEC00F2D9043B022BEFD90948FCF7BBF8BDE81A
:104FFC000840FEF771B90022024B1A60BDE8084068
:10500C00FEF73AB950110020602300202422002022
:10501C00E67F000838B56A4CA088002800F0CE80E6
:10502C00684D2B889A1E102A00F29980DFE802F056
:10503C00099723973897519776978A97A097A097B7
:10504C00A000012804D1FEF739FBFEF70DF986E02C
:10505C00FEF79EFC002800F08280E38833B14CF20E
:10506C005030FCF71FF85848FCF77CF8FEF7A6FD0B
:10507C00FEF740F973E0012802D1FEF7C7FEE4E722
:10508C00FEF7F6FE00286AD0E38833B14CF25030BC
:10509C00FCF708F84C48FCF765F8FEF7DBFAE7E795
:1050AC00012806D140F28D614FF48030FEF714FFD9
:1050BC00CBE7FEF7C7FF002851D0E38833B14CF2A1
:1050CC005030FBF7EFFF4048FCF74CF8FFF774F853
:1050DC00CEE7012802D1FFF707F9B6E7FFF78EF903
:1050EC0000283CD0E38833B14CF25030FBF7DAFFA8
:1050FC003548FCF737F8FFF7BFFAFFF7E7FA334A02
:10510C00334B51681B684FF480400B44B2F90010CC
:10511C005943FDF72BFCFCF709FCA9E7012802D148
:10512C00FFF73EFB91E7FFF7A7FBC0B1E38833B174
:10513C004CF25030FBF7B6FF2348FCF713F8FFF79F
:10514C0009FCDCE7012806D164230022E380214B13
:10515C0020811A8079E7FFF79DFD002888D1FBF7A5
:10516C0003FD58B3FCF710F8BDE83840FEF7C2B8A1
:10517C0001280ED1122B04D100210220FFF7F4FDDF
:10518C0063E7102B15BF0021134B0846B3F9001031
:10519C00F4E7FFF755FE0028E1D0E38833B14CF279
:1051AC005030FBF77FFF0848FBF7DCFF2B88122BF6
:1051BC0001D0FEF74FFAFEF767FA59E738BD00BF8A
:1051CC006023002050110020B07E000840220020F7
:1051DC0024220020FC2200209C1100202DE9F04705
:1051EC002B4B8CB05B8B012B05D02A480CB0BDE847
:1051FC00F047FBF7B7BF0024274E284FDFF8A080FD
:10520C00DFF8A090A5B228460DF10601FCF7B8FF17
:10521C0002A9E0B2FBF724FD0846FBF7A3FF3846D2
:10522C00FBF7A0FFBDF806A002A95046FBF728FD2E
:10523C0002A8FBF797FF4046FBF794FF083D56F892
:10524C00040BFBF78FFF072D07D80CAB03EB4403C4
:10525C00484623F828ACFBF785FF0F2C02D11248E7
:10526C00FBF780FF11480134FBF77CFF122CC9D1EE
:10527C0006A8FDF7C7F902A9FBF702FD02A8FBF788
:10528C0071FF0A48FBF76EFF0CB0BDE8F08700BF5A
:10529C00242200202380000800000020747E0008D7
:1052AC00F77E00084A80000854800008B07E000891
:1052BC002DE9F04FDFF88CB185B0FDF7C3FB6248E8
:1052CC00FBF750FF614B1888052800F0AF800628CB
:1052DC0000F0AE80042840F0AD805D48FBF742FF43
:1052EC005C48FBF73FFF5C48FBF73CFF5948FBF77A
:1052FC0039FF4FF00009594DDFF864A100225046E8
:10530C006989FDF731FA20B96B8913B15548FBF760
:10531C0029FF5046FDF76CFAFCF72EFC0120FCF738
:10532C00E7FBDFF844810020FCF7F8FBFCF7AAFB55
:10533C00AB884046D5F80610A8F80030C8F80490A1
:10534C00FDF7FEFA4948FBF70DFF00242046FAF75B
:10535C00B9FF5946FBF70AF84FF08F41FBF706F8F7
:10536C00FBF7CAF90021FDF701FBFCF7DFFA202C53
:10537C0094BF44F6206041F288300134FBF792FE72
:10538C00652CE3D13A483B4CFBF7ECFE3448FDF777
:10539C0085FABAF904102046FEF7D6F8FDF774FF2B
:1053AC00FDF79AFFFEF720F94FF4C812324B002795
:1053BC00A3F85490314B5A601C60FFF799FC3048AD
:1053CC00FBF770FE0020FEF729F94FF6FF732D4A0C
:1053DC00138002232C4A536101972C4B1B889BB2E0
:1053EC00002BFAD0294B2A4CA3F80090019B0133D7
:1053FC0001932360274B5E88002E00F09F82FFF7FD
:10540C0009FEEFB1013FBFB2002FE6D11D4BB3F93E
:10541C000030002BE1DA1C49CB681A04DB4302F4A0
:10542C00003203F0020313430B61D6E71A4855E729
:10543C001A4853E7C0B21A49FBF709FC18484DE764
:10544C003127CAE70AD7233C5E800008C021002020
:10545C0074800008B07E00088380000800010020E2
:10546C00242200208A80000840220020AD80000801
:10547C00E17F000804220020A4220020F823002051
:10548C0040420F006000002000080140A8210020CD
:10549C0060230020501100207A8000087F800008D3
:1054AC003C2400206D48FDF735FF00287FF405AF44
:1054BC006B48FDF72FFF18B1FDF7ACFFFDF70CFFA4
:1054CC006848FDF727FF20B10123E3802381FDF716
:1054DC0003FF6548FDF71EFF28B10223E38001237B
:1054EC002381FDF7F9FE6148FDF714FF28B1032372
:1054FC00E38001232381FDF7EFFE5D48FDF70AFFF2
:10550C0028B10423E38001232381FDF7E5FE5948EC
:10551C00FDF700FF28B10523E38001232381FDF76C
:10552C00DBFE5548FDF7F6FE28B10623E380012388
:10553C002381FDF7D1FE5148FDF7ECFE28B107237E
:10554C00E38001232381FDF7C7FE4D48FDF7E2FE02
:10555C0028B10823E38001232381FDF7BDFE4948D0
:10556C00FDF7D8FE28B10923E38001232381FDF741
:10557C00B3FE4548FDF7CEFE50B1FDF7A9FBAB8855
:10558C00A8F80030D5F80630C8F80430FDF7A4FEB2
:10559C003E48FDF7BFFE50B1B8F80030AB80D8F8EC
:1055AC000430C5F80630FDF789FBFDF795FE384849
:1055BC00FDF7B0FE18B1FDF745FFFDF78DFE354840
:1055CC00FDF7A8FE18B1FDF78DFBFDF785FE3248FF
:1055DC00FDF7A0FE18B104236B80FDF77DFE2F486C
:1055EC00FDF798FE18B105236B80FDF775FE2C486E
:1055FC00FDF790FE18B106236B80FDF76DFE294870
:10560C00FDF788FE18B1A5F80290FDF765FE264857
:10561C00FDF780FE10B101266E816FE62348FDF781
:10562C0079FE08B10226F7E72148FDF773FE08B1B1
:10563C000426F1E71F48FDF76DFE08B10326EBE7E2
:10564C001D48FDF767FE08B10626E5E71B48FDF788
:10565C0061FE0646A0B30526DEE700BFC680000843
:10566C00CE800008DA800008E2800008EA8000089A
:10567C00F2800008FA800008028100080A81000804
:10568C00128100081A810008228100082B81000871
:10569C00318100083A810008438100084E810008DE
:1056AC005881000861810008678100087881000832
:1056BC008881000896810008A6810008B98100083D
:1056CC00AB48FDF727FE0028A6D1AA48FDF722FE1D
:1056DC000028A0D1A848FDF71DFE0028A2D1A7489C
:1056EC00FDF718FE0028A3D1A548FDF713FE0028EE
:1056FC00A4D1A448FDF70EFE0028A5D1A248FDF7C1
:10570C0009FE0028A7D1A148FDF704FE002883D18B
:10571C009F480DF10E01FDF719FE38B1BDF90E30A1
:10572C00002BB8BF5B42AB81FDF7D6FD9948FDF766
:10573C00F1FD18B1A5F80C90FDF7CEFD9648FDF7DC
:10574C00E9FD28B1FDF786FFFDF79EFFFDF7C4FDCF
:10575C009248FDF7DFFD20B10722914B1A80FDF72F
:10576C00BBFD9048FDF7D6FD20B18D4BC3F80490DE
:10577C00FDF7B2FD8A498C48FDF7E8FD08B1FDF74D
:10578C00ABFD8A498A48FDF713FE08B1FDF7A4FD6D
:10579C008848FDF7BFFD10B10120FFF707FC8648D4
:1057AC00FDF7B8FD10B10320FFF700FC8348FDF7AF
:1057BC00B1FD10B10520FFF7F9FB8148FDF7AAFDFB
:1057CC0010B10B20FFF7F2FB7E480DF10E01FDF737
:1057DC00BDFD30B1BDF90E00FEF77AFD0720FFF7D5
:1057EC00E5FB7948FDF796FD18B1FEF745FFFDF78F
:1057FC0073FD7648FDF78EFD10B10920FFF7D6FB3F
:10580C007348FDF787FD18B1FFF7A4F8FDF764FDA9
:10581C0070480DF10E01FDF799FD40B16423BDF9FF
:10582C000E0058430002FDF7F9FEFDF755FD6A48DE
:10583C000DF10E01FDF78AFD40B16423BDF90E0098
:10584C0058430002FDF7F8FEFDF746FD63480DF1E5
:10585C000E01FDF77BFDB8B1BDF90E30182B61DCE4
:10586C001923ADF80E30BDF90E00FAF72BFD594691
:10587C00FAF77CFD4FF08F41FAF778FDFAF73CFF11
:10588C00FDF7C0FEFDF728FD5548FDF743FD10B1AF
:10589C000D20FFF78BFB53480DF10E01FDF756FD64
:1058AC0030B1BDF90E20504B0F201A60FFF77EFB74
:1058BC004E48FDF72FFD10B11120FFF777FB4C4838
:1058CC000DF10E01FDF742FD70B1BDF90E3013F173
:1058DC00B40F2BDA4FF64C73ADF80E30BDF90E0049
:1058EC00FFF738FAFDF7F8FC42480DF10E01FDF711
:1058FC002DFD60B1BDF90E30182B1BDC1923ADF852
:10590C000E30BDF90E00FFF711FAFDF7E5FC3A4831
:10591C00FDF700FD00283FF46DADFFF75FFCFDF7D0
:10592C00DBFC67E5642B9EDD64239AE7B42BD5DDA5
:10593C00B423D1E7642BE4DD6423E0E7FBF714F92F
:10594C0000283FF45CADFDF7A7FCFDF7B5FC002883
:10595C003FF450AD2948FDF7DDFC00283FF4A2AD23
:10596C000122274B1E80274B1A8005B0BDE8F08F13
:10597C00CB810008D4810008E3810008F181000884
:10598C00FD8100080B8200081C8200082C82000894
:10599C00338200083C820008458200084C820008D3
:1059AC004022002052820008598200084422002024
:1059BC005F820008668200084E820008548200084C
:1059CC006D82000873820008768200087C820008D1
:1059DC007F820008888200088F8200089682000867
:1059EC009F820008A78200089C110020B08200084A
:1059FC00B6820008C1820008CB820008C380000870
:105A0C00481100204611002010F0800F38B5704C62
:105A1C0008D00022D02822800CD16E4B1A80012293
:105A2C006D4B0DE02388052B0BD8DFE803F00A4EF5
:105A3C0071829CB8902805D1664B1A800422664B63
:105A4C001A8038BD00F00F03032B00F0700008D152
:105A5C00FF256249402808704B708D7013D0502878
:105A6C00DBD05F4A11888B4224D1FF255B4A30285A
:105A7C0010705370957014D00ED8C0B11028E0D1AE
:105A8C000022544BD9E7012323800B23E280A3800F
:105A9C00544B5B6A6380D4E750280BD100224D4BEA
:105AAC00BCE700224B4B1A8005224B4BC8E7022364
:105ABC002380EDE77028C4D1484A99425370C0D175
:105ACC00042323800023E380E2E7E388464AD05492
